{
  "contractName": "Main",
  "abi": [
    {
      "constant": true,
      "inputs": [],
      "name": "test",
      "outputs": [
        {
          "name": "",
          "type": "uint256"
        }
      ],
      "payable": false,
      "stateMutability": "view",
      "type": "function"
    },
    {
      "inputs": [],
      "payable": false,
      "stateMutability": "nonpayable",
      "type": "constructor"
    },
    {
      "constant": true,
      "inputs": [
        {
          "name": "userId",
          "type": "uint256"
        }
      ],
      "name": "getUserDenoteCount",
      "outputs": [
        {
          "name": "",
          "type": "uint256"
        }
      ],
      "payable": false,
      "stateMutability": "view",
      "type": "function"
    },
    {
      "constant": true,
      "inputs": [
        {
          "name": "projectId",
          "type": "uint256"
        }
      ],
      "name": "getProjectDenoteCount",
      "outputs": [
        {
          "name": "",
          "type": "uint256"
        }
      ],
      "payable": false,
      "stateMutability": "view",
      "type": "function"
    },
    {
      "constant": true,
      "inputs": [
        {
          "name": "endorseId",
          "type": "uint256"
        }
      ],
      "name": "getEndorseItemRecord",
      "outputs": [
        {
          "name": "",
          "type": "uint256"
        }
      ],
      "payable": false,
      "stateMutability": "view",
      "type": "function"
    },
    {
      "constant": true,
      "inputs": [
        {
          "name": "schoolId",
          "type": "uint256"
        }
      ],
      "name": "getSchoolProjectCount",
      "outputs": [
        {
          "name": "",
          "type": "uint256"
        }
      ],
      "payable": false,
      "stateMutability": "view",
      "type": "function"
    },
    {
      "constant": true,
      "inputs": [
        {
          "name": "projectId",
          "type": "uint256"
        }
      ],
      "name": "projectEnodrsorListCount",
      "outputs": [
        {
          "name": "",
          "type": "uint256"
        }
      ],
      "payable": false,
      "stateMutability": "view",
      "type": "function"
    },
    {
      "constant": true,
      "inputs": [
        {
          "name": "schoolId",
          "type": "uint256"
        }
      ],
      "name": "getProvinceToEndorsorCount",
      "outputs": [
        {
          "name": "",
          "type": "uint256"
        }
      ],
      "payable": false,
      "stateMutability": "view",
      "type": "function"
    },
    {
      "constant": false,
      "inputs": [
        {
          "name": "_userName",
          "type": "string"
        },
        {
          "name": "_userPhone",
          "type": "string"
        },
        {
          "name": "_userPassword",
          "type": "string"
        }
      ],
      "name": "createUser",
      "outputs": [],
      "payable": false,
      "stateMutability": "nonpayable",
      "type": "function"
    },
    {
      "constant": true,
      "inputs": [],
      "name": "getBytes32",
      "outputs": [
        {
          "name": "",
          "type": "string"
        }
      ],
      "payable": false,
      "stateMutability": "view",
      "type": "function"
    },
    {
      "constant": true,
      "inputs": [],
      "name": "userCount",
      "outputs": [
        {
          "name": "",
          "type": "uint256"
        }
      ],
      "payable": false,
      "stateMutability": "view",
      "type": "function"
    },
    {
      "constant": true,
      "inputs": [
        {
          "name": "_userPhone",
          "type": "string"
        }
      ],
      "name": "checkUserByPhone",
      "outputs": [
        {
          "name": "",
          "type": "bool"
        }
      ],
      "payable": false,
      "stateMutability": "view",
      "type": "function"
    },
    {
      "constant": true,
      "inputs": [
        {
          "name": "_userPhone",
          "type": "string"
        }
      ],
      "name": "getUserIdByPhone",
      "outputs": [
        {
          "name": "",
          "type": "uint256"
        }
      ],
      "payable": false,
      "stateMutability": "view",
      "type": "function"
    },
    {
      "constant": true,
      "inputs": [
        {
          "name": "_userId",
          "type": "uint256"
        }
      ],
      "name": "getUserByUserId",
      "outputs": [
        {
          "name": "",
          "type": "uint256"
        },
        {
          "name": "",
          "type": "string"
        },
        {
          "name": "",
          "type": "string"
        }
      ],
      "payable": false,
      "stateMutability": "view",
      "type": "function"
    },
    {
      "constant": true,
      "inputs": [
        {
          "name": "_userAccount",
          "type": "string"
        },
        {
          "name": "_userPassword",
          "type": "string"
        }
      ],
      "name": "login",
      "outputs": [
        {
          "name": "",
          "type": "uint256"
        },
        {
          "name": "",
          "type": "uint256"
        }
      ],
      "payable": false,
      "stateMutability": "view",
      "type": "function"
    },
    {
      "constant": false,
      "inputs": [
        {
          "name": "_userId",
          "type": "uint256"
        },
        {
          "name": "_projectId",
          "type": "uint256"
        },
        {
          "name": "_denoteMoney",
          "type": "uint256"
        }
      ],
      "name": "userDenote",
      "outputs": [
        {
          "name": "",
          "type": "uint256"
        }
      ],
      "payable": false,
      "stateMutability": "nonpayable",
      "type": "function"
    },
    {
      "constant": true,
      "inputs": [],
      "name": "denoteCount",
      "outputs": [
        {
          "name": "",
          "type": "uint256"
        }
      ],
      "payable": false,
      "stateMutability": "view",
      "type": "function"
    },
    {
      "constant": true,
      "inputs": [
        {
          "name": "_userId",
          "type": "uint256"
        },
        {
          "name": "_userDenoteId",
          "type": "uint256"
        }
      ],
      "name": "getDenoteByUserId",
      "outputs": [
        {
          "name": "",
          "type": "uint256"
        },
        {
          "name": "",
          "type": "uint256"
        },
        {
          "name": "",
          "type": "uint256"
        },
        {
          "name": "",
          "type": "uint256"
        }
      ],
      "payable": false,
      "stateMutability": "view",
      "type": "function"
    },
    {
      "constant": false,
      "inputs": [
        {
          "name": "_endorsorOrg",
          "type": "string"
        },
        {
          "name": "_endorsorProvince",
          "type": "string"
        },
        {
          "name": "_endorsorEmail",
          "type": "string"
        },
        {
          "name": "_endorsorPassword",
          "type": "string"
        }
      ],
      "name": "createEndorsor",
      "outputs": [],
      "payable": false,
      "stateMutability": "nonpayable",
      "type": "function"
    },
    {
      "constant": true,
      "inputs": [],
      "name": "endorsorCount",
      "outputs": [
        {
          "name": "",
          "type": "uint256"
        }
      ],
      "payable": false,
      "stateMutability": "view",
      "type": "function"
    },
    {
      "constant": true,
      "inputs": [
        {
          "name": "_endorsorEmail",
          "type": "string"
        }
      ],
      "name": "checkEndorsorByEmail",
      "outputs": [
        {
          "name": "",
          "type": "bool"
        }
      ],
      "payable": false,
      "stateMutability": "view",
      "type": "function"
    },
    {
      "constant": true,
      "inputs": [
        {
          "name": "_endorsorEmail",
          "type": "string"
        }
      ],
      "name": "getEndorsorIdByEmail",
      "outputs": [
        {
          "name": "",
          "type": "uint256"
        }
      ],
      "payable": false,
      "stateMutability": "view",
      "type": "function"
    },
    {
      "constant": true,
      "inputs": [
        {
          "name": "_endorsorId",
          "type": "uint256"
        }
      ],
      "name": "getEndorsorByEndorsorId",
      "outputs": [
        {
          "name": "",
          "type": "uint256"
        },
        {
          "name": "",
          "type": "string"
        },
        {
          "name": "",
          "type": "string"
        },
        {
          "name": "",
          "type": "string"
        }
      ],
      "payable": false,
      "stateMutability": "view",
      "type": "function"
    },
    {
      "constant": true,
      "inputs": [
        {
          "name": "_endorsorId",
          "type": "uint256"
        },
        {
          "name": "_endorseItemIndex",
          "type": "uint256"
        }
      ],
      "name": "getEndorseByEndorsorId",
      "outputs": [
        {
          "name": "",
          "type": "uint256"
        },
        {
          "name": "",
          "type": "uint256"
        },
        {
          "name": "",
          "type": "int256"
        }
      ],
      "payable": false,
      "stateMutability": "view",
      "type": "function"
    },
    {
      "constant": false,
      "inputs": [
        {
          "name": "_projectId",
          "type": "uint256"
        },
        {
          "name": "_endorsorId",
          "type": "uint256"
        },
        {
          "name": "_score",
          "type": "int256"
        }
      ],
      "name": "createEndorseItem",
      "outputs": [],
      "payable": false,
      "stateMutability": "nonpayable",
      "type": "function"
    },
    {
      "constant": true,
      "inputs": [
        {
          "name": "_endorsorId",
          "type": "uint256"
        }
      ],
      "name": "getEndorseItemCountOfEndorsor",
      "outputs": [
        {
          "name": "",
          "type": "uint256"
        }
      ],
      "payable": false,
      "stateMutability": "view",
      "type": "function"
    },
    {
      "constant": false,
      "inputs": [
        {
          "name": "_schoolEmail",
          "type": "string"
        },
        {
          "name": "_schoolName",
          "type": "string"
        },
        {
          "name": "_schoolPassword",
          "type": "string"
        },
        {
          "name": "_schoolProvince",
          "type": "string"
        },
        {
          "name": "_schoolAddress",
          "type": "string"
        },
        {
          "name": "_schoolGovernor",
          "type": "string"
        },
        {
          "name": "_schoolAgent",
          "type": "string"
        }
      ],
      "name": "createSchool",
      "outputs": [],
      "payable": false,
      "stateMutability": "nonpayable",
      "type": "function"
    },
    {
      "constant": true,
      "inputs": [],
      "name": "schoolCount",
      "outputs": [
        {
          "name": "",
          "type": "uint256"
        }
      ],
      "payable": false,
      "stateMutability": "view",
      "type": "function"
    },
    {
      "constant": true,
      "inputs": [
        {
          "name": "_schoolEmail",
          "type": "string"
        }
      ],
      "name": "checkSchoolByEmail",
      "outputs": [
        {
          "name": "",
          "type": "bool"
        }
      ],
      "payable": false,
      "stateMutability": "view",
      "type": "function"
    },
    {
      "constant": true,
      "inputs": [
        {
          "name": "_schoolEmail",
          "type": "string"
        }
      ],
      "name": "getSchoolIdByEmail",
      "outputs": [
        {
          "name": "",
          "type": "uint256"
        }
      ],
      "payable": false,
      "stateMutability": "view",
      "type": "function"
    },
    {
      "constant": true,
      "inputs": [
        {
          "name": "_schoolId",
          "type": "uint256"
        }
      ],
      "name": "getSchoolBySchoolId",
      "outputs": [
        {
          "name": "",
          "type": "string"
        },
        {
          "name": "",
          "type": "string"
        },
        {
          "name": "",
          "type": "string"
        },
        {
          "name": "",
          "type": "string"
        },
        {
          "name": "",
          "type": "string"
        },
        {
          "name": "",
          "type": "string"
        },
        {
          "name": "",
          "type": "bool"
        }
      ],
      "payable": false,
      "stateMutability": "view",
      "type": "function"
    },
    {
      "constant": false,
      "inputs": [
        {
          "name": "_schoolId",
          "type": "uint256"
        },
        {
          "name": "_projectName",
          "type": "string"
        },
        {
          "name": "_projectTarget",
          "type": "string"
        },
        {
          "name": "_projectTargetMoney",
          "type": "uint256"
        },
        {
          "name": "_projectFinishTime",
          "type": "uint256"
        }
      ],
      "name": "createProject",
      "outputs": [],
      "payable": false,
      "stateMutability": "nonpayable",
      "type": "function"
    },
    {
      "constant": false,
      "inputs": [
        {
          "name": "schoolId",
          "type": "uint256"
        }
      ],
      "name": "getSchoolProvince",
      "outputs": [
        {
          "name": "",
          "type": "string"
        }
      ],
      "payable": false,
      "stateMutability": "nonpayable",
      "type": "function"
    },
    {
      "constant": false,
      "inputs": [
        {
          "name": "_projectId",
          "type": "uint256"
        }
      ],
      "name": "emitEndorse",
      "outputs": [],
      "payable": false,
      "stateMutability": "nonpayable",
      "type": "function"
    },
    {
      "constant": true,
      "inputs": [],
      "name": "projectCount",
      "outputs": [
        {
          "name": "",
          "type": "uint256"
        }
      ],
      "payable": false,
      "stateMutability": "view",
      "type": "function"
    },
    {
      "constant": true,
      "inputs": [
        {
          "name": "_projectId",
          "type": "uint256"
        }
      ],
      "name": "getProjectByProjectId",
      "outputs": [
        {
          "name": "",
          "type": "uint256"
        },
        {
          "name": "",
          "type": "uint256"
        },
        {
          "name": "",
          "type": "string"
        },
        {
          "name": "",
          "type": "uint256"
        },
        {
          "name": "",
          "type": "string"
        },
        {
          "name": "",
          "type": "uint256"
        },
        {
          "name": "",
          "type": "uint256"
        },
        {
          "name": "",
          "type": "uint256"
        },
        {
          "name": "",
          "type": "bool"
        },
        {
          "name": "",
          "type": "uint256"
        },
        {
          "name": "",
          "type": "uint256"
        },
        {
          "name": "",
          "type": "uint256"
        }
      ],
      "payable": false,
      "stateMutability": "view",
      "type": "function"
    },
    {
      "constant": true,
      "inputs": [
        {
          "name": "_schoolId",
          "type": "uint256"
        }
      ],
      "name": "getSchoolProjectCounts",
      "outputs": [
        {
          "name": "",
          "type": "uint256"
        }
      ],
      "payable": false,
      "stateMutability": "view",
      "type": "function"
    },
    {
      "constant": true,
      "inputs": [
        {
          "name": "_schoolId",
          "type": "uint256"
        },
        {
          "name": "_num",
          "type": "uint256"
        }
      ],
      "name": "getSchoolProjectidByNum",
      "outputs": [
        {
          "name": "",
          "type": "uint256"
        }
      ],
      "payable": false,
      "stateMutability": "view",
      "type": "function"
    },
    {
      "constant": true,
      "inputs": [
        {
          "name": "_schoolId",
          "type": "uint256"
        },
        {
          "name": "_schoolProjectId",
          "type": "uint256"
        }
      ],
      "name": "getProjectIdBySchoolId",
      "outputs": [
        {
          "name": "",
          "type": "uint256"
        }
      ],
      "payable": false,
      "stateMutability": "view",
      "type": "function"
    },
    {
      "constant": true,
      "inputs": [
        {
          "name": "n",
          "type": "uint256"
        }
      ],
      "name": "random",
      "outputs": [
        {
          "name": "",
          "type": "uint256"
        }
      ],
      "payable": false,
      "stateMutability": "view",
      "type": "function"
    },
    {
      "constant": false,
      "inputs": [
        {
          "name": "strA",
          "type": "string"
        },
        {
          "name": "strB",
          "type": "string"
        }
      ],
      "name": "strEqual",
      "outputs": [
        {
          "name": "",
          "type": "bool"
        }
      ],
      "payable": false,
      "stateMutability": "nonpayable",
      "type": "function"
    }
  ],
  "bytecode": "0x608060405260006010553480156200001657600080fd5b50620000d26040805190810160405280600181526020017f30000000000000000000000000000000000000000000000000000000000000008152506040805190810160405280600181526020017f30000000000000000000000000000000000000000000000000000000000000008152506040805190810160405280600181526020017f3000000000000000000000000000000000000000000000000000000000000000815250620003e6640100000000026401000000009004565b620002656040805190810160405280600181526020017f30000000000000000000000000000000000000000000000000000000000000008152506040805190810160405280600181526020017f30000000000000000000000000000000000000000000000000000000000000008152506040805190810160405280600181526020017f30000000000000000000000000000000000000000000000000000000000000008152506040805190810160405280600181526020017f30000000000000000000000000000000000000000000000000000000000000008152506040805190810160405280600181526020017f30000000000000000000000000000000000000000000000000000000000000008152506040805190810160405280600181526020017f30000000000000000000000000000000000000000000000000000000000000008152506040805190810160405280600181526020017f300000000000000000000000000000000000000000000000000000000000000081525062000569640100000000026401000000009004565b620002ef60006040805190810160405280600181526020017f30000000000000000000000000000000000000000000000000000000000000008152506040805190810160405280600181526020017f3000000000000000000000000000000000000000000000000000000000000000815250600080620007af640100000000026401000000009004565b620003e06040805190810160405280600181526020017f30000000000000000000000000000000000000000000000000000000000000008152506040805190810160405280600181526020017f30000000000000000000000000000000000000000000000000000000000000008152506040805190810160405280600181526020017f30000000000000000000000000000000000000000000000000000000000000008152506040805190810160405280600181526020017f3000000000000000000000000000000000000000000000000000000000000000815250620009d5640100000000026401000000009004565b62001861565b6000620003f2620015e2565b6200040c8462000c15640100000000026401000000009004565b1515156200041957600080fd5b6200043262000c8f640100000000026401000000009004565b915060806040519081016040528083815260200186815260200185815260200184815250905060008190806001815401808255809150509060018203906000526020600020906004020160009091929091909150600082015181600001556020820151816001019080519060200190620004ae9291906200160b565b506040820151816002019080519060200190620004cd9291906200160b565b506060820151816003019080519060200190620004ec9291906200160b565b50505050816001856040518082805190602001908083835b6020831015156200052b578051825260208201915060208101905060208303925062000504565b6001836020036101000a0380198251168184511680821785525050505050509050019150509081526020016040518091039020819055505050505050565b60006200057562001692565b6200058f8962000c9b640100000000026401000000009004565b1515156200059c57600080fd5b620005b562000d15640100000000026401000000009004565b9150610120604051908101604052808381526020018981526020018a815260200188815260200187815260200186815260200185815260200184815260200160011515815250905060048190806001815401808255809150509060018203906000526020600020906009020160009091929091909150600082015181600001556020820151816001019080519060200190620006539291906200160b565b506040820151816002019080519060200190620006729291906200160b565b506060820151816003019080519060200190620006919291906200160b565b506080820151816004019080519060200190620006b09291906200160b565b5060a0820151816005019080519060200190620006cf9291906200160b565b5060c0820151816006019080519060200190620006ee9291906200160b565b5060e08201518160070190805190602001906200070d9291906200160b565b506101008201518160080160006101000a81548160ff0219169083151502179055505050508160058a6040518082805190602001908083835b6020831015156200076d578051825260208201915060208101905060208303925062000746565b6001836020036101000a038019825116818451168082178552505050505050905001915050908152602001604051809103902081905550505050505050505050565b6000620007bb620016e1565b60048054905087101515620007cf57600080fd5b620007e862000d22640100000000026401000000009004565b91506101e060405190810160405280838152602001888152602001878152602001428152602001868152602001858152602001600081526020016002815260200160001515815260200184815260200160008152602001600081526020016000815260200160008152602001600081525090506006819080600181540180825580915050906001820390600052602060002090600f02016000909192909190915060008201518160000155602082015181600101556040820151816002019080519060200190620008bb9291906200160b565b50606082015181600301556080820151816004019080519060200190620008e49291906200160b565b5060a0820151816005015560c0820151816006015560e082015181600701556101008201518160080160006101000a81548160ff021916908315150217905550610120820151816009015561014082015181600a015561016082015181600b015561018082015181600c01556101a082015181600d01556101c082015181600e0155505050600c6000888152602001908152602001600020829080600181540180825580915050906001820390600052602060002001600090919290919091505550600087141515620009cc57620009cb8262000d2f640100000000026401000000009004565b5b50505050505050565b6000620009e16200175a565b620009fb84620012f9640100000000026401000000009004565b15151562000a0857600080fd5b62000a2162001373640100000000026401000000009004565b915060a0604051908101604052808381526020018781526020018681526020018581526020018481525090506002819080600181540180825580915050906001820390600052602060002090600502016000909192909190915060008201518160000155602082015181600101908051906020019062000aa39291906200160b565b50604082015181600201908051906020019062000ac29291906200160b565b50606082015181600301908051906020019062000ae19291906200160b565b50608082015181600401908051906020019062000b009291906200160b565b50505050816003856040518082805190602001908083835b60208310151562000b3f578051825260208201915060208101905060208303925062000b18565b6001836020036101000a038019825116818451168082178552505050505050905001915050908152602001604051809103902081905550600e856040518082805190602001908083835b60208310151562000bb0578051825260208201915060208101905060208303925062000b89565b6001836020036101000a0380198251168184511680821785525050505050509050019150509081526020016040518091039020829080600181540180825580915050906001820390600052602060002001600090919290919091505550505050505050565b6000806001836040518082805190602001908083835b60208310151562000c52578051825260208201915060208101905060208303925062000c2b565b6001836020036101000a03801982511681845116808217855250505050505090500191505090815260200160405180910390205414159050919050565b60008080549050905090565b6000806005836040518082805190602001908083835b60208310151562000cd8578051825260208201915060208101905060208303925062000cb1565b6001836020036101000a03801982511681845116808217855250505050505090500191505090815260200160405180910390205414159050919050565b6000600480549050905090565b6000600680549050905090565b60008060008060008060008060008060006006805490508c10801562000d55575060008c115b151562000d6157600080fd5b60068c81548110151562000d7157fe5b90600052602060002090600f02019a5060048b6001015481548110151562000d9557fe5b90600052602060002090600902019950600097505b600e8a600401604051808280546001816001161561010002031660029004801562000e0f5780601f1062000dec57610100808354040283529182019162000e0f565b820191906000526020600020905b81548152906001019060200180831162000dfa575b505091505090815260200160405180910390208054905088101562000ef75788600e8b600401604051808280546001816001161561010002031660029004801562000e945780601f1062000e7157610100808354040283529182019162000e94565b820191906000526020600020905b81548152906001019060200180831162000e7f575b505091505090815260200160405180910390208981548110151562000eb557fe5b90600052602060002001549080600181540180825580915050906001820390600052602060002001600090919290919091505550878060010198505062000daa565b6003898054905010156200108a57600095505b8880549050861015620010845786898781548110151562000f2757fe5b9060005260206000200154908060018154018082558091505090600182039060005260206000200160009091929091909150555062000f918c8a8881548110151562000f6f57fe5b9060005260206000200154600062001380640100000000026401000000009004565b600b60008a8881548110151562000fa457fe5b90600052602060002001548152602001908152602001600020805480919060010162000fd191906200178a565b50600860016008805490500381548110151562000fea57fe5b906000526020600020906004020160020154600b60008b898154811015156200100f57fe5b906000526020600020015481526020019081526020016000206001600b60008d8b8154811015156200103d57fe5b9060005260206000200154815260200190815260200160002080549050038154811015156200106857fe5b9060005260206000200181905550858060010196505062000f0a565b620012a5565b600360028a80549050028115156200109e57fe5b04945088805490509350600092505b84831015620012a457620010d08462001512640100000000026401000000009004565b9150620011088c8a85815481101515620010e657fe5b9060005260206000200154600062001380640100000000026401000000009004565b600b60008a858154811015156200111b57fe5b9060005260206000200154815260200190815260200160002080548091906001016200114891906200178a565b5060086001600880549050038154811015156200116157fe5b906000526020600020906004020160020154600b60008b868154811015156200118657fe5b906000526020600020015481526020019081526020016000206001600b60008d88815481101515620011b457fe5b906000526020600020015481526020019081526020016000208054905003815481101515620011df57fe5b9060005260206000200181905550868984815481101515620011fd57fe5b906000526020600020015490806001815401808255809150509060018203906000526020600020016000909192909190915055508190505b60018980549050038110156200128d5788600182018154811015156200125757fe5b906000526020600020015489828154811015156200127157fe5b9060005260206000200181905550808060010191505062001235565b8380600190039450508280600101935050620010ad565b5b86600f60008e8152602001908152602001600020908054620012c9929190620017b9565b5086805490508b600d018190555060008b600c018190555060008b600e0181905550505050505050505050505050565b6000806003836040518082805190602001908083835b6020831015156200133657805182526020820191506020810190506020830392506200130f565b6001836020036101000a03801982511681845116808217855250505050505090500191505090815260200160405180910390205414159050919050565b6000600280549050905090565b60006200138c62001810565b600060068054905086101515620013a257600080fd5b600b6000868152602001908152602001600020805490509250608060405190810160405280848152602001878152602001868152602001858152509150600b600086815260200190815260200160002083908060018154018082558091505090600182039060005260206000200160009091929091909150555060088290806001815401808255809150509060018203906000526020600020906004020160009091929091909150600082015181600001556020820151816001015560408201518160020155606082015181600301555050506006868154811015156200148557fe5b90600052602060002090600f020190508381600c0160008282540192505081905550620014c781600e01546001620015c5640100000000026401000000009004565b81600e018190555080600d015481600e015414156200150a57600081600c01541315620014fe576000816007018190555062001509565b600181600701819055505b5b505050505050565b60008160024233604051808381526020018273ffffffffffffffffffffffffffffffffffffffff1673ffffffffffffffffffffffffffffffffffffffff166c01000000000000000000000000028152601401925050506020604051808303816000865af115801562001588573d6000803e3d6000fd5b5050506040513d60208110156200159e57600080fd5b810190808051906020019092919050505060019004811515620015bd57fe5b069050919050565b60008183019050828110151515620015d957fe5b80905092915050565b608060405190810160405280600081526020016060815260200160608152602001606081525090565b828054600181600116156101000203166002900490600052602060002090601f016020900481019282601f106200164e57805160ff19168380011785556200167f565b828001600101855582156200167f579182015b828111156200167e57825182559160200191906001019062001661565b5b5090506200168e919062001839565b5090565b6101206040519081016040528060008152602001606081526020016060815260200160608152602001606081526020016060815260200160608152602001606081526020016000151581525090565b6101e06040519081016040528060008152602001600081526020016060815260200160008152602001606081526020016000815260200160008152602001600081526020016000151581526020016000815260200160008152602001600081526020016000815260200160008152602001600081525090565b60a06040519081016040528060008152602001606081526020016060815260200160608152602001606081525090565b815481835581811115620017b457818360005260206000209182019101620017b3919062001839565b5b505050565b828054828255906000526020600020908101928215620017fd5760005260206000209182015b82811115620017fc578254825591600101919060010190620017df565b5b5090506200180c919062001839565b5090565b608060405190810160405280600081526020016000815260200160008152602001600081525090565b6200185e91905b808211156200185a57600081600090555060010162001840565b5090565b90565b614ab080620018716000396000f3006080604052600436106101ee576000357c0100000000000000000000000000000000000000000000000000000000900463ffffffff1680630485c31d146101f357806304d7fbdd1461027057806306027d6a1461047d57806307973ccf146104fa5780631af550dc146105255780631e052ca3146105855780631f90303714610652578063255552d1146106e257806328d88890146107235780633339000d1461074e578063356953c01461077957806336fbad26146107ce57806350a9601d146107f9578063579aa9671461087a57806358467dbc14610b4757806359ae069b14610c11578063607506ba14610d065780636a20665814610d335780636cb1c5bb14610e6e57806379c0c2a114610ff35780637e67c8e5146110345780637f4ab6ab1461107557806387c4e298146110a057806387f3d2231461111d5780639504dd3814611279578063add82871146112ba578063b2aa23a214611381578063b863bd37146113c2578063bce66cdf14611403578063c50fd39d14611484578063c89e9666146114dd578063cc6dbca4146115f6578063d45e2dbd14611641578063d7db9d9514611682578063d8b467e0146116c3578063e303ec4014611704578063f0aa979614611745578063f8a8fd6d14611790578063f9faf602146117bb578063ff81b36c1461183c575b600080fd5b3480156101ff57600080fd5b5061025a600480360381019080803590602001908201803590602001908080601f01602080910402602001604051908101604052809392919081815260200183838082843782019150505050505091929192905050506118e2565b6040518082815260200191505060405180910390f35b34801561027c57600080fd5b5061047b600480360381019080803590602001908201803590602001908080601f0160208091040260200160405190810160405280939291908181526020018383808284378201915050505050509192919290803590602001908201803590602001908080601f0160208091040260200160405190810160405280939291908181526020018383808284378201915050505050509192919290803590602001908201803590602001908080601f0160208091040260200160405190810160405280939291908181526020018383808284378201915050505050509192919290803590602001908201803590602001908080601f0160208091040260200160405190810160405280939291908181526020018383808284378201915050505050509192919290803590602001908201803590602001908080601f0160208091040260200160405190810160405280939291908181526020018383808284378201915050505050509192919290803590602001908201803590602001908080601f0160208091040260200160405190810160405280939291908181526020018383808284378201915050505050509192919290803590602001908201803590602001908080601f0160208091040260200160405190810160405280939291908181526020018383808284378201915050505050509192919290505050611957565b005b34801561048957600080fd5b506104e4600480360381019080803590602001908201803590602001908080601f0160208091040260200160405190810160405280939291908181526020018383808284378201915050505050509192919290505050611b68565b6040518082815260200191505060405180910390f35b34801561050657600080fd5b5061050f611bdd565b6040518082815260200191505060405180910390f35b34801561053157600080fd5b5061055a6004803603810190808035906020019092919080359060200190929190505050611be9565b6040518085815260200184815260200183815260200182815260200194505050505060405180910390f35b34801561059157600080fd5b5061065060048036038101908080359060200190929190803590602001908201803590602001908080601f0160208091040260200160405190810160405280939291908181526020018383808284378201915050505050509192919290803590602001908201803590602001908080601f01602080910402602001604051908101604052809392919081815260200183838082843782019150505050505091929192908035906020019092919080359060200190929190505050611c7a565b005b34801561065e57600080fd5b50610667611e76565b6040518080602001828103825283818151815260200191508051906020019080838360005b838110156106a757808201518184015260208101905061068c565b50505050905090810190601f1680156106d45780820380516001836020036101000a031916815260200191505b509250505060405180910390f35b3480156106ee57600080fd5b5061070d60048036038101908080359060200190929190505050611eb8565b6040518082815260200191505060405180910390f35b34801561072f57600080fd5b50610738611eeb565b6040518082815260200191505060405180910390f35b34801561075a57600080fd5b50610763611ef8565b6040518082815260200191505060405180910390f35b34801561078557600080fd5b506107b8600480360381019080803590602001909291908035906020019092919080359060200190929190505050611f05565b6040518082815260200191505060405180910390f35b3480156107da57600080fd5b506107e36120f3565b6040518082815260200191505060405180910390f35b34801561080557600080fd5b50610860600480360381019080803590602001908201803590602001908080601f0160208091040260200160405190810160405280939291908181526020018383808284378201915050505050509192919290505050612100565b604051808215151515815260200191505060405180910390f35b34801561088657600080fd5b506108a560048036038101908080359060200190929190505050612178565b604051808060200180602001806020018060200180602001806020018815151515815260200187810387528e818151815260200191508051906020019080838360005b838110156109035780820151818401526020810190506108e8565b50505050905090810190601f1680156109305780820380516001836020036101000a031916815260200191505b5087810386528d818151815260200191508051906020019080838360005b8381101561096957808201518184015260208101905061094e565b50505050905090810190601f1680156109965780820380516001836020036101000a031916815260200191505b5087810385528c818151815260200191508051906020019080838360005b838110156109cf5780820151818401526020810190506109b4565b50505050905090810190601f1680156109fc5780820380516001836020036101000a031916815260200191505b5087810384528b818151815260200191508051906020019080838360005b83811015610a35578082015181840152602081019050610a1a565b50505050905090810190601f168015610a625780820380516001836020036101000a031916815260200191505b5087810383528a818151815260200191508051906020019080838360005b83811015610a9b578082015181840152602081019050610a80565b50505050905090810190601f168015610ac85780820380516001836020036101000a031916815260200191505b50878103825289818151815260200191508051906020019080838360005b83811015610b01578082015181840152602081019050610ae6565b50505050905090810190601f168015610b2e5780820380516001836020036101000a031916815260200191505b509d505050505050505050505050505060405180910390f35b348015610b5357600080fd5b50610bf4600480360381019080803590602001908201803590602001908080601f0160208091040260200160405190810160405280939291908181526020018383808284378201915050505050509192919290803590602001908201803590602001908080601f01602080910402602001604051908101604052809392919081815260200183838082843782019150505050505091929192905050506125a2565b604051808381526020018281526020019250505060405180910390f35b348015610c1d57600080fd5b50610d04600480360381019080803590602001908201803590602001908080601f0160208091040260200160405190810160405280939291908181526020018383808284378201915050505050509192919290803590602001908201803590602001908080601f0160208091040260200160405190810160405280939291908181526020018383808284378201915050505050509192919290803590602001908201803590602001908080601f01602080910402602001604051908101604052809392919081815260200183838082843782019150505050505091929192905050506130b0565b005b348015610d1257600080fd5b50610d3160048036038101908080359060200190929190505050613206565b005b348015610d3f57600080fd5b50610e6c600480360381019080803590602001908201803590602001908080601f0160208091040260200160405190810160405280939291908181526020018383808284378201915050505050509192919290803590602001908201803590602001908080601f0160208091040260200160405190810160405280939291908181526020018383808284378201915050505050509192919290803590602001908201803590602001908080601f0160208091040260200160405190810160405280939291908181526020018383808284378201915050505050509192919290803590602001908201803590602001908080601f016020809104026020016040519081016040528093929190818152602001838380828437820191505050505050919291929050505061376f565b005b348015610e7a57600080fd5b50610e996004803603810190808035906020019092919050505061397e565b60405180858152602001806020018060200180602001848103845287818151815260200191508051906020019080838360005b83811015610ee7578082015181840152602081019050610ecc565b50505050905090810190601f168015610f145780820380516001836020036101000a031916815260200191505b50848103835286818151815260200191508051906020019080838360005b83811015610f4d578082015181840152602081019050610f32565b50505050905090810190601f168015610f7a5780820380516001836020036101000a031916815260200191505b50848103825285818151815260200191508051906020019080838360005b83811015610fb3578082015181840152602081019050610f98565b50505050905090810190601f168015610fe05780820380516001836020036101000a031916815260200191505b5097505050505050505060405180910390f35b348015610fff57600080fd5b5061101e60048036038101908080359060200190929190505050613bae565b6040518082815260200191505060405180910390f35b34801561104057600080fd5b5061105f60048036038101908080359060200190929190505050613be1565b6040518082815260200191505060405180910390f35b34801561108157600080fd5b5061108a613c01565b6040518082815260200191505060405180910390f35b3480156110ac57600080fd5b50611107600480360381019080803590602001908201803590602001908080601f0160208091040260200160405190810160405280939291908181526020018383808284378201915050505050509192919290505050613c0e565b6040518082815260200191505060405180910390f35b34801561112957600080fd5b5061114860048036038101908080359060200190929190505050613c83565b604051808d81526020018c8152602001806020018b8152602001806020018a81526020018981526020018881526020018715151515815260200186815260200185815260200184815260200183810383528d818151815260200191508051906020019080838360005b838110156111cc5780820151818401526020810190506111b1565b50505050905090810190601f1680156111f95780820380516001836020036101000a031916815260200191505b5083810382528b818151815260200191508051906020019080838360005b83811015611232578082015181840152602081019050611217565b50505050905090810190601f16801561125f5780820380516001836020036101000a031916815260200191505b509e50505050505050505050505050505060405180910390f35b34801561128557600080fd5b506112b8600480360381019080803590602001909291908035906020019092919080359060200190929190505050613e7d565b005b3480156112c657600080fd5b50611367600480360381019080803590602001908201803590602001908080601f0160208091040260200160405190810160405280939291908181526020018383808284378201915050505050509192919290803590602001908201803590602001908080601f0160208091040260200160405190810160405280939291908181526020018383808284378201915050505050509192919290505050613ff7565b604051808215151515815260200191505060405180910390f35b34801561138d57600080fd5b506113ac60048036038101908080359060200190929190505050614147565b6040518082815260200191505060405180910390f35b3480156113ce57600080fd5b506113ed6004803603810190808035906020019092919050505061417a565b6040518082815260200191505060405180910390f35b34801561140f57600080fd5b5061146a600480360381019080803590602001908201803590602001908080601f016020809104026020016040519081016040528093929190818152602001838380828437820191505050505050919291929050505061422a565b604051808215151515815260200191505060405180910390f35b34801561149057600080fd5b506114b960048036038101908080359060200190929190803590602001909291905050506142a2565b60405180848152602001838152602001828152602001935050505060405180910390f35b3480156114e957600080fd5b5061150860048036038101908080359060200190929190505050614348565b604051808481526020018060200180602001838103835285818151815260200191508051906020019080838360005b83811015611552578082015181840152602081019050611537565b50505050905090810190601f16801561157f5780820380516001836020036101000a031916815260200191505b50838103825284818151815260200191508051906020019080838360005b838110156115b857808201518184015260208101905061159d565b50505050905090810190601f1680156115e55780820380516001836020036101000a031916815260200191505b509550505050505060405180910390f35b34801561160257600080fd5b5061162b60048036038101908080359060200190929190803590602001909291905050506144d3565b6040518082815260200191505060405180910390f35b34801561164d57600080fd5b5061166c60048036038101908080359060200190929190505050614508565b6040518082815260200191505060405180910390f35b34801561168e57600080fd5b506116ad60048036038101908080359060200190929190505050614528565b6040518082815260200191505060405180910390f35b3480156116cf57600080fd5b506116ee600480360381019080803590602001909291905050506145ca565b6040518082815260200191505060405180910390f35b34801561171057600080fd5b5061172f600480360381019080803590602001909291905050506145fc565b6040518082815260200191505060405180910390f35b34801561175157600080fd5b5061177a600480360381019080803590602001909291908035906020019092919050505061461c565b6040518082815260200191505060405180910390f35b34801561179c57600080fd5b506117a5614685565b6040518082815260200191505060405180910390f35b3480156117c757600080fd5b50611822600480360381019080803590602001908201803590602001908080601f016020809104026020016040519081016040528093929190818152602001838380828437820191505050505050919291929050505061468b565b604051808215151515815260200191505060405180910390f35b34801561184857600080fd5b5061186760048036038101908080359060200190929190505050614703565b6040518080602001828103825283818151815260200191508051906020019080838360005b838110156118a757808201518184015260208101905061188c565b50505050905090810190601f1680156118d45780820380516001836020036101000a031916815260200191505b509250505060405180910390f35b60006005826040518082805190602001908083835b60208310151561191c57805182526020820191506020810190506020830392506118f7565b6001836020036101000a0380198251168184511680821785525050505050509050019150509081526020016040518091039020549050919050565b60006119616147e7565b61196a8961422a565b15151561197657600080fd5b61197e611eeb565b9150610120604051908101604052808381526020018981526020018a815260200188815260200187815260200186815260200185815260200184815260200160011515815250905060048190806001815401808255809150509060018203906000526020600020906009020160009091929091909150600082015181600001556020820151816001019080519060200190611a1a929190614836565b506040820151816002019080519060200190611a37929190614836565b506060820151816003019080519060200190611a54929190614836565b506080820151816004019080519060200190611a71929190614836565b5060a0820151816005019080519060200190611a8e929190614836565b5060c0820151816006019080519060200190611aab929190614836565b5060e0820151816007019080519060200190611ac8929190614836565b506101008201518160080160006101000a81548160ff0219169083151502179055505050508160058a6040518082805190602001908083835b602083101515611b265780518252602082019150602081019050602083039250611b01565b6001836020036101000a038019825116818451168082178552505050505050905001915050908152602001604051809103902081905550505050505050505050565b60006001826040518082805190602001908083835b602083101515611ba25780518252602082019150602081019050602083039250611b7d565b6001836020036101000a0380198251168184511680821785525050505050509050019150509081526020016040518091039020549050919050565b60008080549050905090565b6000806000806000808054905087108015611c195750600960008881526020019081526020016000208054905086105b1515611c2457600080fd5b6009600088815260200190815260200160002086815481101515611c4457fe5b90600052602060002090600502019050806000015481600201548260030154836004015494509450945094505092959194509250565b6000611c846148b6565b60048054905087101515611c9757600080fd5b611c9f6120f3565b91506101e060405190810160405280838152602001888152602001878152602001428152602001868152602001858152602001600081526020016002815260200160001515815260200184815260200160008152602001600081526020016000815260200160008152602001600081525090506006819080600181540180825580915050906001820390600052602060002090600f02016000909192909190915060008201518160000155602082015181600101556040820151816002019080519060200190611d70929190614836565b50606082015181600301556080820151816004019080519060200190611d97929190614836565b5060a0820151816005015560c0820151816006015560e082015181600701556101008201518160080160006101000a81548160ff021916908315150217905550610120820151816009015561014082015181600a015561016082015181600b015561018082015181600c01556101a082015181600d01556101c082015181600e0155505050600c6000888152602001908152602001600020829080600181540180825580915050906001820390600052602060002001600090919290919091505550600087141515611e6d57611e6c82613206565b5b50505050505050565b6060806040805190810160405280600381526020017f616263000000000000000000000000000000000000000000000000000000000081525090508091505090565b600060068054905082101515611ecd57600080fd5b600a6000838152602001908152602001600020805490509050919050565b6000600480549050905090565b6000600780549050905090565b6000806000611f1261492f565b60008054905087108015611f2a575060068054905086105b1515611f3557600080fd5b600686815481101515611f4457fe5b90600052602060002090600f02019250611f5c611ef8565b915060a0604051908101604052808381526020018881526020018781526020018681526020014281525090506007819080600181540180825580915050906001820390600052602060002090600502016000909192909190915060008201518160000155602082015181600101556040820151816002015560608201518160030155608082015181600401555050506009600088815260200190815260200160002081908060018154018082558091505090600182039060005260206000209060050201600090919290919091506000820151816000015560208201518160010155604082015181600201556060820151816003015560808201518160040155505050600a6000878152602001908152602001600020819080600181540180825580915050906001820390600052602060002090600502016000909192909190915060008201518160000155602082015181600101556040820151816002015560608201518160030155608082015181600401555050506120e18360060154866147cb565b83600601819055505050509392505050565b6000600680549050905090565b6000806001836040518082805190602001908083835b60208310151561213b5780518252602082019150602081019050602083039250612116565b6001836020036101000a03801982511681845116808217855250505050505090500191505090815260200160405180910390205414159050919050565b6060806060806060806000806004805490508910151561219757600080fd5b6004898154811015156121a657fe5b906000526020600020906009020190508060010181600201826004018360050184600601856007018660080160009054906101000a900460ff16868054600181600116156101000203166002900480601f0160208091040260200160405190810160405280929190818152602001828054600181600116156101000203166002900480156122755780601f1061224a57610100808354040283529160200191612275565b820191906000526020600020905b81548152906001019060200180831161225857829003601f168201915b50505050509650858054600181600116156101000203166002900480601f0160208091040260200160405190810160405280929190818152602001828054600181600116156101000203166002900480156123115780601f106122e657610100808354040283529160200191612311565b820191906000526020600020905b8154815290600101906020018083116122f457829003601f168201915b50505050509550848054600181600116156101000203166002900480601f0160208091040260200160405190810160405280929190818152602001828054600181600116156101000203166002900480156123ad5780601f10612382576101008083540402835291602001916123ad565b820191906000526020600020905b81548152906001019060200180831161239057829003601f168201915b50505050509450838054600181600116156101000203166002900480601f0160208091040260200160405190810160405280929190818152602001828054600181600116156101000203166002900480156124495780601f1061241e57610100808354040283529160200191612449565b820191906000526020600020905b81548152906001019060200180831161242c57829003601f168201915b50505050509350828054600181600116156101000203166002900480601f0160208091040260200160405190810160405280929190818152602001828054600181600116156101000203166002900480156124e55780601f106124ba576101008083540402835291602001916124e5565b820191906000526020600020905b8154815290600101906020018083116124c857829003601f168201915b50505050509250818054600181600116156101000203166002900480601f0160208091040260200160405190810160405280929190818152602001828054600181600116156101000203166002900480156125815780601f1061255657610100808354040283529160200191612581565b820191906000526020600020905b81548152906001019060200180831161256457829003601f168201915b50505050509150975097509750975097509750975050919395979092949650565b60008060008060006125b261495f565b60006125bc6147e7565b60006125c6614988565b60009750600096506125d78c611b68565b95506000868154811015156125e857fe5b90600052602060002090600402016080604051908101604052908160008201548152602001600182018054600181600116156101000203166002900480601f0160208091040260200160405190810160405280929190818152602001828054600181600116156101000203166002900480156126a55780601f1061267a576101008083540402835291602001916126a5565b820191906000526020600020905b81548152906001019060200180831161268857829003601f168201915b50505050508152602001600282018054600181600116156101000203166002900480601f0160208091040260200160405190810160405280929190818152602001828054600181600116156101000203166002900480156127475780601f1061271c57610100808354040283529160200191612747565b820191906000526020600020905b81548152906001019060200180831161272a57829003601f168201915b50505050508152602001600382018054600181600116156101000203166002900480601f0160208091040260200160405190810160405280929190818152602001828054600181600116156101000203166002900480156127e95780601f106127be576101008083540402835291602001916127e9565b820191906000526020600020905b8154815290600101906020018083116127cc57829003601f168201915b50505050508152505094506127fd8c6118e2565b935060048481548110151561280e57fe5b9060005260206000209060090201610120604051908101604052908160008201548152602001600182018054600181600116156101000203166002900480601f0160208091040260200160405190810160405280929190818152602001828054600181600116156101000203166002900480156128cc5780601f106128a1576101008083540402835291602001916128cc565b820191906000526020600020905b8154815290600101906020018083116128af57829003601f168201915b50505050508152602001600282018054600181600116156101000203166002900480601f01602080910402602001604051908101604052809291908181526020018280546001816001161561010002031660029004801561296e5780601f106129435761010080835404028352916020019161296e565b820191906000526020600020905b81548152906001019060200180831161295157829003601f168201915b50505050508152602001600382018054600181600116156101000203166002900480601f016020809104026020016040519081016040528092919081815260200182805460018160011615610100020316600290048015612a105780601f106129e557610100808354040283529160200191612a10565b820191906000526020600020905b8154815290600101906020018083116129f357829003601f168201915b50505050508152602001600482018054600181600116156101000203166002900480601f016020809104026020016040519081016040528092919081815260200182805460018160011615610100020316600290048015612ab25780601f10612a8757610100808354040283529160200191612ab2565b820191906000526020600020905b815481529060010190602001808311612a9557829003601f168201915b50505050508152602001600582018054600181600116156101000203166002900480601f016020809104026020016040519081016040528092919081815260200182805460018160011615610100020316600290048015612b545780601f10612b2957610100808354040283529160200191612b54565b820191906000526020600020905b815481529060010190602001808311612b3757829003601f168201915b50505050508152602001600682018054600181600116156101000203166002900480601f016020809104026020016040519081016040528092919081815260200182805460018160011615610100020316600290048015612bf65780601f10612bcb57610100808354040283529160200191612bf6565b820191906000526020600020905b815481529060010190602001808311612bd957829003601f168201915b50505050508152602001600782018054600181600116156101000203166002900480601f016020809104026020016040519081016040528092919081815260200182805460018160011615610100020316600290048015612c985780601f10612c6d57610100808354040283529160200191612c98565b820191906000526020600020905b815481529060010190602001808311612c7b57829003601f168201915b505050505081526020016008820160009054906101000a900460ff1615151515815250509250612cc78c613c0e565b9150600282815481101515612cd857fe5b906000526020600020906005020160a0604051908101604052908160008201548152602001600182018054600181600116156101000203166002900480601f016020809104026020016040519081016040528092919081815260200182805460018160011615610100020316600290048015612d955780601f10612d6a57610100808354040283529160200191612d95565b820191906000526020600020905b815481529060010190602001808311612d7857829003601f168201915b50505050508152602001600282018054600181600116156101000203166002900480601f016020809104026020016040519081016040528092919081815260200182805460018160011615610100020316600290048015612e375780601f10612e0c57610100808354040283529160200191612e37565b820191906000526020600020905b815481529060010190602001808311612e1a57829003601f168201915b50505050508152602001600382018054600181600116156101000203166002900480601f016020809104026020016040519081016040528092919081815260200182805460018160011615610100020316600290048015612ed95780601f10612eae57610100808354040283529160200191612ed9565b820191906000526020600020905b815481529060010190602001808311612ebc57829003601f168201915b50505050508152602001600482018054600181600116156101000203166002900480601f016020809104026020016040519081016040528092919081815260200182805460018160011615610100020316600290048015612f7b5780601f10612f5057610100808354040283529160200191612f7b565b820191906000526020600020905b815481529060010190602001808311612f5e57829003601f168201915b50505050508152505090508184871818965060008614158015612fa85750612fa785606001518c613ff7565b5b15612fb6576001975061309b565b60008414158015612fd15750612fd083606001518c613ff7565b5b15612fdf576002975061309a565b60008214158015612ffa5750612ff981608001518c613ff7565b5b156130085760039750613099565b6130478c6040805190810160405280600581526020017f61646d696e000000000000000000000000000000000000000000000000000000815250613ff7565b801561308e575061308d8b6040805190810160405280600581526020017f61646d696e000000000000000000000000000000000000000000000000000000815250613ff7565b5b1561309857600497505b5b5b5b87879950995050505050505050509250929050565b60006130ba61495f565b6130c384612100565b1515156130cf57600080fd5b6130d7611bdd565b915060806040519081016040528083815260200186815260200185815260200184815250905060008190806001815401808255809150509060018203906000526020600020906004020160009091929091909150600082015181600001556020820151816001019080519060200190613151929190614836565b50604082015181600201908051906020019061316e929190614836565b50606082015181600301908051906020019061318b929190614836565b50505050816001856040518082805190602001908083835b6020831015156131c857805182526020820191506020810190506020830392506131a3565b6001836020036101000a0380198251168184511680821785525050505050509050019150509081526020016040518091039020819055505050505050565b60008060008060008060008060008060006006805490508c10801561322b575060008c115b151561323657600080fd5b60068c81548110151561324557fe5b90600052602060002090600f02019a5060048b6001015481548110151561326857fe5b90600052602060002090600902019950600097505b600e8a60040160405180828054600181600116156101000203166002900480156132de5780601f106132bc5761010080835404028352918201916132de565b820191906000526020600020905b8154815290600101906020018083116132ca575b50509150509081526020016040518091039020805490508810156133bf5788600e8b600401604051808280546001816001161561010002031660029004801561335e5780601f1061333c57610100808354040283529182019161335e565b820191906000526020600020905b81548152906001019060200180831161334a575b505091505090815260200160405180910390208981548110151561337e57fe5b90600052602060002001549080600181540180825580915050906001820390600052602060002001600090919290919091505550878060010198505061327d565b60038980549050101561353457600095505b888054905086101561352f578689878154811015156133ec57fe5b906000526020600020015490806001815401808255809150509060018203906000526020600020016000909192909190915055506134448c8a8881548110151561343257fe5b90600052602060002001546000613e7d565b600b60008a8881548110151561345657fe5b90600052602060002001548152602001908152602001600020805480919060010161348191906149b8565b50600860016008805490500381548110151561349957fe5b906000526020600020906004020160020154600b60008b898154811015156134bd57fe5b906000526020600020015481526020019081526020016000206001600b60008d8b8154811015156134ea57fe5b90600052602060002001548152602001908152602001600020805490500381548110151561351457fe5b906000526020600020018190555085806001019650506133d1565b61371d565b600360028a805490500281151561354757fe5b04945088805490509350600092505b8483101561371c576135678461417a565b915061358d8c8a8581548110151561357b57fe5b90600052602060002001546000613e7d565b600b60008a8581548110151561359f57fe5b9060005260206000200154815260200190815260200160002080548091906001016135ca91906149b8565b5060086001600880549050038154811015156135e257fe5b906000526020600020906004020160020154600b60008b8681548110151561360657fe5b906000526020600020015481526020019081526020016000206001600b60008d8881548110151561363357fe5b90600052602060002001548152602001908152602001600020805490500381548110151561365d57fe5b906000526020600020018190555086898481548110151561367a57fe5b906000526020600020015490806001815401808255809150509060018203906000526020600020016000909192909190915055508190505b60018980549050038110156137065788600182018154811015156136d257fe5b906000526020600020015489828154811015156136eb57fe5b906000526020600020018190555080806001019150506136b2565b8380600190039450508280600101935050613556565b5b86600f60008e815260200190815260200160002090805461373f9291906149e4565b5086805490508b600d018190555060008b600c018190555060008b600e0181905550505050505050505050505050565b6000613779614988565b6137828461468b565b15151561378e57600080fd5b613796613c01565b915060a06040519081016040528083815260200187815260200186815260200185815260200184815250905060028190806001815401808255809150509060018203906000526020600020906005020160009091929091909150600082015181600001556020820151816001019080519060200190613816929190614836565b506040820151816002019080519060200190613833929190614836565b506060820151816003019080519060200190613850929190614836565b50608082015181600401908051906020019061386d929190614836565b50505050816003856040518082805190602001908083835b6020831015156138aa5780518252602082019150602081019050602083039250613885565b6001836020036101000a038019825116818451168082178552505050505050905001915050908152602001604051809103902081905550600e856040518082805190602001908083835b60208310151561391957805182526020820191506020810190506020830392506138f4565b6001836020036101000a0380198251168184511680821785525050505050509050019150509081526020016040518091039020829080600181540180825580915050906001820390600052602060002001600090919290919091505550505050505050565b6000606080606060006002805490508610151561399a57600080fd5b6002868154811015156139a957fe5b906000526020600020906005020190508060000154816001018260020183600301828054600181600116156101000203166002900480601f016020809104026020016040519081016040528092919081815260200182805460018160011615610100020316600290048015613a5f5780601f10613a3457610100808354040283529160200191613a5f565b820191906000526020600020905b815481529060010190602001808311613a4257829003601f168201915b50505050509250818054600181600116156101000203166002900480601f016020809104026020016040519081016040528092919081815260200182805460018160011615610100020316600290048015613afb5780601f10613ad057610100808354040283529160200191613afb565b820191906000526020600020905b815481529060010190602001808311613ade57829003601f168201915b50505050509150808054600181600116156101000203166002900480601f016020809104026020016040519081016040528092919081815260200182805460018160011615610100020316600290048015613b975780601f10613b6c57610100808354040283529160200191613b97565b820191906000526020600020905b815481529060010190602001808311613b7a57829003601f168201915b505050505090509450945094509450509193509193565b600060028054905082101515613bc357600080fd5b600b6000838152602001908152602001600020805490509050919050565b6000600c6000838152602001908152602001600020805490509050919050565b6000600280549050905090565b60006003826040518082805190602001908083835b602083101515613c485780518252602082019150602081019050602083039250613c23565b6001836020036101000a0380198251168184511680821785525050505050509050019150509081526020016040518091039020549050919050565b60008060606000606060008060008060008060008060008e118015613cac57506006805490508e105b1515613cb757600080fd5b60068e815481101515613cc657fe5b90600052602060002090600f0201905080600001548160010154826002018360030154846004018560050154866006015487600701548860080160009054906101000a900460ff1689600901548a600a01548b600b0154898054600181600116156101000203166002900480601f016020809104026020016040519081016040528092919081815260200182805460018160011615610100020316600290048015613db25780601f10613d8757610100808354040283529160200191613db2565b820191906000526020600020905b815481529060010190602001808311613d9557829003601f168201915b50505050509950878054600181600116156101000203166002900480601f016020809104026020016040519081016040528092919081815260200182805460018160011615610100020316600290048015613e4e5780601f10613e2357610100808354040283529160200191613e4e565b820191906000526020600020905b815481529060010190602001808311613e3157829003601f168201915b505050505097509c509c509c509c509c509c509c509c509c509c509c509c505091939597999b5091939597999b565b6000613e87614a36565b600060068054905086101515613e9c57600080fd5b600b6000868152602001908152602001600020805490509250608060405190810160405280848152602001878152602001868152602001858152509150600b60008681526020019081526020016000208390806001815401808255809150509060018203906000526020600020016000909192909190915055506008829080600181540180825580915050906001820390600052602060002090600402016000909192909190915060008201518160000155602082015181600101556040820151816002015560608201518160030155505050600686815481101515613f7e57fe5b90600052602060002090600f020190508381600c0160008282540192505081905550613faf81600e015460016147cb565b81600e018190555080600d015481600e01541415613fef57600081600c01541315613fe35760008160070181905550613fee565b600181600701819055505b5b505050505050565b6000606080600085925084915081518351141515614018576000935061413e565b600090505b825181101561413957818181518110151561403457fe5b9060200101517f010000000000000000000000000000000000000000000000000000000000000090047f0100000000000000000000000000000000000000000000000000000000000000027effffffffffffffffffffffffffffffffffffffffffffffffffffffffffffff191683828151811015156140af57fe5b9060200101517f010000000000000000000000000000000000000000000000000000000000000090047f0100000000000000000000000000000000000000000000000000000000000000027effffffffffffffffffffffffffffffffffffffffffffffffffffffffffffff191614151561412c576000935061413e565b808060010191505061401d565b600193505b50505092915050565b60006004805490508210151561415c57600080fd5b600c6000838152602001908152602001600020805490509050919050565b60008160024233604051808381526020018273ffffffffffffffffffffffffffffffffffffffff1673ffffffffffffffffffffffffffffffffffffffff166c01000000000000000000000000028152601401925050506020604051808303816000865af11580156141ef573d6000803e3d6000fd5b5050506040513d602081101561420457600080fd5b81019080805190602001909291905050506001900481151561422257fe5b069050919050565b6000806005836040518082805190602001908083835b6020831015156142655780518252602082019150602081019050602083039250614240565b6001836020036101000a03801982511681845116808217855250505050505090500191505090815260200160405180910390205414159050919050565b6000806000806000600280549050871080156142d35750600b60008881526020019081526020016000208054905086105b15156142de57600080fd5b600b6000888152602001908152602001600020868154811015156142fe57fe5b9060005260206000200154915060088281548110151561431a57fe5b9060005260206000209060040201905080600201548160010154826003015494509450945050509250925092565b6000606080600080805490508510151561436157600080fd5b60008581548110151561437057fe5b9060005260206000209060040201905080600001548160010182600201818054600181600116156101000203166002900480601f0160208091040260200160405190810160405280929190818152602001828054600181600116156101000203166002900480156144225780601f106143f757610100808354040283529160200191614422565b820191906000526020600020905b81548152906001019060200180831161440557829003601f168201915b50505050509150808054600181600116156101000203166002900480601f0160208091040260200160405190810160405280929190818152602001828054600181600116156101000203166002900480156144be5780601f10614493576101008083540402835291602001916144be565b820191906000526020600020905b8154815290600101906020018083116144a157829003601f168201915b50505050509050935093509350509193909250565b6000600c6000848152602001908152602001600020828154811015156144f557fe5b9060005260206000200154905092915050565b6000600b6000838152602001908152602001600020805490509050919050565b60008060048381548110151561453a57fe5b90600052602060002090600902019050600e8160040160405180828054600181600116156101000203166002900480156145ab5780601f106145895761010080835404028352918201916145ab565b820191906000526020600020905b815481529060010190602001808311614597575b5050915050908152602001604051809103902080549050915050919050565b60008080549050821015156145de57600080fd5b60096000838152602001908152602001600020805490509050919050565b6000600f6000838152602001908152602001600020805490509050919050565b6000600480549050831080156146475750600c60008381526020019081526020016000208054905082105b151561465257600080fd5b600c60008481526020019081526020016000208281548110151561467257fe5b9060005260206000200154905092915050565b60105481565b6000806003836040518082805190602001908083835b6020831015156146c657805182526020820191506020810190506020830392506146a1565b6001836020036101000a03801982511681845116808217855250505050505090500191505090815260200160405180910390205414159050919050565b6060600060048381548110151561471657fe5b90600052602060002090600902019050806004018054600181600116156101000203166002900480601f0160208091040260200160405190810160405280929190818152602001828054600181600116156101000203166002900480156147be5780601f10614793576101008083540402835291602001916147be565b820191906000526020600020905b8154815290600101906020018083116147a157829003601f168201915b5050505050915050919050565b600081830190508281101515156147de57fe5b80905092915050565b6101206040519081016040528060008152602001606081526020016060815260200160608152602001606081526020016060815260200160608152602001606081526020016000151581525090565b828054600181600116156101000203166002900490600052602060002090601f016020900481019282601f1061487757805160ff19168380011785556148a5565b828001600101855582156148a5579182015b828111156148a4578251825591602001919060010190614889565b5b5090506148b29190614a5f565b5090565b6101e06040519081016040528060008152602001600081526020016060815260200160008152602001606081526020016000815260200160008152602001600081526020016000151581526020016000815260200160008152602001600081526020016000815260200160008152602001600081525090565b60a06040519081016040528060008152602001600081526020016000815260200160008152602001600081525090565b608060405190810160405280600081526020016060815260200160608152602001606081525090565b60a06040519081016040528060008152602001606081526020016060815260200160608152602001606081525090565b8154818355818111156149df578183600052602060002091820191016149de9190614a5f565b5b505050565b828054828255906000526020600020908101928215614a255760005260206000209182015b82811115614a24578254825591600101919060010190614a09565b5b509050614a329190614a5f565b5090565b608060405190810160405280600081526020016000815260200160008152602001600081525090565b614a8191905b80821115614a7d576000816000905550600101614a65565b5090565b905600a165627a7a72305820fe44d756f19689f0815366baefddd2884c5835a4a28d1e852ed672e7973f650d0029",
  "source": "pragma solidity ^0.4.16;\n\ncontract Main {\n\n    struct Admin {\n        uint256 adminId;\n        string adminAccount;\n        string admingPassword;\n    }\n\n    struct User {\n        uint256 userId;\n        string userName;\n        string userPhone;\n        string userPassword;\n    }\n\n    struct Endorsor {\n        uint256 endorsorId;\n        string endorsorOrg;//\n        string endorsorProvince;\n        string endorsorEmail;\n        string endorsorPassword;\n\n    }\n\n    struct School {\n        uint256 schoolId;\n        string schoolName;\n        string schoolEmail;\n        string schoolPassword;\n        string schoolProvince;\n        \n        string schoolAddress;\n        string schoolGovernor;//\n        string schoolAgent;//\n        bool schoolState;//\n    }\n\n    struct Project {\n        uint256 projectId;\n        uint256 schoolId;\n        string projectName;\n        uint256 projectCreateTime;\n        string projectTarget;//\n        uint256 projectTargetMoney;\n        uint256 projectCurrentMoney;\n        uint256 projectEndorseState;//0  1  2 pending\n        bool projectFinishState;\n        uint256 projectFinishTime;\n        uint256 projectPlanUpNoteTime;//\n        uint256 projectActualUpNoteTime;//\n        int256 totalScore;// \n        uint256 totalEndorsor;//\n        uint256 finishEndorsor;//\n    }\n\n    struct Denote {\n        uint256 denoteId;//id\n        uint256 userId;//id\n        uint256 projectId;//id\n        uint256 denoteMoney;//\n        uint256 denoteTime;//\n    }\n\n    struct EndorseItem {\n        uint256 endorseItemId;\n        uint256 projectId;\n        uint256 endorsorId;\n        int256 score;//0\n    }\n\n\n    User[] userList;\n    mapping(string=>uint256) userMap;//key\n\n    Endorsor[] endorsorList;\n    mapping(string=>uint256) endorsorMap;//key valueprojectId\n\n    School[] schoolList;\n    mapping(string=>uint256) schoolMap;//key\n\n    Project[] projectList;\n    Denote[] denoteList;\n    EndorseItem[] endorseItemList;\n    mapping(uint256=>Denote[]) userDenoteMap;//\n    mapping(uint256=>Denote[]) projectDenoteMap;//\n    mapping(uint256=>uint256[]) endorseItemMap;//\n    mapping(uint256=>uint256[]) schoolProjectMap;\n    mapping(uint256=>string[]) projectNoteUrlMap;\n    mapping(string=>uint256[]) provinceToEndorsorMap;\n    mapping(uint256=>uint256[]) projectEnodrsorListMap;//\n    uint256 public test = 0;\n    function getUserDenoteCount(uint256 userId) public view returns(uint256) {\n        require(userId < userList.length);\n        return userDenoteMap[userId].length;\n    } \n \n    function getProjectDenoteCount(uint256 projectId) public view returns(uint256) {\n        require(projectId < projectList.length);\n        return projectDenoteMap[projectId].length;\n    }\n\n    function getEndorseItemRecord(uint256 endorseId) public view returns(uint256) {\n        require(endorseId < endorsorList.length);\n        return endorseItemMap[endorseId].length;\n    }\n\n    function getSchoolProjectCount(uint256 schoolId) public view returns(uint256) {\n        require(schoolId < schoolList.length);\n        return schoolProjectMap[schoolId].length;\n    }\n    \n    function projectEnodrsorListCount(uint256 projectId) public view returns(uint256) {\n        return projectEnodrsorListMap[projectId].length;\n    }\n\n    function getProvinceToEndorsorCount(uint256 schoolId) public view returns(uint256) {\n        School school = schoolList[schoolId];\n        return provinceToEndorsorMap[school.schoolProvince].length;\n    }\n\n    function Main() {\n        createUser(\"0\", \"0\", \"0\");\n        createSchool(\"0\", \"0\", \"0\", \"0\", \"0\", \"0\", \"0\"); \n        createProject(0, \"0\", \"0\", 0, 0);\n        createEndorsor(\"0\", \"0\", \"0\", \"0\");\n    }\n\n    function createUser(string _userName, string _userPhone, string _userPassword) {\n        require(!checkUserByPhone(_userPhone));\n        uint256 _userId = userCount();\n        User memory user = User({userId:_userId, userName:_userName, userPhone:_userPhone, userPassword:_userPassword});\n        userList.push(user);\n        userMap[_userPhone] = _userId;\n    }\n\n    function getBytes32() view returns(string) {\n        string memory str = \"abc\";\n        return str;\n    }\n    function userCount() view returns(uint256) {\n        return userList.length;\n    }\n\n    function checkUserByPhone(string _userPhone) view returns(bool) {\n        return userMap[_userPhone] != 0;\n    }\n\n    function getUserIdByPhone(string _userPhone) view returns(uint256) {\n        return userMap[_userPhone];\n    }\n\n    function getUserByUserId(uint256 _userId) view returns(uint256, string, string) {\n        require(_userId < userList.length);\n        User user = userList[_userId];\n        return(user.userId, user.userName, user.userPhone);\n    }\n\n    function login(string _userAccount, string _userPassword) view returns(uint256, uint256) {\n        uint256 _userType = 0;\n        uint256 _userId = 0;\n        uint256 _userIdA = getUserIdByPhone(_userAccount);\n        User memory user = userList[_userIdA];\n        uint256 _userIdB = getSchoolIdByEmail(_userAccount);\n        School memory school = schoolList[_userIdB];\n        uint256 _userIdC = getEndorsorIdByEmail(_userAccount);\n        Endorsor memory endorsor = endorsorList[_userIdC];\n        _userId = _userIdA ^ _userIdB ^ _userIdC;\n\n        if (_userIdA != 0 && strEqual(user.userPassword, _userPassword)) {\n            _userType = 1;\n        }else if (_userIdB != 0 && strEqual(school.schoolPassword, _userPassword)) {\n            _userType = 2;\n        }else if (_userIdC != 0 && strEqual(endorsor.endorsorPassword, _userPassword)) {\n            _userType = 3;\n        }else if (strEqual(_userAccount, \"admin\") && strEqual(_userPassword, \"admin\") ) {\n            _userType = 4;\n        }\n        return (_userType, _userId);\n    }\n\n    function userDenote(uint256 _userId, uint256 _projectId, uint256 _denoteMoney) returns(uint256) {\n        require(_userId < userList.length && _projectId < projectList.length);\n        Project project = projectList[_projectId];\n        uint256 _denoteId = denoteCount();\n        Denote memory denote = Denote({denoteId:_denoteId, userId:_userId, projectId:_projectId, denoteMoney:_denoteMoney, denoteTime:now});\n        denoteList.push(denote);\n        userDenoteMap[_userId].push(denote);\n        projectDenoteMap[_projectId].push(denote);\n        project.projectCurrentMoney = add(project.projectCurrentMoney, _denoteMoney);\n    }\n\n    function denoteCount() view returns(uint256) {\n        return denoteList.length;\n    }\n\n    function getDenoteByUserId(uint256 _userId, uint _userDenoteId) view returns(uint256, uint256, uint256, uint256) {\n        require(_userId < userList.length && _userDenoteId < userDenoteMap[_userId].length);\n        Denote denote = userDenoteMap[_userId][_userDenoteId];\n        return (denote.denoteId, denote.projectId, denote.denoteMoney, denote.denoteTime);\n    }\n  // ///////////////////////////////////////////////////////////////////////////////////////////////////\n\n    function createEndorsor(string _endorsorOrg, string _endorsorProvince, string _endorsorEmail, string _endorsorPassword) {\n        require(!checkEndorsorByEmail(_endorsorEmail));\n        uint256 _endorsorId = endorsorCount();\n        Endorsor memory endorsor = Endorsor({endorsorId:_endorsorId, endorsorOrg:_endorsorOrg, endorsorProvince:_endorsorProvince, endorsorEmail:_endorsorEmail, endorsorPassword:_endorsorPassword});\n        endorsorList.push(endorsor);\n        endorsorMap[_endorsorEmail] = _endorsorId;\n        provinceToEndorsorMap[_endorsorProvince].push(_endorsorId);\n    }\n\n    function endorsorCount() view returns(uint256) {\n        return endorsorList.length;\n    }\n\n    function checkEndorsorByEmail(string _endorsorEmail) view returns(bool) {\n        return endorsorMap[_endorsorEmail] != 0;\n    }\n\n    function getEndorsorIdByEmail(string _endorsorEmail) view returns(uint256) {\n        return endorsorMap[_endorsorEmail];\n    }\n\n    function getEndorsorByEndorsorId(uint256 _endorsorId) view returns(uint256, string, string, string) {\n        require(_endorsorId < endorsorList.length);\n        Endorsor _endorsor =  endorsorList[_endorsorId];\n        return (_endorsor.endorsorId, _endorsor.endorsorOrg, _endorsor.endorsorProvince, _endorsor.endorsorEmail);\n    }\n\n    function getEndorseByEndorsorId(uint256 _endorsorId, uint256 _endorseItemIndex) view returns (uint256, uint256, int256) {\n         require(_endorsorId < endorsorList.length && _endorseItemIndex < endorseItemMap[_endorsorId].length);\n        uint256 endorseItemId = endorseItemMap[_endorsorId][_endorseItemIndex];\n        EndorseItem _endorseItem = endorseItemList[endorseItemId];\n        return (_endorseItem.endorsorId, _endorseItem.projectId, _endorseItem.score);\n    }\n\n    function createEndorseItem(uint256 _projectId, uint256 _endorsorId, int256 _score) {\n        require(_projectId < projectList.length);\n        uint256 _endorseItemId = endorseItemMap[_endorsorId].length;\n        EndorseItem memory endorseItem = EndorseItem({endorseItemId:_endorseItemId, projectId:_projectId, endorsorId:_endorsorId, score:_score});\n        endorseItemMap[_endorsorId].push(_endorseItemId);\n        endorseItemList.push(endorseItem);\n        Project project = projectList[_projectId];\n        project.totalScore += _score;\n        project.finishEndorsor=add(project.finishEndorsor,1);\n        if(project.finishEndorsor == project.totalEndorsor){\n            if(project.totalScore>0){\n                project.projectEndorseState = 0;\n            }else{\n                project.projectEndorseState = 1;\n            }\n        }\n    }\n\n    function getEndorseItemCountOfEndorsor(uint256 _endorsorId) view returns(uint256) {\n        return endorseItemMap[_endorsorId].length;\n    }\n\n  // ///////////////////////////////////////////////////////////////////////////////////////////////////////\n    \n    function createSchool(string _schoolEmail, string _schoolName, string _schoolPassword, string _schoolProvince, string _schoolAddress, string _schoolGovernor, string _schoolAgent) {\n        require(!checkSchoolByEmail(_schoolEmail));\n        uint256 _schoolId = schoolCount();\n        School memory school = School({schoolId:_schoolId, schoolName:_schoolName, schoolEmail:_schoolEmail, schoolPassword:_schoolPassword, schoolProvince:_schoolProvince, schoolAddress:_schoolAddress, schoolGovernor:_schoolGovernor, schoolAgent:_schoolAgent, schoolState:true});\n        schoolList.push(school);\n        schoolMap[_schoolEmail] = _schoolId;\n    }\n\n    function schoolCount() view returns(uint256) {\n        return schoolList.length;\n    }\n\n    function checkSchoolByEmail(string _schoolEmail) view returns(bool) {\n      return schoolMap[_schoolEmail] != 0;\n    }\n\n    function getSchoolIdByEmail(string _schoolEmail) view returns(uint256) {\n      return schoolMap[_schoolEmail];\n    }\n\n    function getSchoolBySchoolId(uint256 _schoolId) view returns(string, string, string, string, string, string, bool) {\n        require(_schoolId < schoolList.length);\n        School school = schoolList[_schoolId];\n        return (school.schoolName, school.schoolEmail, school.schoolProvince, school.schoolAddress, school.schoolGovernor, school.schoolAgent, school.schoolState);\n    }\n\n    function createProject(uint256 _schoolId, string _projectName, string _projectTarget, uint256 _projectTargetMoney, uint256 _projectFinishTime) {\n        require(_schoolId < schoolList.length);\n        uint256 _projectId = projectCount();\n        Project memory project = Project({projectId:_projectId, schoolId:_schoolId, projectName:_projectName, projectCreateTime:now, projectTarget:_projectTarget, projectTargetMoney:_projectTargetMoney, projectCurrentMoney:0, projectEndorseState:2, projectFinishState:false, projectFinishTime:_projectFinishTime, projectPlanUpNoteTime:0, projectActualUpNoteTime:0, totalScore:0, totalEndorsor:0, finishEndorsor:0});\n        projectList.push(project);\n        schoolProjectMap[_schoolId].push(_projectId);\n        if (_schoolId != 0) {\n            emitEndorse(_projectId);\n        }\n    }\n    function getSchoolProvince(uint256 schoolId) returns(string){\n        School school = schoolList[schoolId];\n        return school.schoolProvince;\n    }\n    function emitEndorse(uint256 _projectId) {\n        require(_projectId < projectList.length && _projectId > 0);\n        Project project = projectList[_projectId];\n        School school = schoolList[project.schoolId];\n        uint256[] endorsorList;\n        for(uint a = 0; a < provinceToEndorsorMap[school.schoolProvince].length;a++){\n            endorsorList.push(provinceToEndorsorMap[school.schoolProvince][a]);\n        }\n        uint256[] emitEndorsorList;\n        if (endorsorList.length < 3) {\n            for (uint256 i=0; i < endorsorList.length; i++) {\n                emitEndorsorList.push(endorsorList[i]);\n                createEndorseItem(_projectId, endorsorList[i], 0);\n                endorseItemMap[endorsorList[i]].length++;\n                endorseItemMap[endorsorList[i]][endorseItemMap[endorsorList[i]].length-1] = endorseItemList[endorseItemList.length-1].endorsorId;\n            }\n        }else {\n            uint256 targetEndorsorCount = endorsorList.length*2/3;\n            uint256 len = endorsorList.length;\n            for (uint256 j=0; j < targetEndorsorCount; j++) {\n                uint256 t = random(len);\n                createEndorseItem(_projectId, endorsorList[j], 0);\n                endorseItemMap[endorsorList[j]].length++;\n                endorseItemMap[endorsorList[j]][endorseItemMap[endorsorList[j]].length-1] = endorseItemList[endorseItemList.length-1].endorsorId;\n                emitEndorsorList.push(endorsorList[j]);\n                for (uint256 k=t; k < endorsorList.length-1; k++) {\n                    endorsorList[k] = endorsorList[k+1];\n                }\n                len--;\n            }\n        }\n        projectEnodrsorListMap[_projectId] = emitEndorsorList;\n        project.totalEndorsor = emitEndorsorList.length;\n        project.totalScore = 0;\n        project.finishEndorsor = 0;\n    }\n\n    function projectCount() view returns(uint256) {\n        return projectList.length;\n    }\n\n    function getProjectByProjectId(uint256 _projectId) view returns(uint256, uint256, string, uint256, string, uint256, uint256, uint256, bool, uint256, uint256, uint256) {\n        require(_projectId > 0 && _projectId < projectList.length);\n        Project project = projectList[_projectId];\n        return (project.projectId, project.schoolId, project.projectName, project.projectCreateTime, project.projectTarget, project.projectTargetMoney, project.projectCurrentMoney, project.projectEndorseState, project.projectFinishState, project.projectFinishTime, project.projectPlanUpNoteTime, project.projectActualUpNoteTime);\n    }\n\n    function getSchoolProjectCounts(uint256 _schoolId) view returns(uint256) {\n        return schoolProjectMap[_schoolId].length;\n    }\n\n    function getSchoolProjectidByNum(uint256 _schoolId ,uint256 _num) view returns(uint256) {\n        return schoolProjectMap[_schoolId][_num];\n    }\n\n    function getProjectIdBySchoolId(uint256 _schoolId, uint256 _schoolProjectId) view returns(uint256) {\n        require(_schoolId < schoolList.length && _schoolProjectId < schoolProjectMap[_schoolProjectId].length);\n        return schoolProjectMap[_schoolId][_schoolProjectId];\n    }\n  \n    // return random[0,n)\n    function random(uint256 n) view returns(uint256) {\n        return uint(sha256(now, msg.sender))%n;\n    }\n\n    function strEqual(string strA, string strB) returns(bool) {\n        bytes memory byteA = bytes(strA);\n        bytes memory byteB = bytes(strB);\n        if (byteA.length != byteB.length) {\n            return false;\n        }else {\n            for (uint256 i=0; i < byteA.length; i++){\n                if (byteA[i] != byteB[i]) {\n                    return false;\n                }\n            }\n        }\n        return true;\n    }\n\n  // from safemath.sol\n  /**\n  * @dev Multiplies two numbers, throws on overflow.\n  */\n  function mul(uint256 a, uint256 b) internal pure returns (uint256 c) {\n    if (a == 0) {\n      return 0;\n    }\n\n    c = a * b;\n    assert(c / a == b);\n    return c;\n  }\n\n  /**\n  * @dev Integer division of two numbers, truncating the quotient.\n  */\n  function div(uint256 a, uint256 b) internal pure returns (uint256) {\n    // assert(b > 0); // Solidity automatically throws when dividing by 0\n    // uint256 c = a / b;\n    // assert(a == b * c + a % b); // There is no case in which this doesn't hold\n    return a / b;\n  }\n\n  /**\n  * @dev Subtracts two numbers, throws on overflow (i.e. if subtrahend is greater than minuend).\n  */\n  function sub(uint256 a, uint256 b) internal pure returns (uint256) {\n    assert(b <= a);\n    return a - b;\n  }\n\n  /**\n  * @dev Adds two numbers, throws on overflow.\n  */\n  function add(uint256 a, uint256 b) internal pure returns (uint256 c) {\n    c = a + b;\n    assert(c >= a);\n    return c;\n  }\n}\n",
  "sourcePath": "/Users/wkorz/thunder/truffle/contracts/Main.sol",
  "compiler": {
    "name": "solc",
    "version": "0.4.24+commit.e67f0147.Emscripten.clang"
  },
  "schemaVersion": "2.0.0",
  "updatedAt": "2018-06-15T05:52:12.770Z"
}