{
  "contractName": "Main",
  "abi": [
    {
      "inputs": [],
      "payable": false,
      "stateMutability": "nonpayable",
      "type": "constructor"
    },
    {
      "constant": false,
      "inputs": [
        {
          "name": "_userName",
          "type": "string"
        },
        {
          "name": "_userPhone",
          "type": "string"
        },
        {
          "name": "_userPassword",
          "type": "string"
        }
      ],
      "name": "createUser",
      "outputs": [],
      "payable": false,
      "stateMutability": "nonpayable",
      "type": "function"
    },
    {
      "constant": true,
      "inputs": [],
      "name": "getBytes32",
      "outputs": [
        {
          "name": "",
          "type": "string"
        }
      ],
      "payable": false,
      "stateMutability": "view",
      "type": "function"
    },
    {
      "constant": true,
      "inputs": [],
      "name": "userCount",
      "outputs": [
        {
          "name": "",
          "type": "uint256"
        }
      ],
      "payable": false,
      "stateMutability": "view",
      "type": "function"
    },
    {
      "constant": true,
      "inputs": [
        {
          "name": "_userPhone",
          "type": "string"
        }
      ],
      "name": "checkUserByPhone",
      "outputs": [
        {
          "name": "",
          "type": "bool"
        }
      ],
      "payable": false,
      "stateMutability": "view",
      "type": "function"
    },
    {
      "constant": true,
      "inputs": [
        {
          "name": "_userPhone",
          "type": "string"
        }
      ],
      "name": "getUserIdByPhone",
      "outputs": [
        {
          "name": "",
          "type": "uint256"
        }
      ],
      "payable": false,
      "stateMutability": "view",
      "type": "function"
    },
    {
      "constant": true,
      "inputs": [
        {
          "name": "_userId",
          "type": "uint256"
        }
      ],
      "name": "getUserByUserId",
      "outputs": [
        {
          "name": "",
          "type": "uint256"
        },
        {
          "name": "",
          "type": "string"
        },
        {
          "name": "",
          "type": "string"
        }
      ],
      "payable": false,
      "stateMutability": "view",
      "type": "function"
    },
    {
      "constant": true,
      "inputs": [
        {
          "name": "_userAccount",
          "type": "string"
        },
        {
          "name": "_userPassword",
          "type": "string"
        }
      ],
      "name": "login",
      "outputs": [
        {
          "name": "",
          "type": "uint256"
        },
        {
          "name": "",
          "type": "uint256"
        }
      ],
      "payable": false,
      "stateMutability": "view",
      "type": "function"
    },
    {
      "constant": false,
      "inputs": [
        {
          "name": "_userId",
          "type": "uint256"
        },
        {
          "name": "_projectId",
          "type": "uint256"
        },
        {
          "name": "_denoteMoney",
          "type": "uint256"
        }
      ],
      "name": "userDenote",
      "outputs": [
        {
          "name": "",
          "type": "uint256"
        }
      ],
      "payable": false,
      "stateMutability": "nonpayable",
      "type": "function"
    },
    {
      "constant": false,
      "inputs": [],
      "name": "denoteCount",
      "outputs": [
        {
          "name": "",
          "type": "uint256"
        }
      ],
      "payable": false,
      "stateMutability": "nonpayable",
      "type": "function"
    },
    {
      "constant": false,
      "inputs": [
        {
          "name": "_userId",
          "type": "uint256"
        },
        {
          "name": "_userDenoteId",
          "type": "uint256"
        }
      ],
      "name": "getDenoteByUserId",
      "outputs": [
        {
          "name": "",
          "type": "uint256"
        },
        {
          "name": "",
          "type": "uint256"
        },
        {
          "name": "",
          "type": "uint256"
        },
        {
          "name": "",
          "type": "uint256"
        }
      ],
      "payable": false,
      "stateMutability": "nonpayable",
      "type": "function"
    },
    {
      "constant": false,
      "inputs": [
        {
          "name": "_endorsorOrg",
          "type": "string"
        },
        {
          "name": "_endorsorProvince",
          "type": "string"
        },
        {
          "name": "_endorsorEmail",
          "type": "string"
        },
        {
          "name": "_endorsorPassword",
          "type": "string"
        }
      ],
      "name": "createEndorsor",
      "outputs": [],
      "payable": false,
      "stateMutability": "nonpayable",
      "type": "function"
    },
    {
      "constant": true,
      "inputs": [],
      "name": "endorsorCount",
      "outputs": [
        {
          "name": "",
          "type": "uint256"
        }
      ],
      "payable": false,
      "stateMutability": "view",
      "type": "function"
    },
    {
      "constant": true,
      "inputs": [
        {
          "name": "_endorsorEmail",
          "type": "string"
        }
      ],
      "name": "checkEndorsorByEmail",
      "outputs": [
        {
          "name": "",
          "type": "bool"
        }
      ],
      "payable": false,
      "stateMutability": "view",
      "type": "function"
    },
    {
      "constant": true,
      "inputs": [
        {
          "name": "_endorsorEmail",
          "type": "string"
        }
      ],
      "name": "getEndorsorIdByEmail",
      "outputs": [
        {
          "name": "",
          "type": "uint256"
        }
      ],
      "payable": false,
      "stateMutability": "view",
      "type": "function"
    },
    {
      "constant": true,
      "inputs": [
        {
          "name": "_endorsorId",
          "type": "uint256"
        }
      ],
      "name": "getEndorsorByEndorsorId",
      "outputs": [
        {
          "name": "",
          "type": "uint256"
        },
        {
          "name": "",
          "type": "string"
        },
        {
          "name": "",
          "type": "string"
        },
        {
          "name": "",
          "type": "string"
        }
      ],
      "payable": false,
      "stateMutability": "view",
      "type": "function"
    },
    {
      "constant": true,
      "inputs": [
        {
          "name": "_endorsorId",
          "type": "uint256"
        },
        {
          "name": "_endorseItemIndex",
          "type": "uint256"
        }
      ],
      "name": "getEndorseByEndorsorId",
      "outputs": [
        {
          "name": "",
          "type": "uint256"
        },
        {
          "name": "",
          "type": "uint256"
        },
        {
          "name": "",
          "type": "int256"
        }
      ],
      "payable": false,
      "stateMutability": "view",
      "type": "function"
    },
    {
      "constant": false,
      "inputs": [
        {
          "name": "_projectId",
          "type": "uint256"
        },
        {
          "name": "_endorsorId",
          "type": "uint256"
        },
        {
          "name": "_score",
          "type": "int256"
        }
      ],
      "name": "createEndorseItem",
      "outputs": [],
      "payable": false,
      "stateMutability": "nonpayable",
      "type": "function"
    },
    {
      "constant": false,
      "inputs": [
        {
          "name": "_endorsorId",
          "type": "uint256"
        }
      ],
      "name": "getEndorseItemCountOfEndorsor",
      "outputs": [
        {
          "name": "",
          "type": "uint256"
        }
      ],
      "payable": false,
      "stateMutability": "nonpayable",
      "type": "function"
    },
    {
      "constant": false,
      "inputs": [
        {
          "name": "_schoolEmail",
          "type": "string"
        },
        {
          "name": "_schoolName",
          "type": "string"
        },
        {
          "name": "_schoolPassword",
          "type": "string"
        },
        {
          "name": "_schoolProvince",
          "type": "string"
        },
        {
          "name": "_schoolAddress",
          "type": "string"
        },
        {
          "name": "_schoolGovernor",
          "type": "string"
        },
        {
          "name": "_schoolAgent",
          "type": "string"
        }
      ],
      "name": "createSchool",
      "outputs": [],
      "payable": false,
      "stateMutability": "nonpayable",
      "type": "function"
    },
    {
      "constant": true,
      "inputs": [],
      "name": "schoolCount",
      "outputs": [
        {
          "name": "",
          "type": "uint256"
        }
      ],
      "payable": false,
      "stateMutability": "view",
      "type": "function"
    },
    {
      "constant": true,
      "inputs": [
        {
          "name": "_schoolEmail",
          "type": "string"
        }
      ],
      "name": "checkSchoolByEmail",
      "outputs": [
        {
          "name": "",
          "type": "bool"
        }
      ],
      "payable": false,
      "stateMutability": "view",
      "type": "function"
    },
    {
      "constant": true,
      "inputs": [
        {
          "name": "_schoolEmail",
          "type": "string"
        }
      ],
      "name": "getSchoolIdByEmail",
      "outputs": [
        {
          "name": "",
          "type": "uint256"
        }
      ],
      "payable": false,
      "stateMutability": "view",
      "type": "function"
    },
    {
      "constant": true,
      "inputs": [
        {
          "name": "_schoolId",
          "type": "uint256"
        }
      ],
      "name": "getSchoolBySchoolId",
      "outputs": [
        {
          "name": "",
          "type": "string"
        },
        {
          "name": "",
          "type": "string"
        },
        {
          "name": "",
          "type": "string"
        },
        {
          "name": "",
          "type": "string"
        },
        {
          "name": "",
          "type": "string"
        },
        {
          "name": "",
          "type": "string"
        },
        {
          "name": "",
          "type": "bool"
        }
      ],
      "payable": false,
      "stateMutability": "view",
      "type": "function"
    },
    {
      "constant": false,
      "inputs": [
        {
          "name": "_schoolId",
          "type": "uint256"
        },
        {
          "name": "_projectName",
          "type": "string"
        },
        {
          "name": "_projectTarget",
          "type": "string"
        },
        {
          "name": "_projectTargetMoney",
          "type": "uint256"
        },
        {
          "name": "_projectFinishTime",
          "type": "uint256"
        }
      ],
      "name": "createProject",
      "outputs": [],
      "payable": false,
      "stateMutability": "nonpayable",
      "type": "function"
    },
    {
      "constant": false,
      "inputs": [
        {
          "name": "_projectId",
          "type": "uint256"
        }
      ],
      "name": "emitEndorse",
      "outputs": [],
      "payable": false,
      "stateMutability": "nonpayable",
      "type": "function"
    },
    {
      "constant": true,
      "inputs": [],
      "name": "projectCount",
      "outputs": [
        {
          "name": "",
          "type": "uint256"
        }
      ],
      "payable": false,
      "stateMutability": "view",
      "type": "function"
    },
    {
      "constant": true,
      "inputs": [
        {
          "name": "_projectId",
          "type": "uint256"
        }
      ],
      "name": "getProjectByProjectId",
      "outputs": [
        {
          "name": "",
          "type": "uint256"
        },
        {
          "name": "",
          "type": "uint256"
        },
        {
          "name": "",
          "type": "string"
        },
        {
          "name": "",
          "type": "uint256"
        },
        {
          "name": "",
          "type": "string"
        },
        {
          "name": "",
          "type": "uint256"
        },
        {
          "name": "",
          "type": "uint256"
        },
        {
          "name": "",
          "type": "uint256"
        },
        {
          "name": "",
          "type": "bool"
        },
        {
          "name": "",
          "type": "uint256"
        },
        {
          "name": "",
          "type": "uint256"
        },
        {
          "name": "",
          "type": "uint256"
        }
      ],
      "payable": false,
      "stateMutability": "view",
      "type": "function"
    },
    {
      "constant": true,
      "inputs": [
        {
          "name": "_schoolId",
          "type": "uint256"
        }
      ],
      "name": "getSchoolProjectCounts",
      "outputs": [
        {
          "name": "",
          "type": "uint256"
        }
      ],
      "payable": false,
      "stateMutability": "view",
      "type": "function"
    },
    {
      "constant": true,
      "inputs": [
        {
          "name": "_schoolId",
          "type": "uint256"
        },
        {
          "name": "_num",
          "type": "uint256"
        }
      ],
      "name": "getSchoolProjectidByNum",
      "outputs": [
        {
          "name": "",
          "type": "uint256"
        }
      ],
      "payable": false,
      "stateMutability": "view",
      "type": "function"
    },
    {
      "constant": true,
      "inputs": [
        {
          "name": "_schoolId",
          "type": "uint256"
        },
        {
          "name": "_schoolProjectId",
          "type": "uint256"
        }
      ],
      "name": "getProjectIdBySchoolId",
      "outputs": [
        {
          "name": "",
          "type": "uint256"
        }
      ],
      "payable": false,
      "stateMutability": "view",
      "type": "function"
    },
    {
      "constant": false,
      "inputs": [
        {
          "name": "n",
          "type": "uint256"
        }
      ],
      "name": "random",
      "outputs": [
        {
          "name": "",
          "type": "uint256"
        }
      ],
      "payable": false,
      "stateMutability": "nonpayable",
      "type": "function"
    },
    {
      "constant": false,
      "inputs": [
        {
          "name": "strA",
          "type": "string"
        },
        {
          "name": "strB",
          "type": "string"
        }
      ],
      "name": "strEqual",
      "outputs": [
        {
          "name": "",
          "type": "bool"
        }
      ],
      "payable": false,
      "stateMutability": "nonpayable",
      "type": "function"
    }
  ],
  "bytecode": "0x606060405234156200001057600080fd5b620000d06040805190810160405280600181526020017f30000000000000000000000000000000000000000000000000000000000000008152506040805190810160405280600181526020017f30000000000000000000000000000000000000000000000000000000000000008152506040805190810160405280600181526020017f3000000000000000000000000000000000000000000000000000000000000000815250620003f36401000000000262002c8a176401000000009004565b620002686040805190810160405280600181526020017f30000000000000000000000000000000000000000000000000000000000000008152506040805190810160405280600181526020017f30000000000000000000000000000000000000000000000000000000000000008152506040805190810160405280600181526020017f30000000000000000000000000000000000000000000000000000000000000008152506040805190810160405280600181526020017f30000000000000000000000000000000000000000000000000000000000000008152506040805190810160405280600181526020017f30000000000000000000000000000000000000000000000000000000000000008152506040805190810160405280600181526020017f30000000000000000000000000000000000000000000000000000000000000008152506040805190810160405280600181526020017f30000000000000000000000000000000000000000000000000000000000000008152506200057e640100000000026200154b176401000000009004565b620002f760006040805190810160405280600181526020017f30000000000000000000000000000000000000000000000000000000000000008152506040805190810160405280600181526020017f3000000000000000000000000000000000000000000000000000000000000000815250600080620007cc640100000000026200186a176401000000009004565b620003ed6040805190810160405280600181526020017f30000000000000000000000000000000000000000000000000000000000000008152506040805190810160405280600181526020017f30000000000000000000000000000000000000000000000000000000000000008152506040805190810160405280600181526020017f30000000000000000000000000000000000000000000000000000000000000008152506040805190810160405280600181526020017f3000000000000000000000000000000000000000000000000000000000000000815250620009f9640100000000026200306b176401000000009004565b6200178f565b6000620003ff6200113d565b6200041e8462000c406401000000000262001cb3176401000000009004565b1515156200042b57600080fd5b6200044962000cba64010000000002620017cd176401000000009004565b9150608060405190810160405280838152602001868152602001858152602001848152509050600080548060010182816200048591906200117e565b91600052602060002090600402016000839091909150600082015181600001556020820151816001019080519060200190620004c3929190620011b3565b506040820151816002019080519060200190620004e2929190620011b3565b50606082015181600301908051906020019062000501929190620011b3565b50505050816001856040518082805190602001908083835b60208310151562000540578051825260208201915060208101905060208303925062000519565b6001836020036101000a0380198251168184511680821785525050505050509050019150509081526020016040518091039020819055505050505050565b60006200058a6200123a565b620005a98962000cc66401000000000262003ac4176401000000009004565b151515620005b657600080fd5b620005d462000d406401000000000262001aae176401000000009004565b9150610120604051908101604052808381526020018981526020018a815260200188815260200187815260200186815260200185815260200184815260200160011515815250905060048054806001018281620006329190620012c1565b9160005260206000209060090201600083909190915060008201518160000155602082015181600101908051906020019062000670929190620011b3565b5060408201518160020190805190602001906200068f929190620011b3565b506060820151816003019080519060200190620006ae929190620011b3565b506080820151816004019080519060200190620006cd929190620011b3565b5060a0820151816005019080519060200190620006ec929190620011b3565b5060c08201518160060190805190602001906200070b929190620011b3565b5060e08201518160070190805190602001906200072a929190620011b3565b506101008201518160080160006101000a81548160ff0219169083151502179055505050508160058a6040518082805190602001908083835b6020831015156200078a578051825260208201915060208101905060208303925062000763565b6001836020036101000a038019825116818451168082178552505050505050905001915050908152602001604051809103902081905550505050505050505050565b6000620007d8620012f6565b60048054905087101515620007ec57600080fd5b6200080a62000d4d6401000000000262001ca6176401000000009004565b91506101e06040519081016040528083815260200188815260200187815260200142815260200186815260200185815260200160008152602001600281526020016000151581526020018481526020016000815260200160008152602001600081526020016000815260200160008152509050600680548060010182816200089391906200137f565b91600052602060002090600f0201600083909190915060008201518160000155602082015181600101556040820151816002019080519060200190620008db929190620011b3565b5060608201518160030155608082015181600401908051906020019062000904929190620011b3565b5060a0820151816005015560c0820151816006015560e082015181600701556101008201518160080160006101000a81548160ff021916908315150217905550610120820151816009015561014082015181600a015561016082015181600b015561018082015181600c01556101a082015181600d01556101c082015181600e0155505050600c60008881526020019081526020016000208054806001018281620009b09190620013b4565b916000526020600020900160008490919091505550600087141515620009f057620009ef8262000d5a6401000000000262002ddc176401000000009004565b5b50505050505050565b600062000a05620013e3565b62000a24846200101a6401000000000262003e3b176401000000009004565b15151562000a3157600080fd5b62000a4f6200109464010000000002620034d6176401000000009004565b915060a0604051908101604052808381526020018781526020018681526020018581526020018481525090506002805480600101828162000a91919062001433565b9160005260206000209060050201600083909190915060008201518160000155602082015181600101908051906020019062000acf929190620011b3565b50604082015181600201908051906020019062000aee929190620011b3565b50606082015181600301908051906020019062000b0d929190620011b3565b50608082015181600401908051906020019062000b2c929190620011b3565b50505050816003856040518082805190602001908083835b60208310151562000b6b578051825260208201915060208101905060208303925062000b44565b6001836020036101000a038019825116818451168082178552505050505050905001915050908152602001604051809103902081905550600e856040518082805190602001908083835b60208310151562000bdc578051825260208201915060208101905060208303925062000bb5565b6001836020036101000a0380198251168184511680821785525050505050509050019150509081526020016040518091039020805480600101828162000c239190620013b4565b916000526020600020900160008490919091505550505050505050565b6000806001836040518082805190602001908083835b60208310151562000c7d578051825260208201915060208101905060208303925062000c56565b6001836020036101000a03801982511681845116808217855250505050505090500191505090815260200160405180910390205414159050919050565b60008080549050905090565b6000806005836040518082805190602001908083835b60208310151562000d03578051825260208201915060208101905060208303925062000cdc565b6001836020036101000a03801982511681845116808217855250505050505090500191505090815260200160405180910390205414159050919050565b6000600480549050905090565b6000600680549050905090565b6000806000806000806000806000806006805490508b10801562000d7e575060008b115b151562000d8a57600080fd5b60068b81548110151562000d9a57fe5b90600052602060002090600f0201995060048a6001015481548110151562000dbe57fe5b90600052602060002090600902019850600e89600401604051808280546001816001161561010002031660029004801562000e335780601f1062000e1057610100808354040283529182019162000e33565b820191906000526020600020905b81548152906001019060200180831162000e1e575b50509150509081526020016040518091039020975060038880549050101562000ec057600095505b878054905086101562000eba5786805480600101828162000e7d9190620013b4565b916000526020600020900160008a8981548110151562000e9957fe5b90600052602060002090015490919091505550858060010196505062000e5b565b62000fc7565b6003600289805490500281151562000ed457fe5b04945087805490509350600092505b8483101562000fc65762000f0b84620010a16401000000000262003a2a176401000000009004565b915086805480600101828162000f229190620013b4565b916000526020600020900160008a8581548110151562000f3e57fe5b906000526020600020900154909190915055508190505b600188805490500381101562000faf57876001820181548110151562000f7757fe5b906000526020600020900154888281548110151562000f9257fe5b906000526020600020900181905550808060010191505062000f55565b838060019003945050828060010193505062000ee3565b5b86600f60008d815260200190815260200160002090805462000feb92919062001468565b5086805490508a600d018190555060008a600c018190555060008a600e01819055505050505050505050505050565b6000806003836040518082805190602001908083835b60208310151562001057578051825260208201915060208101905060208303925062001030565b6001836020036101000a03801982511681845116808217855250505050505090500191505090815260200160405180910390205414159050919050565b6000600280549050905090565b60008160024233600060405160200152604051808381526020018273ffffffffffffffffffffffffffffffffffffffff1673ffffffffffffffffffffffffffffffffffffffff166c010000000000000000000000000281526014019250505060206040518083038160008661646e5a03f115156200111e57600080fd5b505060405180519050600190048115156200113557fe5b069050919050565b608060405190810160405280600081526020016200115a620014bf565b815260200162001169620014bf565b815260200162001178620014bf565b81525090565b815481835581811511620011ae57600402816004028360005260206000209182019101620011ad9190620014d3565b5b505050565b828054600181600116156101000203166002900490600052602060002090601f016020900481019282601f10620011f657805160ff191683800117855562001227565b8280016001018555821562001227579182015b828111156200122657825182559160200191906001019062001209565b5b50905062001236919062001533565b5090565b610120604051908101604052806000815260200162001258620014bf565b815260200162001267620014bf565b815260200162001276620014bf565b815260200162001285620014bf565b815260200162001294620014bf565b8152602001620012a3620014bf565b8152602001620012b2620014bf565b81526020016000151581525090565b815481835581811511620012f157600902816009028360005260206000209182019101620012f091906200155b565b5b505050565b6101e06040519081016040528060008152602001600081526020016200131b620014bf565b81526020016000815260200162001331620014bf565b81526020016000815260200160008152602001600081526020016000151581526020016000815260200160008152602001600081526020016000815260200160008152602001600081525090565b815481835581811511620013af57600f0281600f028360005260206000209182019101620013ae919062001617565b5b505050565b815481835581811511620013de57818360005260206000209182019101620013dd919062001533565b5b505050565b60a0604051908101604052806000815260200162001400620014bf565b81526020016200140f620014bf565b81526020016200141e620014bf565b81526020016200142d620014bf565b81525090565b8154818355818115116200146357600502816005028360005260206000209182019101620014629190620016d1565b5b505050565b828054828255906000526020600020908101928215620014ac5760005260206000209182015b82811115620014ab5782548255916001019190600101906200148e565b5b509050620014bb919062001533565b5090565b602060405190810160405280600081525090565b6200153091905b808211156200152c57600080820160009055600182016000620014fe919062001743565b60028201600062001510919062001743565b60038201600062001522919062001743565b50600401620014da565b5090565b90565b6200155891905b80821115620015545760008160009055506001016200153a565b5090565b90565b6200161491905b80821115620016105760008082016000905560018201600062001586919062001743565b60028201600062001598919062001743565b600382016000620015aa919062001743565b600482016000620015bc919062001743565b600582016000620015ce919062001743565b600682016000620015e0919062001743565b600782016000620015f2919062001743565b6008820160006101000a81549060ff02191690555060090162001562565b5090565b90565b620016ce91905b80821115620016ca5760008082016000905560018201600090556002820160006200164a919062001743565b600382016000905560048201600062001664919062001743565b6005820160009055600682016000905560078201600090556008820160006101000a81549060ff02191690556009820160009055600a820160009055600b820160009055600c820160009055600d820160009055600e82016000905550600f016200161e565b5090565b90565b6200174091905b808211156200173c57600080820160009055600182016000620016fc919062001743565b6002820160006200170e919062001743565b60038201600062001720919062001743565b60048201600062001732919062001743565b50600501620016d8565b5090565b90565b50805460018160011615610100020316600290046000825580601f106200176b57506200178c565b601f0160209004906000526020600020908101906200178b919062001533565b5b50565b61462e806200179f6000396000f300606060405260043610610196576000357c0100000000000000000000000000000000000000000000000000000000900463ffffffff1680630485c31d1461019b57806304d7fbdd1461020c57806306027d6a146103fb57806307973ccf1461046c5780631af550dc146104955780631e052ca3146104ea5780631f903037146105a557806328d88890146106335780633339000d1461065c578063356953c01461068557806336fbad26146106ce57806350a9601d146106f7578063579aa9671461076c57806358467dbc14610a2f57806359ae069b14610aea578063607506ba14610bcd5780636a20665814610bf05780636cb1c5bb14610d165780637e67c8e514610e915780637f4ab6ab14610ec857806387c4e29814610ef157806387f3d22314610f625780639504dd38146110b4578063add82871146110e9578063b863bd37146111a1578063bce66cdf146111d8578063c50fd39d1461124d578063c89e96661461129b578063cc6dbca4146113aa578063d45e2dbd146113ea578063f0aa979614611421578063f9faf60214611461575b600080fd5b34156101a657600080fd5b6101f6600480803590602001908201803590602001908080601f016020809104026020016040519081016040528093929190818152602001838380828437820191505050505050919050506114d6565b6040518082815260200191505060405180910390f35b341561021757600080fd5b6103f9600480803590602001908201803590602001908080601f0160208091040260200160405190810160405280939291908181526020018383808284378201915050505050509190803590602001908201803590602001908080601f0160208091040260200160405190810160405280939291908181526020018383808284378201915050505050509190803590602001908201803590602001908080601f0160208091040260200160405190810160405280939291908181526020018383808284378201915050505050509190803590602001908201803590602001908080601f0160208091040260200160405190810160405280939291908181526020018383808284378201915050505050509190803590602001908201803590602001908080601f0160208091040260200160405190810160405280939291908181526020018383808284378201915050505050509190803590602001908201803590602001908080601f0160208091040260200160405190810160405280939291908181526020018383808284378201915050505050509190803590602001908201803590602001908080601f0160208091040260200160405190810160405280939291908181526020018383808284378201915050505050509190505061154b565b005b341561040657600080fd5b610456600480803590602001908201803590602001908080601f01602080910402602001604051908101604052809392919081815260200183838082843782019150505050505091905050611758565b6040518082815260200191505060405180910390f35b341561047757600080fd5b61047f6117cd565b6040518082815260200191505060405180910390f35b34156104a057600080fd5b6104bf60048080359060200190919080359060200190919050506117d9565b6040518085815260200184815260200183815260200182815260200194505050505060405180910390f35b34156104f557600080fd5b6105a3600480803590602001909190803590602001908201803590602001908080601f0160208091040260200160405190810160405280939291908181526020018383808284378201915050505050509190803590602001908201803590602001908080601f0160208091040260200160405190810160405280939291908181526020018383808284378201915050505050509190803590602001909190803590602001909190505061186a565b005b34156105b057600080fd5b6105b8611a5f565b6040518080602001828103825283818151815260200191508051906020019080838360005b838110156105f85780820151818401526020810190506105dd565b50505050905090810190601f1680156106255780820380516001836020036101000a031916815260200191505b509250505060405180910390f35b341561063e57600080fd5b610646611aae565b6040518082815260200191505060405180910390f35b341561066757600080fd5b61066f611abb565b6040518082815260200191505060405180910390f35b341561069057600080fd5b6106b86004808035906020019091908035906020019091908035906020019091905050611ac8565b6040518082815260200191505060405180910390f35b34156106d957600080fd5b6106e1611ca6565b6040518082815260200191505060405180910390f35b341561070257600080fd5b610752600480803590602001908201803590602001908080601f01602080910402602001604051908101604052809392919081815260200183838082843782019150505050505091905050611cb3565b604051808215151515815260200191505060405180910390f35b341561077757600080fd5b61078d6004808035906020019091905050611d2b565b604051808060200180602001806020018060200180602001806020018815151515815260200187810387528e818151815260200191508051906020019080838360005b838110156107eb5780820151818401526020810190506107d0565b50505050905090810190601f1680156108185780820380516001836020036101000a031916815260200191505b5087810386528d818151815260200191508051906020019080838360005b83811015610851578082015181840152602081019050610836565b50505050905090810190601f16801561087e5780820380516001836020036101000a031916815260200191505b5087810385528c818151815260200191508051906020019080838360005b838110156108b757808201518184015260208101905061089c565b50505050905090810190601f1680156108e45780820380516001836020036101000a031916815260200191505b5087810384528b818151815260200191508051906020019080838360005b8381101561091d578082015181840152602081019050610902565b50505050905090810190601f16801561094a5780820380516001836020036101000a031916815260200191505b5087810383528a818151815260200191508051906020019080838360005b83811015610983578082015181840152602081019050610968565b50505050905090810190601f1680156109b05780820380516001836020036101000a031916815260200191505b50878103825289818151815260200191508051906020019080838360005b838110156109e95780820151818401526020810190506109ce565b50505050905090810190601f168015610a165780820380516001836020036101000a031916815260200191505b509d505050505050505050505050505060405180910390f35b3415610a3a57600080fd5b610acd600480803590602001908201803590602001908080601f0160208091040260200160405190810160405280939291908181526020018383808284378201915050505050509190803590602001908201803590602001908080601f0160208091040260200160405190810160405280939291908181526020018383808284378201915050505050509190505061217c565b604051808381526020018281526020019250505060405180910390f35b3415610af557600080fd5b610bcb600480803590602001908201803590602001908080601f0160208091040260200160405190810160405280939291908181526020018383808284378201915050505050509190803590602001908201803590602001908080601f0160208091040260200160405190810160405280939291908181526020018383808284378201915050505050509190803590602001908201803590602001908080601f01602080910402602001604051908101604052809392919081815260200183838082843782019150505050505091905050612c8a565b005b3415610bd857600080fd5b610bee6004808035906020019091905050612ddc565b005b3415610bfb57600080fd5b610d14600480803590602001908201803590602001908080601f0160208091040260200160405190810160405280939291908181526020018383808284378201915050505050509190803590602001908201803590602001908080601f0160208091040260200160405190810160405280939291908181526020018383808284378201915050505050509190803590602001908201803590602001908080601f0160208091040260200160405190810160405280939291908181526020018383808284378201915050505050509190803590602001908201803590602001908080601f0160208091040260200160405190810160405280939291908181526020018383808284378201915050505050509190505061306b565b005b3415610d2157600080fd5b610d376004808035906020019091905050613273565b60405180858152602001806020018060200180602001848103845287818151815260200191508051906020019080838360005b83811015610d85578082015181840152602081019050610d6a565b50505050905090810190601f168015610db25780820380516001836020036101000a031916815260200191505b50848103835286818151815260200191508051906020019080838360005b83811015610deb578082015181840152602081019050610dd0565b50505050905090810190601f168015610e185780820380516001836020036101000a031916815260200191505b50848103825285818151815260200191508051906020019080838360005b83811015610e51578082015181840152602081019050610e36565b50505050905090810190601f168015610e7e5780820380516001836020036101000a031916815260200191505b5097505050505050505060405180910390f35b3415610e9c57600080fd5b610eb260048080359060200190919050506134b6565b6040518082815260200191505060405180910390f35b3415610ed357600080fd5b610edb6134d6565b6040518082815260200191505060405180910390f35b3415610efc57600080fd5b610f4c600480803590602001908201803590602001908080601f016020809104026020016040519081016040528093929190818152602001838380828437820191505050505050919050506134e3565b6040518082815260200191505060405180910390f35b3415610f6d57600080fd5b610f836004808035906020019091905050613558565b604051808d81526020018c8152602001806020018b8152602001806020018a81526020018981526020018881526020018715151515815260200186815260200185815260200184815260200183810383528d818151815260200191508051906020019080838360005b83811015611007578082015181840152602081019050610fec565b50505050905090810190601f1680156110345780820380516001836020036101000a031916815260200191505b5083810382528b818151815260200191508051906020019080838360005b8381101561106d578082015181840152602081019050611052565b50505050905090810190601f16801561109a5780820380516001836020036101000a031916815260200191505b509e50505050505050505050505050505060405180910390f35b34156110bf57600080fd5b6110e7600480803590602001909190803590602001909190803590602001909190505061375e565b005b34156110f457600080fd5b611187600480803590602001908201803590602001908080601f0160208091040260200160405190810160405280939291908181526020018383808284378201915050505050509190803590602001908201803590602001908080601f016020809104026020016040519081016040528093929190818152602001838380828437820191505050505050919050506138cd565b604051808215151515815260200191505060405180910390f35b34156111ac57600080fd5b6111c26004808035906020019091905050613a2a565b6040518082815260200191505060405180910390f35b34156111e357600080fd5b611233600480803590602001908201803590602001908080601f01602080910402602001604051908101604052809392919081815260200183838082843782019150505050505091905050613ac4565b604051808215151515815260200191505060405180910390f35b341561125857600080fd5b6112776004808035906020019091908035906020019091905050613b3c565b60405180848152602001838152602001828152602001935050505060405180910390f35b34156112a657600080fd5b6112bc6004808035906020019091905050613be3565b604051808481526020018060200180602001838103835285818151815260200191508051906020019080838360005b838110156113065780820151818401526020810190506112eb565b50505050905090810190601f1680156113335780820380516001836020036101000a031916815260200191505b50838103825284818151815260200191508051906020019080838360005b8381101561136c578082015181840152602081019050611351565b50505050905090810190601f1680156113995780820380516001836020036101000a031916815260200191505b509550505050505060405180910390f35b34156113b557600080fd5b6113d46004808035906020019091908035906020019091905050613d7b565b6040518082815260200191505060405180910390f35b34156113f557600080fd5b61140b6004808035906020019091905050613db1565b6040518082815260200191505060405180910390f35b341561142c57600080fd5b61144b6004808035906020019091908035906020019091905050613dd1565b6040518082815260200191505060405180910390f35b341561146c57600080fd5b6114bc600480803590602001908201803590602001908080601f01602080910402602001604051908101604052809392919081815260200183838082843782019150505050505091905050613e3b565b604051808215151515815260200191505060405180910390f35b60006005826040518082805190602001908083835b60208310151561151057805182526020820191506020810190506020830392506114eb565b6001836020036101000a0380198251168184511680821785525050505050509050019150509081526020016040518091039020549050919050565b6000611555613eb3565b61155e89613ac4565b15151561156a57600080fd5b611572611aae565b9150610120604051908101604052808381526020018981526020018a8152602001888152602001878152602001868152602001858152602001848152602001600115158152509050600480548060010182816115ce9190613f2c565b9160005260206000209060090201600083909190915060008201518160000155602082015181600101908051906020019061160a929190613f5e565b506040820151816002019080519060200190611627929190613f5e565b506060820151816003019080519060200190611644929190613f5e565b506080820151816004019080519060200190611661929190613f5e565b5060a082015181600501908051906020019061167e929190613f5e565b5060c082015181600601908051906020019061169b929190613f5e565b5060e08201518160070190805190602001906116b8929190613f5e565b506101008201518160080160006101000a81548160ff0219169083151502179055505050508160058a6040518082805190602001908083835b60208310151561171657805182526020820191506020810190506020830392506116f1565b6001836020036101000a038019825116818451168082178552505050505050905001915050908152602001604051809103902081905550505050505050505050565b60006001826040518082805190602001908083835b602083101515611792578051825260208201915060208101905060208303925061176d565b6001836020036101000a0380198251168184511680821785525050505050509050019150509081526020016040518091039020549050919050565b60008080549050905090565b60008060008060008080549050871080156118095750600960008881526020019081526020016000208054905086105b151561181457600080fd5b600960008881526020019081526020016000208681548110151561183457fe5b90600052602060002090600502019050806000015481600201548260030154836004015494509450945094505092959194509250565b6000611874613fde565b6004805490508710151561188757600080fd5b61188f611ca6565b91506101e06040519081016040528083815260200188815260200187815260200142815260200186815260200185815260200160008152602001600281526020016000151581526020018481526020016000815260200160008152602001600081526020016000815260200160008152509050600680548060010182816119169190614063565b91600052602060002090600f020160008390919091506000820151816000015560208201518160010155604082015181600201908051906020019061195c929190613f5e565b50606082015181600301556080820151816004019080519060200190611983929190613f5e565b5060a0820151816005015560c0820151816006015560e082015181600701556101008201518160080160006101000a81548160ff021916908315150217905550610120820151816009015561014082015181600a015561016082015181600b015561018082015181600c01556101a082015181600d01556101c082015181600e0155505050600c60008881526020019081526020016000208054806001018281611a2d9190614095565b916000526020600020900160008490919091505550600087141515611a5657611a5582612ddc565b5b50505050505050565b611a676140c1565b611a6f6140c1565b6040805190810160405280600381526020017f616263000000000000000000000000000000000000000000000000000000000081525090508091505090565b6000600480549050905090565b6000600780549050905090565b6000806000611ad56140d5565b60008054905087108015611aed575060068054905086105b1515611af857600080fd5b600686815481101515611b0757fe5b90600052602060002090600f02019250611b1f611abb565b915060a06040519081016040528083815260200188815260200187815260200186815260200142815250905060078054806001018281611b5f9190614105565b916000526020600020906005020160008390919091506000820151816000015560208201518160010155604082015181600201556060820151816003015560808201518160040155505050600960008881526020019081526020016000208054806001018281611bcf9190614105565b916000526020600020906005020160008390919091506000820151816000015560208201518160010155604082015181600201556060820151816003015560808201518160040155505050600a60008781526020019081526020016000208054806001018281611c3f9190614105565b9160005260206000209060050201600083909190915060008201518160000155602082015181600101556040820151816002015560608201518160030155608082015181600401555050508483600601600082825401925050819055505050509392505050565b6000600680549050905090565b6000806001836040518082805190602001908083835b602083101515611cee5780518252602082019150602081019050602083039250611cc9565b6001836020036101000a03801982511681845116808217855250505050505090500191505090815260200160405180910390205414159050919050565b611d336140c1565b611d3b6140c1565b611d436140c1565b611d4b6140c1565b611d536140c1565b611d5b6140c1565b60008060048054905089101515611d7157600080fd5b600489815481101515611d8057fe5b906000526020600020906009020190508060010181600201826004018360050184600601856007018660080160009054906101000a900460ff16868054600181600116156101000203166002900480601f016020809104026020016040519081016040528092919081815260200182805460018160011615610100020316600290048015611e4f5780601f10611e2457610100808354040283529160200191611e4f565b820191906000526020600020905b815481529060010190602001808311611e3257829003601f168201915b50505050509650858054600181600116156101000203166002900480601f016020809104026020016040519081016040528092919081815260200182805460018160011615610100020316600290048015611eeb5780601f10611ec057610100808354040283529160200191611eeb565b820191906000526020600020905b815481529060010190602001808311611ece57829003601f168201915b50505050509550848054600181600116156101000203166002900480601f016020809104026020016040519081016040528092919081815260200182805460018160011615610100020316600290048015611f875780601f10611f5c57610100808354040283529160200191611f87565b820191906000526020600020905b815481529060010190602001808311611f6a57829003601f168201915b50505050509450838054600181600116156101000203166002900480601f0160208091040260200160405190810160405280929190818152602001828054600181600116156101000203166002900480156120235780601f10611ff857610100808354040283529160200191612023565b820191906000526020600020905b81548152906001019060200180831161200657829003601f168201915b50505050509350828054600181600116156101000203166002900480601f0160208091040260200160405190810160405280929190818152602001828054600181600116156101000203166002900480156120bf5780601f10612094576101008083540402835291602001916120bf565b820191906000526020600020905b8154815290600101906020018083116120a257829003601f168201915b50505050509250818054600181600116156101000203166002900480601f01602080910402602001604051908101604052809291908181526020018280546001816001161561010002031660029004801561215b5780601f106121305761010080835404028352916020019161215b565b820191906000526020600020905b81548152906001019060200180831161213e57829003601f168201915b50505050509150975097509750975097509750975050919395979092949650565b600080600080600061218c614137565b6000612196613eb3565b60006121a0614172565b60009750600096506121b18c611758565b95506000868154811015156121c257fe5b90600052602060002090600402016080604051908101604052908160008201548152602001600182018054600181600116156101000203166002900480601f01602080910402602001604051908101604052809291908181526020018280546001816001161561010002031660029004801561227f5780601f106122545761010080835404028352916020019161227f565b820191906000526020600020905b81548152906001019060200180831161226257829003601f168201915b50505050508152602001600282018054600181600116156101000203166002900480601f0160208091040260200160405190810160405280929190818152602001828054600181600116156101000203166002900480156123215780601f106122f657610100808354040283529160200191612321565b820191906000526020600020905b81548152906001019060200180831161230457829003601f168201915b50505050508152602001600382018054600181600116156101000203166002900480601f0160208091040260200160405190810160405280929190818152602001828054600181600116156101000203166002900480156123c35780601f10612398576101008083540402835291602001916123c3565b820191906000526020600020905b8154815290600101906020018083116123a657829003601f168201915b50505050508152505094506123d78c6114d6565b93506004848154811015156123e857fe5b9060005260206000209060090201610120604051908101604052908160008201548152602001600182018054600181600116156101000203166002900480601f0160208091040260200160405190810160405280929190818152602001828054600181600116156101000203166002900480156124a65780601f1061247b576101008083540402835291602001916124a6565b820191906000526020600020905b81548152906001019060200180831161248957829003601f168201915b50505050508152602001600282018054600181600116156101000203166002900480601f0160208091040260200160405190810160405280929190818152602001828054600181600116156101000203166002900480156125485780601f1061251d57610100808354040283529160200191612548565b820191906000526020600020905b81548152906001019060200180831161252b57829003601f168201915b50505050508152602001600382018054600181600116156101000203166002900480601f0160208091040260200160405190810160405280929190818152602001828054600181600116156101000203166002900480156125ea5780601f106125bf576101008083540402835291602001916125ea565b820191906000526020600020905b8154815290600101906020018083116125cd57829003601f168201915b50505050508152602001600482018054600181600116156101000203166002900480601f01602080910402602001604051908101604052809291908181526020018280546001816001161561010002031660029004801561268c5780601f106126615761010080835404028352916020019161268c565b820191906000526020600020905b81548152906001019060200180831161266f57829003601f168201915b50505050508152602001600582018054600181600116156101000203166002900480601f01602080910402602001604051908101604052809291908181526020018280546001816001161561010002031660029004801561272e5780601f106127035761010080835404028352916020019161272e565b820191906000526020600020905b81548152906001019060200180831161271157829003601f168201915b50505050508152602001600682018054600181600116156101000203166002900480601f0160208091040260200160405190810160405280929190818152602001828054600181600116156101000203166002900480156127d05780601f106127a5576101008083540402835291602001916127d0565b820191906000526020600020905b8154815290600101906020018083116127b357829003601f168201915b50505050508152602001600782018054600181600116156101000203166002900480601f0160208091040260200160405190810160405280929190818152602001828054600181600116156101000203166002900480156128725780601f1061284757610100808354040283529160200191612872565b820191906000526020600020905b81548152906001019060200180831161285557829003601f168201915b505050505081526020016008820160009054906101000a900460ff16151515158152505092506128a18c6134e3565b91506002828154811015156128b257fe5b906000526020600020906005020160a0604051908101604052908160008201548152602001600182018054600181600116156101000203166002900480601f01602080910402602001604051908101604052809291908181526020018280546001816001161561010002031660029004801561296f5780601f106129445761010080835404028352916020019161296f565b820191906000526020600020905b81548152906001019060200180831161295257829003601f168201915b50505050508152602001600282018054600181600116156101000203166002900480601f016020809104026020016040519081016040528092919081815260200182805460018160011615610100020316600290048015612a115780601f106129e657610100808354040283529160200191612a11565b820191906000526020600020905b8154815290600101906020018083116129f457829003601f168201915b50505050508152602001600382018054600181600116156101000203166002900480601f016020809104026020016040519081016040528092919081815260200182805460018160011615610100020316600290048015612ab35780601f10612a8857610100808354040283529160200191612ab3565b820191906000526020600020905b815481529060010190602001808311612a9657829003601f168201915b50505050508152602001600482018054600181600116156101000203166002900480601f016020809104026020016040519081016040528092919081815260200182805460018160011615610100020316600290048015612b555780601f10612b2a57610100808354040283529160200191612b55565b820191906000526020600020905b815481529060010190602001808311612b3857829003601f168201915b50505050508152505090508184871818965060008614158015612b825750612b8185606001518c6138cd565b5b15612b905760019750612c75565b60008414158015612bab5750612baa83606001518c6138cd565b5b15612bb95760029750612c74565b60008214158015612bd45750612bd381608001518c6138cd565b5b15612be25760039750612c73565b612c218c6040805190810160405280600581526020017f61646d696e0000000000000000000000000000000000000000000000000000008152506138cd565b8015612c685750612c678b6040805190810160405280600581526020017f61646d696e0000000000000000000000000000000000000000000000000000008152506138cd565b5b15612c7257600497505b5b5b5b87879950995050505050505050509250929050565b6000612c94614137565b612c9d84611cb3565b151515612ca957600080fd5b612cb16117cd565b915060806040519081016040528083815260200186815260200185815260200184815250905060008054806001018281612ceb91906141ba565b91600052602060002090600402016000839091909150600082015181600001556020820151816001019080519060200190612d27929190613f5e565b506040820151816002019080519060200190612d44929190613f5e565b506060820151816003019080519060200190612d61929190613f5e565b50505050816001856040518082805190602001908083835b602083101515612d9e5780518252602082019150602081019050602083039250612d79565b6001836020036101000a0380198251168184511680821785525050505050509050019150509081526020016040518091039020819055505050505050565b6000806000806000806000806000806006805490508b108015612dff575060008b115b1515612e0a57600080fd5b60068b815481101515612e1957fe5b90600052602060002090600f0201995060048a60010154815481101515612e3c57fe5b90600052602060002090600902019850600e896004016040518082805460018160011615610100020316600290048015612ead5780601f10612e8b576101008083540402835291820191612ead565b820191906000526020600020905b815481529060010190602001808311612e99575b505091505090815260200160405180910390209750600388805490501015612f3357600095505b8780549050861015612f2e57868054806001018281612ef39190614095565b916000526020600020900160008a89815481101515612f0e57fe5b906000526020600020900154909190915055508580600101965050612ed4565b61301a565b60036002898054905002811515612f4657fe5b04945087805490509350600092505b8483101561301957612f6684613a2a565b9150868054806001018281612f7b9190614095565b916000526020600020900160008a85815481101515612f9657fe5b906000526020600020900154909190915055508190505b6001888054905003811015613003578760018201815481101515612fcd57fe5b9060005260206000209001548882815481101515612fe757fe5b9060005260206000209001819055508080600101915050612fad565b8380600190039450508280600101935050612f55565b5b86600f60008d815260200190815260200160002090805461303c9291906141ec565b5086805490508a600d018190555060008a600c018190555060008a600e01819055505050505050505050505050565b6000613075614172565b61307e84613e3b565b15151561308a57600080fd5b6130926134d6565b915060a060405190810160405280838152602001878152602001868152602001858152602001848152509050600280548060010182816130d2919061423e565b9160005260206000209060050201600083909190915060008201518160000155602082015181600101908051906020019061310e929190613f5e565b50604082015181600201908051906020019061312b929190613f5e565b506060820151816003019080519060200190613148929190613f5e565b506080820151816004019080519060200190613165929190613f5e565b50505050816003856040518082805190602001908083835b6020831015156131a2578051825260208201915060208101905060208303925061317d565b6001836020036101000a038019825116818451168082178552505050505050905001915050908152602001604051809103902081905550600e856040518082805190602001908083835b60208310151561321157805182526020820191506020810190506020830392506131ec565b6001836020036101000a038019825116818451168082178552505050505050905001915050908152602001604051809103902080548060010182816132569190614095565b916000526020600020900160008490919091505550505050505050565b600061327d6140c1565b6132856140c1565b61328d6140c1565b6000600280549050861015156132a257600080fd5b6002868154811015156132b157fe5b906000526020600020906005020190508060000154816001018260020183600301828054600181600116156101000203166002900480601f0160208091040260200160405190810160405280929190818152602001828054600181600116156101000203166002900480156133675780601f1061333c57610100808354040283529160200191613367565b820191906000526020600020905b81548152906001019060200180831161334a57829003601f168201915b50505050509250818054600181600116156101000203166002900480601f0160208091040260200160405190810160405280929190818152602001828054600181600116156101000203166002900480156134035780601f106133d857610100808354040283529160200191613403565b820191906000526020600020905b8154815290600101906020018083116133e657829003601f168201915b50505050509150808054600181600116156101000203166002900480601f01602080910402602001604051908101604052809291908181526020018280546001816001161561010002031660029004801561349f5780601f106134745761010080835404028352916020019161349f565b820191906000526020600020905b81548152906001019060200180831161348257829003601f168201915b505050505090509450945094509450509193509193565b6000600c6000838152602001908152602001600020805490509050919050565b6000600280549050905090565b60006003826040518082805190602001908083835b60208310151561351d57805182526020820191506020810190506020830392506134f8565b6001836020036101000a0380198251168184511680821785525050505050509050019150509081526020016040518091039020549050919050565b6000806135636140c1565b600061356d6140c1565b60008060008060008060008060008e11801561358d57506006805490508e105b151561359857600080fd5b60068e8154811015156135a757fe5b90600052602060002090600f0201905080600001548160010154826002018360030154846004018560050154866006015487600701548860080160009054906101000a900460ff1689600901548a600a01548b600b0154898054600181600116156101000203166002900480601f0160208091040260200160405190810160405280929190818152602001828054600181600116156101000203166002900480156136935780601f1061366857610100808354040283529160200191613693565b820191906000526020600020905b81548152906001019060200180831161367657829003601f168201915b50505050509950878054600181600116156101000203166002900480601f01602080910402602001604051908101604052809291908181526020018280546001816001161561010002031660029004801561372f5780601f106137045761010080835404028352916020019161372f565b820191906000526020600020905b81548152906001019060200180831161371257829003601f168201915b505050505097509c509c509c509c509c509c509c509c509c509c509c509c505091939597999b5091939597999b565b6000613768614270565b60006006805490508610151561377d57600080fd5b600b6000868152602001908152602001600020805490509250608060405190810160405280848152602001878152602001868152602001858152509150600b600086815260200190815260200160002080548060010182816137df9190614095565b916000526020600020900160008590919091505550600880548060010182816138089190614299565b916000526020600020906004020160008490919091506000820151816000015560208201518160010155604082015181600201556060820151816003015550505060068681548110151561385857fe5b90600052602060002090600f020190508381600c0160008282540192505081905550600181600e016000828254019250508190555080600d015481600e015414156138c557600081600c015413156138b957600081600701819055506138c4565b600181600701819055505b5b505050505050565b60006138d76142cb565b6138df6142cb565b6000859250849150815183511415156138fb5760009350613a21565b600090505b8251811015613a1c57818181518110151561391757fe5b9060200101517f010000000000000000000000000000000000000000000000000000000000000090047f0100000000000000000000000000000000000000000000000000000000000000027effffffffffffffffffffffffffffffffffffffffffffffffffffffffffffff1916838281518110151561399257fe5b9060200101517f010000000000000000000000000000000000000000000000000000000000000090047f0100000000000000000000000000000000000000000000000000000000000000027effffffffffffffffffffffffffffffffffffffffffffffffffffffffffffff1916141515613a0f5760009350613a21565b8080600101915050613900565b600193505b50505092915050565b60008160024233600060405160200152604051808381526020018273ffffffffffffffffffffffffffffffffffffffff1673ffffffffffffffffffffffffffffffffffffffff166c010000000000000000000000000281526014019250505060206040518083038160008661646e5a03f11515613aa657600080fd5b50506040518051905060019004811515613abc57fe5b069050919050565b6000806005836040518082805190602001908083835b602083101515613aff5780518252602082019150602081019050602083039250613ada565b6001836020036101000a03801982511681845116808217855250505050505090500191505090815260200160405180910390205414159050919050565b600080600080600060028054905087108015613b6d5750600b60008881526020019081526020016000208054905086105b1515613b7857600080fd5b600b600088815260200190815260200160002086815481101515613b9857fe5b9060005260206000209001549150600882815481101515613bb557fe5b9060005260206000209060040201905080600201548160010154826003015494509450945050509250925092565b6000613bed6140c1565b613bf56140c1565b6000808054905085101515613c0957600080fd5b600085815481101515613c1857fe5b9060005260206000209060040201905080600001548160010182600201818054600181600116156101000203166002900480601f016020809104026020016040519081016040528092919081815260200182805460018160011615610100020316600290048015613cca5780601f10613c9f57610100808354040283529160200191613cca565b820191906000526020600020905b815481529060010190602001808311613cad57829003601f168201915b50505050509150808054600181600116156101000203166002900480601f016020809104026020016040519081016040528092919081815260200182805460018160011615610100020316600290048015613d665780601f10613d3b57610100808354040283529160200191613d66565b820191906000526020600020905b815481529060010190602001808311613d4957829003601f168201915b50505050509050935093509350509193909250565b6000600c600084815260200190815260200160002082815481101515613d9d57fe5b906000526020600020900154905092915050565b6000600b6000838152602001908152602001600020805490509050919050565b600060048054905083108015613dfc5750600c60008381526020019081526020016000208054905082105b1515613e0757600080fd5b600c600084815260200190815260200160002082815481101515613e2757fe5b906000526020600020900154905092915050565b6000806003836040518082805190602001908083835b602083101515613e765780518252602082019150602081019050602083039250613e51565b6001836020036101000a03801982511681845116808217855250505050505090500191505090815260200160405180910390205414159050919050565b6101206040519081016040528060008152602001613ecf6142df565b8152602001613edc6142df565b8152602001613ee96142df565b8152602001613ef66142df565b8152602001613f036142df565b8152602001613f106142df565b8152602001613f1d6142df565b81526020016000151581525090565b815481835581811511613f5957600902816009028360005260206000209182019101613f5891906142f3565b5b505050565b828054600181600116156101000203166002900490600052602060002090601f016020900481019282601f10613f9f57805160ff1916838001178555613fcd565b82800160010185558215613fcd579182015b82811115613fcc578251825591602001919060010190613fb1565b5b509050613fda919061439e565b5090565b6101e06040519081016040528060008152602001600081526020016140016142df565b8152602001600081526020016140156142df565b81526020016000815260200160008152602001600081526020016000151581526020016000815260200160008152602001600081526020016000815260200160008152602001600081525090565b81548183558181151161409057600f0281600f02836000526020600020918201910161408f91906143c3565b5b505050565b8154818355818115116140bc578183600052602060002091820191016140bb919061439e565b5b505050565b602060405190810160405280600081525090565b60a06040519081016040528060008152602001600081526020016000815260200160008152602001600081525090565b815481835581811511614132576005028160050283600052602060002091820191016141319190614476565b5b505050565b608060405190810160405280600081526020016141526142df565b815260200161415f6142df565b815260200161416c6142df565b81525090565b60a0604051908101604052806000815260200161418d6142df565b815260200161419a6142df565b81526020016141a76142df565b81526020016141b46142df565b81525090565b8154818355818115116141e7576004028160040283600052602060002091820191016141e691906144bd565b5b505050565b82805482825590600052602060002090810192821561422d5760005260206000209182015b8281111561422c578254825591600101919060010190614211565b5b50905061423a919061439e565b5090565b81548183558181151161426b5760050281600502836000526020600020918201910161426a9190614514565b5b505050565b608060405190810160405280600081526020016000815260200160008152602001600081525090565b8154818355818115116142c6576004028160040283600052602060002091820191016142c5919061457b565b5b505050565b602060405190810160405280600081525090565b602060405190810160405280600081525090565b61439b91905b808211156143975760008082016000905560018201600061431a91906145ba565b60028201600061432a91906145ba565b60038201600061433a91906145ba565b60048201600061434a91906145ba565b60058201600061435a91906145ba565b60068201600061436a91906145ba565b60078201600061437a91906145ba565b6008820160006101000a81549060ff0219169055506009016142f9565b5090565b90565b6143c091905b808211156143bc5760008160009055506001016143a4565b5090565b90565b61447391905b8082111561446f5760008082016000905560018201600090556002820160006143f291906145ba565b600382016000905560048201600061440a91906145ba565b6005820160009055600682016000905560078201600090556008820160006101000a81549060ff02191690556009820160009055600a820160009055600b820160009055600c820160009055600d820160009055600e82016000905550600f016143c9565b5090565b90565b6144ba91905b808211156144b65760008082016000905560018201600090556002820160009055600382016000905560048201600090555060050161447c565b5090565b90565b61451191905b8082111561450d576000808201600090556001820160006144e491906145ba565b6002820160006144f491906145ba565b60038201600061450491906145ba565b506004016144c3565b5090565b90565b61457891905b808211156145745760008082016000905560018201600061453b91906145ba565b60028201600061454b91906145ba565b60038201600061455b91906145ba565b60048201600061456b91906145ba565b5060050161451a565b5090565b90565b6145b791905b808211156145b35760008082016000905560018201600090556002820160009055600382016000905550600401614581565b5090565b90565b50805460018160011615610100020316600290046000825580601f106145e057506145ff565b601f0160209004906000526020600020908101906145fe919061439e565b5b505600a165627a7a7230582070805e8c8e19cf1c5838f57371298733208e043a6dffa8bb958fdb95f93ea04b0029",
  "source": "pragma solidity ^0.4.16;\n\ncontract Main {\n\n    struct Admin {\n        uint256 adminId;\n        string adminAccount;\n        string admingPassword;\n    }\n\n    struct User {\n        uint256 userId;\n        string userName;\n        string userPhone;\n        string userPassword;\n    }\n\n    struct Endorsor {\n        uint256 endorsorId;\n        string endorsorOrg;//\n        string endorsorProvince;\n        string endorsorEmail;\n        string endorsorPassword;\n\n    }\n\n    struct School {\n        uint256 schoolId;\n        string schoolName;\n        string schoolEmail;\n        string schoolPassword;\n        string schoolProvince;\n        string schoolAddress;\n        string schoolGovernor;//\n        string schoolAgent;//\n        bool schoolState;//\n    }\n\n    struct Project {\n        uint256 projectId;\n        uint256 schoolId;\n        string projectName;\n        uint256 projectCreateTime;\n        string projectTarget;//\n        uint256 projectTargetMoney;\n        uint256 projectCurrentMoney;\n        uint256 projectEndorseState;//0  1  2 pending\n        bool projectFinishState;\n        uint256 projectFinishTime;\n        uint256 projectPlanUpNoteTime;//\n        uint256 projectActualUpNoteTime;//\n        int256 totalScore;// \n        uint256 totalEndorsor;//\n        uint256 finishEndorsor;//\n    }\n\n    struct Denote {\n        uint256 denoteId;//id\n        uint256 userId;//id\n        uint256 projectId;//id\n        uint256 denoteMoney;//\n        uint256 denoteTime;//\n    }\n\n    struct EndorseItem {\n        uint256 endorseItemId;\n        uint256 projectId;\n        uint256 endorsorId;\n        int256 score;//{0: 1 2}\n    }\n\n\n    User[] userList;\n    mapping(string=>uint256) userMap;//key\n\n    Endorsor[] endorsorList;\n    mapping(string=>uint256) endorsorMap;//key valueprojectId\n\n    School[] schoolList;\n    mapping(string=>uint256) schoolMap;//key\n\n    Project[] projectList;\n    Denote[] denoteList;\n    EndorseItem[] endorseItemList;\n    mapping(uint256=>Denote[]) userDenoteMap;//\n    mapping(uint256=>Denote[]) projectDenoteMap;//\n    mapping(uint256=>uint256[]) endorseItemMap;//\n    mapping(uint256=>uint256[]) schoolProjectMap;\n    mapping(uint256=>string[]) projectNoteUrlMap;\n    mapping(string=>uint256[]) provinceToEndorsorMap;\n    mapping(uint256=>uint256[]) projectEnodrsorListMap;//\n\n    function Main() {\n        createUser(\"0\", \"0\", \"0\");\n        createSchool(\"0\", \"0\", \"0\", \"0\", \"0\", \"0\", \"0\"); \n        createProject(0, \"0\", \"0\", 0, 0);\n        createEndorsor(\"0\", \"0\", \"0\", \"0\");\n    }\n\n    function createUser(string _userName, string _userPhone, string _userPassword) {\n        require(!checkUserByPhone(_userPhone));\n        uint256 _userId = userCount();\n        User memory user = User({userId:_userId, userName:_userName, userPhone:_userPhone, userPassword:_userPassword});\n        userList.push(user);\n        userMap[_userPhone] = _userId;\n    }\n\n    function getBytes32() view returns(string) {\n        string memory str = \"abc\";\n        return str;\n    }\n    function userCount() view returns(uint256) {\n        return userList.length;\n    }\n\n    function checkUserByPhone(string _userPhone) view returns(bool) {\n        return userMap[_userPhone] != 0;\n    }\n\n    function getUserIdByPhone(string _userPhone) view returns(uint256) {\n        return userMap[_userPhone];\n    }\n\n    function getUserByUserId(uint256 _userId) view returns(uint256, string, string) {\n        require(_userId < userList.length);\n        User user = userList[_userId];\n        return(user.userId, user.userName, user.userPhone);\n    }\n\n    function login(string _userAccount, string _userPassword) view returns(uint256, uint256) {\n        uint256 _userType = 0;\n        uint256 _userId = 0;\n        uint256 _userIdA = getUserIdByPhone(_userAccount);\n        User memory user = userList[_userIdA];\n        uint256 _userIdB = getSchoolIdByEmail(_userAccount);\n        School memory school = schoolList[_userIdB];\n        uint256 _userIdC = getEndorsorIdByEmail(_userAccount);\n        Endorsor memory endorsor = endorsorList[_userIdC];\n        _userId = _userIdA ^ _userIdB ^ _userIdC;\n\n        if (_userIdA != 0 && strEqual(user.userPassword, _userPassword)) {\n            _userType = 1;\n        }else if (_userIdB != 0 && strEqual(school.schoolPassword, _userPassword)) {\n            _userType = 2;\n        }else if (_userIdC != 0 && strEqual(endorsor.endorsorPassword, _userPassword)) {\n            _userType = 3;\n        }else if (strEqual(_userAccount, \"admin\") && strEqual(_userPassword, \"admin\") ) {\n            _userType = 4;\n        }\n        return (_userType, _userId);\n    }\n\n    function userDenote(uint256 _userId, uint256 _projectId, uint256 _denoteMoney) returns(uint256) {\n        require(_userId < userList.length && _projectId < projectList.length);\n        Project project = projectList[_projectId];\n        uint256 _denoteId = denoteCount();\n        Denote memory denote = Denote({denoteId:_denoteId, userId:_userId, projectId:_projectId, denoteMoney:_denoteMoney, denoteTime:now});\n        denoteList.push(denote);\n        userDenoteMap[_userId].push(denote);\n        projectDenoteMap[_projectId].push(denote);\n        project.projectCurrentMoney += _denoteMoney;\n    }\n\n    function denoteCount() returns(uint256) {\n        return denoteList.length;\n    }\n\n    function getDenoteByUserId(uint256 _userId, uint _userDenoteId) returns(uint256, uint256, uint256, uint256) {\n        require(_userId < userList.length && _userDenoteId < userDenoteMap[_userId].length);\n        Denote denote = userDenoteMap[_userId][_userDenoteId];\n        return (denote.denoteId, denote.projectId, denote.denoteMoney, denote.denoteTime);\n    }\n  // ///////////////////////////////////////////////////////////////////////////////////////////////////\n\n    function createEndorsor(string _endorsorOrg, string _endorsorProvince, string _endorsorEmail, string _endorsorPassword) {\n        require(!checkEndorsorByEmail(_endorsorEmail));\n        uint256 _endorsorId = endorsorCount();\n        Endorsor memory endorsor = Endorsor({endorsorId:_endorsorId, endorsorOrg:_endorsorOrg, endorsorProvince:_endorsorProvince, endorsorEmail:_endorsorEmail, endorsorPassword:_endorsorPassword});\n        endorsorList.push(endorsor);\n        endorsorMap[_endorsorEmail] = _endorsorId;\n        provinceToEndorsorMap[_endorsorProvince].push(_endorsorId);\n    }\n\n    function endorsorCount() view returns(uint256) {\n        return endorsorList.length;\n    }\n\n    function checkEndorsorByEmail(string _endorsorEmail) view returns(bool) {\n        return endorsorMap[_endorsorEmail] != 0;\n    }\n\n    function getEndorsorIdByEmail(string _endorsorEmail) view returns(uint256) {\n        return endorsorMap[_endorsorEmail];\n    }\n\n    function getEndorsorByEndorsorId(uint256 _endorsorId) view returns(uint256, string, string, string) {\n        require(_endorsorId < endorsorList.length);\n        Endorsor _endorsor =  endorsorList[_endorsorId];\n        return (_endorsor.endorsorId, _endorsor.endorsorOrg, _endorsor.endorsorProvince, _endorsor.endorsorEmail);\n    }\n\n    function getEndorseByEndorsorId(uint256 _endorsorId, uint256 _endorseItemIndex) view returns (uint256, uint256, int256) {\n        require(_endorsorId < endorsorList.length && _endorseItemIndex < endorseItemMap[_endorsorId].length);\n        uint256 endorseItemId = endorseItemMap[_endorsorId][_endorseItemIndex];\n        EndorseItem _endorseItem = endorseItemList[endorseItemId];\n        return (_endorseItem.endorsorId, _endorseItem.projectId, _endorseItem.score);\n    }\n\n    function createEndorseItem(uint256 _projectId, uint256 _endorsorId, int256 _score) {\n        require(_projectId < projectList.length);\n        uint256 _endorseItemId = endorseItemMap[_endorsorId].length;\n        EndorseItem memory endorseItem = EndorseItem({endorseItemId:_endorseItemId, projectId:_projectId, endorsorId:_endorsorId, score:_score});\n        endorseItemMap[_endorsorId].push(_endorseItemId);\n        endorseItemList.push(endorseItem);\n        Project project = projectList[_projectId];\n        project.totalScore += _score;\n        project.finishEndorsor+=1;\n        if(project.finishEndorsor == project.totalEndorsor){\n            if(project.totalScore>0){\n                project.projectEndorseState = 0;\n            }else{\n                project.projectEndorseState = 1;\n            }\n        }\n    }\n\n    function getEndorseItemCountOfEndorsor(uint256 _endorsorId) returns(uint256) {\n        return endorseItemMap[_endorsorId].length;\n    }\n\n  // ///////////////////////////////////////////////////////////////////////////////////////////////////////\n    \n    function createSchool(string _schoolEmail, string _schoolName, string _schoolPassword, string _schoolProvince, string _schoolAddress, string _schoolGovernor, string _schoolAgent) {\n        require(!checkSchoolByEmail(_schoolEmail));\n        uint256 _schoolId = schoolCount();\n        School memory school = School({schoolId:_schoolId, schoolName:_schoolName, schoolEmail:_schoolEmail, schoolPassword:_schoolPassword, schoolProvince:_schoolProvince, schoolAddress:_schoolAddress, schoolGovernor:_schoolGovernor, schoolAgent:_schoolAgent, schoolState:true});\n        schoolList.push(school);\n        schoolMap[_schoolEmail] = _schoolId;\n    }\n\n    function schoolCount() view returns(uint256) {\n        return schoolList.length;\n    }\n\n    function checkSchoolByEmail(string _schoolEmail) view returns(bool) {\n      return schoolMap[_schoolEmail] != 0;\n    }\n\n    function getSchoolIdByEmail(string _schoolEmail) view returns(uint256) {\n      return schoolMap[_schoolEmail];\n    }\n\n    function getSchoolBySchoolId(uint256 _schoolId) view returns(string, string, string, string, string, string, bool) {\n        require(_schoolId < schoolList.length);\n        School school = schoolList[_schoolId];\n        return (school.schoolName, school.schoolEmail, school.schoolProvince, school.schoolAddress, school.schoolGovernor, school.schoolAgent, school.schoolState);\n    }\n\n    function createProject(uint256 _schoolId, string _projectName, string _projectTarget, uint256 _projectTargetMoney, uint256 _projectFinishTime) {\n        require(_schoolId < schoolList.length);\n        uint256 _projectId = projectCount();\n        Project memory project = Project({projectId:_projectId, schoolId:_schoolId, projectName:_projectName, projectCreateTime:now, projectTarget:_projectTarget, projectTargetMoney:_projectTargetMoney, projectCurrentMoney:0, projectEndorseState:2, projectFinishState:false, projectFinishTime:_projectFinishTime, projectPlanUpNoteTime:0, projectActualUpNoteTime:0, totalScore:0, totalEndorsor:0, finishEndorsor:0});\n        projectList.push(project);\n        schoolProjectMap[_schoolId].push(_projectId);\n        if (_schoolId != 0) {\n            emitEndorse(_projectId);\n        }\n    }\n\n    function emitEndorse(uint256 _projectId) {\n        require(_projectId < projectList.length && _projectId > 0);\n        Project project = projectList[_projectId];\n        School school = schoolList[project.schoolId];\n        uint256[] endorsorList = provinceToEndorsorMap[school.schoolProvince];\n        uint256[] emitEndorsorList;\n        if (endorsorList.length < 3) {\n            for (uint256 i=0; i < endorsorList.length; i++) {\n                emitEndorsorList.push(endorsorList[i]);\n            }\n        }else {\n            uint256 targetEndorsorCount = endorsorList.length*2/3;\n            uint256 len = endorsorList.length;\n            for (uint256 j=0; j < targetEndorsorCount; j++) {\n                uint256 t = random(len);\n                emitEndorsorList.push(endorsorList[t]);\n                for (uint256 k=t; k < endorsorList.length-1; k++) {\n                    endorsorList[k] = endorsorList[k+1];\n                }\n                len--;\n            }\n        }\n        projectEnodrsorListMap[_projectId] = emitEndorsorList;\n        project.totalEndorsor = emitEndorsorList.length;\n        project.totalScore = 0;\n        project.finishEndorsor = 0;\n    }\n\n    function projectCount() view returns(uint256) {\n        return projectList.length;\n    }\n\n    function getProjectByProjectId(uint256 _projectId) view returns(uint256, uint256, string, uint256, string, uint256, uint256, uint256, bool, uint256, uint256, uint256) {\n        require(_projectId > 0 && _projectId < projectList.length);\n        Project project = projectList[_projectId];\n        return (project.projectId, project.schoolId, project.projectName, project.projectCreateTime, project.projectTarget, project.projectTargetMoney, project.projectCurrentMoney, project.projectEndorseState, project.projectFinishState, project.projectFinishTime, project.projectPlanUpNoteTime, project.projectActualUpNoteTime);\n    }\n\n    function getSchoolProjectCounts(uint256 _schoolId) view returns(uint256) {\n        return schoolProjectMap[_schoolId].length;\n    }\n\n    function getSchoolProjectidByNum(uint256 _schoolId ,uint256 _num) view returns(uint256) {\n        return schoolProjectMap[_schoolId][_num];\n    }\n\n    function getProjectIdBySchoolId(uint256 _schoolId, uint256 _schoolProjectId) view returns(uint256) {\n        require(_schoolId < schoolList.length && _schoolProjectId < schoolProjectMap[_schoolProjectId].length);\n        return schoolProjectMap[_schoolId][_schoolProjectId];\n    }\n  \n    // return random[0,n)\n    function random(uint256 n) returns(uint256) {\n        return uint(sha256(now, msg.sender))%n;\n    }\n\n    function strEqual(string strA, string strB) returns(bool) {\n        bytes memory byteA = bytes(strA);\n        bytes memory byteB = bytes(strB);\n        if (byteA.length != byteB.length) {\n            return false;\n        }else {\n            for (uint256 i=0; i < byteA.length; i++){\n                if (byteA[i] != byteB[i]) {\n                    return false;\n                }\n            }\n        }\n        return true;\n    }\n}\n",
  "sourcePath": "/home/hk-journalist/code/thunder/truffle/contracts/Main.sol",
  "compiler": {
    "name": "solc",
    "version": "0.4.19+commit.c4cbbb05.Emscripten.clang"
  },
  "schemaVersion": "2.0.0",
  "updatedAt": "2018-06-10T03:53:11.823Z"
}