{
  "contractName": "Main",
  "abi": [
    {
      "inputs": [],
      "payable": false,
      "stateMutability": "nonpayable",
      "type": "constructor"
    },
    {
      "constant": false,
      "inputs": [
        {
          "name": "_userName",
          "type": "string"
        },
        {
          "name": "_userPhone",
          "type": "string"
        },
        {
          "name": "_userPassword",
          "type": "string"
        }
      ],
      "name": "createUser",
      "outputs": [],
      "payable": false,
      "stateMutability": "nonpayable",
      "type": "function"
    },
    {
      "constant": true,
      "inputs": [],
      "name": "userCount",
      "outputs": [
        {
          "name": "",
          "type": "uint256"
        }
      ],
      "payable": false,
      "stateMutability": "view",
      "type": "function"
    },
    {
      "constant": true,
      "inputs": [
        {
          "name": "_userPhone",
          "type": "string"
        }
      ],
      "name": "checkUserByPhone",
      "outputs": [
        {
          "name": "",
          "type": "bool"
        }
      ],
      "payable": false,
      "stateMutability": "view",
      "type": "function"
    },
    {
      "constant": true,
      "inputs": [
        {
          "name": "_userPhone",
          "type": "string"
        }
      ],
      "name": "getUserIdByPhone",
      "outputs": [
        {
          "name": "",
          "type": "uint256"
        }
      ],
      "payable": false,
      "stateMutability": "view",
      "type": "function"
    },
    {
      "constant": true,
      "inputs": [
        {
          "name": "_userId",
          "type": "uint256"
        }
      ],
      "name": "getUserByUserId",
      "outputs": [
        {
          "name": "",
          "type": "uint256"
        },
        {
          "name": "",
          "type": "string"
        },
        {
          "name": "",
          "type": "string"
        }
      ],
      "payable": false,
      "stateMutability": "view",
      "type": "function"
    },
    {
      "constant": true,
      "inputs": [
        {
          "name": "_userAccount",
          "type": "string"
        },
        {
          "name": "_userPassword",
          "type": "string"
        }
      ],
      "name": "login",
      "outputs": [
        {
          "name": "",
          "type": "uint256"
        },
        {
          "name": "",
          "type": "uint256"
        }
      ],
      "payable": false,
      "stateMutability": "view",
      "type": "function"
    },
    {
      "constant": false,
      "inputs": [
        {
          "name": "_userId",
          "type": "uint256"
        },
        {
          "name": "_projectId",
          "type": "uint256"
        },
        {
          "name": "_denoteMoney",
          "type": "uint256"
        }
      ],
      "name": "userDenote",
      "outputs": [
        {
          "name": "",
          "type": "uint256"
        }
      ],
      "payable": false,
      "stateMutability": "nonpayable",
      "type": "function"
    },
    {
      "constant": false,
      "inputs": [],
      "name": "denoteCount",
      "outputs": [
        {
          "name": "",
          "type": "uint256"
        }
      ],
      "payable": false,
      "stateMutability": "nonpayable",
      "type": "function"
    },
    {
      "constant": false,
      "inputs": [
        {
          "name": "_userId",
          "type": "uint256"
        },
        {
          "name": "_userDenoteId",
          "type": "uint256"
        }
      ],
      "name": "getDenoteByUserId",
      "outputs": [
        {
          "name": "",
          "type": "uint256"
        },
        {
          "name": "",
          "type": "uint256"
        },
        {
          "name": "",
          "type": "uint256"
        },
        {
          "name": "",
          "type": "uint256"
        }
      ],
      "payable": false,
      "stateMutability": "nonpayable",
      "type": "function"
    },
    {
      "constant": false,
      "inputs": [
        {
          "name": "_endorsorOrg",
          "type": "string"
        },
        {
          "name": "_endorsorProvince",
          "type": "string"
        },
        {
          "name": "_endorsorEmail",
          "type": "string"
        },
        {
          "name": "_endorsorPassword",
          "type": "string"
        }
      ],
      "name": "createEndorsor",
      "outputs": [],
      "payable": false,
      "stateMutability": "nonpayable",
      "type": "function"
    },
    {
      "constant": true,
      "inputs": [],
      "name": "endorsorCount",
      "outputs": [
        {
          "name": "",
          "type": "uint256"
        }
      ],
      "payable": false,
      "stateMutability": "view",
      "type": "function"
    },
    {
      "constant": true,
      "inputs": [
        {
          "name": "_endorsorEmail",
          "type": "string"
        }
      ],
      "name": "checkEndorsorByEmail",
      "outputs": [
        {
          "name": "",
          "type": "bool"
        }
      ],
      "payable": false,
      "stateMutability": "view",
      "type": "function"
    },
    {
      "constant": true,
      "inputs": [
        {
          "name": "_endorsorEmail",
          "type": "string"
        }
      ],
      "name": "getEndorsorIdByEmail",
      "outputs": [
        {
          "name": "",
          "type": "uint256"
        }
      ],
      "payable": false,
      "stateMutability": "view",
      "type": "function"
    },
    {
      "constant": true,
      "inputs": [
        {
          "name": "_endorsorId",
          "type": "uint256"
        }
      ],
      "name": "getEndorsorByEndorsorId",
      "outputs": [
        {
          "name": "",
          "type": "uint256"
        },
        {
          "name": "",
          "type": "string"
        },
        {
          "name": "",
          "type": "string"
        },
        {
          "name": "",
          "type": "string"
        }
      ],
      "payable": false,
      "stateMutability": "view",
      "type": "function"
    },
    {
      "constant": true,
      "inputs": [
        {
          "name": "_endorsorId",
          "type": "uint256"
        },
        {
          "name": "_endorseItemIndex",
          "type": "uint256"
        }
      ],
      "name": "getEndorseByEndorsorId",
      "outputs": [
        {
          "name": "",
          "type": "uint256"
        },
        {
          "name": "",
          "type": "uint256"
        },
        {
          "name": "",
          "type": "uint256"
        }
      ],
      "payable": false,
      "stateMutability": "view",
      "type": "function"
    },
    {
      "constant": false,
      "inputs": [
        {
          "name": "_projectId",
          "type": "uint256"
        },
        {
          "name": "_endorsorId",
          "type": "uint256"
        },
        {
          "name": "_operate",
          "type": "uint256"
        }
      ],
      "name": "createEndorseItem",
      "outputs": [],
      "payable": false,
      "stateMutability": "nonpayable",
      "type": "function"
    },
    {
      "constant": false,
      "inputs": [
        {
          "name": "_endorsorId",
          "type": "uint256"
        }
      ],
      "name": "getEndorseItemCountOfEndorsor",
      "outputs": [
        {
          "name": "",
          "type": "uint256"
        }
      ],
      "payable": false,
      "stateMutability": "nonpayable",
      "type": "function"
    },
    {
      "constant": false,
      "inputs": [
        {
          "name": "_schoolEmail",
          "type": "string"
        },
        {
          "name": "_schoolName",
          "type": "string"
        },
        {
          "name": "_schoolPassword",
          "type": "string"
        },
        {
          "name": "_schoolProvince",
          "type": "string"
        },
        {
          "name": "_schoolAddress",
          "type": "string"
        },
        {
          "name": "_schoolGovernor",
          "type": "string"
        },
        {
          "name": "_schoolAgent",
          "type": "string"
        }
      ],
      "name": "createSchool",
      "outputs": [],
      "payable": false,
      "stateMutability": "nonpayable",
      "type": "function"
    },
    {
      "constant": true,
      "inputs": [],
      "name": "schoolCount",
      "outputs": [
        {
          "name": "",
          "type": "uint256"
        }
      ],
      "payable": false,
      "stateMutability": "view",
      "type": "function"
    },
    {
      "constant": true,
      "inputs": [
        {
          "name": "_schoolEmail",
          "type": "string"
        }
      ],
      "name": "checkSchoolByEmail",
      "outputs": [
        {
          "name": "",
          "type": "bool"
        }
      ],
      "payable": false,
      "stateMutability": "view",
      "type": "function"
    },
    {
      "constant": true,
      "inputs": [
        {
          "name": "_schoolEmail",
          "type": "string"
        }
      ],
      "name": "getSchoolIdByEmail",
      "outputs": [
        {
          "name": "",
          "type": "uint256"
        }
      ],
      "payable": false,
      "stateMutability": "view",
      "type": "function"
    },
    {
      "constant": true,
      "inputs": [
        {
          "name": "_schoolId",
          "type": "uint256"
        }
      ],
      "name": "getSchoolBySchoolId",
      "outputs": [
        {
          "name": "",
          "type": "string"
        },
        {
          "name": "",
          "type": "string"
        },
        {
          "name": "",
          "type": "string"
        },
        {
          "name": "",
          "type": "string"
        },
        {
          "name": "",
          "type": "string"
        },
        {
          "name": "",
          "type": "string"
        },
        {
          "name": "",
          "type": "bool"
        }
      ],
      "payable": false,
      "stateMutability": "view",
      "type": "function"
    },
    {
      "constant": false,
      "inputs": [
        {
          "name": "_schoolId",
          "type": "uint256"
        },
        {
          "name": "_projectName",
          "type": "string"
        },
        {
          "name": "_projectTarget",
          "type": "string"
        },
        {
          "name": "_projectTargetMoney",
          "type": "uint256"
        },
        {
          "name": "_projectFinishTime",
          "type": "uint256"
        }
      ],
      "name": "createProject",
      "outputs": [],
      "payable": false,
      "stateMutability": "nonpayable",
      "type": "function"
    },
    {
      "constant": false,
      "inputs": [
        {
          "name": "_projectId",
          "type": "uint256"
        }
      ],
      "name": "emitEndorse",
      "outputs": [],
      "payable": false,
      "stateMutability": "nonpayable",
      "type": "function"
    },
    {
      "constant": true,
      "inputs": [],
      "name": "projectCount",
      "outputs": [
        {
          "name": "",
          "type": "uint256"
        }
      ],
      "payable": false,
      "stateMutability": "view",
      "type": "function"
    },
    {
      "constant": true,
      "inputs": [
        {
          "name": "_projectId",
          "type": "uint256"
        }
      ],
      "name": "getProjectByProjectId",
      "outputs": [
        {
          "name": "",
          "type": "uint256"
        },
        {
          "name": "",
          "type": "uint256"
        },
        {
          "name": "",
          "type": "string"
        },
        {
          "name": "",
          "type": "uint256"
        },
        {
          "name": "",
          "type": "string"
        },
        {
          "name": "",
          "type": "uint256"
        },
        {
          "name": "",
          "type": "uint256"
        },
        {
          "name": "",
          "type": "uint256"
        },
        {
          "name": "",
          "type": "bool"
        },
        {
          "name": "",
          "type": "uint256"
        },
        {
          "name": "",
          "type": "uint256"
        },
        {
          "name": "",
          "type": "uint256"
        }
      ],
      "payable": false,
      "stateMutability": "view",
      "type": "function"
    },
    {
      "constant": true,
      "inputs": [
        {
          "name": "_schoolId",
          "type": "uint256"
        }
      ],
      "name": "getSchoolProjectCounts",
      "outputs": [
        {
          "name": "",
          "type": "uint256"
        }
      ],
      "payable": false,
      "stateMutability": "view",
      "type": "function"
    },
    {
      "constant": true,
      "inputs": [
        {
          "name": "_schoolId",
          "type": "uint256"
        },
        {
          "name": "_schoolProjectId",
          "type": "uint256"
        }
      ],
      "name": "getProjectIdBySchoolId",
      "outputs": [
        {
          "name": "",
          "type": "uint256"
        }
      ],
      "payable": false,
      "stateMutability": "view",
      "type": "function"
    },
    {
      "constant": false,
      "inputs": [
        {
          "name": "n",
          "type": "uint256"
        }
      ],
      "name": "random",
      "outputs": [
        {
          "name": "",
          "type": "uint256"
        }
      ],
      "payable": false,
      "stateMutability": "nonpayable",
      "type": "function"
    }
  ],
  "bytecode": "0x606060405234156200001057600080fd5b620000d06040805190810160405280600181526020017f30000000000000000000000000000000000000000000000000000000000000008152506040805190810160405280600181526020017f30000000000000000000000000000000000000000000000000000000000000008152506040805190810160405280600181526020017f3000000000000000000000000000000000000000000000000000000000000000815250620003f36401000000000262002009176401000000009004565b620002686040805190810160405280600181526020017f30000000000000000000000000000000000000000000000000000000000000008152506040805190810160405280600181526020017f30000000000000000000000000000000000000000000000000000000000000008152506040805190810160405280600181526020017f30000000000000000000000000000000000000000000000000000000000000008152506040805190810160405280600181526020017f30000000000000000000000000000000000000000000000000000000000000008152506040805190810160405280600181526020017f30000000000000000000000000000000000000000000000000000000000000008152506040805190810160405280600181526020017f30000000000000000000000000000000000000000000000000000000000000008152506040805190810160405280600181526020017f30000000000000000000000000000000000000000000000000000000000000008152506200057e64010000000002620013a4176401000000009004565b620002f760006040805190810160405280600181526020017f30000000000000000000000000000000000000000000000000000000000000008152506040805190810160405280600181526020017f3000000000000000000000000000000000000000000000000000000000000000815250600080620007cc64010000000002620016c3176401000000009004565b620003ed6040805190810160405280600181526020017f30000000000000000000000000000000000000000000000000000000000000008152506040805190810160405280600181526020017f30000000000000000000000000000000000000000000000000000000000000008152506040805190810160405280600181526020017f30000000000000000000000000000000000000000000000000000000000000008152506040805190810160405280600181526020017f3000000000000000000000000000000000000000000000000000000000000000815250620009f964010000000002620023af176401000000009004565b620016ee565b6000620003ff620010f3565b6200041e8462000c406401000000000262001abd176401000000009004565b1515156200042b57600080fd5b6200044962000cba6401000000000262001626176401000000009004565b91506080604051908101604052808381526020018681526020018581526020018481525090506000805480600101828162000485919062001134565b91600052602060002090600402016000839091909150600082015181600001556020820151816001019080519060200190620004c392919062001169565b506040820151816002019080519060200190620004e292919062001169565b5060608201518160030190805190602001906200050192919062001169565b50505050816001856040518082805190602001908083835b60208310151562000540578051825260208201915060208101905060208303925062000519565b6001836020036101000a0380198251168184511680821785525050505050509050019150509081526020016040518091039020819055505050505050565b60006200058a620011f0565b620005a98962000cc66401000000000262002b2f176401000000009004565b151515620005b657600080fd5b620005d462000d4064010000000002620018b8176401000000009004565b9150610120604051908101604052808381526020018981526020018a81526020018881526020018781526020018681526020018581526020018481526020016001151581525090506004805480600101828162000632919062001277565b916000526020600020906009020160008390919091506000820151816000015560208201518160010190805190602001906200067092919062001169565b5060408201518160020190805190602001906200068f92919062001169565b506060820151816003019080519060200190620006ae92919062001169565b506080820151816004019080519060200190620006cd92919062001169565b5060a0820151816005019080519060200190620006ec92919062001169565b5060c08201518160060190805190602001906200070b92919062001169565b5060e08201518160070190805190602001906200072a92919062001169565b506101008201518160080160006101000a81548160ff0219169083151502179055505050508160058a6040518082805190602001908083835b6020831015156200078a578051825260208201915060208101905060208303925062000763565b6001836020036101000a038019825116818451168082178552505050505050905001915050908152602001604051809103902081905550505050505050505050565b6000620007d8620012ac565b60048054905087101515620007ec57600080fd5b6200080a62000d4d6401000000000262001ab0176401000000009004565b91506101e060405190810160405280838152602001888152602001878152602001428152602001868152602001858152602001600081526020016002815260200160001515815260200184815260200160008152602001600081526020016000815260200160008152602001600081525090506006805480600101828162000893919062001335565b91600052602060002090600f0201600083909190915060008201518160000155602082015181600101556040820151816002019080519060200190620008db92919062001169565b506060820151816003015560808201518160040190805190602001906200090492919062001169565b5060a0820151816005015560c0820151816006015560e082015181600701556101008201518160080160006101000a81548160ff021916908315150217905550610120820151816009015561014082015181600a015561016082015181600b015561018082015181600c01556101a082015181600d01556101c082015181600e0155505050600c60008881526020019081526020016000208054806001018281620009b091906200136a565b916000526020600020900160008490919091505550600087141515620009f057620009ef8262000d5a640100000000026200215b176401000000009004565b5b50505050505050565b600062000a0562001399565b62000a248462000fdd6401000000000262002f7a176401000000009004565b15151562000a3157600080fd5b62000a4f62001057640100000000026200281a176401000000009004565b915060a0604051908101604052808381526020018781526020018681526020018581526020018481525090506002805480600101828162000a919190620013e9565b9160005260206000209060050201600083909190915060008201518160000155602082015181600101908051906020019062000acf92919062001169565b50604082015181600201908051906020019062000aee92919062001169565b50606082015181600301908051906020019062000b0d92919062001169565b50608082015181600401908051906020019062000b2c92919062001169565b50505050816003856040518082805190602001908083835b60208310151562000b6b578051825260208201915060208101905060208303925062000b44565b6001836020036101000a038019825116818451168082178552505050505050905001915050908152602001604051809103902081905550600e856040518082805190602001908083835b60208310151562000bdc578051825260208201915060208101905060208303925062000bb5565b6001836020036101000a0380198251168184511680821785525050505050509050019150509081526020016040518091039020805480600101828162000c2391906200136a565b916000526020600020900160008490919091505550505050505050565b6000806001836040518082805190602001908083835b60208310151562000c7d578051825260208201915060208101905060208303925062000c56565b6001836020036101000a03801982511681845116808217855250505050505090500191505090815260200160405180910390205414159050919050565b60008080549050905090565b6000806005836040518082805190602001908083835b60208310151562000d03578051825260208201915060208101905060208303925062000cdc565b6001836020036101000a03801982511681845116808217855250505050505090500191505090815260200160405180910390205414159050919050565b6000600480549050905090565b6000600680549050905090565b6000806000806000806000806000806006805490508b10801562000d7e575060008b115b151562000d8a57600080fd5b60068b81548110151562000d9a57fe5b90600052602060002090600f0201995060048a6001015481548110151562000dbe57fe5b90600052602060002090600902019850600e89600401604051808280546001816001161561010002031660029004801562000e335780601f1062000e1057610100808354040283529182019162000e33565b820191906000526020600020905b81548152906001019060200180831162000e1e575b50509150509081526020016040518091039020975060038880549050101562000ec057600095505b878054905086101562000eba5786805480600101828162000e7d91906200136a565b916000526020600020900160008a8981548110151562000e9957fe5b90600052602060002090015490919091505550858060010196505062000e5b565b62000fc7565b6003600289805490500281151562000ed457fe5b04945087805490509350600092505b8483101562000fc65762000f0b84620010646401000000000262002aa2176401000000009004565b915086805480600101828162000f2291906200136a565b916000526020600020900160008a8581548110151562000f3e57fe5b906000526020600020900154909190915055508190505b600188805490500381101562000faf57876001820181548110151562000f7757fe5b906000526020600020900154888281548110151562000f9257fe5b906000526020600020900181905550808060010191505062000f55565b838060019003945050828060010193505062000ee3565b5b848a600c01819055505050505050505050505050565b6000806003836040518082805190602001908083835b6020831015156200101a578051825260208201915060208101905060208303925062000ff3565b6001836020036101000a03801982511681845116808217855250505050505090500191505090815260200160405180910390205414159050919050565b6000600280549050905090565b60008160024233604051808381526020018273ffffffffffffffffffffffffffffffffffffffff1673ffffffffffffffffffffffffffffffffffffffff166c01000000000000000000000000028152601401925050506020604051808303816000865af11515620010d457600080fd5b50506040518051905060019004811515620010eb57fe5b069050919050565b60806040519081016040528060008152602001620011106200141e565b81526020016200111f6200141e565b81526020016200112e6200141e565b81525090565b815481835581811511620011645760040281600402836000526020600020918201910162001163919062001432565b5b505050565b828054600181600116156101000203166002900490600052602060002090601f016020900481019282601f10620011ac57805160ff1916838001178555620011dd565b82800160010185558215620011dd579182015b82811115620011dc578251825591602001919060010190620011bf565b5b509050620011ec919062001492565b5090565b61012060405190810160405280600081526020016200120e6200141e565b81526020016200121d6200141e565b81526020016200122c6200141e565b81526020016200123b6200141e565b81526020016200124a6200141e565b8152602001620012596200141e565b8152602001620012686200141e565b81526020016000151581525090565b815481835581811511620012a757600902816009028360005260206000209182019101620012a69190620014ba565b5b505050565b6101e0604051908101604052806000815260200160008152602001620012d16200141e565b815260200160008152602001620012e76200141e565b81526020016000815260200160008152602001600081526020016000151581526020016000815260200160008152602001600081526020016000815260200160008152602001600081525090565b8154818355818115116200136557600f0281600f02836000526020600020918201910162001364919062001576565b5b505050565b815481835581811511620013945781836000526020600020918201910162001393919062001492565b5b505050565b60a06040519081016040528060008152602001620013b66200141e565b8152602001620013c56200141e565b8152602001620013d46200141e565b8152602001620013e36200141e565b81525090565b815481835581811511620014195760050281600502836000526020600020918201910162001418919062001630565b5b505050565b602060405190810160405280600081525090565b6200148f91905b808211156200148b576000808201600090556001820160006200145d9190620016a2565b6002820160006200146f9190620016a2565b600382016000620014819190620016a2565b5060040162001439565b5090565b90565b620014b791905b80821115620014b357600081600090555060010162001499565b5090565b90565b6200157391905b808211156200156f57600080820160009055600182016000620014e59190620016a2565b600282016000620014f79190620016a2565b600382016000620015099190620016a2565b6004820160006200151b9190620016a2565b6005820160006200152d9190620016a2565b6006820160006200153f9190620016a2565b600782016000620015519190620016a2565b6008820160006101000a81549060ff021916905550600901620014c1565b5090565b90565b6200162d91905b8082111562001629576000808201600090556001820160009055600282016000620015a99190620016a2565b6003820160009055600482016000620015c39190620016a2565b6005820160009055600682016000905560078201600090556008820160006101000a81549060ff02191690556009820160009055600a820160009055600b820160009055600c820160009055600d820160009055600e82016000905550600f016200157d565b5090565b90565b6200169f91905b808211156200169b576000808201600090556001820160006200165b9190620016a2565b6002820160006200166d9190620016a2565b6003820160006200167f9190620016a2565b600482016000620016919190620016a2565b5060050162001637565b5090565b90565b50805460018160011615610100020316600290046000825580601f10620016ca5750620016eb565b601f016020900490600052602060002090810190620016ea919062001492565b5b50565b61370780620016fe6000396000f300606060405260043610610175576000357c0100000000000000000000000000000000000000000000000000000000900463ffffffff1680630485c31d1461017a57806304d7fbdd146101eb57806306027d6a146103da57806307973ccf1461044b5780631af550dc146104745780631e052ca3146104c957806328d88890146105845780633339000d146105ad578063356953c0146105d657806336fbad261461061f57806350a9601d14610648578063579aa967146106bd57806358467dbc1461098057806359ae069b14610a3b578063607506ba14610b1e5780636a20665814610b415780636cb1c5bb14610c675780637e67c8e514610de25780637f4ab6ab14610e1957806387c4e29814610e4257806387f3d22314610eb3578063b863bd3714611005578063bce66cdf1461103c578063c50fd39d146110b1578063c89e9666146110ff578063c93433d71461120e578063d45e2dbd14611243578063f0aa97961461127a578063f9faf602146112ba575b600080fd5b341561018557600080fd5b6101d5600480803590602001908201803590602001908080601f0160208091040260200160405190810160405280939291908181526020018383808284378201915050505050509190505061132f565b6040518082815260200191505060405180910390f35b34156101f657600080fd5b6103d8600480803590602001908201803590602001908080601f0160208091040260200160405190810160405280939291908181526020018383808284378201915050505050509190803590602001908201803590602001908080601f0160208091040260200160405190810160405280939291908181526020018383808284378201915050505050509190803590602001908201803590602001908080601f0160208091040260200160405190810160405280939291908181526020018383808284378201915050505050509190803590602001908201803590602001908080601f0160208091040260200160405190810160405280939291908181526020018383808284378201915050505050509190803590602001908201803590602001908080601f0160208091040260200160405190810160405280939291908181526020018383808284378201915050505050509190803590602001908201803590602001908080601f0160208091040260200160405190810160405280939291908181526020018383808284378201915050505050509190803590602001908201803590602001908080601f016020809104026020016040519081016040528093929190818152602001838380828437820191505050505050919050506113a4565b005b34156103e557600080fd5b610435600480803590602001908201803590602001908080601f016020809104026020016040519081016040528093929190818152602001838380828437820191505050505050919050506115b1565b6040518082815260200191505060405180910390f35b341561045657600080fd5b61045e611626565b6040518082815260200191505060405180910390f35b341561047f57600080fd5b61049e6004808035906020019091908035906020019091905050611632565b6040518085815260200184815260200183815260200182815260200194505050505060405180910390f35b34156104d457600080fd5b610582600480803590602001909190803590602001908201803590602001908080601f0160208091040260200160405190810160405280939291908181526020018383808284378201915050505050509190803590602001908201803590602001908080601f016020809104026020016040519081016040528093929190818152602001838380828437820191505050505050919080359060200190919080359060200190919050506116c3565b005b341561058f57600080fd5b6105976118b8565b6040518082815260200191505060405180910390f35b34156105b857600080fd5b6105c06118c5565b6040518082815260200191505060405180910390f35b34156105e157600080fd5b61060960048080359060200190919080359060200190919080359060200190919050506118d2565b6040518082815260200191505060405180910390f35b341561062a57600080fd5b610632611ab0565b6040518082815260200191505060405180910390f35b341561065357600080fd5b6106a3600480803590602001908201803590602001908080601f01602080910402602001604051908101604052809392919081815260200183838082843782019150505050505091905050611abd565b604051808215151515815260200191505060405180910390f35b34156106c857600080fd5b6106de6004808035906020019091905050611b35565b604051808060200180602001806020018060200180602001806020018815151515815260200187810387528e818151815260200191508051906020019080838360005b8381101561073c578082015181840152602081019050610721565b50505050905090810190601f1680156107695780820380516001836020036101000a031916815260200191505b5087810386528d818151815260200191508051906020019080838360005b838110156107a2578082015181840152602081019050610787565b50505050905090810190601f1680156107cf5780820380516001836020036101000a031916815260200191505b5087810385528c818151815260200191508051906020019080838360005b838110156108085780820151818401526020810190506107ed565b50505050905090810190601f1680156108355780820380516001836020036101000a031916815260200191505b5087810384528b818151815260200191508051906020019080838360005b8381101561086e578082015181840152602081019050610853565b50505050905090810190601f16801561089b5780820380516001836020036101000a031916815260200191505b5087810383528a818151815260200191508051906020019080838360005b838110156108d45780820151818401526020810190506108b9565b50505050905090810190601f1680156109015780820380516001836020036101000a031916815260200191505b50878103825289818151815260200191508051906020019080838360005b8381101561093a57808201518184015260208101905061091f565b50505050905090810190601f1680156109675780820380516001836020036101000a031916815260200191505b509d505050505050505050505050505060405180910390f35b341561098b57600080fd5b610a1e600480803590602001908201803590602001908080601f0160208091040260200160405190810160405280939291908181526020018383808284378201915050505050509190803590602001908201803590602001908080601f01602080910402602001604051908101604052809392919081815260200183838082843782019150505050505091905050611f86565b604051808381526020018281526020019250505060405180910390f35b3415610a4657600080fd5b610b1c600480803590602001908201803590602001908080601f0160208091040260200160405190810160405280939291908181526020018383808284378201915050505050509190803590602001908201803590602001908080601f0160208091040260200160405190810160405280939291908181526020018383808284378201915050505050509190803590602001908201803590602001908080601f01602080910402602001604051908101604052809392919081815260200183838082843782019150505050505091905050612009565b005b3415610b2957600080fd5b610b3f600480803590602001909190505061215b565b005b3415610b4c57600080fd5b610c65600480803590602001908201803590602001908080601f0160208091040260200160405190810160405280939291908181526020018383808284378201915050505050509190803590602001908201803590602001908080601f0160208091040260200160405190810160405280939291908181526020018383808284378201915050505050509190803590602001908201803590602001908080601f0160208091040260200160405190810160405280939291908181526020018383808284378201915050505050509190803590602001908201803590602001908080601f016020809104026020016040519081016040528093929190818152602001838380828437820191505050505050919050506123af565b005b3415610c7257600080fd5b610c8860048080359060200190919050506125b7565b60405180858152602001806020018060200180602001848103845287818151815260200191508051906020019080838360005b83811015610cd6578082015181840152602081019050610cbb565b50505050905090810190601f168015610d035780820380516001836020036101000a031916815260200191505b50848103835286818151815260200191508051906020019080838360005b83811015610d3c578082015181840152602081019050610d21565b50505050905090810190601f168015610d695780820380516001836020036101000a031916815260200191505b50848103825285818151815260200191508051906020019080838360005b83811015610da2578082015181840152602081019050610d87565b50505050905090810190601f168015610dcf5780820380516001836020036101000a031916815260200191505b5097505050505050505060405180910390f35b3415610ded57600080fd5b610e0360048080359060200190919050506127fa565b6040518082815260200191505060405180910390f35b3415610e2457600080fd5b610e2c61281a565b6040518082815260200191505060405180910390f35b3415610e4d57600080fd5b610e9d600480803590602001908201803590602001908080601f01602080910402602001604051908101604052809392919081815260200183838082843782019150505050505091905050612827565b6040518082815260200191505060405180910390f35b3415610ebe57600080fd5b610ed4600480803590602001909190505061289c565b604051808d81526020018c8152602001806020018b8152602001806020018a81526020018981526020018881526020018715151515815260200186815260200185815260200184815260200183810383528d818151815260200191508051906020019080838360005b83811015610f58578082015181840152602081019050610f3d565b50505050905090810190601f168015610f855780820380516001836020036101000a031916815260200191505b5083810382528b818151815260200191508051906020019080838360005b83811015610fbe578082015181840152602081019050610fa3565b50505050905090810190601f168015610feb5780820380516001836020036101000a031916815260200191505b509e50505050505050505050505050505060405180910390f35b341561101057600080fd5b6110266004808035906020019091905050612aa2565b6040518082815260200191505060405180910390f35b341561104757600080fd5b611097600480803590602001908201803590602001908080601f01602080910402602001604051908101604052809392919081815260200183838082843782019150505050505091905050612b2f565b604051808215151515815260200191505060405180910390f35b34156110bc57600080fd5b6110db6004808035906020019091908035906020019091905050612ba7565b60405180848152602001838152602001828152602001935050505060405180910390f35b341561110a57600080fd5b6111206004808035906020019091905050612c4e565b604051808481526020018060200180602001838103835285818151815260200191508051906020019080838360005b8381101561116a57808201518184015260208101905061114f565b50505050905090810190601f1680156111975780820380516001836020036101000a031916815260200191505b50838103825284818151815260200191508051906020019080838360005b838110156111d05780820151818401526020810190506111b5565b50505050905090810190601f1680156111fd5780820380516001836020036101000a031916815260200191505b509550505050505060405180910390f35b341561121957600080fd5b6112416004808035906020019091908035906020019091908035906020019091905050612de6565b005b341561124e57600080fd5b6112646004808035906020019091905050612ef0565b6040518082815260200191505060405180910390f35b341561128557600080fd5b6112a46004808035906020019091908035906020019091905050612f10565b6040518082815260200191505060405180910390f35b34156112c557600080fd5b611315600480803590602001908201803590602001908080601f01602080910402602001604051908101604052809392919081815260200183838082843782019150505050505091905050612f7a565b604051808215151515815260200191505060405180910390f35b60006005826040518082805190602001908083835b6020831015156113695780518252602082019150602081019050602083039250611344565b6001836020036101000a0380198251168184511680821785525050505050509050019150509081526020016040518091039020549050919050565b60006113ae612ff2565b6113b789612b2f565b1515156113c357600080fd5b6113cb6118b8565b9150610120604051908101604052808381526020018981526020018a815260200188815260200187815260200186815260200185815260200184815260200160011515815250905060048054806001018281611427919061306b565b9160005260206000209060090201600083909190915060008201518160000155602082015181600101908051906020019061146392919061309d565b50604082015181600201908051906020019061148092919061309d565b50606082015181600301908051906020019061149d92919061309d565b5060808201518160040190805190602001906114ba92919061309d565b5060a08201518160050190805190602001906114d792919061309d565b5060c08201518160060190805190602001906114f492919061309d565b5060e082015181600701908051906020019061151192919061309d565b506101008201518160080160006101000a81548160ff0219169083151502179055505050508160058a6040518082805190602001908083835b60208310151561156f578051825260208201915060208101905060208303925061154a565b6001836020036101000a038019825116818451168082178552505050505050905001915050908152602001604051809103902081905550505050505050505050565b60006001826040518082805190602001908083835b6020831015156115eb57805182526020820191506020810190506020830392506115c6565b6001836020036101000a0380198251168184511680821785525050505050509050019150509081526020016040518091039020549050919050565b60008080549050905090565b60008060008060008080549050871080156116625750600960008881526020019081526020016000208054905086105b151561166d57600080fd5b600960008881526020019081526020016000208681548110151561168d57fe5b90600052602060002090600502019050806000015481600201548260030154836004015494509450945094505092959194509250565b60006116cd61311d565b600480549050871015156116e057600080fd5b6116e8611ab0565b91506101e060405190810160405280838152602001888152602001878152602001428152602001868152602001858152602001600081526020016002815260200160001515815260200184815260200160008152602001600081526020016000815260200160008152602001600081525090506006805480600101828161176f91906131a2565b91600052602060002090600f02016000839091909150600082015181600001556020820151816001015560408201518160020190805190602001906117b592919061309d565b506060820151816003015560808201518160040190805190602001906117dc92919061309d565b5060a0820151816005015560c0820151816006015560e082015181600701556101008201518160080160006101000a81548160ff021916908315150217905550610120820151816009015561014082015181600a015561016082015181600b015561018082015181600c01556101a082015181600d01556101c082015181600e0155505050600c6000888152602001908152602001600020805480600101828161188691906131d4565b9160005260206000209001600084909190915055506000871415156118af576118ae8261215b565b5b50505050505050565b6000600480549050905090565b6000600780549050905090565b60008060006118df613200565b600080549050871080156118f7575060068054905086105b151561190257600080fd5b60068681548110151561191157fe5b90600052602060002090600f020192506119296118c5565b915060a060405190810160405280838152602001888152602001878152602001868152602001428152509050600780548060010182816119699190613230565b9160005260206000209060050201600083909190915060008201518160000155602082015181600101556040820151816002015560608201518160030155608082015181600401555050506009600088815260200190815260200160002080548060010182816119d99190613230565b916000526020600020906005020160008390919091506000820151816000015560208201518160010155604082015181600201556060820151816003015560808201518160040155505050600a60008781526020019081526020016000208054806001018281611a499190613230565b9160005260206000209060050201600083909190915060008201518160000155602082015181600101556040820151816002015560608201518160030155608082015181600401555050508483600601600082825401925050819055505050509392505050565b6000600680549050905090565b6000806001836040518082805190602001908083835b602083101515611af85780518252602082019150602081019050602083039250611ad3565b6001836020036101000a03801982511681845116808217855250505050505090500191505090815260200160405180910390205414159050919050565b611b3d613262565b611b45613262565b611b4d613262565b611b55613262565b611b5d613262565b611b65613262565b60008060048054905089101515611b7b57600080fd5b600489815481101515611b8a57fe5b906000526020600020906009020190508060010181600201826004018360050184600601856007018660080160009054906101000a900460ff16868054600181600116156101000203166002900480601f016020809104026020016040519081016040528092919081815260200182805460018160011615610100020316600290048015611c595780601f10611c2e57610100808354040283529160200191611c59565b820191906000526020600020905b815481529060010190602001808311611c3c57829003601f168201915b50505050509650858054600181600116156101000203166002900480601f016020809104026020016040519081016040528092919081815260200182805460018160011615610100020316600290048015611cf55780601f10611cca57610100808354040283529160200191611cf5565b820191906000526020600020905b815481529060010190602001808311611cd857829003601f168201915b50505050509550848054600181600116156101000203166002900480601f016020809104026020016040519081016040528092919081815260200182805460018160011615610100020316600290048015611d915780601f10611d6657610100808354040283529160200191611d91565b820191906000526020600020905b815481529060010190602001808311611d7457829003601f168201915b50505050509450838054600181600116156101000203166002900480601f016020809104026020016040519081016040528092919081815260200182805460018160011615610100020316600290048015611e2d5780601f10611e0257610100808354040283529160200191611e2d565b820191906000526020600020905b815481529060010190602001808311611e1057829003601f168201915b50505050509350828054600181600116156101000203166002900480601f016020809104026020016040519081016040528092919081815260200182805460018160011615610100020316600290048015611ec95780601f10611e9e57610100808354040283529160200191611ec9565b820191906000526020600020905b815481529060010190602001808311611eac57829003601f168201915b50505050509250818054600181600116156101000203166002900480601f016020809104026020016040519081016040528092919081815260200182805460018160011615610100020316600290048015611f655780601f10611f3a57610100808354040283529160200191611f65565b820191906000526020600020905b815481529060010190602001808311611f4857829003601f168201915b50505050509150975097509750975097509750975050919395979092949650565b600080600080600080600080945060009350611fa1896115b1565b9250611fac8961132f565b9150611fb789612827565b905080828418189350600083141515611fd35760019450611ff7565b600082141515611fe65760029450611ff6565b600081141515611ff557600394505b5b5b84849650965050505050509250929050565b6000612013613276565b61201c84611abd565b15151561202857600080fd5b612030611626565b91506080604051908101604052808381526020018681526020018581526020018481525090506000805480600101828161206a91906132b1565b916000526020600020906004020160008390919091506000820151816000015560208201518160010190805190602001906120a692919061309d565b5060408201518160020190805190602001906120c392919061309d565b5060608201518160030190805190602001906120e092919061309d565b50505050816001856040518082805190602001908083835b60208310151561211d57805182526020820191506020810190506020830392506120f8565b6001836020036101000a0380198251168184511680821785525050505050509050019150509081526020016040518091039020819055505050505050565b6000806000806000806000806000806006805490508b10801561217e575060008b115b151561218957600080fd5b60068b81548110151561219857fe5b90600052602060002090600f0201995060048a600101548154811015156121bb57fe5b90600052602060002090600902019850600e89600401604051808280546001816001161561010002031660029004801561222c5780601f1061220a57610100808354040283529182019161222c565b820191906000526020600020905b815481529060010190602001808311612218575b5050915050908152602001604051809103902097506003888054905010156122b257600095505b87805490508610156122ad5786805480600101828161227291906131d4565b916000526020600020900160008a8981548110151561228d57fe5b906000526020600020900154909190915055508580600101965050612253565b612399565b600360028980549050028115156122c557fe5b04945087805490509350600092505b84831015612398576122e584612aa2565b91508680548060010182816122fa91906131d4565b916000526020600020900160008a8581548110151561231557fe5b906000526020600020900154909190915055508190505b600188805490500381101561238257876001820181548110151561234c57fe5b906000526020600020900154888281548110151561236657fe5b906000526020600020900181905550808060010191505061232c565b83806001900394505082806001019350506122d4565b5b848a600c01819055505050505050505050505050565b60006123b96132e3565b6123c284612f7a565b1515156123ce57600080fd5b6123d661281a565b915060a06040519081016040528083815260200187815260200186815260200185815260200184815250905060028054806001018281612416919061332b565b9160005260206000209060050201600083909190915060008201518160000155602082015181600101908051906020019061245292919061309d565b50604082015181600201908051906020019061246f92919061309d565b50606082015181600301908051906020019061248c92919061309d565b5060808201518160040190805190602001906124a992919061309d565b50505050816003856040518082805190602001908083835b6020831015156124e657805182526020820191506020810190506020830392506124c1565b6001836020036101000a038019825116818451168082178552505050505050905001915050908152602001604051809103902081905550600e856040518082805190602001908083835b6020831015156125555780518252602082019150602081019050602083039250612530565b6001836020036101000a0380198251168184511680821785525050505050509050019150509081526020016040518091039020805480600101828161259a91906131d4565b916000526020600020900160008490919091505550505050505050565b60006125c1613262565b6125c9613262565b6125d1613262565b6000600280549050861015156125e657600080fd5b6002868154811015156125f557fe5b906000526020600020906005020190508060000154816001018260020183600301828054600181600116156101000203166002900480601f0160208091040260200160405190810160405280929190818152602001828054600181600116156101000203166002900480156126ab5780601f10612680576101008083540402835291602001916126ab565b820191906000526020600020905b81548152906001019060200180831161268e57829003601f168201915b50505050509250818054600181600116156101000203166002900480601f0160208091040260200160405190810160405280929190818152602001828054600181600116156101000203166002900480156127475780601f1061271c57610100808354040283529160200191612747565b820191906000526020600020905b81548152906001019060200180831161272a57829003601f168201915b50505050509150808054600181600116156101000203166002900480601f0160208091040260200160405190810160405280929190818152602001828054600181600116156101000203166002900480156127e35780601f106127b8576101008083540402835291602001916127e3565b820191906000526020600020905b8154815290600101906020018083116127c657829003601f168201915b505050505090509450945094509450509193509193565b6000600c6000838152602001908152602001600020805490509050919050565b6000600280549050905090565b60006003826040518082805190602001908083835b602083101515612861578051825260208201915060208101905060208303925061283c565b6001836020036101000a0380198251168184511680821785525050505050509050019150509081526020016040518091039020549050919050565b6000806128a7613262565b60006128b1613262565b60008060008060008060008060008e1180156128d157506006805490508e105b15156128dc57600080fd5b60068e8154811015156128eb57fe5b90600052602060002090600f0201905080600001548160010154826002018360030154846004018560050154866006015487600701548860080160009054906101000a900460ff1689600901548a600a01548b600b0154898054600181600116156101000203166002900480601f0160208091040260200160405190810160405280929190818152602001828054600181600116156101000203166002900480156129d75780601f106129ac576101008083540402835291602001916129d7565b820191906000526020600020905b8154815290600101906020018083116129ba57829003601f168201915b50505050509950878054600181600116156101000203166002900480601f016020809104026020016040519081016040528092919081815260200182805460018160011615610100020316600290048015612a735780601f10612a4857610100808354040283529160200191612a73565b820191906000526020600020905b815481529060010190602001808311612a5657829003601f168201915b505050505097509c509c509c509c509c509c509c509c509c509c509c509c505091939597999b5091939597999b565b60008160024233604051808381526020018273ffffffffffffffffffffffffffffffffffffffff1673ffffffffffffffffffffffffffffffffffffffff166c01000000000000000000000000028152601401925050506020604051808303816000865af11515612b1157600080fd5b50506040518051905060019004811515612b2757fe5b069050919050565b6000806005836040518082805190602001908083835b602083101515612b6a5780518252602082019150602081019050602083039250612b45565b6001836020036101000a03801982511681845116808217855250505050505090500191505090815260200160405180910390205414159050919050565b600080600080600060028054905087108015612bd85750600b60008881526020019081526020016000208054905086105b1515612be357600080fd5b600b600088815260200190815260200160002086815481101515612c0357fe5b9060005260206000209001549150600882815481101515612c2057fe5b9060005260206000209060040201905080600201548160010154826003015494509450945050509250925092565b6000612c58613262565b612c60613262565b6000808054905085101515612c7457600080fd5b600085815481101515612c8357fe5b9060005260206000209060040201905080600001548160010182600201818054600181600116156101000203166002900480601f016020809104026020016040519081016040528092919081815260200182805460018160011615610100020316600290048015612d355780601f10612d0a57610100808354040283529160200191612d35565b820191906000526020600020905b815481529060010190602001808311612d1857829003601f168201915b50505050509150808054600181600116156101000203166002900480601f016020809104026020016040519081016040528092919081815260200182805460018160011615610100020316600290048015612dd15780601f10612da657610100808354040283529160200191612dd1565b820191906000526020600020905b815481529060010190602001808311612db457829003601f168201915b50505050509050935093509350509193909250565b6000612df061335d565b60068054905085108015612e05575060008310155b8015612e12575060028311155b1515612e1d57600080fd5b600b6000858152602001908152602001600020805490509150608060405190810160405280838152602001868152602001858152602001848152509050600b60008581526020019081526020016000208054806001018281612e7f91906131d4565b91600052602060002090016000849091909150555060088054806001018281612ea89190613386565b91600052602060002090600402016000839091909150600082015181600001556020820151816001015560408201518160020155606082015181600301555050505050505050565b6000600b6000838152602001908152602001600020805490509050919050565b600060048054905083108015612f3b5750600c60008381526020019081526020016000208054905082105b1515612f4657600080fd5b600c600084815260200190815260200160002082815481101515612f6657fe5b906000526020600020900154905092915050565b6000806003836040518082805190602001908083835b602083101515612fb55780518252602082019150602081019050602083039250612f90565b6001836020036101000a03801982511681845116808217855250505050505090500191505090815260200160405180910390205414159050919050565b610120604051908101604052806000815260200161300e6133b8565b815260200161301b6133b8565b81526020016130286133b8565b81526020016130356133b8565b81526020016130426133b8565b815260200161304f6133b8565b815260200161305c6133b8565b81526020016000151581525090565b8154818355818115116130985760090281600902836000526020600020918201910161309791906133cc565b5b505050565b828054600181600116156101000203166002900490600052602060002090601f016020900481019282601f106130de57805160ff191683800117855561310c565b8280016001018555821561310c579182015b8281111561310b5782518255916020019190600101906130f0565b5b5090506131199190613477565b5090565b6101e06040519081016040528060008152602001600081526020016131406133b8565b8152602001600081526020016131546133b8565b81526020016000815260200160008152602001600081526020016000151581526020016000815260200160008152602001600081526020016000815260200160008152602001600081525090565b8154818355818115116131cf57600f0281600f0283600052602060002091820191016131ce919061349c565b5b505050565b8154818355818115116131fb578183600052602060002091820191016131fa9190613477565b5b505050565b60a06040519081016040528060008152602001600081526020016000815260200160008152602001600081525090565b81548183558181151161325d5760050281600502836000526020600020918201910161325c919061354f565b5b505050565b602060405190810160405280600081525090565b608060405190810160405280600081526020016132916133b8565b815260200161329e6133b8565b81526020016132ab6133b8565b81525090565b8154818355818115116132de576004028160040283600052602060002091820191016132dd9190613596565b5b505050565b60a060405190810160405280600081526020016132fe6133b8565b815260200161330b6133b8565b81526020016133186133b8565b81526020016133256133b8565b81525090565b8154818355818115116133585760050281600502836000526020600020918201910161335791906135ed565b5b505050565b608060405190810160405280600081526020016000815260200160008152602001600081525090565b8154818355818115116133b3576004028160040283600052602060002091820191016133b29190613654565b5b505050565b602060405190810160405280600081525090565b61347491905b80821115613470576000808201600090556001820160006133f39190613693565b6002820160006134039190613693565b6003820160006134139190613693565b6004820160006134239190613693565b6005820160006134339190613693565b6006820160006134439190613693565b6007820160006134539190613693565b6008820160006101000a81549060ff0219169055506009016133d2565b5090565b90565b61349991905b8082111561349557600081600090555060010161347d565b5090565b90565b61354c91905b808211156135485760008082016000905560018201600090556002820160006134cb9190613693565b60038201600090556004820160006134e39190613693565b6005820160009055600682016000905560078201600090556008820160006101000a81549060ff02191690556009820160009055600a820160009055600b820160009055600c820160009055600d820160009055600e82016000905550600f016134a2565b5090565b90565b61359391905b8082111561358f57600080820160009055600182016000905560028201600090556003820160009055600482016000905550600501613555565b5090565b90565b6135ea91905b808211156135e6576000808201600090556001820160006135bd9190613693565b6002820160006135cd9190613693565b6003820160006135dd9190613693565b5060040161359c565b5090565b90565b61365191905b8082111561364d576000808201600090556001820160006136149190613693565b6002820160006136249190613693565b6003820160006136349190613693565b6004820160006136449190613693565b506005016135f3565b5090565b90565b61369091905b8082111561368c576000808201600090556001820160009055600282016000905560038201600090555060040161365a565b5090565b90565b50805460018160011615610100020316600290046000825580601f106136b957506136d8565b601f0160209004906000526020600020908101906136d79190613477565b5b505600a165627a7a723058207be9e7868783cd129de1a644c11847c32564334331417a29d8dc1da07f89da270029",
  "source": "pragma solidity ^0.4.16;\n\ncontract Main {\n\n    struct User {\n        uint256 userId;\n        string userName;\n        string userPhone;\n        string userPassword;\n    }\n\n    struct Endorsor {\n        uint256 endorsorId;\n        string endorsorOrg;//\n        string endorsorProvince;\n        string endorsorEmail;\n        string endorsorPassword;\n\n    }\n\n    struct School {\n        uint256 schoolId;\n        string schoolName;\n        string schoolEmail;\n        string schoolPassword;\n        string schoolProvince;\n        string schoolAddress;\n        string schoolGovernor;//\n        string schoolAgent;//\n        bool schoolState;//\n    }\n\n    struct Project {\n        uint256 projectId;\n        uint256 schoolId;\n        string projectName;\n        uint256 projectCreateTime;\n        string projectTarget;//\n        uint256 projectTargetMoney;\n        uint256 projectCurrentMoney;\n        uint256 projectEndorseState;//0  1  2 pending\n        bool projectFinishState;\n        uint256 projectFinishTime;\n        uint256 projectPlanUpNoteTime;//\n        uint256 projectActualUpNoteTime;//\n        uint256 totalEndorsor;\n        uint256 passEndorsor;\n        uint256 rejectEndorsor;\n    }\n\n    struct Denote {\n        uint256 denoteId;//id\n        uint256 userId;//id\n        uint256 projectId;//id\n        uint256 denoteMoney;//\n        uint256 denoteTime;//\n    }\n\n    struct EndorseItem {\n        uint256 endorseItemId;\n        uint256 projectId;\n        uint256 endorsorId;\n        uint256 operate;//{0: 1 2}\n    }\n\n\n    User[] userList;\n    mapping(string=>uint256) userMap;//key\n\n    Endorsor[] endorsorList;\n    mapping(string=>uint256) endorsorMap;//key valueprojectId\n\n    School[] schoolList;\n    mapping(string=>uint256)schoolMap;//key\n\n    Project[] projectList;\n    Denote[] denoteList;\n    EndorseItem[] endorseItemList;\n    mapping(uint256=>Denote[]) userDenoteMap;//\n    mapping(uint256=>Denote[]) projectDenoteMap;//\n    mapping(uint256=>uint256[]) endorseItemMap;//\n    mapping(uint256=>uint256[]) schoolProjectMap;\n    mapping(uint256=>string[]) projectNoteUrlMap;\n    mapping(string=>uint256[]) provinceToEndorsorMap;\n\n    function Main() {\n        createUser(\"0\", \"0\", \"0\");\n        createSchool(\"0\", \"0\", \"0\", \"0\", \"0\", \"0\", \"0\"); \n        createProject(0, \"0\", \"0\", 0, 0);\n        createEndorsor(\"0\", \"0\", \"0\", \"0\");\n    }\n\n    function createUser(string _userName, string _userPhone, string _userPassword) {\n        require(!checkUserByPhone(_userPhone));\n        uint256 _userId = userCount();\n        User memory user = User({userId:_userId, userName:_userName, userPhone:_userPhone, userPassword:_userPassword});\n        userList.push(user);\n        userMap[_userPhone] = _userId;\n    }\n\n    function userCount() view returns(uint256) {\n        return userList.length;\n    }\n\n    function checkUserByPhone(string _userPhone) view returns(bool) {\n        return userMap[_userPhone] != 0;\n    }\n\n    function getUserIdByPhone(string _userPhone) view returns(uint256) {\n        return userMap[_userPhone];\n    }\n\n    function getUserByUserId(uint256 _userId) view returns(uint256, string, string) {\n        require(_userId < userList.length);\n        User user = userList[_userId];\n        return(user.userId, user.userName, user.userPhone);\n    }\n\n    function login(string _userAccount, string _userPassword) view returns(uint256, uint256) {\n        uint256 _userType = 0;\n        uint256 _userId = 0;\n        uint256 _userIdA = getUserIdByPhone(_userAccount);\n        uint256 _userIdB = getSchoolIdByEmail(_userAccount);\n        uint256 _userIdC = getEndorsorIdByEmail(_userAccount);\n        _userId = _userIdA ^ _userIdB ^ _userIdC;\n\n        if (_userIdA != 0) {\n            _userType = 1;\n        }else if (_userIdB != 0) {\n            _userType = 2;\n        }else if (_userIdC != 0) {\n            _userType = 3;\n        }\n        return (_userType, _userId);\n    }\n\n    function userDenote(uint256 _userId, uint256 _projectId, uint256 _denoteMoney) returns(uint256) {\n        require(_userId < userList.length && _projectId < projectList.length);\n        Project project = projectList[_projectId];\n        uint256 _denoteId = denoteCount();\n        Denote memory denote = Denote({denoteId:_denoteId, userId:_userId, projectId:_projectId, denoteMoney:_denoteMoney, denoteTime:now});\n        denoteList.push(denote);\n        userDenoteMap[_userId].push(denote);\n        projectDenoteMap[_projectId].push(denote);\n        project.projectCurrentMoney += _denoteMoney;\n    }\n\n    function denoteCount() returns(uint256) {\n        return denoteList.length;\n    }\n\n    function getDenoteByUserId(uint256 _userId, uint _userDenoteId) returns(uint256, uint256, uint256, uint256) {\n        require(_userId < userList.length && _userDenoteId < userDenoteMap[_userId].length);\n        Denote denote = userDenoteMap[_userId][_userDenoteId];\n        return (denote.denoteId, denote.projectId, denote.denoteMoney, denote.denoteTime);\n    }\n  // ///////////////////////////////////////////////////////////////////////////////////////////////////\n\n    function createEndorsor(string _endorsorOrg, string _endorsorProvince, string _endorsorEmail, string _endorsorPassword) {\n        require(!checkEndorsorByEmail(_endorsorEmail));\n        uint256 _endorsorId = endorsorCount();\n        Endorsor memory endorsor = Endorsor({endorsorId:_endorsorId, endorsorOrg:_endorsorOrg, endorsorProvince:_endorsorProvince, endorsorEmail:_endorsorEmail, endorsorPassword:_endorsorPassword});\n        endorsorList.push(endorsor);\n        endorsorMap[_endorsorEmail] = _endorsorId;\n        provinceToEndorsorMap[_endorsorProvince].push(_endorsorId);\n    }\n\n    function endorsorCount() view returns(uint256) {\n        return endorsorList.length;\n    }\n\n    function checkEndorsorByEmail(string _endorsorEmail) view returns(bool) {\n        return endorsorMap[_endorsorEmail] != 0;\n    }\n\n    function getEndorsorIdByEmail(string _endorsorEmail) view returns(uint256) {\n        return endorsorMap[_endorsorEmail];\n    }\n\n    function getEndorsorByEndorsorId(uint256 _endorsorId) view returns(uint256, string, string, string) {\n        require(_endorsorId < endorsorList.length);\n        Endorsor _endorsor =  endorsorList[_endorsorId];\n        return (_endorsor.endorsorId, _endorsor.endorsorOrg, _endorsor.endorsorProvince, _endorsor.endorsorEmail);\n    }\n\n    function getEndorseByEndorsorId(uint256 _endorsorId, uint256 _endorseItemIndex) view returns (uint256, uint256, uint256) {\n        require(_endorsorId < endorsorList.length && _endorseItemIndex < endorseItemMap[_endorsorId].length);\n        uint256 endorseItemId = endorseItemMap[_endorsorId][_endorseItemIndex];\n        EndorseItem _endorseItem = endorseItemList[endorseItemId];\n        return (_endorseItem.endorsorId, _endorseItem.projectId, _endorseItem.operate);\n    }\n\n    function createEndorseItem(uint256 _projectId, uint256 _endorsorId, uint256 _operate) {\n        require(_projectId < projectList.length && _operate >= 0 && _operate <= 2);\n        uint256 _endorseItemId = endorseItemMap[_endorsorId].length;\n        EndorseItem memory endorseItem = EndorseItem({endorseItemId:_endorseItemId, projectId:_projectId, endorsorId:_endorsorId, operate:_operate});\n        endorseItemMap[_endorsorId].push(_endorseItemId);\n        endorseItemList.push(endorseItem);\n    }\n\n    function getEndorseItemCountOfEndorsor(uint256 _endorsorId) returns(uint256) {\n        return endorseItemMap[_endorsorId].length;\n    }\n\n  // ///////////////////////////////////////////////////////////////////////////////////////////////////////\n    \n    function createSchool(string _schoolEmail, string _schoolName, string _schoolPassword, string _schoolProvince, string _schoolAddress, string _schoolGovernor, string _schoolAgent) {\n        require(!checkSchoolByEmail(_schoolEmail));\n        uint256 _schoolId = schoolCount();\n        School memory school = School({schoolId:_schoolId, schoolName:_schoolName, schoolEmail:_schoolEmail, schoolPassword:_schoolPassword, schoolProvince:_schoolProvince, schoolAddress:_schoolAddress, schoolGovernor:_schoolGovernor, schoolAgent:_schoolAgent, schoolState:true});\n        schoolList.push(school);\n        schoolMap[_schoolEmail] = _schoolId;\n    }\n\n    function schoolCount() view returns(uint256) {\n        return schoolList.length;\n    }\n\n    function checkSchoolByEmail(string _schoolEmail) view returns(bool) {\n      return schoolMap[_schoolEmail] != 0;\n    }\n\n    function getSchoolIdByEmail(string _schoolEmail) view returns(uint256) {\n      return schoolMap[_schoolEmail];\n    }\n\n    function getSchoolBySchoolId(uint256 _schoolId) view returns(string, string, string, string, string, string, bool) {\n        require(_schoolId < schoolList.length);\n        School school = schoolList[_schoolId];\n        return (school.schoolName, school.schoolEmail, school.schoolProvince, school.schoolAddress, school.schoolGovernor, school.schoolAgent, school.schoolState);\n    }\n\n    function createProject(uint256 _schoolId, string _projectName, string _projectTarget, uint256 _projectTargetMoney, uint256 _projectFinishTime) {\n        require(_schoolId < schoolList.length);\n        uint256 _projectId = projectCount();\n        Project memory project = Project({projectId:_projectId, schoolId:_schoolId, projectName:_projectName, projectCreateTime:now, projectTarget:_projectTarget, projectTargetMoney:_projectTargetMoney, projectCurrentMoney:0, projectEndorseState:2, projectFinishState:false, projectFinishTime:_projectFinishTime, projectPlanUpNoteTime:0, projectActualUpNoteTime:0, totalEndorsor:0, passEndorsor:0, rejectEndorsor:0});\n        projectList.push(project);\n        schoolProjectMap[_schoolId].push(_projectId);\n        if (_schoolId != 0) {\n            emitEndorse(_projectId);\n        }\n    }\n\n    function emitEndorse(uint256 _projectId) {\n        require(_projectId < projectList.length && _projectId > 0);\n        Project project = projectList[_projectId];\n        School school = schoolList[project.schoolId];\n        uint256[] endorsorList = provinceToEndorsorMap[school.schoolProvince];\n        uint256[] emitEndorsorList;\n        if (endorsorList.length < 3) {\n            for (uint256 i=0; i < endorsorList.length; i++) {\n                emitEndorsorList.push(endorsorList[i]);\n            }\n        }else {\n            uint256 targetEndorsorCount = endorsorList.length*2/3;\n            uint256 len = endorsorList.length;\n            for (uint256 j=0; j < targetEndorsorCount; j++) {\n                uint256 t = random(len);\n                emitEndorsorList.push(endorsorList[t]);\n                for (uint256 k=t; k < endorsorList.length-1; k++) {\n                    endorsorList[k] = endorsorList[k+1];\n                }\n                len--;\n            }\n        }\n        project.totalEndorsor = targetEndorsorCount;\n    }\n\n    function projectCount() view returns(uint256) {\n        return projectList.length;\n    }\n\n    function getProjectByProjectId(uint256 _projectId) view returns(uint256, uint256, string, uint256, string, uint256, uint256, uint256, bool, uint256, uint256, uint256) {\n        require(_projectId > 0 && _projectId < projectList.length);\n        Project project = projectList[_projectId];\n        return (project.projectId, project.schoolId, project.projectName, project.projectCreateTime, project.projectTarget, project.projectTargetMoney, project.projectCurrentMoney, project.projectEndorseState, project.projectFinishState, project.projectFinishTime, project.projectPlanUpNoteTime, project.projectActualUpNoteTime);\n    }\n\n    function getSchoolProjectCounts(uint256 _schoolId) view returns(uint256) {\n        return schoolProjectMap[_schoolId].length;\n    }\n\n    function getProjectIdBySchoolId(uint256 _schoolId, uint256 _schoolProjectId) view returns(uint256) {\n        require(_schoolId < schoolList.length && _schoolProjectId < schoolProjectMap[_schoolProjectId].length);\n        return schoolProjectMap[_schoolId][_schoolProjectId];\n    }\n  \n    // return random[0,n)\n    function random(uint256 n) returns(uint256) {\n        return uint(sha256(now, msg.sender))%n;\n    }\n\n}\n",
  "sourcePath": "/home/wk/thunder/truffle/contracts/Main.sol",
  "compiler": {
    "name": "solc",
    "version": "0.4.21+commit.dfe3193c.Emscripten.clang"
  },
  "schemaVersion": "2.0.0",
  "updatedAt": "2018-06-06T07:31:16.560Z"
}