{
  "contractName": "Main",
  "abi": [
    {
      "inputs": [],
      "payable": false,
      "stateMutability": "nonpayable",
      "type": "constructor"
    },
    {
      "constant": false,
      "inputs": [
        {
          "name": "_userName",
          "type": "bytes32"
        },
        {
          "name": "_userPhone",
          "type": "bytes32"
        },
        {
          "name": "_userPassword",
          "type": "bytes32"
        }
      ],
      "name": "createUser",
      "outputs": [],
      "payable": false,
      "stateMutability": "nonpayable",
      "type": "function"
    },
    {
      "constant": true,
      "inputs": [],
      "name": "userCount",
      "outputs": [
        {
          "name": "",
          "type": "uint256"
        }
      ],
      "payable": false,
      "stateMutability": "view",
      "type": "function"
    },
    {
      "constant": true,
      "inputs": [
        {
          "name": "_userPhone",
          "type": "bytes32"
        }
      ],
      "name": "checkUserByPhone",
      "outputs": [
        {
          "name": "",
          "type": "bool"
        }
      ],
      "payable": false,
      "stateMutability": "view",
      "type": "function"
    },
    {
      "constant": true,
      "inputs": [
        {
          "name": "_userPhone",
          "type": "bytes32"
        }
      ],
      "name": "getUserIdByPhone",
      "outputs": [
        {
          "name": "",
          "type": "uint256"
        }
      ],
      "payable": false,
      "stateMutability": "view",
      "type": "function"
    },
    {
      "constant": false,
      "inputs": [
        {
          "name": "_userId",
          "type": "uint256"
        }
      ],
      "name": "getUserByUserId",
      "outputs": [
        {
          "name": "",
          "type": "uint256"
        },
        {
          "name": "",
          "type": "bytes32"
        },
        {
          "name": "",
          "type": "bytes32"
        }
      ],
      "payable": false,
      "stateMutability": "nonpayable",
      "type": "function"
    },
    {
      "constant": false,
      "inputs": [
        {
          "name": "_userAccount",
          "type": "bytes32"
        },
        {
          "name": "_userPassword",
          "type": "bytes32"
        }
      ],
      "name": "login",
      "outputs": [
        {
          "name": "",
          "type": "uint256"
        },
        {
          "name": "",
          "type": "uint256"
        }
      ],
      "payable": false,
      "stateMutability": "nonpayable",
      "type": "function"
    },
    {
      "constant": false,
      "inputs": [
        {
          "name": "_userId",
          "type": "uint256"
        },
        {
          "name": "_projectId",
          "type": "uint256"
        },
        {
          "name": "_denoteMoney",
          "type": "uint256"
        }
      ],
      "name": "userDenote",
      "outputs": [
        {
          "name": "",
          "type": "uint256"
        }
      ],
      "payable": false,
      "stateMutability": "nonpayable",
      "type": "function"
    },
    {
      "constant": false,
      "inputs": [],
      "name": "denoteCount",
      "outputs": [
        {
          "name": "",
          "type": "uint256"
        }
      ],
      "payable": false,
      "stateMutability": "nonpayable",
      "type": "function"
    },
    {
      "constant": false,
      "inputs": [
        {
          "name": "_userId",
          "type": "uint256"
        },
        {
          "name": "_userDenoteId",
          "type": "uint256"
        }
      ],
      "name": "getDenoteByUserId",
      "outputs": [
        {
          "name": "",
          "type": "uint256"
        },
        {
          "name": "",
          "type": "uint256"
        },
        {
          "name": "",
          "type": "uint256"
        },
        {
          "name": "",
          "type": "uint256"
        }
      ],
      "payable": false,
      "stateMutability": "nonpayable",
      "type": "function"
    },
    {
      "constant": false,
      "inputs": [
        {
          "name": "_endorsorOrg",
          "type": "bytes32"
        },
        {
          "name": "_endorsorProvince",
          "type": "bytes32"
        },
        {
          "name": "_endorsorEmail",
          "type": "bytes32"
        },
        {
          "name": "_endorsorPassword",
          "type": "bytes32"
        }
      ],
      "name": "createEndorsor",
      "outputs": [],
      "payable": false,
      "stateMutability": "nonpayable",
      "type": "function"
    },
    {
      "constant": true,
      "inputs": [],
      "name": "endorsorCount",
      "outputs": [
        {
          "name": "",
          "type": "uint256"
        }
      ],
      "payable": false,
      "stateMutability": "view",
      "type": "function"
    },
    {
      "constant": true,
      "inputs": [
        {
          "name": "_endorsorEmail",
          "type": "bytes32"
        }
      ],
      "name": "checkEndorsorByEmail",
      "outputs": [
        {
          "name": "",
          "type": "bool"
        }
      ],
      "payable": false,
      "stateMutability": "view",
      "type": "function"
    },
    {
      "constant": true,
      "inputs": [
        {
          "name": "_endorsorEmail",
          "type": "bytes32"
        }
      ],
      "name": "getEndorsorIdByEmail",
      "outputs": [
        {
          "name": "",
          "type": "uint256"
        }
      ],
      "payable": false,
      "stateMutability": "view",
      "type": "function"
    },
    {
      "constant": true,
      "inputs": [
        {
          "name": "_endorsorId",
          "type": "uint256"
        }
      ],
      "name": "getEndorsorByEndorsorId",
      "outputs": [
        {
          "name": "",
          "type": "uint256"
        },
        {
          "name": "",
          "type": "bytes32"
        },
        {
          "name": "",
          "type": "bytes32"
        },
        {
          "name": "",
          "type": "bytes32"
        }
      ],
      "payable": false,
      "stateMutability": "view",
      "type": "function"
    },
    {
      "constant": true,
      "inputs": [
        {
          "name": "_endorsorId",
          "type": "uint256"
        },
        {
          "name": "_endorseItemIndex",
          "type": "uint256"
        }
      ],
      "name": "getEndorseByEndorsorId",
      "outputs": [
        {
          "name": "",
          "type": "uint256"
        },
        {
          "name": "",
          "type": "uint256"
        },
        {
          "name": "",
          "type": "uint256"
        }
      ],
      "payable": false,
      "stateMutability": "view",
      "type": "function"
    },
    {
      "constant": false,
      "inputs": [
        {
          "name": "_projectId",
          "type": "uint256"
        },
        {
          "name": "_endorsorId",
          "type": "uint256"
        },
        {
          "name": "_operate",
          "type": "uint256"
        }
      ],
      "name": "createEndorseItem",
      "outputs": [],
      "payable": false,
      "stateMutability": "nonpayable",
      "type": "function"
    },
    {
      "constant": false,
      "inputs": [
        {
          "name": "_endorsorId",
          "type": "uint256"
        }
      ],
      "name": "getEndorseItemCountOfEndorsor",
      "outputs": [
        {
          "name": "",
          "type": "uint256"
        }
      ],
      "payable": false,
      "stateMutability": "nonpayable",
      "type": "function"
    },
    {
      "constant": false,
      "inputs": [
        {
          "name": "_schoolEmail",
          "type": "bytes32"
        },
        {
          "name": "_schoolName",
          "type": "bytes32"
        },
        {
          "name": "_schoolPassword",
          "type": "bytes32"
        },
        {
          "name": "_schoolProvince",
          "type": "bytes32"
        },
        {
          "name": "_schoolAddress",
          "type": "bytes32"
        },
        {
          "name": "_schoolGovernor",
          "type": "bytes32"
        },
        {
          "name": "_schoolAgent",
          "type": "bytes32"
        }
      ],
      "name": "createSchool",
      "outputs": [],
      "payable": false,
      "stateMutability": "nonpayable",
      "type": "function"
    },
    {
      "constant": true,
      "inputs": [],
      "name": "schoolCount",
      "outputs": [
        {
          "name": "",
          "type": "uint256"
        }
      ],
      "payable": false,
      "stateMutability": "view",
      "type": "function"
    },
    {
      "constant": true,
      "inputs": [
        {
          "name": "_schoolEmail",
          "type": "bytes32"
        }
      ],
      "name": "checkSchoolByEmail",
      "outputs": [
        {
          "name": "",
          "type": "bool"
        }
      ],
      "payable": false,
      "stateMutability": "view",
      "type": "function"
    },
    {
      "constant": true,
      "inputs": [
        {
          "name": "_schoolEmail",
          "type": "bytes32"
        }
      ],
      "name": "getSchoolIdByEmail",
      "outputs": [
        {
          "name": "",
          "type": "uint256"
        }
      ],
      "payable": false,
      "stateMutability": "view",
      "type": "function"
    },
    {
      "constant": true,
      "inputs": [
        {
          "name": "_schoolId",
          "type": "uint256"
        }
      ],
      "name": "getSchoolBySchoolId",
      "outputs": [
        {
          "name": "",
          "type": "bytes32"
        },
        {
          "name": "",
          "type": "bytes32"
        },
        {
          "name": "",
          "type": "bytes32"
        },
        {
          "name": "",
          "type": "bytes32"
        },
        {
          "name": "",
          "type": "bytes32"
        },
        {
          "name": "",
          "type": "bytes32"
        },
        {
          "name": "",
          "type": "bool"
        }
      ],
      "payable": false,
      "stateMutability": "view",
      "type": "function"
    },
    {
      "constant": false,
      "inputs": [
        {
          "name": "_schoolId",
          "type": "uint256"
        },
        {
          "name": "_projectName",
          "type": "bytes32"
        },
        {
          "name": "_projectTarget",
          "type": "bytes32"
        },
        {
          "name": "_projectTargetMoney",
          "type": "uint256"
        },
        {
          "name": "_projectFinishTime",
          "type": "uint256"
        }
      ],
      "name": "createProject",
      "outputs": [],
      "payable": false,
      "stateMutability": "nonpayable",
      "type": "function"
    },
    {
      "constant": false,
      "inputs": [
        {
          "name": "_projectId",
          "type": "uint256"
        }
      ],
      "name": "emitEndorse",
      "outputs": [],
      "payable": false,
      "stateMutability": "nonpayable",
      "type": "function"
    },
    {
      "constant": true,
      "inputs": [],
      "name": "projectCount",
      "outputs": [
        {
          "name": "",
          "type": "uint256"
        }
      ],
      "payable": false,
      "stateMutability": "view",
      "type": "function"
    },
    {
      "constant": true,
      "inputs": [
        {
          "name": "_projectId",
          "type": "uint256"
        }
      ],
      "name": "getProjectByProjectId",
      "outputs": [
        {
          "name": "",
          "type": "uint256"
        },
        {
          "name": "",
          "type": "uint256"
        },
        {
          "name": "",
          "type": "bytes32"
        },
        {
          "name": "",
          "type": "uint256"
        },
        {
          "name": "",
          "type": "bytes32"
        },
        {
          "name": "",
          "type": "uint256"
        },
        {
          "name": "",
          "type": "uint256"
        },
        {
          "name": "",
          "type": "uint256"
        },
        {
          "name": "",
          "type": "bool"
        },
        {
          "name": "",
          "type": "uint256"
        },
        {
          "name": "",
          "type": "uint256"
        },
        {
          "name": "",
          "type": "uint256"
        }
      ],
      "payable": false,
      "stateMutability": "view",
      "type": "function"
    },
    {
      "constant": true,
      "inputs": [
        {
          "name": "_schoolId",
          "type": "uint256"
        }
      ],
      "name": "getSchoolProjectCounts",
      "outputs": [
        {
          "name": "",
          "type": "uint256"
        }
      ],
      "payable": false,
      "stateMutability": "view",
      "type": "function"
    },
    {
      "constant": true,
      "inputs": [
        {
          "name": "_schoolId",
          "type": "uint256"
        },
        {
          "name": "_schoolProjectId",
          "type": "uint256"
        }
      ],
      "name": "getProjectIdBySchoolId",
      "outputs": [
        {
          "name": "",
          "type": "uint256"
        }
      ],
      "payable": false,
      "stateMutability": "view",
      "type": "function"
    },
    {
      "constant": false,
      "inputs": [
        {
          "name": "n",
          "type": "uint256"
        }
      ],
      "name": "random",
      "outputs": [
        {
          "name": "",
          "type": "uint256"
        }
      ],
      "payable": false,
      "stateMutability": "nonpayable",
      "type": "function"
    }
  ],
  "bytecode": "0x606060405234156200001057600080fd5b620000757f300000000000000000000000000000000000000000000000000000000000000060006001027f3000000000000000000000000000000000000000000000000000000000000000620001c7640100000000026200152c176401000000009004565b6200011a7f3000000000000000000000000000000000000000000000000000000000000000807f3000000000000000000000000000000000000000000000000000000000000000807f3000000000000000000000000000000000000000000000000000000000000000807f3000000000000000000000000000000000000000000000000000000000000000620002df6401000000000262000f57176401000000009004565b6200015f60007f3000000000000000000000000000000000000000000000000000000000000000806000806200048e6401000000000262000d4c176401000000009004565b620001c17f3000000000000000000000000000000000000000000000000000000000000000807f300000000000000000000000000000000000000000000000000000000000000080620006a56401000000000262000972176401000000009004565b62000fb1565b6000620001d362000b8d565b620001f2846200081c6401000000000262000f2f176401000000009004565b151515620001ff57600080fd5b6200021d620008446401000000000262000966176401000000009004565b91506080604051908101604052808381526020018660001916815260200185600019168152602001846000191681525090506000805480600101828162000265919062000bbf565b916000526020600020906004020160008390919091506000820151816000015560208201518160010190600019169055604082015181600201906000191690556060820151816003019060001916905550505081600160008660001916600019168152602001908152602001600020819055505050505050565b6000620002eb62000bf4565b6200030a8962000850640100000000026200191d176401000000009004565b1515156200031757600080fd5b62000335620008786401000000000262000b47176401000000009004565b915061012060405190810160405280838152602001896000191681526020018a600019168152602001886000191681526020018760001916815260200186600019168152602001856000191681526020018460001916815260200160011515815250905060048054806001018281620003af919062000c58565b91600052602060002090600902016000839091909150600082015181600001556020820151816001019060001916905560408201518160020190600019169055606082015181600301906000191690556080820151816004019060001916905560a0820151816005019060001916905560c0820151816006019060001916905560e082015181600701906000191690556101008201518160080160006101000a81548160ff02191690831515021790555050505081600560008b6000191660001916815260200190815260200160002081905550505050505050505050565b60006200049a62000c8d565b60048054905087101515620004ae57600080fd5b620004cc620008856401000000000262000d3f176401000000009004565b91506101e060405190810160405280838152602001888152602001876000191681526020014281526020018660001916815260200185815260200160008152602001600281526020016000151581526020018481526020016000815260200160008152602001600081526020016000815260200160008152509050600680548060010182816200055d919062000d0c565b91600052602060002090600f02016000839091909150600082015181600001556020820151816001015560408201518160020190600019169055606082015181600301556080820151816004019060001916905560a0820151816005015560c0820151816006015560e082015181600701556101008201518160080160006101000a81548160ff021916908315150217905550610120820151816009015561014082015181600a015561016082015181600b015561018082015181600c01556101a082015181600d01556101c082015181600e0155505050600c600088815260200190815260200160002080548060010182816200065c919062000d41565b9160005260206000209001600084909190915055506000871415156200069c576200069b8262000892640100000000026200115d176401000000009004565b5b50505050505050565b6000620006b162000d70565b620006d08462000abc6401000000000262001945176401000000009004565b151515620006dd57600080fd5b620006fb62000ae4640100000000026200145d176401000000009004565b915060a06040519081016040528083815260200187600019168152602001866000191681526020018560001916815260200184600019168152509050600280548060010182816200074d919062000dac565b9160005260206000209060050201600083909190915060008201518160000155602082015181600101906000191690556040820151816002019060001916905560608201518160030190600019169055608082015181600401906000191690555050508160036000866000191660001916815260200190815260200160002081905550600e600086600019166000191681526020019081526020016000208054806001018281620007ff919062000d41565b916000526020600020900160008490919091505550505050505050565b6000806001600084600019166000191681526020019081526020016000205414159050919050565b60008080549050905090565b6000806005600084600019166000191681526020019081526020016000205414159050919050565b6000600480549050905090565b6000600680549050905090565b6000806000806000806000806000806006805490508b108015620008b6575060008b115b1515620008c257600080fd5b60068b815481101515620008d257fe5b90600052602060002090600f0201995060048a60010154815481101515620008f657fe5b90600052602060002090600902019850600e60008a600401546000191660001916815260200190815260200160002097506003888054905010156200099f57600095505b878054905086101562000999578680548060010182816200095c919062000d41565b916000526020600020900160008a898154811015156200097857fe5b9060005260206000209001549091909150555085806001019650506200093a565b62000aa6565b60036002898054905002811515620009b357fe5b04945087805490509350600092505b8483101562000aa557620009ea8462000af16401000000000262001613176401000000009004565b915086805480600101828162000a01919062000d41565b916000526020600020900160008a8581548110151562000a1d57fe5b906000526020600020900154909190915055508190505b600188805490500381101562000a8e57876001820181548110151562000a5657fe5b906000526020600020900154888281548110151562000a7157fe5b906000526020600020900181905550808060010191505062000a34565b8380600190039450508280600101935050620009c2565b5b848a600c01819055505050505050505050505050565b6000806003600084600019166000191681526020019081526020016000205414159050919050565b6000600280549050905090565b60008160024233600060405160200152604051808381526020018273ffffffffffffffffffffffffffffffffffffffff1673ffffffffffffffffffffffffffffffffffffffff166c010000000000000000000000000281526014019250505060206040518083038160008661646e5a03f1151562000b6e57600080fd5b5050604051805190506001900481151562000b8557fe5b069050919050565b608060405190810160405280600081526020016000801916815260200160008019168152602001600080191681525090565b81548183558181151162000bef5760040281600402836000526020600020918201910162000bee919062000de1565b5b505050565b6101206040519081016040528060008152602001600080191681526020016000801916815260200160008019168152602001600080191681526020016000801916815260200160008019168152602001600080191681526020016000151581525090565b81548183558181151162000c885760090281600902836000526020600020918201910162000c87919062000e23565b5b505050565b6101e06040519081016040528060008152602001600081526020016000801916815260200160008152602001600080191681526020016000815260200160008152602001600081526020016000151581526020016000815260200160008152602001600081526020016000815260200160008152602001600081525090565b81548183558181151162000d3c57600f0281600f02836000526020600020918201910162000d3b919062000e99565b5b505050565b81548183558181151162000d6b5781836000526020600020918201910162000d6a919062000f3f565b5b505050565b60a06040519081016040528060008152602001600080191681526020016000801916815260200160008019168152602001600080191681525090565b81548183558181151162000ddc5760050281600502836000526020600020918201910162000ddb919062000f67565b5b505050565b62000e2091905b8082111562000e1c576000808201600090556001820160009055600282016000905560038201600090555060040162000de8565b5090565b90565b62000e9691905b8082111562000e925760008082016000905560018201600090556002820160009055600382016000905560048201600090556005820160009055600682016000905560078201600090556008820160006101000a81549060ff02191690555060090162000e2a565b5090565b90565b62000f3c91905b8082111562000f385760008082016000905560018201600090556002820160009055600382016000905560048201600090556005820160009055600682016000905560078201600090556008820160006101000a81549060ff02191690556009820160009055600a820160009055600b820160009055600c820160009055600d820160009055600e82016000905550600f0162000ea0565b5090565b90565b62000f6491905b8082111562000f6057600081600090555060010162000f46565b5090565b90565b62000fae91905b8082111562000faa5760008082016000905560018201600090556002820160009055600382016000905560048201600090555060050162000f6e565b5090565b90565b611f718062000fc16000396000f300606060405260043610610175576000357c0100000000000000000000000000000000000000000000000000000000900463ffffffff16806307973ccf1461017a5780630e995faa146101a35780631af550dc146101f157806328d88890146102465780633339000d1461026f578063356953c01461029857806336fbad26146102e15780634120855c1461030a5780634682e075146103595780634973551f14610398578063579aa9671461040d578063607506ba146104a2578063635a9f22146104c55780636cb1c5bb146105145780637e67c8e5146105785780637f4ab6ab146105af57806387f3d223146105d8578063aff9610114610670578063b863bd37146106b1578063c50fd39d146106e8578063c89e966614610736578063c93433d71461078b578063cb5f7fb3146107c0578063d452e4a5146107fb578063d45e2dbd14610836578063e0cb859d1461086d578063e1f35962146108ac578063f0aa9796146108eb578063f4e4477a1461092b575b600080fd5b341561018557600080fd5b61018d610966565b6040518082815260200191505060405180910390f35b34156101ae57600080fd5b6101ef600480803560001916906020019091908035600019169060200190919080356000191690602001909190803560001916906020019091905050610972565b005b34156101fc57600080fd5b61021b6004808035906020019091908035906020019091905050610ab6565b6040518085815260200184815260200183815260200182815260200194505050505060405180910390f35b341561025157600080fd5b610259610b47565b6040518082815260200191505060405180910390f35b341561027a57600080fd5b610282610b54565b6040518082815260200191505060405180910390f35b34156102a357600080fd5b6102cb6004808035906020019091908035906020019091908035906020019091905050610b61565b6040518082815260200191505060405180910390f35b34156102ec57600080fd5b6102f4610d3f565b6040518082815260200191505060405180910390f35b341561031557600080fd5b61035760048080359060200190919080356000191690602001909190803560001916906020019091908035906020019091908035906020019091905050610d4c565b005b341561036457600080fd5b61037e600480803560001916906020019091905050610f2f565b604051808215151515815260200191505060405180910390f35b34156103a357600080fd5b61040b600480803560001916906020019091908035600019169060200190919080356000191690602001909190803560001916906020019091908035600019169060200190919080356000191690602001909190803560001916906020019091905050610f57565b005b341561041857600080fd5b61042e60048080359060200190919050506110d5565b604051808860001916600019168152602001876000191660001916815260200186600019166000191681526020018560001916600019168152602001846000191660001916815260200183600019166000191681526020018215151515815260200197505050505050505060405180910390f35b34156104ad57600080fd5b6104c3600480803590602001909190505061115d565b005b34156104d057600080fd5b6104f76004808035600019169060200190919080356000191690602001909190505061135c565b604051808381526020018281526020019250505060405180910390f35b341561051f57600080fd5b61053560048080359060200190919050506113df565b6040518085815260200184600019166000191681526020018360001916600019168152602001826000191660001916815260200194505050505060405180910390f35b341561058357600080fd5b610599600480803590602001909190505061143d565b6040518082815260200191505060405180910390f35b34156105ba57600080fd5b6105c261145d565b6040518082815260200191505060405180910390f35b34156105e357600080fd5b6105f9600480803590602001909190505061146a565b604051808d81526020018c81526020018b600019166000191681526020018a81526020018960001916600019168152602001888152602001878152602001868152602001851515151581526020018481526020018381526020018281526020019c5050505050505050505050505060405180910390f35b341561067b57600080fd5b6106af600480803560001916906020019091908035600019169060200190919080356000191690602001909190505061152c565b005b34156106bc57600080fd5b6106d26004808035906020019091905050611613565b6040518082815260200191505060405180910390f35b34156106f357600080fd5b61071260048080359060200190919080359060200190919050506116ad565b60405180848152602001838152602001828152602001935050505060405180910390f35b341561074157600080fd5b6107576004808035906020019091905050611754565b6040518084815260200183600019166000191681526020018260001916600019168152602001935050505060405180910390f35b341561079657600080fd5b6107be60048080359060200190919080359060200190919080359060200190919050506117a9565b005b34156107cb57600080fd5b6107e56004808035600019169060200190919050506118b3565b6040518082815260200191505060405180910390f35b341561080657600080fd5b6108206004808035600019169060200190919050506118d8565b6040518082815260200191505060405180910390f35b341561084157600080fd5b61085760048080359060200190919050506118fd565b6040518082815260200191505060405180910390f35b341561087857600080fd5b61089260048080356000191690602001909190505061191d565b604051808215151515815260200191505060405180910390f35b34156108b757600080fd5b6108d1600480803560001916906020019091905050611945565b604051808215151515815260200191505060405180910390f35b34156108f657600080fd5b610915600480803590602001909190803590602001909190505061196d565b6040518082815260200191505060405180910390f35b341561093657600080fd5b6109506004808035600019169060200190919050506119d7565b6040518082815260200191505060405180910390f35b60008080549050905090565b600061097c6119fc565b61098584611945565b15151561099157600080fd5b61099961145d565b915060a06040519081016040528083815260200187600019168152602001866000191681526020018560001916815260200184600019168152509050600280548060010182816109e99190611a38565b9160005260206000209060050201600083909190915060008201518160000155602082015181600101906000191690556040820151816002019060001916905560608201518160030190600019169055608082015181600401906000191690555050508160036000866000191660001916815260200190815260200160002081905550600e600086600019166000191681526020019081526020016000208054806001018281610a999190611a6a565b916000526020600020900160008490919091505550505050505050565b6000806000806000808054905087108015610ae65750600960008881526020019081526020016000208054905086105b1515610af157600080fd5b6009600088815260200190815260200160002086815481101515610b1157fe5b90600052602060002090600502019050806000015481600201548260030154836004015494509450945094505092959194509250565b6000600480549050905090565b6000600780549050905090565b6000806000610b6e611a96565b60008054905087108015610b86575060068054905086105b1515610b9157600080fd5b600686815481101515610ba057fe5b90600052602060002090600f02019250610bb8610b54565b915060a06040519081016040528083815260200188815260200187815260200186815260200142815250905060078054806001018281610bf89190611ac6565b916000526020600020906005020160008390919091506000820151816000015560208201518160010155604082015181600201556060820151816003015560808201518160040155505050600960008881526020019081526020016000208054806001018281610c689190611ac6565b916000526020600020906005020160008390919091506000820151816000015560208201518160010155604082015181600201556060820151816003015560808201518160040155505050600a60008781526020019081526020016000208054806001018281610cd89190611ac6565b9160005260206000209060050201600083909190915060008201518160000155602082015181600101556040820151816002015560608201518160030155608082015181600401555050508483600601600082825401925050819055505050509392505050565b6000600680549050905090565b6000610d56611af8565b60048054905087101515610d6957600080fd5b610d71610d3f565b91506101e06040519081016040528083815260200188815260200187600019168152602001428152602001866000191681526020018581526020016000815260200160028152602001600015158152602001848152602001600081526020016000815260200160008152602001600081526020016000815250905060068054806001018281610e009190611b77565b91600052602060002090600f02016000839091909150600082015181600001556020820151816001015560408201518160020190600019169055606082015181600301556080820151816004019060001916905560a0820151816005015560c0820151816006015560e082015181600701556101008201518160080160006101000a81548160ff021916908315150217905550610120820151816009015561014082015181600a015561016082015181600b015561018082015181600c01556101a082015181600d01556101c082015181600e0155505050600c60008881526020019081526020016000208054806001018281610efd9190611a6a565b916000526020600020900160008490919091505550600087141515610f2657610f258261115d565b5b50505050505050565b6000806001600084600019166000191681526020019081526020016000205414159050919050565b6000610f61611ba9565b610f6a8961191d565b151515610f7657600080fd5b610f7e610b47565b915061012060405190810160405280838152602001896000191681526020018a600019168152602001886000191681526020018760001916815260200186600019168152602001856000191681526020018460001916815260200160011515815250905060048054806001018281610ff69190611c0d565b91600052602060002090600902016000839091909150600082015181600001556020820151816001019060001916905560408201518160020190600019169055606082015181600301906000191690556080820151816004019060001916905560a0820151816005019060001916905560c0820151816006019060001916905560e082015181600701906000191690556101008201518160080160006101000a81548160ff02191690831515021790555050505081600560008b6000191660001916815260200190815260200160002081905550505050505050505050565b600080600080600080600080600480549050891015156110f457600080fd5b60048981548110151561110357fe5b906000526020600020906009020190508060010154816002015482600401548360050154846006015485600701548660080160009054906101000a900460ff16975097509750975097509750975050919395979092949650565b6000806000806000806000806000806006805490508b108015611180575060008b115b151561118b57600080fd5b60068b81548110151561119a57fe5b90600052602060002090600f0201995060048a600101548154811015156111bd57fe5b90600052602060002090600902019850600e60008a6004015460001916600019168152602001908152602001600020975060038880549050101561125f57600095505b878054905086101561125a5786805480600101828161121f9190611a6a565b916000526020600020900160008a8981548110151561123a57fe5b906000526020600020900154909190915055508580600101965050611200565b611346565b6003600289805490500281151561127257fe5b04945087805490509350600092505b848310156113455761129284611613565b91508680548060010182816112a79190611a6a565b916000526020600020900160008a858154811015156112c257fe5b906000526020600020900154909190915055508190505b600188805490500381101561132f5787600182018154811015156112f957fe5b906000526020600020900154888281548110151561131357fe5b90600052602060002090018190555080806001019150506112d9565b8380600190039450508280600101935050611281565b5b848a600c01819055505050505050505050505050565b600080600080600080600080945060009350611377896118d8565b9250611382896119d7565b915061138d896118b3565b9050808284181893506000831415156113a957600194506113cd565b6000821415156113bc57600294506113cc565b6000811415156113cb57600394505b5b5b84849650965050505050509250929050565b6000806000806000600280549050861015156113fa57600080fd5b60028681548110151561140957fe5b9060005260206000209060050201905080600001548160010154826002015483600301549450945094509450509193509193565b6000600c6000838152602001908152602001600020805490509050919050565b6000600280549050905090565b6000806000806000806000806000806000806000808e11801561149157506006805490508e105b151561149c57600080fd5b60068e8154811015156114ab57fe5b90600052602060002090600f02019050806000015481600101548260020154836003015484600401548560050154866006015487600701548860080160009054906101000a900460ff1689600901548a600a01548b600b01549c509c509c509c509c509c509c509c509c509c509c509c505091939597999b5091939597999b565b6000611536611c3f565b61153f84610f2f565b15151561154b57600080fd5b611553610966565b9150608060405190810160405280838152602001866000191681526020018560001916815260200184600019168152509050600080548060010182816115999190611c71565b916000526020600020906004020160008390919091506000820151816000015560208201518160010190600019169055604082015181600201906000191690556060820151816003019060001916905550505081600160008660001916600019168152602001908152602001600020819055505050505050565b60008160024233600060405160200152604051808381526020018273ffffffffffffffffffffffffffffffffffffffff1673ffffffffffffffffffffffffffffffffffffffff166c010000000000000000000000000281526014019250505060206040518083038160008661646e5a03f1151561168f57600080fd5b505060405180519050600190048115156116a557fe5b069050919050565b6000806000806000600280549050871080156116de5750600b60008881526020019081526020016000208054905086105b15156116e957600080fd5b600b60008881526020019081526020016000208681548110151561170957fe5b906000526020600020900154915060088281548110151561172657fe5b9060005260206000209060040201905080600201548160010154826003015494509450945050509250925092565b6000806000806000805490508510151561176d57600080fd5b60008581548110151561177c57fe5b90600052602060002090600402019050806000015481600101548260020154935093509350509193909250565b60006117b3611ca3565b600680549050851080156117c8575060008310155b80156117d5575060028311155b15156117e057600080fd5b600b6000858152602001908152602001600020805490509150608060405190810160405280838152602001868152602001858152602001848152509050600b600085815260200190815260200160002080548060010182816118429190611a6a565b9160005260206000209001600084909190915055506008805480600101828161186b9190611ccc565b91600052602060002090600402016000839091909150600082015181600001556020820151816001015560408201518160020155606082015181600301555050505050505050565b6000600360008360001916600019168152602001908152602001600020549050919050565b6000600160008360001916600019168152602001908152602001600020549050919050565b6000600b6000838152602001908152602001600020805490509050919050565b6000806005600084600019166000191681526020019081526020016000205414159050919050565b6000806003600084600019166000191681526020019081526020016000205414159050919050565b6000600480549050831080156119985750600c60008381526020019081526020016000208054905082105b15156119a357600080fd5b600c6000848152602001908152602001600020828154811015156119c357fe5b906000526020600020900154905092915050565b6000600560008360001916600019168152602001908152602001600020549050919050565b60a06040519081016040528060008152602001600080191681526020016000801916815260200160008019168152602001600080191681525090565b815481835581811511611a6557600502816005028360005260206000209182019101611a649190611cfe565b5b505050565b815481835581811511611a9157818360005260206000209182019101611a909190611d45565b5b505050565b60a06040519081016040528060008152602001600081526020016000815260200160008152602001600081525090565b815481835581811511611af357600502816005028360005260206000209182019101611af29190611d6a565b5b505050565b6101e06040519081016040528060008152602001600081526020016000801916815260200160008152602001600080191681526020016000815260200160008152602001600081526020016000151581526020016000815260200160008152602001600081526020016000815260200160008152602001600081525090565b815481835581811511611ba457600f0281600f028360005260206000209182019101611ba39190611db1565b5b505050565b6101206040519081016040528060008152602001600080191681526020016000801916815260200160008019168152602001600080191681526020016000801916815260200160008019168152602001600080191681526020016000151581525090565b815481835581811511611c3a57600902816009028360005260206000209182019101611c399190611e54565b5b505050565b608060405190810160405280600081526020016000801916815260200160008019168152602001600080191681525090565b815481835581811511611c9e57600402816004028360005260206000209182019101611c9d9190611ec7565b5b505050565b608060405190810160405280600081526020016000815260200160008152602001600081525090565b815481835581811511611cf957600402816004028360005260206000209182019101611cf89190611f06565b5b505050565b611d4291905b80821115611d3e57600080820160009055600182016000905560028201600090556003820160009055600482016000905550600501611d04565b5090565b90565b611d6791905b80821115611d63576000816000905550600101611d4b565b5090565b90565b611dae91905b80821115611daa57600080820160009055600182016000905560028201600090556003820160009055600482016000905550600501611d70565b5090565b90565b611e5191905b80821115611e4d5760008082016000905560018201600090556002820160009055600382016000905560048201600090556005820160009055600682016000905560078201600090556008820160006101000a81549060ff02191690556009820160009055600a820160009055600b820160009055600c820160009055600d820160009055600e82016000905550600f01611db7565b5090565b90565b611ec491905b80821115611ec05760008082016000905560018201600090556002820160009055600382016000905560048201600090556005820160009055600682016000905560078201600090556008820160006101000a81549060ff021916905550600901611e5a565b5090565b90565b611f0391905b80821115611eff5760008082016000905560018201600090556002820160009055600382016000905550600401611ecd565b5090565b90565b611f4291905b80821115611f3e5760008082016000905560018201600090556002820160009055600382016000905550600401611f0c565b5090565b905600a165627a7a723058204e90aa66a28efae89176b2cde1b0c692b6063cfe6f75d9146e297342565e03f30029",
  "source": "pragma solidity ^0.4.16;\n\ncontract Main {\n\n    struct User {\n        uint256 userId;\n        bytes32 userName;\n        bytes32 userPhone;\n        bytes32 userPassword;\n    }\n\n    struct Endorsor {\n        uint256 endorsorId;\n        bytes32 endorsorOrg;//\n        bytes32 endorsorProvince;\n        bytes32 endorsorEmail;\n        bytes32 endorsorPassword;\n\n    }\n\n    struct School {\n        uint256 schoolId;\n        bytes32 schoolName;\n        bytes32 schoolEmail;\n        bytes32 schoolPassword;\n        bytes32 schoolProvince;\n        bytes32 schoolAddress;\n        bytes32 schoolGovernor;//\n        bytes32 schoolAgent;//\n        bool schoolState;//\n    }\n\n    struct Project {\n        uint256 projectId;\n        uint256 schoolId;\n        bytes32 projectName;\n        uint256 projectCreateTime;\n        bytes32 projectTarget;//\n        uint256 projectTargetMoney;\n        uint256 projectCurrentMoney;\n        uint256 projectEndorseState;//0  1  2 pending\n        bool projectFinishState;\n        uint256 projectFinishTime;\n        uint256 projectPlanUpNoteTime;//\n        uint256 projectActualUpNoteTime;//\n        uint256 totalEndorsor;\n        uint256 passEndorsor;\n        uint256 rejectEndorsor;\n    }\n\n    struct Denote {\n        uint256 denoteId;//id\n        uint256 userId;//id\n        uint256 projectId;//id\n        uint256 denoteMoney;//\n        uint256 denoteTime;//\n    }\n\n    struct EndorseItem {\n        uint256 endorseItemId;\n        uint256 projectId;\n        uint256 endorsorId;\n        uint256 operate;//{0: 1 2}\n    }\n\n\n    User[] userList;\n    mapping(bytes32=>uint256) userMap;//key\n\n    Endorsor[] endorsorList;\n    mapping(bytes32=>uint256) endorsorMap;//key valueprojectId\n\n    School[] schoolList;\n    mapping(bytes32=>uint256)schoolMap;//key\n\n    Project[] projectList;\n    Denote[] denoteList;\n    EndorseItem[] endorseItemList;\n    mapping(uint256=>Denote[]) userDenoteMap;//\n    mapping(uint256=>Denote[]) projectDenoteMap;//\n    mapping(uint256=>uint256[]) endorseItemMap;//\n    mapping(uint256=>uint256[]) schoolProjectMap;\n    mapping(uint256=>bytes32[]) projectNoteUrlMap;\n    mapping(bytes32=>uint256[]) provinceToEndorsorMap;\n\n    function Main() {\n        createUser(\"0\", 0, \"0\");\n        createSchool(\"0\", \"0\", \"0\", \"0\", \"0\", \"0\", \"0\"); \n        createProject(0, \"0\", \"0\", 0, 0);\n        createEndorsor(\"0\", \"0\", \"0\", \"0\");\n    }\n\n    function createUser(bytes32 _userName, bytes32 _userPhone, bytes32 _userPassword) {\n        require(!checkUserByPhone(_userPhone));\n        uint256 _userId = userCount();\n        User memory user = User({userId:_userId, userName:_userName, userPhone:_userPhone, userPassword:_userPassword});\n        userList.push(user);\n        userMap[_userPhone] = _userId;\n    }\n\n    function userCount() view returns(uint256) {\n        return userList.length;\n    }\n\n    function checkUserByPhone(bytes32 _userPhone) view returns(bool) {\n        return userMap[_userPhone] != 0;\n    }\n\n    function getUserIdByPhone(bytes32 _userPhone) view returns(uint256) {\n        return userMap[_userPhone];\n    }\n\n    function getUserByUserId(uint256 _userId) returns(uint256, bytes32, bytes32) {\n        require(_userId < userList.length);\n        User user = userList[_userId];\n        return(user.userId, user.userName, user.userPhone);\n    }\n\n    function login(bytes32 _userAccount, bytes32 _userPassword) returns(uint256, uint256) {\n        uint256 _userType = 0;\n        uint256 _userId = 0;\n        uint256 _userIdA = getUserIdByPhone(_userAccount);\n        uint256 _userIdB = getSchoolIdByEmail(_userAccount);\n        uint256 _userIdC = getEndorsorIdByEmail(_userAccount);\n        _userId = _userIdA ^ _userIdB ^ _userIdC;\n\n        if (_userIdA != 0) {\n            _userType = 1;\n        }else if (_userIdB != 0) {\n            _userType = 2;\n        }else if (_userIdC != 0) {\n            _userType = 3;\n        }\n        return (_userType, _userId);\n    }\n\n    function userDenote(uint256 _userId, uint256 _projectId, uint256 _denoteMoney) returns(uint256) {\n        require(_userId < userList.length && _projectId < projectList.length);\n        Project project = projectList[_projectId];\n        uint256 _denoteId = denoteCount();\n        Denote memory denote = Denote({denoteId:_denoteId, userId:_userId, projectId:_projectId, denoteMoney:_denoteMoney, denoteTime:now});\n        denoteList.push(denote);\n        userDenoteMap[_userId].push(denote);\n        projectDenoteMap[_projectId].push(denote);\n        project.projectCurrentMoney += _denoteMoney;\n    }\n\n    function denoteCount() returns(uint256) {\n        return denoteList.length;\n    }\n\n    function getDenoteByUserId(uint256 _userId, uint _userDenoteId) returns(uint256, uint256, uint256, uint256) {\n        require(_userId < userList.length && _userDenoteId < userDenoteMap[_userId].length);\n        Denote denote = userDenoteMap[_userId][_userDenoteId];\n        return (denote.denoteId, denote.projectId, denote.denoteMoney, denote.denoteTime);\n    }\n  // ///////////////////////////////////////////////////////////////////////////////////////////////////\n\n    function createEndorsor(bytes32 _endorsorOrg, bytes32 _endorsorProvince, bytes32 _endorsorEmail, bytes32 _endorsorPassword) {\n        require(!checkEndorsorByEmail(_endorsorEmail));\n        uint256 _endorsorId = endorsorCount();\n        Endorsor memory endorsor = Endorsor({endorsorId:_endorsorId, endorsorOrg:_endorsorOrg, endorsorProvince:_endorsorProvince, endorsorEmail:_endorsorEmail, endorsorPassword:_endorsorPassword});\n        endorsorList.push(endorsor);\n        endorsorMap[_endorsorEmail] = _endorsorId;\n        provinceToEndorsorMap[_endorsorProvince].push(_endorsorId);\n    }\n\n    function endorsorCount() view returns(uint256) {\n        return endorsorList.length;\n    }\n\n    function checkEndorsorByEmail(bytes32 _endorsorEmail) view returns(bool) {\n        return endorsorMap[_endorsorEmail] != 0;\n    }\n\n    function getEndorsorIdByEmail(bytes32 _endorsorEmail) view returns(uint256) {\n        return endorsorMap[_endorsorEmail];\n    }\n\n    function getEndorsorByEndorsorId(uint256 _endorsorId) view returns(uint256, bytes32, bytes32, bytes32) {\n        require(_endorsorId < endorsorList.length);\n        Endorsor _endorsor =  endorsorList[_endorsorId];\n        return (_endorsor.endorsorId, _endorsor.endorsorOrg, _endorsor.endorsorProvince, _endorsor.endorsorEmail);\n    }\n\n    function getEndorseByEndorsorId(uint256 _endorsorId, uint256 _endorseItemIndex) view returns (uint256, uint256, uint256) {\n        require(_endorsorId < endorsorList.length && _endorseItemIndex < endorseItemMap[_endorsorId].length);\n        uint256 endorseItemId = endorseItemMap[_endorsorId][_endorseItemIndex];\n        EndorseItem _endorseItem = endorseItemList[endorseItemId];\n        return (_endorseItem.endorsorId, _endorseItem.projectId, _endorseItem.operate);\n    }\n\n    function createEndorseItem(uint256 _projectId, uint256 _endorsorId, uint256 _operate) {\n        require(_projectId < projectList.length && _operate >= 0 && _operate <= 2);\n        uint256 _endorseItemId = endorseItemMap[_endorsorId].length;\n        EndorseItem memory endorseItem = EndorseItem({endorseItemId:_endorseItemId, projectId:_projectId, endorsorId:_endorsorId, operate:_operate});\n        endorseItemMap[_endorsorId].push(_endorseItemId);\n        endorseItemList.push(endorseItem);\n    }\n\n    function getEndorseItemCountOfEndorsor(uint256 _endorsorId) returns(uint256) {\n        return endorseItemMap[_endorsorId].length;\n    }\n\n  // ///////////////////////////////////////////////////////////////////////////////////////////////////////\n    \n    function createSchool(bytes32 _schoolEmail, bytes32 _schoolName, bytes32 _schoolPassword, bytes32 _schoolProvince, bytes32 _schoolAddress, bytes32 _schoolGovernor, bytes32 _schoolAgent) {\n        require(!checkSchoolByEmail(_schoolEmail));\n        uint256 _schoolId = schoolCount();\n        School memory school = School({schoolId:_schoolId, schoolName:_schoolName, schoolEmail:_schoolEmail, schoolPassword:_schoolPassword, schoolProvince:_schoolProvince, schoolAddress:_schoolAddress, schoolGovernor:_schoolGovernor, schoolAgent:_schoolAgent, schoolState:true});\n        schoolList.push(school);\n        schoolMap[_schoolEmail] = _schoolId;\n    }\n\n    function schoolCount() view returns(uint256) {\n        return schoolList.length;\n    }\n\n    function checkSchoolByEmail(bytes32 _schoolEmail) view returns(bool) {\n      return schoolMap[_schoolEmail] != 0;\n    }\n\n    function getSchoolIdByEmail(bytes32 _schoolEmail) view returns(uint256) {\n      return schoolMap[_schoolEmail];\n    }\n\n    function getSchoolBySchoolId(uint256 _schoolId) view returns(bytes32, bytes32, bytes32, bytes32, bytes32, bytes32, bool) {\n        require(_schoolId < schoolList.length);\n        School school = schoolList[_schoolId];\n        return (school.schoolName, school.schoolEmail, school.schoolProvince, school.schoolAddress, school.schoolGovernor, school.schoolAgent, school.schoolState);\n    }\n\n    function createProject(uint256 _schoolId, bytes32 _projectName, bytes32 _projectTarget, uint256 _projectTargetMoney, uint256 _projectFinishTime) {\n        require(_schoolId < schoolList.length);\n        uint256 _projectId = projectCount();\n        Project memory project = Project({projectId:_projectId, schoolId:_schoolId, projectName:_projectName, projectCreateTime:now, projectTarget:_projectTarget, projectTargetMoney:_projectTargetMoney, projectCurrentMoney:0, projectEndorseState:2, projectFinishState:false, projectFinishTime:_projectFinishTime, projectPlanUpNoteTime:0, projectActualUpNoteTime:0, totalEndorsor:0, passEndorsor:0, rejectEndorsor:0});\n        projectList.push(project);\n        schoolProjectMap[_schoolId].push(_projectId);\n        if (_schoolId != 0) {\n            emitEndorse(_projectId);\n        }\n    }\n\n    function emitEndorse(uint256 _projectId) {\n        require(_projectId < projectList.length && _projectId > 0);\n        Project project = projectList[_projectId];\n        School school = schoolList[project.schoolId];\n        uint256[] endorsorList = provinceToEndorsorMap[school.schoolProvince];\n        uint256[] emitEndorsorList;\n        if (endorsorList.length < 3) {\n            for (uint256 i=0; i < endorsorList.length; i++) {\n                emitEndorsorList.push(endorsorList[i]);\n            }\n        }else {\n            uint256 targetEndorsorCount = endorsorList.length*2/3;\n            uint256 len = endorsorList.length;\n            for (uint256 j=0; j < targetEndorsorCount; j++) {\n                uint256 t = random(len);\n                emitEndorsorList.push(endorsorList[t]);\n                for (uint256 k=t; k < endorsorList.length-1; k++) {\n                    endorsorList[k] = endorsorList[k+1];\n                }\n                len--;\n            }\n        }\n        project.totalEndorsor = targetEndorsorCount;\n    }\n\n    function projectCount() view returns(uint256) {\n        return projectList.length;\n    }\n\n    function getProjectByProjectId(uint256 _projectId) view returns(uint256, uint256, bytes32, uint256, bytes32, uint256, uint256, uint256, bool, uint256, uint256, uint256) {\n        require(_projectId > 0 && _projectId < projectList.length);\n        Project project = projectList[_projectId];\n        return (project.projectId, project.schoolId, project.projectName, project.projectCreateTime, project.projectTarget, project.projectTargetMoney, project.projectCurrentMoney, project.projectEndorseState, project.projectFinishState, project.projectFinishTime, project.projectPlanUpNoteTime, project.projectActualUpNoteTime);\n    }\n\n    function getSchoolProjectCounts(uint256 _schoolId) view returns(uint256) {\n        return schoolProjectMap[_schoolId].length;\n    }\n\n    function getProjectIdBySchoolId(uint256 _schoolId, uint256 _schoolProjectId) view returns(uint256) {\n        require(_schoolId < schoolList.length && _schoolProjectId < schoolProjectMap[_schoolProjectId].length);\n        return schoolProjectMap[_schoolId][_schoolProjectId];\n    }\n  \n    // return random[0,n)\n    function random(uint256 n) returns(uint256) {\n        return uint(sha256(now, msg.sender))%n;\n    }\n\n}\n",
  "sourcePath": "/home/hk-journalist/work/code/thunder/truffle/contracts/Main.sol",
  "compiler": {
    "name": "solc",
    "version": "0.4.19+commit.c4cbbb05.Emscripten.clang"
  },
  "schemaVersion": "2.0.0",
  "updatedAt": "2018-06-05T09:41:21.884Z"
}