{
  "contractName": "Main",
  "abi": [
    {
      "inputs": [],
      "payable": false,
      "stateMutability": "nonpayable",
      "type": "constructor"
    },
    {
      "constant": false,
      "inputs": [
        {
          "name": "_userName",
          "type": "string"
        },
        {
          "name": "_userPhone",
          "type": "string"
        },
        {
          "name": "_userPassword",
          "type": "string"
        }
      ],
      "name": "createUser",
      "outputs": [],
      "payable": false,
      "stateMutability": "nonpayable",
      "type": "function"
    },
    {
      "constant": true,
      "inputs": [],
      "name": "getBytes32",
      "outputs": [
        {
          "name": "",
          "type": "string"
        }
      ],
      "payable": false,
      "stateMutability": "view",
      "type": "function"
    },
    {
      "constant": true,
      "inputs": [],
      "name": "userCount",
      "outputs": [
        {
          "name": "",
          "type": "uint256"
        }
      ],
      "payable": false,
      "stateMutability": "view",
      "type": "function"
    },
    {
      "constant": true,
      "inputs": [
        {
          "name": "_userPhone",
          "type": "string"
        }
      ],
      "name": "checkUserByPhone",
      "outputs": [
        {
          "name": "",
          "type": "bool"
        }
      ],
      "payable": false,
      "stateMutability": "view",
      "type": "function"
    },
    {
      "constant": true,
      "inputs": [
        {
          "name": "_userPhone",
          "type": "string"
        }
      ],
      "name": "getUserIdByPhone",
      "outputs": [
        {
          "name": "",
          "type": "uint256"
        }
      ],
      "payable": false,
      "stateMutability": "view",
      "type": "function"
    },
    {
      "constant": true,
      "inputs": [
        {
          "name": "_userId",
          "type": "uint256"
        }
      ],
      "name": "getUserByUserId",
      "outputs": [
        {
          "name": "",
          "type": "uint256"
        },
        {
          "name": "",
          "type": "string"
        },
        {
          "name": "",
          "type": "string"
        }
      ],
      "payable": false,
      "stateMutability": "view",
      "type": "function"
    },
    {
      "constant": true,
      "inputs": [
        {
          "name": "_userAccount",
          "type": "string"
        },
        {
          "name": "_userPassword",
          "type": "string"
        }
      ],
      "name": "login",
      "outputs": [
        {
          "name": "",
          "type": "uint256"
        },
        {
          "name": "",
          "type": "uint256"
        }
      ],
      "payable": false,
      "stateMutability": "view",
      "type": "function"
    },
    {
      "constant": false,
      "inputs": [
        {
          "name": "_userId",
          "type": "uint256"
        },
        {
          "name": "_projectId",
          "type": "uint256"
        },
        {
          "name": "_denoteMoney",
          "type": "uint256"
        }
      ],
      "name": "userDenote",
      "outputs": [
        {
          "name": "",
          "type": "uint256"
        }
      ],
      "payable": false,
      "stateMutability": "nonpayable",
      "type": "function"
    },
    {
      "constant": false,
      "inputs": [],
      "name": "denoteCount",
      "outputs": [
        {
          "name": "",
          "type": "uint256"
        }
      ],
      "payable": false,
      "stateMutability": "nonpayable",
      "type": "function"
    },
    {
      "constant": false,
      "inputs": [
        {
          "name": "_userId",
          "type": "uint256"
        },
        {
          "name": "_userDenoteId",
          "type": "uint256"
        }
      ],
      "name": "getDenoteByUserId",
      "outputs": [
        {
          "name": "",
          "type": "uint256"
        },
        {
          "name": "",
          "type": "uint256"
        },
        {
          "name": "",
          "type": "uint256"
        },
        {
          "name": "",
          "type": "uint256"
        }
      ],
      "payable": false,
      "stateMutability": "nonpayable",
      "type": "function"
    },
    {
      "constant": false,
      "inputs": [
        {
          "name": "_endorsorOrg",
          "type": "string"
        },
        {
          "name": "_endorsorProvince",
          "type": "string"
        },
        {
          "name": "_endorsorEmail",
          "type": "string"
        },
        {
          "name": "_endorsorPassword",
          "type": "string"
        }
      ],
      "name": "createEndorsor",
      "outputs": [],
      "payable": false,
      "stateMutability": "nonpayable",
      "type": "function"
    },
    {
      "constant": true,
      "inputs": [],
      "name": "endorsorCount",
      "outputs": [
        {
          "name": "",
          "type": "uint256"
        }
      ],
      "payable": false,
      "stateMutability": "view",
      "type": "function"
    },
    {
      "constant": true,
      "inputs": [
        {
          "name": "_endorsorEmail",
          "type": "string"
        }
      ],
      "name": "checkEndorsorByEmail",
      "outputs": [
        {
          "name": "",
          "type": "bool"
        }
      ],
      "payable": false,
      "stateMutability": "view",
      "type": "function"
    },
    {
      "constant": true,
      "inputs": [
        {
          "name": "_endorsorEmail",
          "type": "string"
        }
      ],
      "name": "getEndorsorIdByEmail",
      "outputs": [
        {
          "name": "",
          "type": "uint256"
        }
      ],
      "payable": false,
      "stateMutability": "view",
      "type": "function"
    },
    {
      "constant": true,
      "inputs": [
        {
          "name": "_endorsorId",
          "type": "uint256"
        }
      ],
      "name": "getEndorsorByEndorsorId",
      "outputs": [
        {
          "name": "",
          "type": "uint256"
        },
        {
          "name": "",
          "type": "string"
        },
        {
          "name": "",
          "type": "string"
        },
        {
          "name": "",
          "type": "string"
        }
      ],
      "payable": false,
      "stateMutability": "view",
      "type": "function"
    },
    {
      "constant": true,
      "inputs": [
        {
          "name": "_endorsorId",
          "type": "uint256"
        },
        {
          "name": "_endorseItemIndex",
          "type": "uint256"
        }
      ],
      "name": "getEndorseByEndorsorId",
      "outputs": [
        {
          "name": "",
          "type": "uint256"
        },
        {
          "name": "",
          "type": "uint256"
        },
        {
          "name": "",
          "type": "uint256"
        }
      ],
      "payable": false,
      "stateMutability": "view",
      "type": "function"
    },
    {
      "constant": false,
      "inputs": [
        {
          "name": "_projectId",
          "type": "uint256"
        },
        {
          "name": "_endorsorId",
          "type": "uint256"
        },
        {
          "name": "_operate",
          "type": "uint256"
        }
      ],
      "name": "createEndorseItem",
      "outputs": [],
      "payable": false,
      "stateMutability": "nonpayable",
      "type": "function"
    },
    {
      "constant": false,
      "inputs": [
        {
          "name": "_endorsorId",
          "type": "uint256"
        }
      ],
      "name": "getEndorseItemCountOfEndorsor",
      "outputs": [
        {
          "name": "",
          "type": "uint256"
        }
      ],
      "payable": false,
      "stateMutability": "nonpayable",
      "type": "function"
    },
    {
      "constant": false,
      "inputs": [
        {
          "name": "_schoolEmail",
          "type": "string"
        },
        {
          "name": "_schoolName",
          "type": "string"
        },
        {
          "name": "_schoolPassword",
          "type": "string"
        },
        {
          "name": "_schoolProvince",
          "type": "string"
        },
        {
          "name": "_schoolAddress",
          "type": "string"
        },
        {
          "name": "_schoolGovernor",
          "type": "string"
        },
        {
          "name": "_schoolAgent",
          "type": "string"
        }
      ],
      "name": "createSchool",
      "outputs": [],
      "payable": false,
      "stateMutability": "nonpayable",
      "type": "function"
    },
    {
      "constant": true,
      "inputs": [],
      "name": "schoolCount",
      "outputs": [
        {
          "name": "",
          "type": "uint256"
        }
      ],
      "payable": false,
      "stateMutability": "view",
      "type": "function"
    },
    {
      "constant": true,
      "inputs": [
        {
          "name": "_schoolEmail",
          "type": "string"
        }
      ],
      "name": "checkSchoolByEmail",
      "outputs": [
        {
          "name": "",
          "type": "bool"
        }
      ],
      "payable": false,
      "stateMutability": "view",
      "type": "function"
    },
    {
      "constant": true,
      "inputs": [
        {
          "name": "_schoolEmail",
          "type": "string"
        }
      ],
      "name": "getSchoolIdByEmail",
      "outputs": [
        {
          "name": "",
          "type": "uint256"
        }
      ],
      "payable": false,
      "stateMutability": "view",
      "type": "function"
    },
    {
      "constant": true,
      "inputs": [
        {
          "name": "_schoolId",
          "type": "uint256"
        }
      ],
      "name": "getSchoolBySchoolId",
      "outputs": [
        {
          "name": "",
          "type": "string"
        },
        {
          "name": "",
          "type": "string"
        },
        {
          "name": "",
          "type": "string"
        },
        {
          "name": "",
          "type": "string"
        },
        {
          "name": "",
          "type": "string"
        },
        {
          "name": "",
          "type": "string"
        },
        {
          "name": "",
          "type": "bool"
        }
      ],
      "payable": false,
      "stateMutability": "view",
      "type": "function"
    },
    {
      "constant": false,
      "inputs": [
        {
          "name": "_schoolId",
          "type": "uint256"
        },
        {
          "name": "_projectName",
          "type": "string"
        },
        {
          "name": "_projectTarget",
          "type": "string"
        },
        {
          "name": "_projectTargetMoney",
          "type": "uint256"
        },
        {
          "name": "_projectFinishTime",
          "type": "uint256"
        }
      ],
      "name": "createProject",
      "outputs": [],
      "payable": false,
      "stateMutability": "nonpayable",
      "type": "function"
    },
    {
      "constant": false,
      "inputs": [
        {
          "name": "_projectId",
          "type": "uint256"
        }
      ],
      "name": "emitEndorse",
      "outputs": [],
      "payable": false,
      "stateMutability": "nonpayable",
      "type": "function"
    },
    {
      "constant": true,
      "inputs": [],
      "name": "projectCount",
      "outputs": [
        {
          "name": "",
          "type": "uint256"
        }
      ],
      "payable": false,
      "stateMutability": "view",
      "type": "function"
    },
    {
      "constant": true,
      "inputs": [
        {
          "name": "_projectId",
          "type": "uint256"
        }
      ],
      "name": "getProjectByProjectId",
      "outputs": [
        {
          "name": "",
          "type": "uint256"
        },
        {
          "name": "",
          "type": "uint256"
        },
        {
          "name": "",
          "type": "string"
        },
        {
          "name": "",
          "type": "uint256"
        },
        {
          "name": "",
          "type": "string"
        },
        {
          "name": "",
          "type": "uint256"
        },
        {
          "name": "",
          "type": "uint256"
        },
        {
          "name": "",
          "type": "uint256"
        },
        {
          "name": "",
          "type": "bool"
        },
        {
          "name": "",
          "type": "uint256"
        },
        {
          "name": "",
          "type": "uint256"
        },
        {
          "name": "",
          "type": "uint256"
        }
      ],
      "payable": false,
      "stateMutability": "view",
      "type": "function"
    },
    {
      "constant": true,
      "inputs": [
        {
          "name": "_schoolId",
          "type": "uint256"
        }
      ],
      "name": "getSchoolProjectCounts",
      "outputs": [
        {
          "name": "",
          "type": "uint256"
        }
      ],
      "payable": false,
      "stateMutability": "view",
      "type": "function"
    },
    {
      "constant": true,
      "inputs": [
        {
          "name": "_schoolId",
          "type": "uint256"
        },
        {
          "name": "_num",
          "type": "uint256"
        }
      ],
      "name": "getSchoolProjectidByNum",
      "outputs": [
        {
          "name": "",
          "type": "uint256"
        }
      ],
      "payable": false,
      "stateMutability": "view",
      "type": "function"
    },
    {
      "constant": true,
      "inputs": [
        {
          "name": "_schoolId",
          "type": "uint256"
        },
        {
          "name": "_schoolProjectId",
          "type": "uint256"
        }
      ],
      "name": "getProjectIdBySchoolId",
      "outputs": [
        {
          "name": "",
          "type": "uint256"
        }
      ],
      "payable": false,
      "stateMutability": "view",
      "type": "function"
    },
    {
      "constant": false,
      "inputs": [
        {
          "name": "n",
          "type": "uint256"
        }
      ],
      "name": "random",
      "outputs": [
        {
          "name": "",
          "type": "uint256"
        }
      ],
      "payable": false,
      "stateMutability": "nonpayable",
      "type": "function"
    }
  ],
  "bytecode": "0x60806040523480156200001157600080fd5b50620000cd6040805190810160405280600181526020017f30000000000000000000000000000000000000000000000000000000000000008152506040805190810160405280600181526020017f30000000000000000000000000000000000000000000000000000000000000008152506040805190810160405280600181526020017f3000000000000000000000000000000000000000000000000000000000000000815250620003e1640100000000026401000000009004565b620002606040805190810160405280600181526020017f30000000000000000000000000000000000000000000000000000000000000008152506040805190810160405280600181526020017f30000000000000000000000000000000000000000000000000000000000000008152506040805190810160405280600181526020017f30000000000000000000000000000000000000000000000000000000000000008152506040805190810160405280600181526020017f30000000000000000000000000000000000000000000000000000000000000008152506040805190810160405280600181526020017f30000000000000000000000000000000000000000000000000000000000000008152506040805190810160405280600181526020017f30000000000000000000000000000000000000000000000000000000000000008152506040805190810160405280600181526020017f300000000000000000000000000000000000000000000000000000000000000081525062000564640100000000026401000000009004565b620002ea60006040805190810160405280600181526020017f30000000000000000000000000000000000000000000000000000000000000008152506040805190810160405280600181526020017f3000000000000000000000000000000000000000000000000000000000000000815250600080620007aa640100000000026401000000009004565b620003db6040805190810160405280600181526020017f30000000000000000000000000000000000000000000000000000000000000008152506040805190810160405280600181526020017f30000000000000000000000000000000000000000000000000000000000000008152506040805190810160405280600181526020017f30000000000000000000000000000000000000000000000000000000000000008152506040805190810160405280600181526020017f3000000000000000000000000000000000000000000000000000000000000000815250620009d0640100000000026401000000009004565b620012b0565b6000620003ed620010e0565b620004078462000c10640100000000026401000000009004565b1515156200041457600080fd5b6200042d62000c8a640100000000026401000000009004565b915060806040519081016040528083815260200186815260200185815260200184815250905060008190806001815401808255809150509060018203906000526020600020906004020160009091929091909150600082015181600001556020820151816001019080519060200190620004a992919062001109565b506040820151816002019080519060200190620004c892919062001109565b506060820151816003019080519060200190620004e792919062001109565b50505050816001856040518082805190602001908083835b602083101515620005265780518252602082019150602081019050602083039250620004ff565b6001836020036101000a0380198251168184511680821785525050505050509050019150509081526020016040518091039020819055505050505050565b60006200057062001190565b6200058a8962000c96640100000000026401000000009004565b1515156200059757600080fd5b620005b062000d10640100000000026401000000009004565b9150610120604051908101604052808381526020018981526020018a8152602001888152602001878152602001868152602001858152602001848152602001600115158152509050600481908060018154018082558091505090600182039060005260206000209060090201600090919290919091506000820151816000015560208201518160010190805190602001906200064e92919062001109565b5060408201518160020190805190602001906200066d92919062001109565b5060608201518160030190805190602001906200068c92919062001109565b506080820151816004019080519060200190620006ab92919062001109565b5060a0820151816005019080519060200190620006ca92919062001109565b5060c0820151816006019080519060200190620006e992919062001109565b5060e08201518160070190805190602001906200070892919062001109565b506101008201518160080160006101000a81548160ff0219169083151502179055505050508160058a6040518082805190602001908083835b60208310151562000768578051825260208201915060208101905060208303925062000741565b6001836020036101000a038019825116818451168082178552505050505050905001915050908152602001604051809103902081905550505050505050505050565b6000620007b6620011df565b60048054905087101515620007ca57600080fd5b620007e362000d1d640100000000026401000000009004565b91506101e060405190810160405280838152602001888152602001878152602001428152602001868152602001858152602001600081526020016002815260200160001515815260200184815260200160008152602001600081526020016000815260200160008152602001600081525090506006819080600181540180825580915050906001820390600052602060002090600f02016000909192909190915060008201518160000155602082015181600101556040820151816002019080519060200190620008b692919062001109565b50606082015181600301556080820151816004019080519060200190620008df92919062001109565b5060a0820151816005015560c0820151816006015560e082015181600701556101008201518160080160006101000a81548160ff021916908315150217905550610120820151816009015561014082015181600a015561016082015181600b015561018082015181600c01556101a082015181600d01556101c082015181600e0155505050600c6000888152602001908152602001600020829080600181540180825580915050906001820390600052602060002001600090919290919091505550600087141515620009c757620009c68262000d2a640100000000026401000000009004565b5b50505050505050565b6000620009dc62001258565b620009f68462000fa6640100000000026401000000009004565b15151562000a0357600080fd5b62000a1c62001020640100000000026401000000009004565b915060a0604051908101604052808381526020018781526020018681526020018581526020018481525090506002819080600181540180825580915050906001820390600052602060002090600502016000909192909190915060008201518160000155602082015181600101908051906020019062000a9e92919062001109565b50604082015181600201908051906020019062000abd92919062001109565b50606082015181600301908051906020019062000adc92919062001109565b50608082015181600401908051906020019062000afb92919062001109565b50505050816003856040518082805190602001908083835b60208310151562000b3a578051825260208201915060208101905060208303925062000b13565b6001836020036101000a038019825116818451168082178552505050505050905001915050908152602001604051809103902081905550600e856040518082805190602001908083835b60208310151562000bab578051825260208201915060208101905060208303925062000b84565b6001836020036101000a0380198251168184511680821785525050505050509050019150509081526020016040518091039020829080600181540180825580915050906001820390600052602060002001600090919290919091505550505050505050565b6000806001836040518082805190602001908083835b60208310151562000c4d578051825260208201915060208101905060208303925062000c26565b6001836020036101000a03801982511681845116808217855250505050505090500191505090815260200160405180910390205414159050919050565b60008080549050905090565b6000806005836040518082805190602001908083835b60208310151562000cd3578051825260208201915060208101905060208303925062000cac565b6001836020036101000a03801982511681845116808217855250505050505090500191505090815260200160405180910390205414159050919050565b6000600480549050905090565b6000600680549050905090565b6000806000806000806000806000806006805490508b10801562000d4e575060008b115b151562000d5a57600080fd5b60068b81548110151562000d6a57fe5b90600052602060002090600f0201995060048a6001015481548110151562000d8e57fe5b90600052602060002090600902019850600e89600401604051808280546001816001161561010002031660029004801562000e035780601f1062000de057610100808354040283529182019162000e03565b820191906000526020600020905b81548152906001019060200180831162000dee575b50509150509081526020016040518091039020975060038880549050101562000e9057600095505b878054905086101562000e8a5786888781548110151562000e4857fe5b90600052602060002001549080600181540180825580915050906001820390600052602060002001600090919290919091505550858060010196505062000e2b565b62000f90565b6003600289805490500281151562000ea457fe5b04945087805490509350600092505b8483101562000f8f5762000ed6846200102d640100000000026401000000009004565b915086888381548110151562000ee857fe5b906000526020600020015490806001815401808255809150509060018203906000526020600020016000909192909190915055508190505b600188805490500381101562000f7857876001820181548110151562000f4257fe5b9060005260206000200154888281548110151562000f5c57fe5b9060005260206000200181905550808060010191505062000f20565b838060019003945050828060010193505062000eb3565b5b848a600c01819055505050505050505050505050565b6000806003836040518082805190602001908083835b60208310151562000fe3578051825260208201915060208101905060208303925062000fbc565b6001836020036101000a03801982511681845116808217855250505050505090500191505090815260200160405180910390205414159050919050565b6000600280549050905090565b60008160024233604051808381526020018273ffffffffffffffffffffffffffffffffffffffff1673ffffffffffffffffffffffffffffffffffffffff166c01000000000000000000000000028152601401925050506020604051808303816000865af1158015620010a3573d6000803e3d6000fd5b5050506040513d6020811015620010b957600080fd5b810190808051906020019092919050505060019004811515620010d857fe5b069050919050565b608060405190810160405280600081526020016060815260200160608152602001606081525090565b828054600181600116156101000203166002900490600052602060002090601f016020900481019282601f106200114c57805160ff19168380011785556200117d565b828001600101855582156200117d579182015b828111156200117c5782518255916020019190600101906200115f565b5b5090506200118c919062001288565b5090565b6101206040519081016040528060008152602001606081526020016060815260200160608152602001606081526020016060815260200160608152602001606081526020016000151581525090565b6101e06040519081016040528060008152602001600081526020016060815260200160008152602001606081526020016000815260200160008152602001600081526020016000151581526020016000815260200160008152602001600081526020016000815260200160008152602001600081525090565b60a06040519081016040528060008152602001606081526020016060815260200160608152602001606081525090565b620012ad91905b80821115620012a95760008160009055506001016200128f565b5090565b90565b6134df80620012c06000396000f30060806040526004361061018b576000357c0100000000000000000000000000000000000000000000000000000000900463ffffffff1680630485c31d1461019057806304d7fbdd1461020d57806306027d6a1461041a57806307973ccf146104975780631af550dc146104c25780631e052ca3146105225780631f903037146105ef57806328d888901461067f5780633339000d146106aa578063356953c0146106d557806336fbad261461072a57806350a9601d14610755578063579aa967146107d657806358467dbc14610aa357806359ae069b14610b6d578063607506ba14610c625780636a20665814610c8f5780636cb1c5bb14610dca5780637e67c8e514610f4f5780637f4ab6ab14610f9057806387c4e29814610fbb57806387f3d22314611038578063b863bd3714611194578063bce66cdf146111d5578063c50fd39d14611256578063c89e9666146112af578063c93433d7146113c8578063cc6dbca414611409578063d45e2dbd14611454578063f0aa979614611495578063f9faf602146114e0575b600080fd5b34801561019c57600080fd5b506101f7600480360381019080803590602001908201803590602001908080601f0160208091040260200160405190810160405280939291908181526020018383808284378201915050505050509192919290505050611561565b6040518082815260200191505060405180910390f35b34801561021957600080fd5b50610418600480360381019080803590602001908201803590602001908080601f0160208091040260200160405190810160405280939291908181526020018383808284378201915050505050509192919290803590602001908201803590602001908080601f0160208091040260200160405190810160405280939291908181526020018383808284378201915050505050509192919290803590602001908201803590602001908080601f0160208091040260200160405190810160405280939291908181526020018383808284378201915050505050509192919290803590602001908201803590602001908080601f0160208091040260200160405190810160405280939291908181526020018383808284378201915050505050509192919290803590602001908201803590602001908080601f0160208091040260200160405190810160405280939291908181526020018383808284378201915050505050509192919290803590602001908201803590602001908080601f0160208091040260200160405190810160405280939291908181526020018383808284378201915050505050509192919290803590602001908201803590602001908080601f01602080910402602001604051908101604052809392919081815260200183838082843782019150505050505091929192905050506115d6565b005b34801561042657600080fd5b50610481600480360381019080803590602001908201803590602001908080601f01602080910402602001604051908101604052809392919081815260200183838082843782019150505050505091929192905050506117e7565b6040518082815260200191505060405180910390f35b3480156104a357600080fd5b506104ac61185c565b6040518082815260200191505060405180910390f35b3480156104ce57600080fd5b506104f76004803603810190808035906020019092919080359060200190929190505050611868565b6040518085815260200184815260200183815260200182815260200194505050505060405180910390f35b34801561052e57600080fd5b506105ed60048036038101908080359060200190929190803590602001908201803590602001908080601f0160208091040260200160405190810160405280939291908181526020018383808284378201915050505050509192919290803590602001908201803590602001908080601f016020809104026020016040519081016040528093929190818152602001838380828437820191505050505050919291929080359060200190929190803590602001909291905050506118f9565b005b3480156105fb57600080fd5b50610604611af5565b6040518080602001828103825283818151815260200191508051906020019080838360005b83811015610644578082015181840152602081019050610629565b50505050905090810190601f1680156106715780820380516001836020036101000a031916815260200191505b509250505060405180910390f35b34801561068b57600080fd5b50610694611b37565b6040518082815260200191505060405180910390f35b3480156106b657600080fd5b506106bf611b44565b6040518082815260200191505060405180910390f35b3480156106e157600080fd5b50610714600480360381019080803590602001909291908035906020019092919080359060200190929190505050611b51565b6040518082815260200191505060405180910390f35b34801561073657600080fd5b5061073f611d3b565b6040518082815260200191505060405180910390f35b34801561076157600080fd5b506107bc600480360381019080803590602001908201803590602001908080601f0160208091040260200160405190810160405280939291908181526020018383808284378201915050505050509192919290505050611d48565b604051808215151515815260200191505060405180910390f35b3480156107e257600080fd5b5061080160048036038101908080359060200190929190505050611dc0565b604051808060200180602001806020018060200180602001806020018815151515815260200187810387528e818151815260200191508051906020019080838360005b8381101561085f578082015181840152602081019050610844565b50505050905090810190601f16801561088c5780820380516001836020036101000a031916815260200191505b5087810386528d818151815260200191508051906020019080838360005b838110156108c55780820151818401526020810190506108aa565b50505050905090810190601f1680156108f25780820380516001836020036101000a031916815260200191505b5087810385528c818151815260200191508051906020019080838360005b8381101561092b578082015181840152602081019050610910565b50505050905090810190601f1680156109585780820380516001836020036101000a031916815260200191505b5087810384528b818151815260200191508051906020019080838360005b83811015610991578082015181840152602081019050610976565b50505050905090810190601f1680156109be5780820380516001836020036101000a031916815260200191505b5087810383528a818151815260200191508051906020019080838360005b838110156109f75780820151818401526020810190506109dc565b50505050905090810190601f168015610a245780820380516001836020036101000a031916815260200191505b50878103825289818151815260200191508051906020019080838360005b83811015610a5d578082015181840152602081019050610a42565b50505050905090810190601f168015610a8a5780820380516001836020036101000a031916815260200191505b509d505050505050505050505050505060405180910390f35b348015610aaf57600080fd5b50610b50600480360381019080803590602001908201803590602001908080601f0160208091040260200160405190810160405280939291908181526020018383808284378201915050505050509192919290803590602001908201803590602001908080601f01602080910402602001604051908101604052809392919081815260200183838082843782019150505050505091929192905050506121ea565b604051808381526020018281526020019250505060405180910390f35b348015610b7957600080fd5b50610c60600480360381019080803590602001908201803590602001908080601f0160208091040260200160405190810160405280939291908181526020018383808284378201915050505050509192919290803590602001908201803590602001908080601f0160208091040260200160405190810160405280939291908181526020018383808284378201915050505050509192919290803590602001908201803590602001908080601f016020809104026020016040519081016040528093929190818152602001838380828437820191505050505050919291929050505061226d565b005b348015610c6e57600080fd5b50610c8d600480360381019080803590602001909291905050506123c3565b005b348015610c9b57600080fd5b50610dc8600480360381019080803590602001908201803590602001908080601f0160208091040260200160405190810160405280939291908181526020018383808284378201915050505050509192919290803590602001908201803590602001908080601f0160208091040260200160405190810160405280939291908181526020018383808284378201915050505050509192919290803590602001908201803590602001908080601f0160208091040260200160405190810160405280939291908181526020018383808284378201915050505050509192919290803590602001908201803590602001908080601f0160208091040260200160405190810160405280939291908181526020018383808284378201915050505050509192919290505050612619565b005b348015610dd657600080fd5b50610df560048036038101908080359060200190929190505050612828565b60405180858152602001806020018060200180602001848103845287818151815260200191508051906020019080838360005b83811015610e43578082015181840152602081019050610e28565b50505050905090810190601f168015610e705780820380516001836020036101000a031916815260200191505b50848103835286818151815260200191508051906020019080838360005b83811015610ea9578082015181840152602081019050610e8e565b50505050905090810190601f168015610ed65780820380516001836020036101000a031916815260200191505b50848103825285818151815260200191508051906020019080838360005b83811015610f0f578082015181840152602081019050610ef4565b50505050905090810190601f168015610f3c5780820380516001836020036101000a031916815260200191505b5097505050505050505060405180910390f35b348015610f5b57600080fd5b50610f7a60048036038101908080359060200190929190505050612a58565b6040518082815260200191505060405180910390f35b348015610f9c57600080fd5b50610fa5612a78565b6040518082815260200191505060405180910390f35b348015610fc757600080fd5b50611022600480360381019080803590602001908201803590602001908080601f0160208091040260200160405190810160405280939291908181526020018383808284378201915050505050509192919290505050612a85565b6040518082815260200191505060405180910390f35b34801561104457600080fd5b5061106360048036038101908080359060200190929190505050612afa565b604051808d81526020018c8152602001806020018b8152602001806020018a81526020018981526020018881526020018715151515815260200186815260200185815260200184815260200183810383528d818151815260200191508051906020019080838360005b838110156110e75780820151818401526020810190506110cc565b50505050905090810190601f1680156111145780820380516001836020036101000a031916815260200191505b5083810382528b818151815260200191508051906020019080838360005b8381101561114d578082015181840152602081019050611132565b50505050905090810190601f16801561117a5780820380516001836020036101000a031916815260200191505b509e50505050505050505050505050505060405180910390f35b3480156111a057600080fd5b506111bf60048036038101908080359060200190929190505050612cf4565b6040518082815260200191505060405180910390f35b3480156111e157600080fd5b5061123c600480360381019080803590602001908201803590602001908080601f0160208091040260200160405190810160405280939291908181526020018383808284378201915050505050509192919290505050612da4565b604051808215151515815260200191505060405180910390f35b34801561126257600080fd5b5061128b6004803603810190808035906020019092919080359060200190929190505050612e1c565b60405180848152602001838152602001828152602001935050505060405180910390f35b3480156112bb57600080fd5b506112da60048036038101908080359060200190929190505050612ec2565b604051808481526020018060200180602001838103835285818151815260200191508051906020019080838360005b83811015611324578082015181840152602081019050611309565b50505050905090810190601f1680156113515780820380516001836020036101000a031916815260200191505b50838103825284818151815260200191508051906020019080838360005b8381101561138a57808201518184015260208101905061136f565b50505050905090810190601f1680156113b75780820380516001836020036101000a031916815260200191505b509550505050505060405180910390f35b3480156113d457600080fd5b5061140760048036038101908080359060200190929190803590602001909291908035906020019092919050505061304d565b005b34801561141557600080fd5b5061143e600480360381019080803590602001909291908035906020019092919050505061315e565b6040518082815260200191505060405180910390f35b34801561146057600080fd5b5061147f60048036038101908080359060200190929190505050613193565b6040518082815260200191505060405180910390f35b3480156114a157600080fd5b506114ca60048036038101908080359060200190929190803590602001909291905050506131b3565b6040518082815260200191505060405180910390f35b3480156114ec57600080fd5b50611547600480360381019080803590602001908201803590602001908080601f016020809104026020016040519081016040528093929190818152602001838380828437820191505050505050919291929050505061321c565b604051808215151515815260200191505060405180910390f35b60006005826040518082805190602001908083835b60208310151561159b5780518252602082019150602081019050602083039250611576565b6001836020036101000a0380198251168184511680821785525050505050509050019150509081526020016040518091039020549050919050565b60006115e0613294565b6115e989612da4565b1515156115f557600080fd5b6115fd611b37565b9150610120604051908101604052808381526020018981526020018a8152602001888152602001878152602001868152602001858152602001848152602001600115158152509050600481908060018154018082558091505090600182039060005260206000209060090201600090919290919091506000820151816000015560208201518160010190805190602001906116999291906132e3565b5060408201518160020190805190602001906116b69291906132e3565b5060608201518160030190805190602001906116d39291906132e3565b5060808201518160040190805190602001906116f09291906132e3565b5060a082015181600501908051906020019061170d9291906132e3565b5060c082015181600601908051906020019061172a9291906132e3565b5060e08201518160070190805190602001906117479291906132e3565b506101008201518160080160006101000a81548160ff0219169083151502179055505050508160058a6040518082805190602001908083835b6020831015156117a55780518252602082019150602081019050602083039250611780565b6001836020036101000a038019825116818451168082178552505050505050905001915050908152602001604051809103902081905550505050505050505050565b60006001826040518082805190602001908083835b60208310151561182157805182526020820191506020810190506020830392506117fc565b6001836020036101000a0380198251168184511680821785525050505050509050019150509081526020016040518091039020549050919050565b60008080549050905090565b60008060008060008080549050871080156118985750600960008881526020019081526020016000208054905086105b15156118a357600080fd5b60096000888152602001908152602001600020868154811015156118c357fe5b90600052602060002090600502019050806000015481600201548260030154836004015494509450945094505092959194509250565b6000611903613363565b6004805490508710151561191657600080fd5b61191e611d3b565b91506101e060405190810160405280838152602001888152602001878152602001428152602001868152602001858152602001600081526020016002815260200160001515815260200184815260200160008152602001600081526020016000815260200160008152602001600081525090506006819080600181540180825580915050906001820390600052602060002090600f020160009091929091909150600082015181600001556020820151816001015560408201518160020190805190602001906119ef9291906132e3565b50606082015181600301556080820151816004019080519060200190611a169291906132e3565b5060a0820151816005015560c0820151816006015560e082015181600701556101008201518160080160006101000a81548160ff021916908315150217905550610120820151816009015561014082015181600a015561016082015181600b015561018082015181600c01556101a082015181600d01556101c082015181600e0155505050600c6000888152602001908152602001600020829080600181540180825580915050906001820390600052602060002001600090919290919091505550600087141515611aec57611aeb826123c3565b5b50505050505050565b6060806040805190810160405280600381526020017f616263000000000000000000000000000000000000000000000000000000000081525090508091505090565b6000600480549050905090565b6000600780549050905090565b6000806000611b5e6133dc565b60008054905087108015611b76575060068054905086105b1515611b8157600080fd5b600686815481101515611b9057fe5b90600052602060002090600f02019250611ba8611b44565b915060a0604051908101604052808381526020018881526020018781526020018681526020014281525090506007819080600181540180825580915050906001820390600052602060002090600502016000909192909190915060008201518160000155602082015181600101556040820151816002015560608201518160030155608082015181600401555050506009600088815260200190815260200160002081908060018154018082558091505090600182039060005260206000209060050201600090919290919091506000820151816000015560208201518160010155604082015181600201556060820151816003015560808201518160040155505050600a6000878152602001908152602001600020819080600181540180825580915050906001820390600052602060002090600502016000909192909190915060008201518160000155602082015181600101556040820151816002015560608201518160030155608082015181600401555050508483600601600082825401925050819055505050509392505050565b6000600680549050905090565b6000806001836040518082805190602001908083835b602083101515611d835780518252602082019150602081019050602083039250611d5e565b6001836020036101000a03801982511681845116808217855250505050505090500191505090815260200160405180910390205414159050919050565b60608060608060608060008060048054905089101515611ddf57600080fd5b600489815481101515611dee57fe5b906000526020600020906009020190508060010181600201826004018360050184600601856007018660080160009054906101000a900460ff16868054600181600116156101000203166002900480601f016020809104026020016040519081016040528092919081815260200182805460018160011615610100020316600290048015611ebd5780601f10611e9257610100808354040283529160200191611ebd565b820191906000526020600020905b815481529060010190602001808311611ea057829003601f168201915b50505050509650858054600181600116156101000203166002900480601f016020809104026020016040519081016040528092919081815260200182805460018160011615610100020316600290048015611f595780601f10611f2e57610100808354040283529160200191611f59565b820191906000526020600020905b815481529060010190602001808311611f3c57829003601f168201915b50505050509550848054600181600116156101000203166002900480601f016020809104026020016040519081016040528092919081815260200182805460018160011615610100020316600290048015611ff55780601f10611fca57610100808354040283529160200191611ff5565b820191906000526020600020905b815481529060010190602001808311611fd857829003601f168201915b50505050509450838054600181600116156101000203166002900480601f0160208091040260200160405190810160405280929190818152602001828054600181600116156101000203166002900480156120915780601f1061206657610100808354040283529160200191612091565b820191906000526020600020905b81548152906001019060200180831161207457829003601f168201915b50505050509350828054600181600116156101000203166002900480601f01602080910402602001604051908101604052809291908181526020018280546001816001161561010002031660029004801561212d5780601f106121025761010080835404028352916020019161212d565b820191906000526020600020905b81548152906001019060200180831161211057829003601f168201915b50505050509250818054600181600116156101000203166002900480601f0160208091040260200160405190810160405280929190818152602001828054600181600116156101000203166002900480156121c95780601f1061219e576101008083540402835291602001916121c9565b820191906000526020600020905b8154815290600101906020018083116121ac57829003601f168201915b50505050509150975097509750975097509750975050919395979092949650565b600080600080600080600080945060009350612205896117e7565b925061221089611561565b915061221b89612a85565b905080828418189350600083141515612237576001945061225b565b60008214151561224a576002945061225a565b60008114151561225957600394505b5b5b84849650965050505050509250929050565b600061227761340c565b61228084611d48565b15151561228c57600080fd5b61229461185c565b91506080604051908101604052808381526020018681526020018581526020018481525090506000819080600181540180825580915050906001820390600052602060002090600402016000909192909190915060008201518160000155602082015181600101908051906020019061230e9291906132e3565b50604082015181600201908051906020019061232b9291906132e3565b5060608201518160030190805190602001906123489291906132e3565b50505050816001856040518082805190602001908083835b6020831015156123855780518252602082019150602081019050602083039250612360565b6001836020036101000a0380198251168184511680821785525050505050509050019150509081526020016040518091039020819055505050505050565b6000806000806000806000806000806006805490508b1080156123e6575060008b115b15156123f157600080fd5b60068b81548110151561240057fe5b90600052602060002090600f0201995060048a6001015481548110151561242357fe5b90600052602060002090600902019850600e8960040160405180828054600181600116156101000203166002900480156124945780601f10612472576101008083540402835291820191612494565b820191906000526020600020905b815481529060010190602001808311612480575b50509150509081526020016040518091039020975060038880549050101561251c57600095505b8780549050861015612517578688878154811015156124d657fe5b9060005260206000200154908060018154018082558091505090600182039060005260206000200160009091929091909150555085806001019650506124bb565b612603565b6003600289805490500281151561252f57fe5b04945087805490509350600092505b848310156126025761254f84612cf4565b915086888381548110151561256057fe5b906000526020600020015490806001815401808255809150509060018203906000526020600020016000909192909190915055508190505b60018880549050038110156125ec5787600182018154811015156125b857fe5b906000526020600020015488828154811015156125d157fe5b90600052602060002001819055508080600101915050612598565b838060019003945050828060010193505061253e565b5b848a600c01819055505050505050505050505050565b6000612623613435565b61262c8461321c565b15151561263857600080fd5b612640612a78565b915060a060405190810160405280838152602001878152602001868152602001858152602001848152509050600281908060018154018082558091505090600182039060005260206000209060050201600090919290919091506000820151816000015560208201518160010190805190602001906126c09291906132e3565b5060408201518160020190805190602001906126dd9291906132e3565b5060608201518160030190805190602001906126fa9291906132e3565b5060808201518160040190805190602001906127179291906132e3565b50505050816003856040518082805190602001908083835b602083101515612754578051825260208201915060208101905060208303925061272f565b6001836020036101000a038019825116818451168082178552505050505050905001915050908152602001604051809103902081905550600e856040518082805190602001908083835b6020831015156127c3578051825260208201915060208101905060208303925061279e565b6001836020036101000a0380198251168184511680821785525050505050509050019150509081526020016040518091039020829080600181540180825580915050906001820390600052602060002001600090919290919091505550505050505050565b6000606080606060006002805490508610151561284457600080fd5b60028681548110151561285357fe5b906000526020600020906005020190508060000154816001018260020183600301828054600181600116156101000203166002900480601f0160208091040260200160405190810160405280929190818152602001828054600181600116156101000203166002900480156129095780601f106128de57610100808354040283529160200191612909565b820191906000526020600020905b8154815290600101906020018083116128ec57829003601f168201915b50505050509250818054600181600116156101000203166002900480601f0160208091040260200160405190810160405280929190818152602001828054600181600116156101000203166002900480156129a55780601f1061297a576101008083540402835291602001916129a5565b820191906000526020600020905b81548152906001019060200180831161298857829003601f168201915b50505050509150808054600181600116156101000203166002900480601f016020809104026020016040519081016040528092919081815260200182805460018160011615610100020316600290048015612a415780601f10612a1657610100808354040283529160200191612a41565b820191906000526020600020905b815481529060010190602001808311612a2457829003601f168201915b505050505090509450945094509450509193509193565b6000600c6000838152602001908152602001600020805490509050919050565b6000600280549050905090565b60006003826040518082805190602001908083835b602083101515612abf5780518252602082019150602081019050602083039250612a9a565b6001836020036101000a0380198251168184511680821785525050505050509050019150509081526020016040518091039020549050919050565b60008060606000606060008060008060008060008060008e118015612b2357506006805490508e105b1515612b2e57600080fd5b60068e815481101515612b3d57fe5b90600052602060002090600f0201905080600001548160010154826002018360030154846004018560050154866006015487600701548860080160009054906101000a900460ff1689600901548a600a01548b600b0154898054600181600116156101000203166002900480601f016020809104026020016040519081016040528092919081815260200182805460018160011615610100020316600290048015612c295780601f10612bfe57610100808354040283529160200191612c29565b820191906000526020600020905b815481529060010190602001808311612c0c57829003601f168201915b50505050509950878054600181600116156101000203166002900480601f016020809104026020016040519081016040528092919081815260200182805460018160011615610100020316600290048015612cc55780601f10612c9a57610100808354040283529160200191612cc5565b820191906000526020600020905b815481529060010190602001808311612ca857829003601f168201915b505050505097509c509c509c509c509c509c509c509c509c509c509c509c505091939597999b5091939597999b565b60008160024233604051808381526020018273ffffffffffffffffffffffffffffffffffffffff1673ffffffffffffffffffffffffffffffffffffffff166c01000000000000000000000000028152601401925050506020604051808303816000865af1158015612d69573d6000803e3d6000fd5b5050506040513d6020811015612d7e57600080fd5b810190808051906020019092919050505060019004811515612d9c57fe5b069050919050565b6000806005836040518082805190602001908083835b602083101515612ddf5780518252602082019150602081019050602083039250612dba565b6001836020036101000a03801982511681845116808217855250505050505090500191505090815260200160405180910390205414159050919050565b600080600080600060028054905087108015612e4d5750600b60008881526020019081526020016000208054905086105b1515612e5857600080fd5b600b600088815260200190815260200160002086815481101515612e7857fe5b90600052602060002001549150600882815481101515612e9457fe5b9060005260206000209060040201905080600201548160010154826003015494509450945050509250925092565b60006060806000808054905085101515612edb57600080fd5b600085815481101515612eea57fe5b9060005260206000209060040201905080600001548160010182600201818054600181600116156101000203166002900480601f016020809104026020016040519081016040528092919081815260200182805460018160011615610100020316600290048015612f9c5780601f10612f7157610100808354040283529160200191612f9c565b820191906000526020600020905b815481529060010190602001808311612f7f57829003601f168201915b50505050509150808054600181600116156101000203166002900480601f0160208091040260200160405190810160405280929190818152602001828054600181600116156101000203166002900480156130385780601f1061300d57610100808354040283529160200191613038565b820191906000526020600020905b81548152906001019060200180831161301b57829003601f168201915b50505050509050935093509350509193909250565b6000613057613465565b6006805490508510801561306c575060008310155b8015613079575060028311155b151561308457600080fd5b600b6000858152602001908152602001600020805490509150608060405190810160405280838152602001868152602001858152602001848152509050600b600085815260200190815260200160002082908060018154018082558091505090600182039060005260206000200160009091929091909150555060088190806001815401808255809150509060018203906000526020600020906004020160009091929091909150600082015181600001556020820151816001015560408201518160020155606082015181600301555050505050505050565b6000600c60008481526020019081526020016000208281548110151561318057fe5b9060005260206000200154905092915050565b6000600b6000838152602001908152602001600020805490509050919050565b6000600480549050831080156131de5750600c60008381526020019081526020016000208054905082105b15156131e957600080fd5b600c60008481526020019081526020016000208281548110151561320957fe5b9060005260206000200154905092915050565b6000806003836040518082805190602001908083835b6020831015156132575780518252602082019150602081019050602083039250613232565b6001836020036101000a03801982511681845116808217855250505050505090500191505090815260200160405180910390205414159050919050565b6101206040519081016040528060008152602001606081526020016060815260200160608152602001606081526020016060815260200160608152602001606081526020016000151581525090565b828054600181600116156101000203166002900490600052602060002090601f016020900481019282601f1061332457805160ff1916838001178555613352565b82800160010185558215613352579182015b82811115613351578251825591602001919060010190613336565b5b50905061335f919061348e565b5090565b6101e06040519081016040528060008152602001600081526020016060815260200160008152602001606081526020016000815260200160008152602001600081526020016000151581526020016000815260200160008152602001600081526020016000815260200160008152602001600081525090565b60a06040519081016040528060008152602001600081526020016000815260200160008152602001600081525090565b608060405190810160405280600081526020016060815260200160608152602001606081525090565b60a06040519081016040528060008152602001606081526020016060815260200160608152602001606081525090565b608060405190810160405280600081526020016000815260200160008152602001600081525090565b6134b091905b808211156134ac576000816000905550600101613494565b5090565b905600a165627a7a723058200f342d0f65fe98e46245bb44da88b89f09cdd00c66cc46abfd5682ff27caeb900029",
  "source": "pragma solidity ^0.4.16;\n\ncontract Main {\n\n    struct User {\n        uint256 userId;\n        string userName;\n        string userPhone;\n        string userPassword;\n    }\n\n    struct Endorsor {\n        uint256 endorsorId;\n        string endorsorOrg;//\n        string endorsorProvince;\n        string endorsorEmail;\n        string endorsorPassword;\n\n    }\n\n    struct School {\n        uint256 schoolId;\n        string schoolName;\n        string schoolEmail;\n        string schoolPassword;\n        string schoolProvince;\n        string schoolAddress;\n        string schoolGovernor;//\n        string schoolAgent;//\n        bool schoolState;//\n    }\n\n    struct Project {\n        uint256 projectId;\n        uint256 schoolId;\n        string projectName;\n        uint256 projectCreateTime;\n        string projectTarget;//\n        uint256 projectTargetMoney;\n        uint256 projectCurrentMoney;\n        uint256 projectEndorseState;//0  1  2 pending\n        bool projectFinishState;\n        uint256 projectFinishTime;\n        uint256 projectPlanUpNoteTime;//\n        uint256 projectActualUpNoteTime;//\n        uint256 totalEndorsor;\n        uint256 passEndorsor;\n        uint256 rejectEndorsor;\n    }\n\n    struct Denote {\n        uint256 denoteId;//id\n        uint256 userId;//id\n        uint256 projectId;//id\n        uint256 denoteMoney;//\n        uint256 denoteTime;//\n    }\n\n    struct EndorseItem {\n        uint256 endorseItemId;\n        uint256 projectId;\n        uint256 endorsorId;\n        uint256 operate;//{0: 1 2}\n    }\n\n\n    User[] userList;\n    mapping(string=>uint256) userMap;//key\n\n    Endorsor[] endorsorList;\n    mapping(string=>uint256) endorsorMap;//key valueprojectId\n\n    School[] schoolList;\n    mapping(string=>uint256)schoolMap;//key\n\n    Project[] projectList;\n    Denote[] denoteList;\n    EndorseItem[] endorseItemList;\n    mapping(uint256=>Denote[]) userDenoteMap;//\n    mapping(uint256=>Denote[]) projectDenoteMap;//\n    mapping(uint256=>uint256[]) endorseItemMap;//\n    mapping(uint256=>uint256[]) schoolProjectMap;\n    mapping(uint256=>string[]) projectNoteUrlMap;\n    mapping(string=>uint256[]) provinceToEndorsorMap;\n\n    function Main() {\n        createUser(\"0\", \"0\", \"0\");\n        createSchool(\"0\", \"0\", \"0\", \"0\", \"0\", \"0\", \"0\"); \n        createProject(0, \"0\", \"0\", 0, 0);\n        createEndorsor(\"0\", \"0\", \"0\", \"0\");\n    }\n\n    function createUser(string _userName, string _userPhone, string _userPassword) {\n        require(!checkUserByPhone(_userPhone));\n        uint256 _userId = userCount();\n        User memory user = User({userId:_userId, userName:_userName, userPhone:_userPhone, userPassword:_userPassword});\n        userList.push(user);\n        userMap[_userPhone] = _userId;\n    }\n\n    function getBytes32() view returns(string) {\n        string memory str = \"abc\";\n        return str;\n    }\n    function userCount() view returns(uint256) {\n        return userList.length;\n    }\n\n    function checkUserByPhone(string _userPhone) view returns(bool) {\n        return userMap[_userPhone] != 0;\n    }\n\n    function getUserIdByPhone(string _userPhone) view returns(uint256) {\n        return userMap[_userPhone];\n    }\n\n    function getUserByUserId(uint256 _userId) view returns(uint256, string, string) {\n        require(_userId < userList.length);\n        User user = userList[_userId];\n        return(user.userId, user.userName, user.userPhone);\n    }\n\n    function login(string _userAccount, string _userPassword) view returns(uint256, uint256) {\n        uint256 _userType = 0;\n        uint256 _userId = 0;\n        uint256 _userIdA = getUserIdByPhone(_userAccount);\n        uint256 _userIdB = getSchoolIdByEmail(_userAccount);\n        uint256 _userIdC = getEndorsorIdByEmail(_userAccount);\n        _userId = _userIdA ^ _userIdB ^ _userIdC;\n\n        if (_userIdA != 0) {\n            _userType = 1;\n        }else if (_userIdB != 0) {\n            _userType = 2;\n        }else if (_userIdC != 0) {\n            _userType = 3;\n        }\n        return (_userType, _userId);\n    }\n\n    function userDenote(uint256 _userId, uint256 _projectId, uint256 _denoteMoney) returns(uint256) {\n        require(_userId < userList.length && _projectId < projectList.length);\n        Project project = projectList[_projectId];\n        uint256 _denoteId = denoteCount();\n        Denote memory denote = Denote({denoteId:_denoteId, userId:_userId, projectId:_projectId, denoteMoney:_denoteMoney, denoteTime:now});\n        denoteList.push(denote);\n        userDenoteMap[_userId].push(denote);\n        projectDenoteMap[_projectId].push(denote);\n        project.projectCurrentMoney += _denoteMoney;\n    }\n\n    function denoteCount() returns(uint256) {\n        return denoteList.length;\n    }\n\n    function getDenoteByUserId(uint256 _userId, uint _userDenoteId) returns(uint256, uint256, uint256, uint256) {\n        require(_userId < userList.length && _userDenoteId < userDenoteMap[_userId].length);\n        Denote denote = userDenoteMap[_userId][_userDenoteId];\n        return (denote.denoteId, denote.projectId, denote.denoteMoney, denote.denoteTime);\n    }\n  // ///////////////////////////////////////////////////////////////////////////////////////////////////\n\n    function createEndorsor(string _endorsorOrg, string _endorsorProvince, string _endorsorEmail, string _endorsorPassword) {\n        require(!checkEndorsorByEmail(_endorsorEmail));\n        uint256 _endorsorId = endorsorCount();\n        Endorsor memory endorsor = Endorsor({endorsorId:_endorsorId, endorsorOrg:_endorsorOrg, endorsorProvince:_endorsorProvince, endorsorEmail:_endorsorEmail, endorsorPassword:_endorsorPassword});\n        endorsorList.push(endorsor);\n        endorsorMap[_endorsorEmail] = _endorsorId;\n        provinceToEndorsorMap[_endorsorProvince].push(_endorsorId);\n    }\n\n    function endorsorCount() view returns(uint256) {\n        return endorsorList.length;\n    }\n\n    function checkEndorsorByEmail(string _endorsorEmail) view returns(bool) {\n        return endorsorMap[_endorsorEmail] != 0;\n    }\n\n    function getEndorsorIdByEmail(string _endorsorEmail) view returns(uint256) {\n        return endorsorMap[_endorsorEmail];\n    }\n\n    function getEndorsorByEndorsorId(uint256 _endorsorId) view returns(uint256, string, string, string) {\n        require(_endorsorId < endorsorList.length);\n        Endorsor _endorsor =  endorsorList[_endorsorId];\n        return (_endorsor.endorsorId, _endorsor.endorsorOrg, _endorsor.endorsorProvince, _endorsor.endorsorEmail);\n    }\n\n    function getEndorseByEndorsorId(uint256 _endorsorId, uint256 _endorseItemIndex) view returns (uint256, uint256, uint256) {\n        require(_endorsorId < endorsorList.length && _endorseItemIndex < endorseItemMap[_endorsorId].length);\n        uint256 endorseItemId = endorseItemMap[_endorsorId][_endorseItemIndex];\n        EndorseItem _endorseItem = endorseItemList[endorseItemId];\n        return (_endorseItem.endorsorId, _endorseItem.projectId, _endorseItem.operate);\n    }\n\n    function createEndorseItem(uint256 _projectId, uint256 _endorsorId, uint256 _operate) {\n        require(_projectId < projectList.length && _operate >= 0 && _operate <= 2);\n        uint256 _endorseItemId = endorseItemMap[_endorsorId].length;\n        EndorseItem memory endorseItem = EndorseItem({endorseItemId:_endorseItemId, projectId:_projectId, endorsorId:_endorsorId, operate:_operate});\n        endorseItemMap[_endorsorId].push(_endorseItemId);\n        endorseItemList.push(endorseItem);\n    }\n\n    function getEndorseItemCountOfEndorsor(uint256 _endorsorId) returns(uint256) {\n        return endorseItemMap[_endorsorId].length;\n    }\n\n  // ///////////////////////////////////////////////////////////////////////////////////////////////////////\n    \n    function createSchool(string _schoolEmail, string _schoolName, string _schoolPassword, string _schoolProvince, string _schoolAddress, string _schoolGovernor, string _schoolAgent) {\n        require(!checkSchoolByEmail(_schoolEmail));\n        uint256 _schoolId = schoolCount();\n        School memory school = School({schoolId:_schoolId, schoolName:_schoolName, schoolEmail:_schoolEmail, schoolPassword:_schoolPassword, schoolProvince:_schoolProvince, schoolAddress:_schoolAddress, schoolGovernor:_schoolGovernor, schoolAgent:_schoolAgent, schoolState:true});\n        schoolList.push(school);\n        schoolMap[_schoolEmail] = _schoolId;\n    }\n\n    function schoolCount() view returns(uint256) {\n        return schoolList.length;\n    }\n\n    function checkSchoolByEmail(string _schoolEmail) view returns(bool) {\n      return schoolMap[_schoolEmail] != 0;\n    }\n\n    function getSchoolIdByEmail(string _schoolEmail) view returns(uint256) {\n      return schoolMap[_schoolEmail];\n    }\n\n    function getSchoolBySchoolId(uint256 _schoolId) view returns(string, string, string, string, string, string, bool) {\n        require(_schoolId < schoolList.length);\n        School school = schoolList[_schoolId];\n        return (school.schoolName, school.schoolEmail, school.schoolProvince, school.schoolAddress, school.schoolGovernor, school.schoolAgent, school.schoolState);\n    }\n\n    function createProject(uint256 _schoolId, string _projectName, string _projectTarget, uint256 _projectTargetMoney, uint256 _projectFinishTime) {\n        require(_schoolId < schoolList.length);\n        uint256 _projectId = projectCount();\n        Project memory project = Project({projectId:_projectId, schoolId:_schoolId, projectName:_projectName, projectCreateTime:now, projectTarget:_projectTarget, projectTargetMoney:_projectTargetMoney, projectCurrentMoney:0, projectEndorseState:2, projectFinishState:false, projectFinishTime:_projectFinishTime, projectPlanUpNoteTime:0, projectActualUpNoteTime:0, totalEndorsor:0, passEndorsor:0, rejectEndorsor:0});\n        projectList.push(project);\n        schoolProjectMap[_schoolId].push(_projectId);\n        if (_schoolId != 0) {\n            emitEndorse(_projectId);\n        }\n    }\n\n    function emitEndorse(uint256 _projectId) {\n        require(_projectId < projectList.length && _projectId > 0);\n        Project project = projectList[_projectId];\n        School school = schoolList[project.schoolId];\n        uint256[] endorsorList = provinceToEndorsorMap[school.schoolProvince];\n        uint256[] emitEndorsorList;\n        if (endorsorList.length < 3) {\n            for (uint256 i=0; i < endorsorList.length; i++) {\n                emitEndorsorList.push(endorsorList[i]);\n            }\n        }else {\n            uint256 targetEndorsorCount = endorsorList.length*2/3;\n            uint256 len = endorsorList.length;\n            for (uint256 j=0; j < targetEndorsorCount; j++) {\n                uint256 t = random(len);\n                emitEndorsorList.push(endorsorList[t]);\n                for (uint256 k=t; k < endorsorList.length-1; k++) {\n                    endorsorList[k] = endorsorList[k+1];\n                }\n                len--;\n            }\n        }\n        project.totalEndorsor = targetEndorsorCount;\n    }\n\n    function projectCount() view returns(uint256) {\n        return projectList.length;\n    }\n\n    function getProjectByProjectId(uint256 _projectId) view returns(uint256, uint256, string, uint256, string, uint256, uint256, uint256, bool, uint256, uint256, uint256) {\n        require(_projectId > 0 && _projectId < projectList.length);\n        Project project = projectList[_projectId];\n        return (project.projectId, project.schoolId, project.projectName, project.projectCreateTime, project.projectTarget, project.projectTargetMoney, project.projectCurrentMoney, project.projectEndorseState, project.projectFinishState, project.projectFinishTime, project.projectPlanUpNoteTime, project.projectActualUpNoteTime);\n    }\n\n    function getSchoolProjectCounts(uint256 _schoolId) view returns(uint256) {\n        return schoolProjectMap[_schoolId].length;\n    }\n\n    function getSchoolProjectidByNum(uint256 _schoolId ,uint256 _num) view returns(uint256) {\n        return schoolProjectMap[_schoolId][_num];\n    }\n\n    function getProjectIdBySchoolId(uint256 _schoolId, uint256 _schoolProjectId) view returns(uint256) {\n        require(_schoolId < schoolList.length && _schoolProjectId < schoolProjectMap[_schoolProjectId].length);\n        return schoolProjectMap[_schoolId][_schoolProjectId];\n    }\n  \n    // return random[0,n)\n    function random(uint256 n) returns(uint256) {\n        return uint(sha256(now, msg.sender))%n;\n    }\n\n}\n",
  "sourcePath": "/Users/zhangjun/Desktop/myproject/hht/thunder/truffle/contracts/Main.sol",
  "compiler": {
    "name": "solc",
    "version": "0.4.24+commit.e67f0147.Emscripten.clang"
  },
  "schemaVersion": "2.0.0",
  "updatedAt": "2018-06-09T07:57:24.018Z"
}