{
  "contractName": "Main",
  "abi": [
    {
      "inputs": [],
      "payable": false,
      "stateMutability": "nonpayable",
      "type": "constructor"
    },
    {
      "constant": false,
      "inputs": [
        {
          "name": "_userName",
          "type": "string"
        },
        {
          "name": "_userPhone",
          "type": "string"
        },
        {
          "name": "_userPassword",
          "type": "string"
        }
      ],
      "name": "createUser",
      "outputs": [],
      "payable": false,
      "stateMutability": "nonpayable",
      "type": "function"
    },
    {
      "constant": true,
      "inputs": [],
      "name": "getBytes32",
      "outputs": [
        {
          "name": "",
          "type": "string"
        }
      ],
      "payable": false,
      "stateMutability": "view",
      "type": "function"
    },
    {
      "constant": true,
      "inputs": [],
      "name": "userCount",
      "outputs": [
        {
          "name": "",
          "type": "uint256"
        }
      ],
      "payable": false,
      "stateMutability": "view",
      "type": "function"
    },
    {
      "constant": true,
      "inputs": [
        {
          "name": "_userPhone",
          "type": "string"
        }
      ],
      "name": "checkUserByPhone",
      "outputs": [
        {
          "name": "",
          "type": "bool"
        }
      ],
      "payable": false,
      "stateMutability": "view",
      "type": "function"
    },
    {
      "constant": true,
      "inputs": [
        {
          "name": "_userPhone",
          "type": "string"
        }
      ],
      "name": "getUserIdByPhone",
      "outputs": [
        {
          "name": "",
          "type": "uint256"
        }
      ],
      "payable": false,
      "stateMutability": "view",
      "type": "function"
    },
    {
      "constant": true,
      "inputs": [
        {
          "name": "_userId",
          "type": "uint256"
        }
      ],
      "name": "getUserByUserId",
      "outputs": [
        {
          "name": "",
          "type": "uint256"
        },
        {
          "name": "",
          "type": "string"
        },
        {
          "name": "",
          "type": "string"
        }
      ],
      "payable": false,
      "stateMutability": "view",
      "type": "function"
    },
    {
      "constant": true,
      "inputs": [
        {
          "name": "_userAccount",
          "type": "string"
        },
        {
          "name": "_userPassword",
          "type": "string"
        }
      ],
      "name": "login",
      "outputs": [
        {
          "name": "",
          "type": "uint256"
        },
        {
          "name": "",
          "type": "uint256"
        }
      ],
      "payable": false,
      "stateMutability": "view",
      "type": "function"
    },
    {
      "constant": false,
      "inputs": [
        {
          "name": "_userId",
          "type": "uint256"
        },
        {
          "name": "_projectId",
          "type": "uint256"
        },
        {
          "name": "_denoteMoney",
          "type": "uint256"
        }
      ],
      "name": "userDenote",
      "outputs": [
        {
          "name": "",
          "type": "uint256"
        }
      ],
      "payable": false,
      "stateMutability": "nonpayable",
      "type": "function"
    },
    {
      "constant": false,
      "inputs": [],
      "name": "denoteCount",
      "outputs": [
        {
          "name": "",
          "type": "uint256"
        }
      ],
      "payable": false,
      "stateMutability": "nonpayable",
      "type": "function"
    },
    {
      "constant": false,
      "inputs": [
        {
          "name": "_userId",
          "type": "uint256"
        },
        {
          "name": "_userDenoteId",
          "type": "uint256"
        }
      ],
      "name": "getDenoteByUserId",
      "outputs": [
        {
          "name": "",
          "type": "uint256"
        },
        {
          "name": "",
          "type": "uint256"
        },
        {
          "name": "",
          "type": "uint256"
        },
        {
          "name": "",
          "type": "uint256"
        }
      ],
      "payable": false,
      "stateMutability": "nonpayable",
      "type": "function"
    },
    {
      "constant": false,
      "inputs": [
        {
          "name": "_endorsorOrg",
          "type": "string"
        },
        {
          "name": "_endorsorProvince",
          "type": "string"
        },
        {
          "name": "_endorsorEmail",
          "type": "string"
        },
        {
          "name": "_endorsorPassword",
          "type": "string"
        }
      ],
      "name": "createEndorsor",
      "outputs": [],
      "payable": false,
      "stateMutability": "nonpayable",
      "type": "function"
    },
    {
      "constant": true,
      "inputs": [],
      "name": "endorsorCount",
      "outputs": [
        {
          "name": "",
          "type": "uint256"
        }
      ],
      "payable": false,
      "stateMutability": "view",
      "type": "function"
    },
    {
      "constant": true,
      "inputs": [
        {
          "name": "_endorsorEmail",
          "type": "string"
        }
      ],
      "name": "checkEndorsorByEmail",
      "outputs": [
        {
          "name": "",
          "type": "bool"
        }
      ],
      "payable": false,
      "stateMutability": "view",
      "type": "function"
    },
    {
      "constant": true,
      "inputs": [
        {
          "name": "_endorsorEmail",
          "type": "string"
        }
      ],
      "name": "getEndorsorIdByEmail",
      "outputs": [
        {
          "name": "",
          "type": "uint256"
        }
      ],
      "payable": false,
      "stateMutability": "view",
      "type": "function"
    },
    {
      "constant": true,
      "inputs": [
        {
          "name": "_endorsorId",
          "type": "uint256"
        }
      ],
      "name": "getEndorsorByEndorsorId",
      "outputs": [
        {
          "name": "",
          "type": "uint256"
        },
        {
          "name": "",
          "type": "string"
        },
        {
          "name": "",
          "type": "string"
        },
        {
          "name": "",
          "type": "string"
        }
      ],
      "payable": false,
      "stateMutability": "view",
      "type": "function"
    },
    {
      "constant": true,
      "inputs": [
        {
          "name": "_endorsorId",
          "type": "uint256"
        },
        {
          "name": "_endorseItemIndex",
          "type": "uint256"
        }
      ],
      "name": "getEndorseByEndorsorId",
      "outputs": [
        {
          "name": "",
          "type": "uint256"
        },
        {
          "name": "",
          "type": "uint256"
        },
        {
          "name": "",
          "type": "uint256"
        }
      ],
      "payable": false,
      "stateMutability": "view",
      "type": "function"
    },
    {
      "constant": false,
      "inputs": [
        {
          "name": "_projectId",
          "type": "uint256"
        },
        {
          "name": "_endorsorId",
          "type": "uint256"
        },
        {
          "name": "_operate",
          "type": "uint256"
        }
      ],
      "name": "createEndorseItem",
      "outputs": [],
      "payable": false,
      "stateMutability": "nonpayable",
      "type": "function"
    },
    {
      "constant": false,
      "inputs": [
        {
          "name": "_endorsorId",
          "type": "uint256"
        }
      ],
      "name": "getEndorseItemCountOfEndorsor",
      "outputs": [
        {
          "name": "",
          "type": "uint256"
        }
      ],
      "payable": false,
      "stateMutability": "nonpayable",
      "type": "function"
    },
    {
      "constant": false,
      "inputs": [
        {
          "name": "_schoolEmail",
          "type": "string"
        },
        {
          "name": "_schoolName",
          "type": "string"
        },
        {
          "name": "_schoolPassword",
          "type": "string"
        },
        {
          "name": "_schoolProvince",
          "type": "string"
        },
        {
          "name": "_schoolAddress",
          "type": "string"
        },
        {
          "name": "_schoolGovernor",
          "type": "string"
        },
        {
          "name": "_schoolAgent",
          "type": "string"
        }
      ],
      "name": "createSchool",
      "outputs": [],
      "payable": false,
      "stateMutability": "nonpayable",
      "type": "function"
    },
    {
      "constant": true,
      "inputs": [],
      "name": "schoolCount",
      "outputs": [
        {
          "name": "",
          "type": "uint256"
        }
      ],
      "payable": false,
      "stateMutability": "view",
      "type": "function"
    },
    {
      "constant": true,
      "inputs": [
        {
          "name": "_schoolEmail",
          "type": "string"
        }
      ],
      "name": "checkSchoolByEmail",
      "outputs": [
        {
          "name": "",
          "type": "bool"
        }
      ],
      "payable": false,
      "stateMutability": "view",
      "type": "function"
    },
    {
      "constant": true,
      "inputs": [
        {
          "name": "_schoolEmail",
          "type": "string"
        }
      ],
      "name": "getSchoolIdByEmail",
      "outputs": [
        {
          "name": "",
          "type": "uint256"
        }
      ],
      "payable": false,
      "stateMutability": "view",
      "type": "function"
    },
    {
      "constant": true,
      "inputs": [
        {
          "name": "_schoolId",
          "type": "uint256"
        }
      ],
      "name": "getSchoolBySchoolId",
      "outputs": [
        {
          "name": "",
          "type": "string"
        },
        {
          "name": "",
          "type": "string"
        },
        {
          "name": "",
          "type": "string"
        },
        {
          "name": "",
          "type": "string"
        },
        {
          "name": "",
          "type": "string"
        },
        {
          "name": "",
          "type": "string"
        },
        {
          "name": "",
          "type": "bool"
        }
      ],
      "payable": false,
      "stateMutability": "view",
      "type": "function"
    },
    {
      "constant": false,
      "inputs": [
        {
          "name": "_schoolId",
          "type": "uint256"
        },
        {
          "name": "_projectName",
          "type": "string"
        },
        {
          "name": "_projectTarget",
          "type": "string"
        },
        {
          "name": "_projectTargetMoney",
          "type": "uint256"
        },
        {
          "name": "_projectFinishTime",
          "type": "uint256"
        }
      ],
      "name": "createProject",
      "outputs": [],
      "payable": false,
      "stateMutability": "nonpayable",
      "type": "function"
    },
    {
      "constant": false,
      "inputs": [
        {
          "name": "_projectId",
          "type": "uint256"
        }
      ],
      "name": "emitEndorse",
      "outputs": [],
      "payable": false,
      "stateMutability": "nonpayable",
      "type": "function"
    },
    {
      "constant": true,
      "inputs": [],
      "name": "projectCount",
      "outputs": [
        {
          "name": "",
          "type": "uint256"
        }
      ],
      "payable": false,
      "stateMutability": "view",
      "type": "function"
    },
    {
      "constant": true,
      "inputs": [
        {
          "name": "_projectId",
          "type": "uint256"
        }
      ],
      "name": "getProjectByProjectId",
      "outputs": [
        {
          "name": "",
          "type": "uint256"
        },
        {
          "name": "",
          "type": "uint256"
        },
        {
          "name": "",
          "type": "string"
        },
        {
          "name": "",
          "type": "uint256"
        },
        {
          "name": "",
          "type": "string"
        },
        {
          "name": "",
          "type": "uint256"
        },
        {
          "name": "",
          "type": "uint256"
        },
        {
          "name": "",
          "type": "uint256"
        },
        {
          "name": "",
          "type": "bool"
        },
        {
          "name": "",
          "type": "uint256"
        },
        {
          "name": "",
          "type": "uint256"
        },
        {
          "name": "",
          "type": "uint256"
        }
      ],
      "payable": false,
      "stateMutability": "view",
      "type": "function"
    },
    {
      "constant": true,
      "inputs": [
        {
          "name": "_schoolId",
          "type": "uint256"
        }
      ],
      "name": "getSchoolProjectCounts",
      "outputs": [
        {
          "name": "",
          "type": "uint256"
        }
      ],
      "payable": false,
      "stateMutability": "view",
      "type": "function"
    },
    {
      "constant": true,
      "inputs": [
        {
          "name": "_schoolId",
          "type": "uint256"
        },
        {
          "name": "_schoolProjectId",
          "type": "uint256"
        }
      ],
      "name": "getProjectIdBySchoolId",
      "outputs": [
        {
          "name": "",
          "type": "uint256"
        }
      ],
      "payable": false,
      "stateMutability": "view",
      "type": "function"
    },
    {
      "constant": false,
      "inputs": [
        {
          "name": "n",
          "type": "uint256"
        }
      ],
      "name": "random",
      "outputs": [
        {
          "name": "",
          "type": "uint256"
        }
      ],
      "payable": false,
      "stateMutability": "nonpayable",
      "type": "function"
    }
  ],
  "bytecode": "0x606060405234156200001057600080fd5b620000d06040805190810160405280600181526020017f30000000000000000000000000000000000000000000000000000000000000008152506040805190810160405280600181526020017f30000000000000000000000000000000000000000000000000000000000000008152506040805190810160405280600181526020017f3000000000000000000000000000000000000000000000000000000000000000815250620003f364010000000002620020f1176401000000009004565b620002686040805190810160405280600181526020017f30000000000000000000000000000000000000000000000000000000000000008152506040805190810160405280600181526020017f30000000000000000000000000000000000000000000000000000000000000008152506040805190810160405280600181526020017f30000000000000000000000000000000000000000000000000000000000000008152506040805190810160405280600181526020017f30000000000000000000000000000000000000000000000000000000000000008152506040805190810160405280600181526020017f30000000000000000000000000000000000000000000000000000000000000008152506040805190810160405280600181526020017f30000000000000000000000000000000000000000000000000000000000000008152506040805190810160405280600181526020017f30000000000000000000000000000000000000000000000000000000000000008152506200057e640100000000026200143d176401000000009004565b620002f760006040805190810160405280600181526020017f30000000000000000000000000000000000000000000000000000000000000008152506040805190810160405280600181526020017f3000000000000000000000000000000000000000000000000000000000000000815250600080620007cc640100000000026200175c176401000000009004565b620003ed6040805190810160405280600181526020017f30000000000000000000000000000000000000000000000000000000000000008152506040805190810160405280600181526020017f30000000000000000000000000000000000000000000000000000000000000008152506040805190810160405280600181526020017f30000000000000000000000000000000000000000000000000000000000000008152506040805190810160405280600181526020017f3000000000000000000000000000000000000000000000000000000000000000815250620009f96401000000000262002497176401000000009004565b620016fb565b6000620003ff62001100565b6200041e8462000c406401000000000262001ba5176401000000009004565b1515156200042b57600080fd5b6200044962000cba64010000000002620016bf176401000000009004565b91506080604051908101604052808381526020018681526020018581526020018481525090506000805480600101828162000485919062001141565b91600052602060002090600402016000839091909150600082015181600001556020820151816001019080519060200190620004c392919062001176565b506040820151816002019080519060200190620004e292919062001176565b5060608201518160030190805190602001906200050192919062001176565b50505050816001856040518082805190602001908083835b60208310151562000540578051825260208201915060208101905060208303925062000519565b6001836020036101000a0380198251168184511680821785525050505050509050019150509081526020016040518091039020819055505050505050565b60006200058a620011fd565b620005a98962000cc66401000000000262002c24176401000000009004565b151515620005b657600080fd5b620005d462000d4064010000000002620019a0176401000000009004565b9150610120604051908101604052808381526020018981526020018a81526020018881526020018781526020018681526020018581526020018481526020016001151581525090506004805480600101828162000632919062001284565b916000526020600020906009020160008390919091506000820151816000015560208201518160010190805190602001906200067092919062001176565b5060408201518160020190805190602001906200068f92919062001176565b506060820151816003019080519060200190620006ae92919062001176565b506080820151816004019080519060200190620006cd92919062001176565b5060a0820151816005019080519060200190620006ec92919062001176565b5060c08201518160060190805190602001906200070b92919062001176565b5060e08201518160070190805190602001906200072a92919062001176565b506101008201518160080160006101000a81548160ff0219169083151502179055505050508160058a6040518082805190602001908083835b6020831015156200078a578051825260208201915060208101905060208303925062000763565b6001836020036101000a038019825116818451168082178552505050505050905001915050908152602001604051809103902081905550505050505050505050565b6000620007d8620012b9565b60048054905087101515620007ec57600080fd5b6200080a62000d4d6401000000000262001b98176401000000009004565b91506101e060405190810160405280838152602001888152602001878152602001428152602001868152602001858152602001600081526020016002815260200160001515815260200184815260200160008152602001600081526020016000815260200160008152602001600081525090506006805480600101828162000893919062001342565b91600052602060002090600f0201600083909190915060008201518160000155602082015181600101556040820151816002019080519060200190620008db92919062001176565b506060820151816003015560808201518160040190805190602001906200090492919062001176565b5060a0820151816005015560c0820151816006015560e082015181600701556101008201518160080160006101000a81548160ff021916908315150217905550610120820151816009015561014082015181600a015561016082015181600b015561018082015181600c01556101a082015181600d01556101c082015181600e0155505050600c60008881526020019081526020016000208054806001018281620009b0919062001377565b916000526020600020900160008490919091505550600087141515620009f057620009ef8262000d5a6401000000000262002243176401000000009004565b5b50505050505050565b600062000a05620013a6565b62000a248462000fdd640100000000026200306f176401000000009004565b15151562000a3157600080fd5b62000a4f620010576401000000000262002902176401000000009004565b915060a0604051908101604052808381526020018781526020018681526020018581526020018481525090506002805480600101828162000a919190620013f6565b9160005260206000209060050201600083909190915060008201518160000155602082015181600101908051906020019062000acf92919062001176565b50604082015181600201908051906020019062000aee92919062001176565b50606082015181600301908051906020019062000b0d92919062001176565b50608082015181600401908051906020019062000b2c92919062001176565b50505050816003856040518082805190602001908083835b60208310151562000b6b578051825260208201915060208101905060208303925062000b44565b6001836020036101000a038019825116818451168082178552505050505050905001915050908152602001604051809103902081905550600e856040518082805190602001908083835b60208310151562000bdc578051825260208201915060208101905060208303925062000bb5565b6001836020036101000a0380198251168184511680821785525050505050509050019150509081526020016040518091039020805480600101828162000c23919062001377565b916000526020600020900160008490919091505550505050505050565b6000806001836040518082805190602001908083835b60208310151562000c7d578051825260208201915060208101905060208303925062000c56565b6001836020036101000a03801982511681845116808217855250505050505090500191505090815260200160405180910390205414159050919050565b60008080549050905090565b6000806005836040518082805190602001908083835b60208310151562000d03578051825260208201915060208101905060208303925062000cdc565b6001836020036101000a03801982511681845116808217855250505050505090500191505090815260200160405180910390205414159050919050565b6000600480549050905090565b6000600680549050905090565b6000806000806000806000806000806006805490508b10801562000d7e575060008b115b151562000d8a57600080fd5b60068b81548110151562000d9a57fe5b90600052602060002090600f0201995060048a6001015481548110151562000dbe57fe5b90600052602060002090600902019850600e89600401604051808280546001816001161561010002031660029004801562000e335780601f1062000e1057610100808354040283529182019162000e33565b820191906000526020600020905b81548152906001019060200180831162000e1e575b50509150509081526020016040518091039020975060038880549050101562000ec057600095505b878054905086101562000eba5786805480600101828162000e7d919062001377565b916000526020600020900160008a8981548110151562000e9957fe5b90600052602060002090015490919091505550858060010196505062000e5b565b62000fc7565b6003600289805490500281151562000ed457fe5b04945087805490509350600092505b8483101562000fc65762000f0b84620010646401000000000262002b8a176401000000009004565b915086805480600101828162000f22919062001377565b916000526020600020900160008a8581548110151562000f3e57fe5b906000526020600020900154909190915055508190505b600188805490500381101562000faf57876001820181548110151562000f7757fe5b906000526020600020900154888281548110151562000f9257fe5b906000526020600020900181905550808060010191505062000f55565b838060019003945050828060010193505062000ee3565b5b848a600c01819055505050505050505050505050565b6000806003836040518082805190602001908083835b6020831015156200101a578051825260208201915060208101905060208303925062000ff3565b6001836020036101000a03801982511681845116808217855250505050505090500191505090815260200160405180910390205414159050919050565b6000600280549050905090565b60008160024233600060405160200152604051808381526020018273ffffffffffffffffffffffffffffffffffffffff1673ffffffffffffffffffffffffffffffffffffffff166c010000000000000000000000000281526014019250505060206040518083038160008661646e5a03f11515620010e157600080fd5b50506040518051905060019004811515620010f857fe5b069050919050565b608060405190810160405280600081526020016200111d6200142b565b81526020016200112c6200142b565b81526020016200113b6200142b565b81525090565b81548183558181151162001171576004028160040283600052602060002091820191016200117091906200143f565b5b505050565b828054600181600116156101000203166002900490600052602060002090601f016020900481019282601f10620011b957805160ff1916838001178555620011ea565b82800160010185558215620011ea579182015b82811115620011e9578251825591602001919060010190620011cc565b5b509050620011f991906200149f565b5090565b61012060405190810160405280600081526020016200121b6200142b565b81526020016200122a6200142b565b8152602001620012396200142b565b8152602001620012486200142b565b8152602001620012576200142b565b8152602001620012666200142b565b8152602001620012756200142b565b81526020016000151581525090565b815481835581811511620012b457600902816009028360005260206000209182019101620012b39190620014c7565b5b505050565b6101e0604051908101604052806000815260200160008152602001620012de6200142b565b815260200160008152602001620012f46200142b565b81526020016000815260200160008152602001600081526020016000151581526020016000815260200160008152602001600081526020016000815260200160008152602001600081525090565b8154818355818115116200137257600f0281600f02836000526020600020918201910162001371919062001583565b5b505050565b815481835581811511620013a157818360005260206000209182019101620013a091906200149f565b5b505050565b60a06040519081016040528060008152602001620013c36200142b565b8152602001620013d26200142b565b8152602001620013e16200142b565b8152602001620013f06200142b565b81525090565b81548183558181151162001426576005028160050283600052602060002091820191016200142591906200163d565b5b505050565b602060405190810160405280600081525090565b6200149c91905b8082111562001498576000808201600090556001820160006200146a9190620016af565b6002820160006200147c9190620016af565b6003820160006200148e9190620016af565b5060040162001446565b5090565b90565b620014c491905b80821115620014c0576000816000905550600101620014a6565b5090565b90565b6200158091905b808211156200157c57600080820160009055600182016000620014f29190620016af565b600282016000620015049190620016af565b600382016000620015169190620016af565b600482016000620015289190620016af565b6005820160006200153a9190620016af565b6006820160006200154c9190620016af565b6007820160006200155e9190620016af565b6008820160006101000a81549060ff021916905550600901620014ce565b5090565b90565b6200163a91905b8082111562001636576000808201600090556001820160009055600282016000620015b69190620016af565b6003820160009055600482016000620015d09190620016af565b6005820160009055600682016000905560078201600090556008820160006101000a81549060ff02191690556009820160009055600a820160009055600b820160009055600c820160009055600d820160009055600e82016000905550600f016200158a565b5090565b90565b620016ac91905b80821115620016a857600080820160009055600182016000620016689190620016af565b6002820160006200167a9190620016af565b6003820160006200168c9190620016af565b6004820160006200169e9190620016af565b5060050162001644565b5090565b90565b50805460018160011615610100020316600290046000825580601f10620016d75750620016f8565b601f016020900490600052602060002090810190620016f791906200149f565b5b50565b6137fc806200170b6000396000f300606060405260043610610180576000357c0100000000000000000000000000000000000000000000000000000000900463ffffffff1680630485c31d1461018557806304d7fbdd146101f657806306027d6a146103e557806307973ccf146104565780631af550dc1461047f5780631e052ca3146104d45780631f9030371461058f57806328d888901461061d5780633339000d14610646578063356953c01461066f57806336fbad26146106b857806350a9601d146106e1578063579aa9671461075657806358467dbc14610a1957806359ae069b14610ad4578063607506ba14610bb75780636a20665814610bda5780636cb1c5bb14610d005780637e67c8e514610e7b5780637f4ab6ab14610eb257806387c4e29814610edb57806387f3d22314610f4c578063b863bd371461109e578063bce66cdf146110d5578063c50fd39d1461114a578063c89e966614611198578063c93433d7146112a7578063d45e2dbd146112dc578063f0aa979614611313578063f9faf60214611353575b600080fd5b341561019057600080fd5b6101e0600480803590602001908201803590602001908080601f016020809104026020016040519081016040528093929190818152602001838380828437820191505050505050919050506113c8565b6040518082815260200191505060405180910390f35b341561020157600080fd5b6103e3600480803590602001908201803590602001908080601f0160208091040260200160405190810160405280939291908181526020018383808284378201915050505050509190803590602001908201803590602001908080601f0160208091040260200160405190810160405280939291908181526020018383808284378201915050505050509190803590602001908201803590602001908080601f0160208091040260200160405190810160405280939291908181526020018383808284378201915050505050509190803590602001908201803590602001908080601f0160208091040260200160405190810160405280939291908181526020018383808284378201915050505050509190803590602001908201803590602001908080601f0160208091040260200160405190810160405280939291908181526020018383808284378201915050505050509190803590602001908201803590602001908080601f0160208091040260200160405190810160405280939291908181526020018383808284378201915050505050509190803590602001908201803590602001908080601f0160208091040260200160405190810160405280939291908181526020018383808284378201915050505050509190505061143d565b005b34156103f057600080fd5b610440600480803590602001908201803590602001908080601f0160208091040260200160405190810160405280939291908181526020018383808284378201915050505050509190505061164a565b6040518082815260200191505060405180910390f35b341561046157600080fd5b6104696116bf565b6040518082815260200191505060405180910390f35b341561048a57600080fd5b6104a960048080359060200190919080359060200190919050506116cb565b6040518085815260200184815260200183815260200182815260200194505050505060405180910390f35b34156104df57600080fd5b61058d600480803590602001909190803590602001908201803590602001908080601f0160208091040260200160405190810160405280939291908181526020018383808284378201915050505050509190803590602001908201803590602001908080601f0160208091040260200160405190810160405280939291908181526020018383808284378201915050505050509190803590602001909190803590602001909190505061175c565b005b341561059a57600080fd5b6105a2611951565b6040518080602001828103825283818151815260200191508051906020019080838360005b838110156105e25780820151818401526020810190506105c7565b50505050905090810190601f16801561060f5780820380516001836020036101000a031916815260200191505b509250505060405180910390f35b341561062857600080fd5b6106306119a0565b6040518082815260200191505060405180910390f35b341561065157600080fd5b6106596119ad565b6040518082815260200191505060405180910390f35b341561067a57600080fd5b6106a260048080359060200190919080359060200190919080359060200190919050506119ba565b6040518082815260200191505060405180910390f35b34156106c357600080fd5b6106cb611b98565b6040518082815260200191505060405180910390f35b34156106ec57600080fd5b61073c600480803590602001908201803590602001908080601f01602080910402602001604051908101604052809392919081815260200183838082843782019150505050505091905050611ba5565b604051808215151515815260200191505060405180910390f35b341561076157600080fd5b6107776004808035906020019091905050611c1d565b604051808060200180602001806020018060200180602001806020018815151515815260200187810387528e818151815260200191508051906020019080838360005b838110156107d55780820151818401526020810190506107ba565b50505050905090810190601f1680156108025780820380516001836020036101000a031916815260200191505b5087810386528d818151815260200191508051906020019080838360005b8381101561083b578082015181840152602081019050610820565b50505050905090810190601f1680156108685780820380516001836020036101000a031916815260200191505b5087810385528c818151815260200191508051906020019080838360005b838110156108a1578082015181840152602081019050610886565b50505050905090810190601f1680156108ce5780820380516001836020036101000a031916815260200191505b5087810384528b818151815260200191508051906020019080838360005b838110156109075780820151818401526020810190506108ec565b50505050905090810190601f1680156109345780820380516001836020036101000a031916815260200191505b5087810383528a818151815260200191508051906020019080838360005b8381101561096d578082015181840152602081019050610952565b50505050905090810190601f16801561099a5780820380516001836020036101000a031916815260200191505b50878103825289818151815260200191508051906020019080838360005b838110156109d35780820151818401526020810190506109b8565b50505050905090810190601f168015610a005780820380516001836020036101000a031916815260200191505b509d505050505050505050505050505060405180910390f35b3415610a2457600080fd5b610ab7600480803590602001908201803590602001908080601f0160208091040260200160405190810160405280939291908181526020018383808284378201915050505050509190803590602001908201803590602001908080601f0160208091040260200160405190810160405280939291908181526020018383808284378201915050505050509190505061206e565b604051808381526020018281526020019250505060405180910390f35b3415610adf57600080fd5b610bb5600480803590602001908201803590602001908080601f0160208091040260200160405190810160405280939291908181526020018383808284378201915050505050509190803590602001908201803590602001908080601f0160208091040260200160405190810160405280939291908181526020018383808284378201915050505050509190803590602001908201803590602001908080601f016020809104026020016040519081016040528093929190818152602001838380828437820191505050505050919050506120f1565b005b3415610bc257600080fd5b610bd86004808035906020019091905050612243565b005b3415610be557600080fd5b610cfe600480803590602001908201803590602001908080601f0160208091040260200160405190810160405280939291908181526020018383808284378201915050505050509190803590602001908201803590602001908080601f0160208091040260200160405190810160405280939291908181526020018383808284378201915050505050509190803590602001908201803590602001908080601f0160208091040260200160405190810160405280939291908181526020018383808284378201915050505050509190803590602001908201803590602001908080601f01602080910402602001604051908101604052809392919081815260200183838082843782019150505050505091905050612497565b005b3415610d0b57600080fd5b610d21600480803590602001909190505061269f565b60405180858152602001806020018060200180602001848103845287818151815260200191508051906020019080838360005b83811015610d6f578082015181840152602081019050610d54565b50505050905090810190601f168015610d9c5780820380516001836020036101000a031916815260200191505b50848103835286818151815260200191508051906020019080838360005b83811015610dd5578082015181840152602081019050610dba565b50505050905090810190601f168015610e025780820380516001836020036101000a031916815260200191505b50848103825285818151815260200191508051906020019080838360005b83811015610e3b578082015181840152602081019050610e20565b50505050905090810190601f168015610e685780820380516001836020036101000a031916815260200191505b5097505050505050505060405180910390f35b3415610e8657600080fd5b610e9c60048080359060200190919050506128e2565b6040518082815260200191505060405180910390f35b3415610ebd57600080fd5b610ec5612902565b6040518082815260200191505060405180910390f35b3415610ee657600080fd5b610f36600480803590602001908201803590602001908080601f0160208091040260200160405190810160405280939291908181526020018383808284378201915050505050509190505061290f565b6040518082815260200191505060405180910390f35b3415610f5757600080fd5b610f6d6004808035906020019091905050612984565b604051808d81526020018c8152602001806020018b8152602001806020018a81526020018981526020018881526020018715151515815260200186815260200185815260200184815260200183810383528d818151815260200191508051906020019080838360005b83811015610ff1578082015181840152602081019050610fd6565b50505050905090810190601f16801561101e5780820380516001836020036101000a031916815260200191505b5083810382528b818151815260200191508051906020019080838360005b8381101561105757808201518184015260208101905061103c565b50505050905090810190601f1680156110845780820380516001836020036101000a031916815260200191505b509e50505050505050505050505050505060405180910390f35b34156110a957600080fd5b6110bf6004808035906020019091905050612b8a565b6040518082815260200191505060405180910390f35b34156110e057600080fd5b611130600480803590602001908201803590602001908080601f01602080910402602001604051908101604052809392919081815260200183838082843782019150505050505091905050612c24565b604051808215151515815260200191505060405180910390f35b341561115557600080fd5b6111746004808035906020019091908035906020019091905050612c9c565b60405180848152602001838152602001828152602001935050505060405180910390f35b34156111a357600080fd5b6111b96004808035906020019091905050612d43565b604051808481526020018060200180602001838103835285818151815260200191508051906020019080838360005b838110156112035780820151818401526020810190506111e8565b50505050905090810190601f1680156112305780820380516001836020036101000a031916815260200191505b50838103825284818151815260200191508051906020019080838360005b8381101561126957808201518184015260208101905061124e565b50505050905090810190601f1680156112965780820380516001836020036101000a031916815260200191505b509550505050505060405180910390f35b34156112b257600080fd5b6112da6004808035906020019091908035906020019091908035906020019091905050612edb565b005b34156112e757600080fd5b6112fd6004808035906020019091905050612fe5565b6040518082815260200191505060405180910390f35b341561131e57600080fd5b61133d6004808035906020019091908035906020019091905050613005565b6040518082815260200191505060405180910390f35b341561135e57600080fd5b6113ae600480803590602001908201803590602001908080601f0160208091040260200160405190810160405280939291908181526020018383808284378201915050505050509190505061306f565b604051808215151515815260200191505060405180910390f35b60006005826040518082805190602001908083835b60208310151561140257805182526020820191506020810190506020830392506113dd565b6001836020036101000a0380198251168184511680821785525050505050509050019150509081526020016040518091039020549050919050565b60006114476130e7565b61145089612c24565b15151561145c57600080fd5b6114646119a0565b9150610120604051908101604052808381526020018981526020018a8152602001888152602001878152602001868152602001858152602001848152602001600115158152509050600480548060010182816114c09190613160565b916000526020600020906009020160008390919091506000820151816000015560208201518160010190805190602001906114fc929190613192565b506040820151816002019080519060200190611519929190613192565b506060820151816003019080519060200190611536929190613192565b506080820151816004019080519060200190611553929190613192565b5060a0820151816005019080519060200190611570929190613192565b5060c082015181600601908051906020019061158d929190613192565b5060e08201518160070190805190602001906115aa929190613192565b506101008201518160080160006101000a81548160ff0219169083151502179055505050508160058a6040518082805190602001908083835b60208310151561160857805182526020820191506020810190506020830392506115e3565b6001836020036101000a038019825116818451168082178552505050505050905001915050908152602001604051809103902081905550505050505050505050565b60006001826040518082805190602001908083835b602083101515611684578051825260208201915060208101905060208303925061165f565b6001836020036101000a0380198251168184511680821785525050505050509050019150509081526020016040518091039020549050919050565b60008080549050905090565b60008060008060008080549050871080156116fb5750600960008881526020019081526020016000208054905086105b151561170657600080fd5b600960008881526020019081526020016000208681548110151561172657fe5b90600052602060002090600502019050806000015481600201548260030154836004015494509450945094505092959194509250565b6000611766613212565b6004805490508710151561177957600080fd5b611781611b98565b91506101e06040519081016040528083815260200188815260200187815260200142815260200186815260200185815260200160008152602001600281526020016000151581526020018481526020016000815260200160008152602001600081526020016000815260200160008152509050600680548060010182816118089190613297565b91600052602060002090600f020160008390919091506000820151816000015560208201518160010155604082015181600201908051906020019061184e929190613192565b50606082015181600301556080820151816004019080519060200190611875929190613192565b5060a0820151816005015560c0820151816006015560e082015181600701556101008201518160080160006101000a81548160ff021916908315150217905550610120820151816009015561014082015181600a015561016082015181600b015561018082015181600c01556101a082015181600d01556101c082015181600e0155505050600c6000888152602001908152602001600020805480600101828161191f91906132c9565b9160005260206000209001600084909190915055506000871415156119485761194782612243565b5b50505050505050565b6119596132f5565b6119616132f5565b6040805190810160405280600381526020017f616263000000000000000000000000000000000000000000000000000000000081525090508091505090565b6000600480549050905090565b6000600780549050905090565b60008060006119c7613309565b600080549050871080156119df575060068054905086105b15156119ea57600080fd5b6006868154811015156119f957fe5b90600052602060002090600f02019250611a116119ad565b915060a06040519081016040528083815260200188815260200187815260200186815260200142815250905060078054806001018281611a519190613339565b916000526020600020906005020160008390919091506000820151816000015560208201518160010155604082015181600201556060820151816003015560808201518160040155505050600960008881526020019081526020016000208054806001018281611ac19190613339565b916000526020600020906005020160008390919091506000820151816000015560208201518160010155604082015181600201556060820151816003015560808201518160040155505050600a60008781526020019081526020016000208054806001018281611b319190613339565b9160005260206000209060050201600083909190915060008201518160000155602082015181600101556040820151816002015560608201518160030155608082015181600401555050508483600601600082825401925050819055505050509392505050565b6000600680549050905090565b6000806001836040518082805190602001908083835b602083101515611be05780518252602082019150602081019050602083039250611bbb565b6001836020036101000a03801982511681845116808217855250505050505090500191505090815260200160405180910390205414159050919050565b611c256132f5565b611c2d6132f5565b611c356132f5565b611c3d6132f5565b611c456132f5565b611c4d6132f5565b60008060048054905089101515611c6357600080fd5b600489815481101515611c7257fe5b906000526020600020906009020190508060010181600201826004018360050184600601856007018660080160009054906101000a900460ff16868054600181600116156101000203166002900480601f016020809104026020016040519081016040528092919081815260200182805460018160011615610100020316600290048015611d415780601f10611d1657610100808354040283529160200191611d41565b820191906000526020600020905b815481529060010190602001808311611d2457829003601f168201915b50505050509650858054600181600116156101000203166002900480601f016020809104026020016040519081016040528092919081815260200182805460018160011615610100020316600290048015611ddd5780601f10611db257610100808354040283529160200191611ddd565b820191906000526020600020905b815481529060010190602001808311611dc057829003601f168201915b50505050509550848054600181600116156101000203166002900480601f016020809104026020016040519081016040528092919081815260200182805460018160011615610100020316600290048015611e795780601f10611e4e57610100808354040283529160200191611e79565b820191906000526020600020905b815481529060010190602001808311611e5c57829003601f168201915b50505050509450838054600181600116156101000203166002900480601f016020809104026020016040519081016040528092919081815260200182805460018160011615610100020316600290048015611f155780601f10611eea57610100808354040283529160200191611f15565b820191906000526020600020905b815481529060010190602001808311611ef857829003601f168201915b50505050509350828054600181600116156101000203166002900480601f016020809104026020016040519081016040528092919081815260200182805460018160011615610100020316600290048015611fb15780601f10611f8657610100808354040283529160200191611fb1565b820191906000526020600020905b815481529060010190602001808311611f9457829003601f168201915b50505050509250818054600181600116156101000203166002900480601f01602080910402602001604051908101604052809291908181526020018280546001816001161561010002031660029004801561204d5780601f106120225761010080835404028352916020019161204d565b820191906000526020600020905b81548152906001019060200180831161203057829003601f168201915b50505050509150975097509750975097509750975050919395979092949650565b6000806000806000806000809450600093506120898961164a565b9250612094896113c8565b915061209f8961290f565b9050808284181893506000831415156120bb57600194506120df565b6000821415156120ce57600294506120de565b6000811415156120dd57600394505b5b5b84849650965050505050509250929050565b60006120fb61336b565b61210484611ba5565b15151561211057600080fd5b6121186116bf565b91506080604051908101604052808381526020018681526020018581526020018481525090506000805480600101828161215291906133a6565b9160005260206000209060040201600083909190915060008201518160000155602082015181600101908051906020019061218e929190613192565b5060408201518160020190805190602001906121ab929190613192565b5060608201518160030190805190602001906121c8929190613192565b50505050816001856040518082805190602001908083835b60208310151561220557805182526020820191506020810190506020830392506121e0565b6001836020036101000a0380198251168184511680821785525050505050509050019150509081526020016040518091039020819055505050505050565b6000806000806000806000806000806006805490508b108015612266575060008b115b151561227157600080fd5b60068b81548110151561228057fe5b90600052602060002090600f0201995060048a600101548154811015156122a357fe5b90600052602060002090600902019850600e8960040160405180828054600181600116156101000203166002900480156123145780601f106122f2576101008083540402835291820191612314565b820191906000526020600020905b815481529060010190602001808311612300575b50509150509081526020016040518091039020975060038880549050101561239a57600095505b87805490508610156123955786805480600101828161235a91906132c9565b916000526020600020900160008a8981548110151561237557fe5b90600052602060002090015490919091505550858060010196505061233b565b612481565b600360028980549050028115156123ad57fe5b04945087805490509350600092505b84831015612480576123cd84612b8a565b91508680548060010182816123e291906132c9565b916000526020600020900160008a858154811015156123fd57fe5b906000526020600020900154909190915055508190505b600188805490500381101561246a57876001820181548110151561243457fe5b906000526020600020900154888281548110151561244e57fe5b9060005260206000209001819055508080600101915050612414565b83806001900394505082806001019350506123bc565b5b848a600c01819055505050505050505050505050565b60006124a16133d8565b6124aa8461306f565b1515156124b657600080fd5b6124be612902565b915060a060405190810160405280838152602001878152602001868152602001858152602001848152509050600280548060010182816124fe9190613420565b9160005260206000209060050201600083909190915060008201518160000155602082015181600101908051906020019061253a929190613192565b506040820151816002019080519060200190612557929190613192565b506060820151816003019080519060200190612574929190613192565b506080820151816004019080519060200190612591929190613192565b50505050816003856040518082805190602001908083835b6020831015156125ce57805182526020820191506020810190506020830392506125a9565b6001836020036101000a038019825116818451168082178552505050505050905001915050908152602001604051809103902081905550600e856040518082805190602001908083835b60208310151561263d5780518252602082019150602081019050602083039250612618565b6001836020036101000a0380198251168184511680821785525050505050509050019150509081526020016040518091039020805480600101828161268291906132c9565b916000526020600020900160008490919091505550505050505050565b60006126a96132f5565b6126b16132f5565b6126b96132f5565b6000600280549050861015156126ce57600080fd5b6002868154811015156126dd57fe5b906000526020600020906005020190508060000154816001018260020183600301828054600181600116156101000203166002900480601f0160208091040260200160405190810160405280929190818152602001828054600181600116156101000203166002900480156127935780601f1061276857610100808354040283529160200191612793565b820191906000526020600020905b81548152906001019060200180831161277657829003601f168201915b50505050509250818054600181600116156101000203166002900480601f01602080910402602001604051908101604052809291908181526020018280546001816001161561010002031660029004801561282f5780601f106128045761010080835404028352916020019161282f565b820191906000526020600020905b81548152906001019060200180831161281257829003601f168201915b50505050509150808054600181600116156101000203166002900480601f0160208091040260200160405190810160405280929190818152602001828054600181600116156101000203166002900480156128cb5780601f106128a0576101008083540402835291602001916128cb565b820191906000526020600020905b8154815290600101906020018083116128ae57829003601f168201915b505050505090509450945094509450509193509193565b6000600c6000838152602001908152602001600020805490509050919050565b6000600280549050905090565b60006003826040518082805190602001908083835b6020831015156129495780518252602082019150602081019050602083039250612924565b6001836020036101000a0380198251168184511680821785525050505050509050019150509081526020016040518091039020549050919050565b60008061298f6132f5565b60006129996132f5565b60008060008060008060008060008e1180156129b957506006805490508e105b15156129c457600080fd5b60068e8154811015156129d357fe5b90600052602060002090600f0201905080600001548160010154826002018360030154846004018560050154866006015487600701548860080160009054906101000a900460ff1689600901548a600a01548b600b0154898054600181600116156101000203166002900480601f016020809104026020016040519081016040528092919081815260200182805460018160011615610100020316600290048015612abf5780601f10612a9457610100808354040283529160200191612abf565b820191906000526020600020905b815481529060010190602001808311612aa257829003601f168201915b50505050509950878054600181600116156101000203166002900480601f016020809104026020016040519081016040528092919081815260200182805460018160011615610100020316600290048015612b5b5780601f10612b3057610100808354040283529160200191612b5b565b820191906000526020600020905b815481529060010190602001808311612b3e57829003601f168201915b505050505097509c509c509c509c509c509c509c509c509c509c509c509c505091939597999b5091939597999b565b60008160024233600060405160200152604051808381526020018273ffffffffffffffffffffffffffffffffffffffff1673ffffffffffffffffffffffffffffffffffffffff166c010000000000000000000000000281526014019250505060206040518083038160008661646e5a03f11515612c0657600080fd5b50506040518051905060019004811515612c1c57fe5b069050919050565b6000806005836040518082805190602001908083835b602083101515612c5f5780518252602082019150602081019050602083039250612c3a565b6001836020036101000a03801982511681845116808217855250505050505090500191505090815260200160405180910390205414159050919050565b600080600080600060028054905087108015612ccd5750600b60008881526020019081526020016000208054905086105b1515612cd857600080fd5b600b600088815260200190815260200160002086815481101515612cf857fe5b9060005260206000209001549150600882815481101515612d1557fe5b9060005260206000209060040201905080600201548160010154826003015494509450945050509250925092565b6000612d4d6132f5565b612d556132f5565b6000808054905085101515612d6957600080fd5b600085815481101515612d7857fe5b9060005260206000209060040201905080600001548160010182600201818054600181600116156101000203166002900480601f016020809104026020016040519081016040528092919081815260200182805460018160011615610100020316600290048015612e2a5780601f10612dff57610100808354040283529160200191612e2a565b820191906000526020600020905b815481529060010190602001808311612e0d57829003601f168201915b50505050509150808054600181600116156101000203166002900480601f016020809104026020016040519081016040528092919081815260200182805460018160011615610100020316600290048015612ec65780601f10612e9b57610100808354040283529160200191612ec6565b820191906000526020600020905b815481529060010190602001808311612ea957829003601f168201915b50505050509050935093509350509193909250565b6000612ee5613452565b60068054905085108015612efa575060008310155b8015612f07575060028311155b1515612f1257600080fd5b600b6000858152602001908152602001600020805490509150608060405190810160405280838152602001868152602001858152602001848152509050600b60008581526020019081526020016000208054806001018281612f7491906132c9565b91600052602060002090016000849091909150555060088054806001018281612f9d919061347b565b91600052602060002090600402016000839091909150600082015181600001556020820151816001015560408201518160020155606082015181600301555050505050505050565b6000600b6000838152602001908152602001600020805490509050919050565b6000600480549050831080156130305750600c60008381526020019081526020016000208054905082105b151561303b57600080fd5b600c60008481526020019081526020016000208281548110151561305b57fe5b906000526020600020900154905092915050565b6000806003836040518082805190602001908083835b6020831015156130aa5780518252602082019150602081019050602083039250613085565b6001836020036101000a03801982511681845116808217855250505050505090500191505090815260200160405180910390205414159050919050565b61012060405190810160405280600081526020016131036134ad565b81526020016131106134ad565b815260200161311d6134ad565b815260200161312a6134ad565b81526020016131376134ad565b81526020016131446134ad565b81526020016131516134ad565b81526020016000151581525090565b81548183558181151161318d5760090281600902836000526020600020918201910161318c91906134c1565b5b505050565b828054600181600116156101000203166002900490600052602060002090601f016020900481019282601f106131d357805160ff1916838001178555613201565b82800160010185558215613201579182015b828111156132005782518255916020019190600101906131e5565b5b50905061320e919061356c565b5090565b6101e06040519081016040528060008152602001600081526020016132356134ad565b8152602001600081526020016132496134ad565b81526020016000815260200160008152602001600081526020016000151581526020016000815260200160008152602001600081526020016000815260200160008152602001600081525090565b8154818355818115116132c457600f0281600f0283600052602060002091820191016132c39190613591565b5b505050565b8154818355818115116132f0578183600052602060002091820191016132ef919061356c565b5b505050565b602060405190810160405280600081525090565b60a06040519081016040528060008152602001600081526020016000815260200160008152602001600081525090565b815481835581811511613366576005028160050283600052602060002091820191016133659190613644565b5b505050565b608060405190810160405280600081526020016133866134ad565b81526020016133936134ad565b81526020016133a06134ad565b81525090565b8154818355818115116133d3576004028160040283600052602060002091820191016133d2919061368b565b5b505050565b60a060405190810160405280600081526020016133f36134ad565b81526020016134006134ad565b815260200161340d6134ad565b815260200161341a6134ad565b81525090565b81548183558181151161344d5760050281600502836000526020600020918201910161344c91906136e2565b5b505050565b608060405190810160405280600081526020016000815260200160008152602001600081525090565b8154818355818115116134a8576004028160040283600052602060002091820191016134a79190613749565b5b505050565b602060405190810160405280600081525090565b61356991905b80821115613565576000808201600090556001820160006134e89190613788565b6002820160006134f89190613788565b6003820160006135089190613788565b6004820160006135189190613788565b6005820160006135289190613788565b6006820160006135389190613788565b6007820160006135489190613788565b6008820160006101000a81549060ff0219169055506009016134c7565b5090565b90565b61358e91905b8082111561358a576000816000905550600101613572565b5090565b90565b61364191905b8082111561363d5760008082016000905560018201600090556002820160006135c09190613788565b60038201600090556004820160006135d89190613788565b6005820160009055600682016000905560078201600090556008820160006101000a81549060ff02191690556009820160009055600a820160009055600b820160009055600c820160009055600d820160009055600e82016000905550600f01613597565b5090565b90565b61368891905b808211156136845760008082016000905560018201600090556002820160009055600382016000905560048201600090555060050161364a565b5090565b90565b6136df91905b808211156136db576000808201600090556001820160006136b29190613788565b6002820160006136c29190613788565b6003820160006136d29190613788565b50600401613691565b5090565b90565b61374691905b80821115613742576000808201600090556001820160006137099190613788565b6002820160006137199190613788565b6003820160006137299190613788565b6004820160006137399190613788565b506005016136e8565b5090565b90565b61378591905b80821115613781576000808201600090556001820160009055600282016000905560038201600090555060040161374f565b5090565b90565b50805460018160011615610100020316600290046000825580601f106137ae57506137cd565b601f0160209004906000526020600020908101906137cc919061356c565b5b505600a165627a7a72305820ba648a91000f02b9f463b2f17f5e7443a85604b92e5f212f7708b413298ed6960029",
  "source": "pragma solidity ^0.4.16;\n\ncontract Main {\n\n    struct User {\n        uint256 userId;\n        string userName;\n        string userPhone;\n        string userPassword;\n    }\n\n    struct Endorsor {\n        uint256 endorsorId;\n        string endorsorOrg;//\n        string endorsorProvince;\n        string endorsorEmail;\n        string endorsorPassword;\n\n    }\n\n    struct School {\n        uint256 schoolId;\n        string schoolName;\n        string schoolEmail;\n        string schoolPassword;\n        string schoolProvince;\n        string schoolAddress;\n        string schoolGovernor;//\n        string schoolAgent;//\n        bool schoolState;//\n    }\n\n    struct Project {\n        uint256 projectId;\n        uint256 schoolId;\n        string projectName;\n        uint256 projectCreateTime;\n        string projectTarget;//\n        uint256 projectTargetMoney;\n        uint256 projectCurrentMoney;\n        uint256 projectEndorseState;//0  1  2 pending\n        bool projectFinishState;\n        uint256 projectFinishTime;\n        uint256 projectPlanUpNoteTime;//\n        uint256 projectActualUpNoteTime;//\n        uint256 totalEndorsor;\n        uint256 passEndorsor;\n        uint256 rejectEndorsor;\n    }\n\n    struct Denote {\n        uint256 denoteId;//id\n        uint256 userId;//id\n        uint256 projectId;//id\n        uint256 denoteMoney;//\n        uint256 denoteTime;//\n    }\n\n    struct EndorseItem {\n        uint256 endorseItemId;\n        uint256 projectId;\n        uint256 endorsorId;\n        uint256 operate;//{0: 1 2}\n    }\n\n\n    User[] userList;\n    mapping(string=>uint256) userMap;//key\n\n    Endorsor[] endorsorList;\n    mapping(string=>uint256) endorsorMap;//key valueprojectId\n\n    School[] schoolList;\n    mapping(string=>uint256)schoolMap;//key\n\n    Project[] projectList;\n    Denote[] denoteList;\n    EndorseItem[] endorseItemList;\n    mapping(uint256=>Denote[]) userDenoteMap;//\n    mapping(uint256=>Denote[]) projectDenoteMap;//\n    mapping(uint256=>uint256[]) endorseItemMap;//\n    mapping(uint256=>uint256[]) schoolProjectMap;\n    mapping(uint256=>string[]) projectNoteUrlMap;\n    mapping(string=>uint256[]) provinceToEndorsorMap;\n\n    function Main() {\n        createUser(\"0\", \"0\", \"0\");\n        createSchool(\"0\", \"0\", \"0\", \"0\", \"0\", \"0\", \"0\"); \n        createProject(0, \"0\", \"0\", 0, 0);\n        createEndorsor(\"0\", \"0\", \"0\", \"0\");\n    }\n\n    function createUser(string _userName, string _userPhone, string _userPassword) {\n        require(!checkUserByPhone(_userPhone));\n        uint256 _userId = userCount();\n        User memory user = User({userId:_userId, userName:_userName, userPhone:_userPhone, userPassword:_userPassword});\n        userList.push(user);\n        userMap[_userPhone] = _userId;\n    }\n\n    function getBytes32() view returns(string) {\n        string memory str = \"abc\";\n        return str;\n    }\n    function userCount() view returns(uint256) {\n        return userList.length;\n    }\n\n    function checkUserByPhone(string _userPhone) view returns(bool) {\n        return userMap[_userPhone] != 0;\n    }\n\n    function getUserIdByPhone(string _userPhone) view returns(uint256) {\n        return userMap[_userPhone];\n    }\n\n    function getUserByUserId(uint256 _userId) view returns(uint256, string, string) {\n        require(_userId < userList.length);\n        User user = userList[_userId];\n        return(user.userId, user.userName, user.userPhone);\n    }\n\n    function login(string _userAccount, string _userPassword) view returns(uint256, uint256) {\n        uint256 _userType = 0;\n        uint256 _userId = 0;\n        uint256 _userIdA = getUserIdByPhone(_userAccount);\n        uint256 _userIdB = getSchoolIdByEmail(_userAccount);\n        uint256 _userIdC = getEndorsorIdByEmail(_userAccount);\n        _userId = _userIdA ^ _userIdB ^ _userIdC;\n\n        if (_userIdA != 0) {\n            _userType = 1;\n        }else if (_userIdB != 0) {\n            _userType = 2;\n        }else if (_userIdC != 0) {\n            _userType = 3;\n        }\n        return (_userType, _userId);\n    }\n\n    function userDenote(uint256 _userId, uint256 _projectId, uint256 _denoteMoney) returns(uint256) {\n        require(_userId < userList.length && _projectId < projectList.length);\n        Project project = projectList[_projectId];\n        uint256 _denoteId = denoteCount();\n        Denote memory denote = Denote({denoteId:_denoteId, userId:_userId, projectId:_projectId, denoteMoney:_denoteMoney, denoteTime:now});\n        denoteList.push(denote);\n        userDenoteMap[_userId].push(denote);\n        projectDenoteMap[_projectId].push(denote);\n        project.projectCurrentMoney += _denoteMoney;\n    }\n\n    function denoteCount() returns(uint256) {\n        return denoteList.length;\n    }\n\n    function getDenoteByUserId(uint256 _userId, uint _userDenoteId) returns(uint256, uint256, uint256, uint256) {\n        require(_userId < userList.length && _userDenoteId < userDenoteMap[_userId].length);\n        Denote denote = userDenoteMap[_userId][_userDenoteId];\n        return (denote.denoteId, denote.projectId, denote.denoteMoney, denote.denoteTime);\n    }\n  // ///////////////////////////////////////////////////////////////////////////////////////////////////\n\n    function createEndorsor(string _endorsorOrg, string _endorsorProvince, string _endorsorEmail, string _endorsorPassword) {\n        require(!checkEndorsorByEmail(_endorsorEmail));\n        uint256 _endorsorId = endorsorCount();\n        Endorsor memory endorsor = Endorsor({endorsorId:_endorsorId, endorsorOrg:_endorsorOrg, endorsorProvince:_endorsorProvince, endorsorEmail:_endorsorEmail, endorsorPassword:_endorsorPassword});\n        endorsorList.push(endorsor);\n        endorsorMap[_endorsorEmail] = _endorsorId;\n        provinceToEndorsorMap[_endorsorProvince].push(_endorsorId);\n    }\n\n    function endorsorCount() view returns(uint256) {\n        return endorsorList.length;\n    }\n\n    function checkEndorsorByEmail(string _endorsorEmail) view returns(bool) {\n        return endorsorMap[_endorsorEmail] != 0;\n    }\n\n    function getEndorsorIdByEmail(string _endorsorEmail) view returns(uint256) {\n        return endorsorMap[_endorsorEmail];\n    }\n\n    function getEndorsorByEndorsorId(uint256 _endorsorId) view returns(uint256, string, string, string) {\n        require(_endorsorId < endorsorList.length);\n        Endorsor _endorsor =  endorsorList[_endorsorId];\n        return (_endorsor.endorsorId, _endorsor.endorsorOrg, _endorsor.endorsorProvince, _endorsor.endorsorEmail);\n    }\n\n    function getEndorseByEndorsorId(uint256 _endorsorId, uint256 _endorseItemIndex) view returns (uint256, uint256, uint256) {\n        require(_endorsorId < endorsorList.length && _endorseItemIndex < endorseItemMap[_endorsorId].length);\n        uint256 endorseItemId = endorseItemMap[_endorsorId][_endorseItemIndex];\n        EndorseItem _endorseItem = endorseItemList[endorseItemId];\n        return (_endorseItem.endorsorId, _endorseItem.projectId, _endorseItem.operate);\n    }\n\n    function createEndorseItem(uint256 _projectId, uint256 _endorsorId, uint256 _operate) {\n        require(_projectId < projectList.length && _operate >= 0 && _operate <= 2);\n        uint256 _endorseItemId = endorseItemMap[_endorsorId].length;\n        EndorseItem memory endorseItem = EndorseItem({endorseItemId:_endorseItemId, projectId:_projectId, endorsorId:_endorsorId, operate:_operate});\n        endorseItemMap[_endorsorId].push(_endorseItemId);\n        endorseItemList.push(endorseItem);\n    }\n\n    function getEndorseItemCountOfEndorsor(uint256 _endorsorId) returns(uint256) {\n        return endorseItemMap[_endorsorId].length;\n    }\n\n  // ///////////////////////////////////////////////////////////////////////////////////////////////////////\n    \n    function createSchool(string _schoolEmail, string _schoolName, string _schoolPassword, string _schoolProvince, string _schoolAddress, string _schoolGovernor, string _schoolAgent) {\n        require(!checkSchoolByEmail(_schoolEmail));\n        uint256 _schoolId = schoolCount();\n        School memory school = School({schoolId:_schoolId, schoolName:_schoolName, schoolEmail:_schoolEmail, schoolPassword:_schoolPassword, schoolProvince:_schoolProvince, schoolAddress:_schoolAddress, schoolGovernor:_schoolGovernor, schoolAgent:_schoolAgent, schoolState:true});\n        schoolList.push(school);\n        schoolMap[_schoolEmail] = _schoolId;\n    }\n\n    function schoolCount() view returns(uint256) {\n        return schoolList.length;\n    }\n\n    function checkSchoolByEmail(string _schoolEmail) view returns(bool) {\n      return schoolMap[_schoolEmail] != 0;\n    }\n\n    function getSchoolIdByEmail(string _schoolEmail) view returns(uint256) {\n      return schoolMap[_schoolEmail];\n    }\n\n    function getSchoolBySchoolId(uint256 _schoolId) view returns(string, string, string, string, string, string, bool) {\n        require(_schoolId < schoolList.length);\n        School school = schoolList[_schoolId];\n        return (school.schoolName, school.schoolEmail, school.schoolProvince, school.schoolAddress, school.schoolGovernor, school.schoolAgent, school.schoolState);\n    }\n\n    function createProject(uint256 _schoolId, string _projectName, string _projectTarget, uint256 _projectTargetMoney, uint256 _projectFinishTime) {\n        require(_schoolId < schoolList.length);\n        uint256 _projectId = projectCount();\n        Project memory project = Project({projectId:_projectId, schoolId:_schoolId, projectName:_projectName, projectCreateTime:now, projectTarget:_projectTarget, projectTargetMoney:_projectTargetMoney, projectCurrentMoney:0, projectEndorseState:2, projectFinishState:false, projectFinishTime:_projectFinishTime, projectPlanUpNoteTime:0, projectActualUpNoteTime:0, totalEndorsor:0, passEndorsor:0, rejectEndorsor:0});\n        projectList.push(project);\n        schoolProjectMap[_schoolId].push(_projectId);\n        if (_schoolId != 0) {\n            emitEndorse(_projectId);\n        }\n    }\n\n    function emitEndorse(uint256 _projectId) {\n        require(_projectId < projectList.length && _projectId > 0);\n        Project project = projectList[_projectId];\n        School school = schoolList[project.schoolId];\n        uint256[] endorsorList = provinceToEndorsorMap[school.schoolProvince];\n        uint256[] emitEndorsorList;\n        if (endorsorList.length < 3) {\n            for (uint256 i=0; i < endorsorList.length; i++) {\n                emitEndorsorList.push(endorsorList[i]);\n            }\n        }else {\n            uint256 targetEndorsorCount = endorsorList.length*2/3;\n            uint256 len = endorsorList.length;\n            for (uint256 j=0; j < targetEndorsorCount; j++) {\n                uint256 t = random(len);\n                emitEndorsorList.push(endorsorList[t]);\n                for (uint256 k=t; k < endorsorList.length-1; k++) {\n                    endorsorList[k] = endorsorList[k+1];\n                }\n                len--;\n            }\n        }\n        project.totalEndorsor = targetEndorsorCount;\n    }\n\n    function projectCount() view returns(uint256) {\n        return projectList.length;\n    }\n\n    function getProjectByProjectId(uint256 _projectId) view returns(uint256, uint256, string, uint256, string, uint256, uint256, uint256, bool, uint256, uint256, uint256) {\n        require(_projectId > 0 && _projectId < projectList.length);\n        Project project = projectList[_projectId];\n        return (project.projectId, project.schoolId, project.projectName, project.projectCreateTime, project.projectTarget, project.projectTargetMoney, project.projectCurrentMoney, project.projectEndorseState, project.projectFinishState, project.projectFinishTime, project.projectPlanUpNoteTime, project.projectActualUpNoteTime);\n    }\n\n    function getSchoolProjectCounts(uint256 _schoolId) view returns(uint256) {\n        return schoolProjectMap[_schoolId].length;\n    }\n\n    function getProjectIdBySchoolId(uint256 _schoolId, uint256 _schoolProjectId) view returns(uint256) {\n        require(_schoolId < schoolList.length && _schoolProjectId < schoolProjectMap[_schoolProjectId].length);\n        return schoolProjectMap[_schoolId][_schoolProjectId];\n    }\n  \n    // return random[0,n)\n    function random(uint256 n) returns(uint256) {\n        return uint(sha256(now, msg.sender))%n;\n    }\n\n}\n",
  "sourcePath": "/home/hk-journalist/work/code/thunder/truffle/contracts/Main.sol",
  "compiler": {
    "name": "solc",
    "version": "0.4.19+commit.c4cbbb05.Emscripten.clang"
  },
  "schemaVersion": "2.0.0",
  "updatedAt": "2018-06-06T10:12:17.256Z"
}