{
  "contractName": "Main",
  "abi": [
    {
      "inputs": [],
      "payable": false,
      "stateMutability": "nonpayable",
      "type": "constructor"
    },
    {
      "constant": false,
      "inputs": [
        {
          "name": "_userName",
          "type": "bytes32"
        },
        {
          "name": "_userPhone",
          "type": "bytes32"
        },
        {
          "name": "_userPassword",
          "type": "bytes32"
        }
      ],
      "name": "createUser",
      "outputs": [],
      "payable": false,
      "stateMutability": "nonpayable",
      "type": "function"
    },
    {
      "constant": true,
      "inputs": [],
      "name": "userCount",
      "outputs": [
        {
          "name": "",
          "type": "uint256"
        }
      ],
      "payable": false,
      "stateMutability": "view",
      "type": "function"
    },
    {
      "constant": true,
      "inputs": [
        {
          "name": "_userPhone",
          "type": "bytes32"
        }
      ],
      "name": "checkUserByPhone",
      "outputs": [
        {
          "name": "",
          "type": "bool"
        }
      ],
      "payable": false,
      "stateMutability": "view",
      "type": "function"
    },
    {
      "constant": true,
      "inputs": [
        {
          "name": "_userPhone",
          "type": "bytes32"
        }
      ],
      "name": "getUserIdByPhone",
      "outputs": [
        {
          "name": "",
          "type": "uint256"
        }
      ],
      "payable": false,
      "stateMutability": "view",
      "type": "function"
    },
    {
      "constant": false,
      "inputs": [
        {
          "name": "_userId",
          "type": "uint256"
        }
      ],
      "name": "getUserByUserId",
      "outputs": [
        {
          "name": "",
          "type": "uint256"
        },
        {
          "name": "",
          "type": "bytes32"
        },
        {
          "name": "",
          "type": "bytes32"
        }
      ],
      "payable": false,
      "stateMutability": "nonpayable",
      "type": "function"
    },
    {
      "constant": false,
      "inputs": [
        {
          "name": "_userAccount",
          "type": "bytes32"
        },
        {
          "name": "_userPassword",
          "type": "bytes32"
        }
      ],
      "name": "login",
      "outputs": [
        {
          "name": "userType",
          "type": "uint256"
        },
        {
          "name": "userId",
          "type": "uint256"
        }
      ],
      "payable": false,
      "stateMutability": "nonpayable",
      "type": "function"
    },
    {
      "constant": false,
      "inputs": [
        {
          "name": "_schoolEmail",
          "type": "bytes32"
        },
        {
          "name": "_schoolName",
          "type": "bytes32"
        },
        {
          "name": "_schoolPassword",
          "type": "bytes32"
        },
        {
          "name": "_schoolProvince",
          "type": "bytes32"
        },
        {
          "name": "_schoolAddress",
          "type": "bytes32"
        },
        {
          "name": "_schoolGovernor",
          "type": "bytes32"
        },
        {
          "name": "_schoolAgent",
          "type": "bytes32"
        }
      ],
      "name": "createSchool",
      "outputs": [],
      "payable": false,
      "stateMutability": "nonpayable",
      "type": "function"
    },
    {
      "constant": true,
      "inputs": [],
      "name": "schoolCount",
      "outputs": [
        {
          "name": "",
          "type": "uint256"
        }
      ],
      "payable": false,
      "stateMutability": "view",
      "type": "function"
    },
    {
      "constant": true,
      "inputs": [
        {
          "name": "_schoolEmail",
          "type": "bytes32"
        }
      ],
      "name": "checkSchoolByEmail",
      "outputs": [
        {
          "name": "",
          "type": "bool"
        }
      ],
      "payable": false,
      "stateMutability": "view",
      "type": "function"
    },
    {
      "constant": true,
      "inputs": [
        {
          "name": "_schoolEmail",
          "type": "bytes32"
        }
      ],
      "name": "getSchoolIdByEmail",
      "outputs": [
        {
          "name": "",
          "type": "uint256"
        }
      ],
      "payable": false,
      "stateMutability": "view",
      "type": "function"
    },
    {
      "constant": true,
      "inputs": [
        {
          "name": "_schoolId",
          "type": "uint256"
        }
      ],
      "name": "getSchoolBySchoolId",
      "outputs": [
        {
          "name": "",
          "type": "bytes32"
        },
        {
          "name": "",
          "type": "bytes32"
        },
        {
          "name": "",
          "type": "bytes32"
        },
        {
          "name": "",
          "type": "bytes32"
        },
        {
          "name": "",
          "type": "bytes32"
        },
        {
          "name": "",
          "type": "bytes32"
        },
        {
          "name": "",
          "type": "bool"
        }
      ],
      "payable": false,
      "stateMutability": "view",
      "type": "function"
    },
    {
      "constant": false,
      "inputs": [
        {
          "name": "_schoolId",
          "type": "uint256"
        },
        {
          "name": "_projectName",
          "type": "bytes32"
        },
        {
          "name": "_projectTarget",
          "type": "bytes32"
        },
        {
          "name": "_projectTargetMoney",
          "type": "uint256"
        },
        {
          "name": "_projectFinishTime",
          "type": "uint256"
        }
      ],
      "name": "createProject",
      "outputs": [
        {
          "name": "",
          "type": "uint256"
        }
      ],
      "payable": false,
      "stateMutability": "nonpayable",
      "type": "function"
    },
    {
      "constant": true,
      "inputs": [],
      "name": "projectCount",
      "outputs": [
        {
          "name": "",
          "type": "uint256"
        }
      ],
      "payable": false,
      "stateMutability": "view",
      "type": "function"
    },
    {
      "constant": true,
      "inputs": [
        {
          "name": "_projectId",
          "type": "uint256"
        }
      ],
      "name": "getProjectByProjectId",
      "outputs": [
        {
          "name": "",
          "type": "uint256"
        },
        {
          "name": "",
          "type": "uint256"
        },
        {
          "name": "",
          "type": "bytes32"
        },
        {
          "name": "",
          "type": "uint256"
        },
        {
          "name": "",
          "type": "bytes32"
        },
        {
          "name": "",
          "type": "uint256"
        },
        {
          "name": "",
          "type": "uint256"
        },
        {
          "name": "",
          "type": "uint256"
        },
        {
          "name": "",
          "type": "bool"
        },
        {
          "name": "",
          "type": "uint256"
        },
        {
          "name": "",
          "type": "uint256"
        },
        {
          "name": "",
          "type": "uint256"
        }
      ],
      "payable": false,
      "stateMutability": "view",
      "type": "function"
    },
    {
      "constant": true,
      "inputs": [
        {
          "name": "_schoolId",
          "type": "uint256"
        }
      ],
      "name": "getSchoolProjectCounts",
      "outputs": [
        {
          "name": "",
          "type": "uint256"
        }
      ],
      "payable": false,
      "stateMutability": "view",
      "type": "function"
    },
    {
      "constant": true,
      "inputs": [
        {
          "name": "_schoolId",
          "type": "uint256"
        },
        {
          "name": "_schoolProjectId",
          "type": "uint256"
        }
      ],
      "name": "getProjectIdBySchoolId",
      "outputs": [
        {
          "name": "",
          "type": "uint256"
        }
      ],
      "payable": false,
      "stateMutability": "view",
      "type": "function"
    }
  ],
  "bytecode": "0x606060405234156200001057600080fd5b620000757f300000000000000000000000000000000000000000000000000000000000000060006001027f3000000000000000000000000000000000000000000000000000000000000000620001666401000000000262000aca176401000000009004565b6200011a7f3000000000000000000000000000000000000000000000000000000000000000807f3000000000000000000000000000000000000000000000000000000000000000807f3000000000000000000000000000000000000000000000000000000000000000807f30000000000000000000000000000000000000000000000000000000000000006200025264010000000002620007df176401000000009004565b6200015f60007f300000000000000000000000000000000000000000000000000000000000000080600080620003d564010000000002620005e1176401000000009004565b5062000957565b600062000172620005ee565b62000190620005c864010000000002620005bb176401000000009004565b915060806040519081016040528083815260200186600019168152602001856000191681526020018460001916815250905060008054806001018281620001d8919062000620565b916000526020600020906004020160008390919091506000820151816000015560208201518160010190600019169055604082015181600201906000191690556060820151816003019060001916905550505081600160008660001916600019168152602001908152602001600020819055505050505050565b60006200025e62000655565b6200027c620005d464010000000002620005c7176401000000009004565b915061012060405190810160405280838152602001896000191681526020018a600019168152602001886000191681526020018760001916815260200186600019168152602001856000191681526020018460001916815260200160011515815250905060048054806001018281620002f69190620006b9565b91600052602060002090600902016000839091909150600082015181600001556020820151816001019060001916905560408201518160020190600019169055606082015181600301906000191690556080820151816004019060001916905560a0820151816005019060001916905560c0820151816006019060001916905560e082015181600701906000191690556101008201518160080160006101000a81548160ff02191690831515021790555050505081600560008b6000191660001916815260200190815260200160002081905550505050505050505050565b600080620003e2620006ee565b60048054905088101515620003f657600080fd5b62000414620005e164010000000002620005d4176401000000009004565b91506101e06040519081016040528083815260200189815260200188600019168152602001428152602001876000191681526020018681526020016000815260200160028152602001600015158152602001858152602001600081526020016000815260200160008152602001600081526020016000815250905060068054806001018281620004a591906200076d565b91600052602060002090600f02016000839091909150600082015181600001556020820151816001015560408201518160020190600019169055606082015181600301556080820151816004019060001916905560a0820151816005015560c0820151816006015560e082015181600701556101008201518160080160006101000a81548160ff021916908315150217905550610120820151816009015561014082015181600a015561016082015181600b015561018082015181600c01556101a082015181600d01556101c082015181600e0155505050600b60008981526020019081526020016000208054806001018281620005a49190620007a2565b91600052602060002090016000849091909150555060009250505095945050505050565b60008080549050905090565b6000600480549050905090565b6000600680549050905090565b608060405190810160405280600081526020016000801916815260200160008019168152602001600080191681525090565b81548183558181151162000650576004028160040283600052602060002091820191016200064f9190620007d1565b5b505050565b6101206040519081016040528060008152602001600080191681526020016000801916815260200160008019168152602001600080191681526020016000801916815260200160008019168152602001600080191681526020016000151581525090565b815481835581811511620006e957600902816009028360005260206000209182019101620006e8919062000813565b5b505050565b6101e06040519081016040528060008152602001600081526020016000801916815260200160008152602001600080191681526020016000815260200160008152602001600081526020016000151581526020016000815260200160008152602001600081526020016000815260200160008152602001600081525090565b8154818355818115116200079d57600f0281600f0283600052602060002091820191016200079c919062000889565b5b505050565b815481835581811511620007cc57818360005260206000209182019101620007cb91906200092f565b5b505050565b6200081091905b808211156200080c5760008082016000905560018201600090556002820160009055600382016000905550600401620007d8565b5090565b90565b6200088691905b80821115620008825760008082016000905560018201600090556002820160009055600382016000905560048201600090556005820160009055600682016000905560078201600090556008820160006101000a81549060ff0219169055506009016200081a565b5090565b90565b6200092c91905b80821115620009285760008082016000905560018201600090556002820160009055600382016000905560048201600090556005820160009055600682016000905560078201600090556008820160006101000a81549060ff02191690556009820160009055600a820160009055600b820160009055600c820160009055600d820160009055600e82016000905550600f0162000890565b5090565b90565b6200095491905b808211156200095057600081600090555060010162000936565b5090565b90565b61103780620009676000396000f3006060604052600436106100e6576000357c0100000000000000000000000000000000000000000000000000000000900463ffffffff16806307973ccf146100eb57806328d888901461011457806336fbad261461013d5780634120855c146101665780634682e075146101c95780634973551f14610208578063579aa9671461027d578063635a9f22146103125780637e67c8e51461036157806387f3d22314610398578063aff9610114610430578063c89e966614610471578063d452e4a5146104c6578063e0cb859d14610501578063f0aa979614610540578063f4e4477a14610580575b600080fd5b34156100f657600080fd5b6100fe6105bb565b6040518082815260200191505060405180910390f35b341561011f57600080fd5b6101276105c7565b6040518082815260200191505060405180910390f35b341561014857600080fd5b6101506105d4565b6040518082815260200191505060405180910390f35b341561017157600080fd5b6101b3600480803590602001909190803560001916906020019091908035600019169060200190919080359060200190919080359060200190919050506105e1565b6040518082815260200191505060405180910390f35b34156101d457600080fd5b6101ee6004808035600019169060200190919050506107b7565b604051808215151515815260200191505060405180910390f35b341561021357600080fd5b61027b6004808035600019169060200190919080356000191690602001909190803560001916906020019091908035600019169060200190919080356000191690602001909190803560001916906020019091908035600019169060200190919050506107df565b005b341561028857600080fd5b61029e6004808035906020019091905050610948565b604051808860001916600019168152602001876000191660001916815260200186600019166000191681526020018560001916600019168152602001846000191660001916815260200183600019166000191681526020018215151515815260200197505050505050505060405180910390f35b341561031d57600080fd5b610344600480803560001916906020019091908035600019169060200190919050506109bd565b604051808381526020018281526020019250505060405180910390f35b341561036c57600080fd5b6103826004808035906020019091905050610a06565b6040518082815260200191505060405180910390f35b34156103a357600080fd5b6103b96004808035906020019091905050610a26565b604051808d81526020018c81526020018b600019166000191681526020018a81526020018960001916600019168152602001888152602001878152602001868152602001851515151581526020018481526020018381526020018281526020019c5050505050505050505050505060405180910390f35b341561043b57600080fd5b61046f6004808035600019169060200190919080356000191690602001909190803560001916906020019091905050610aca565b005b341561047c57600080fd5b6104926004808035906020019091905050610b9c565b6040518084815260200183600019166000191681526020018260001916600019168152602001935050505060405180910390f35b34156104d157600080fd5b6104eb600480803560001916906020019091905050610bde565b6040518082815260200191505060405180910390f35b341561050c57600080fd5b610526600480803560001916906020019091905050610c03565b604051808215151515815260200191505060405180910390f35b341561054b57600080fd5b61056a6004808035906020019091908035906020019091905050610c2b565b6040518082815260200191505060405180910390f35b341561058b57600080fd5b6105a5600480803560001916906020019091905050610c95565b6040518082815260200191505060405180910390f35b60008080549050905090565b6000600480549050905090565b6000600680549050905090565b6000806105ec610cba565b600480549050881015156105ff57600080fd5b6106076105d4565b91506101e060405190810160405280838152602001898152602001886000191681526020014281526020018760001916815260200186815260200160008152602001600281526020016000151581526020018581526020016000815260200160008152602001600081526020016000815260200160008152509050600680548060010182816106969190610d39565b91600052602060002090600f02016000839091909150600082015181600001556020820151816001015560408201518160020190600019169055606082015181600301556080820151816004019060001916905560a0820151816005015560c0820151816006015560e082015181600701556101008201518160080160006101000a81548160ff021916908315150217905550610120820151816009015561014082015181600a015561016082015181600b015561018082015181600c01556101a082015181600d01556101c082015181600e0155505050600b600089815260200190815260200160002080548060010182816107939190610d6b565b91600052602060002090016000849091909150555060009250505095945050505050565b6000806001600084600019166000191681526020019081526020016000205414159050919050565b60006107e9610d97565b6107f16105c7565b915061012060405190810160405280838152602001896000191681526020018a6000191681526020018860001916815260200187600019168152602001866000191681526020018560001916815260200184600019168152602001600115158152509050600480548060010182816108699190610dfb565b91600052602060002090600902016000839091909150600082015181600001556020820151816001019060001916905560408201518160020190600019169055606082015181600301906000191690556080820151816004019060001916905560a0820151816005019060001916905560c0820151816006019060001916905560e082015181600701906000191690556101008201518160080160006101000a81548160ff02191690831515021790555050505081600560008b6000191660001916815260200190815260200160002081905550505050505050505050565b60008060008060008060008060048981548110151561096357fe5b906000526020600020906009020190508060010154816002015482600401548360050154846006015485600701548660080160009054906101000a900460ff16975097509750975097509750975050919395979092949650565b60008060008060009150600090506109d486610bde565b90506000811415156109ef57600191508181935093506109fd565b600080819150809050935093505b50509250929050565b6000600b6000838152602001908152602001600020805490509050919050565b600080600080600080600080600080600080600060068e815481101515610a4957fe5b90600052602060002090600f02019050806000015481600101548260020154836003015484600401548560050154866006015487600701548860080160009054906101000a900460ff1689600901548a600a01548b600b01549c509c509c509c509c509c509c509c509c509c509c509c505091939597999b5091939597999b565b6000610ad4610e2d565b610adc6105bb565b915060806040519081016040528083815260200186600019168152602001856000191681526020018460001916815250905060008054806001018281610b229190610e5f565b916000526020600020906004020160008390919091506000820151816000015560208201518160010190600019169055604082015181600201906000191690556060820151816003019060001916905550505081600160008660001916600019168152602001908152602001600020819055505050505050565b600080600080600085815481101515610bb157fe5b90600052602060002090600402019050806000015481600101548260020154935093509350509193909250565b6000600160008360001916600019168152602001908152602001600020549050919050565b6000806005600084600019166000191681526020019081526020016000205414159050919050565b600060048054905083108015610c565750600b60008381526020019081526020016000208054905082105b1515610c6157600080fd5b600b600084815260200190815260200160002082815481101515610c8157fe5b906000526020600020900154905092915050565b6000600560008360001916600019168152602001908152602001600020549050919050565b6101e06040519081016040528060008152602001600081526020016000801916815260200160008152602001600080191681526020016000815260200160008152602001600081526020016000151581526020016000815260200160008152602001600081526020016000815260200160008152602001600081525090565b815481835581811511610d6657600f0281600f028360005260206000209182019101610d659190610e91565b5b505050565b815481835581811511610d9257818360005260206000209182019101610d919190610f34565b5b505050565b6101206040519081016040528060008152602001600080191681526020016000801916815260200160008019168152602001600080191681526020016000801916815260200160008019168152602001600080191681526020016000151581525090565b815481835581811511610e2857600902816009028360005260206000209182019101610e279190610f59565b5b505050565b608060405190810160405280600081526020016000801916815260200160008019168152602001600080191681525090565b815481835581811511610e8c57600402816004028360005260206000209182019101610e8b9190610fcc565b5b505050565b610f3191905b80821115610f2d5760008082016000905560018201600090556002820160009055600382016000905560048201600090556005820160009055600682016000905560078201600090556008820160006101000a81549060ff02191690556009820160009055600a820160009055600b820160009055600c820160009055600d820160009055600e82016000905550600f01610e97565b5090565b90565b610f5691905b80821115610f52576000816000905550600101610f3a565b5090565b90565b610fc991905b80821115610fc55760008082016000905560018201600090556002820160009055600382016000905560048201600090556005820160009055600682016000905560078201600090556008820160006101000a81549060ff021916905550600901610f5f565b5090565b90565b61100891905b808211156110045760008082016000905560018201600090556002820160009055600382016000905550600401610fd2565b5090565b905600a165627a7a72305820430e430b367fabe3452029310d3f1e6510f77298f08abf3a56c2be06eb1045540029",
  "source": "pragma solidity ^0.4.16;\n\ncontract Main{\n\n  struct User{\n    uint256 userId;\n    bytes32 userName;\n    bytes32 userPhone;\n    bytes32 userPassword;\n  }\n\n\n  struct Endorsor{\n    uint256 endorsorId;\n    bytes32 endorsorOrg;//背书节点所属机构\n    bytes32 endorsorProvince;\n    bytes32 endorsorEmail;\n    bytes32 endorsorPassword;\n    EndorseItem[] endorseRecord;\n  }\n\n  struct School{\n    uint256 schoolId;\n    bytes32 schoolName;\n    bytes32 schoolEmail;\n    bytes32 schoolPassword;\n    bytes32 schoolProvince;\n    bytes32 schoolAddress;\n    bytes32 schoolGovernor;//主管部门\n    bytes32 schoolAgent;//代理人负责人\n    bool schoolState;//是否可以发起项目\n  }\n\n  struct Project{\n    uint256 projectId;\n    uint256 schoolId;\n    bytes32 projectName;\n    uint256 projectCreateTime;\n    bytes32 projectTarget;//项目用途\n    uint256 projectTargetMoney;\n    uint256 projectCurrentMoney;\n    uint256 projectEndorseState;//0 通过 1 未通过 2 pending\n    bool projectFinishState;\n    uint256 projectFinishTime;\n    uint256 projectPlanUpNoteTime;//计划上传票据时间\n    uint256 projectActualUpNoteTime;//实际计划上传票据时间\n    uint256 totalEndorsor;\n    uint256 passEndorsor;\n    uint256 rejectEndorsor;\n  }\n\n\n\n\n  struct Denote {\n    uint256 denoteId;//捐赠id\n    uint256 userId;//捐赠人id\n    uint256 projectId;//捐赠项目id\n    uint256 denoteMoney;//捐了多少钱\n    bytes32 denoteTime;//捐赠时间\n  }\n\n\n  struct EndorseItem{\n    uint256 endorseItemId;\n    uint256 projectId;\n    uint256 endorsorId;\n    uint256 operate;//{0:未处理 1：通过 2：拒绝}\n  }\n\n\n  User[] userList;\n  mapping(bytes32=>uint256) userMap;//key是手机号\n\n  Endorsor[] endorsorList;\n  mapping(bytes32=>uint256) endorsorMap;//key是邮箱 value是projectId\n\n  School[] schoolList;\n  mapping(bytes32=>uint256)schoolMap;//key是邮箱\n\n  Project[] projectList;\n\n  Denote[] denoteList;\n  mapping(uint256=>Denote[]) userDenoteMap;//用户捐赠记录\n  mapping(uint256=>Denote[]) projectDenoteMap;//项目获捐记录。\n  mapping(uint256=>EndorseItem[]) endorseItemMap;//背书节点背书记录\n  mapping(uint256=>uint256[]) schoolProjectMap;\n  mapping(uint256=>bytes32[]) projectNoteUrlMap;\n\n    function Main() {\n        createUser(\"0\", 0, \"0\");\n        createSchool(\"0\", \"0\", \"0\", \"0\", \"0\", \"0\", \"0\"); \n        createProject(0, \"0\", \"0\", 0, 0);\n    }\n\n    function createUser(bytes32 _userName, bytes32 _userPhone, bytes32 _userPassword) {\n        uint256 _userId = userCount();\n        User memory user = User({userId:_userId, userName:_userName, userPhone:_userPhone, userPassword:_userPassword});\n        userList.push(user);\n        userMap[_userPhone] = _userId;\n    }\n\n    function userCount() view returns(uint256) {\n        return userList.length;\n    }\n\n    function checkUserByPhone(bytes32 _userPhone) view returns(bool) {\n        return userMap[_userPhone] != 0;\n    }\n\n    function getUserIdByPhone(bytes32 _userPhone) view returns(uint256){\n        return userMap[_userPhone];\n    }\n\n    function getUserByUserId(uint256 _userId) returns(uint256, bytes32, bytes32){\n        User user = userList[_userId];\n        return(user.userId, user.userName, user.userPhone);\n    }\n\n    function login(bytes32 _userAccount, bytes32 _userPassword) returns(uint256 userType, uint256 userId){\n        uint256 _userType = 0;\n        uint256 _userId = 0;\n        _userId = getUserIdByPhone(_userAccount);\n        if (_userId != 0) {\n            _userType = 1;\n            return (_userType, _userId);\n        }\n        return (0, 0);\n    }\n  // /**\n  // * returns {1:捐多了 0:success}\n  // **/\n  // function userDenote(uint256 _userId,uint256 _projectId,uint256 _denoteMoney) returns(uint256){\n  //   Project project = projectList[_projectId];\n  //   if(project.projectCurrentMoney +_denoteMoney > project.projectTargetMoney){\n  //     return 1;\n  //   }\n  //   uint256 _denoteId = denoteCount();\n  //   Denote memory denote = Denote({denoteId:_denoteId,userId:_userId,projectId:_projectId,denoteMoney:_denoteMoney,denoteTime:now});\n  //   denoteList.push(denote);\n  //   userDenoteMap[_userId].push(denote);\n  //   projectDenoteMap[_projectId].push(denote);\n  //   project.projectCurrentMoney += _denoteMoney;\n  //   return 0;\n  // }\n\n  // function getDenoteListByUserId(uint256 _userId,uint _beginId,uint _endId) returns(uint256[],uint256[],uint256[],uint256[]){\n  //   Denote[] denoteList = userDenoteMap[_userId];\n  //   uint256[] denoteIdList;\n  //   uint256[] projectIdList;\n  //   uint256[] denoteMoneyList;\n  //   uint256[] denoteTimeList;\n  //   if(denoteList.length<=_beginId){\n  //     _beginId = denoteList.length-1;\n  //   }\n  //   if(denoteList.length<=_endId){\n  //     _endId = denoteList.length-1;\n  //   }\n  //   for(uint256 i=_beginId;i<=_endId;i++){\n  //     Denote denote = denoteList[i];\n  //     denoteIdList.push(denote.denoteId);\n  //     projectIdList.push(denote.projectId);\n  //     denoteMoneyList.push(denote.denoteMoney);\n  //     denoteTimeList.push(denote.denoteTime);\n  //   }\n  //   return (denoteIdList,projectIdList,denote.projectId,denoteMoneyList,denoteTimeList);\n  // }\n  // ///////////////////////////////////////////////////////////////////////////////////////////////////\n  // /**\n  // * @parm:bytes32 _endorsorOrg, bytes32 _endorsorProvince, bytes32 _endorsorEmail, bytes32 _endorsorPassword\n  // * @return:uint256 {0:success,1:userPhone has been registered}\n  // **/\n  // function createEndorsor(bytes32 _endorsorOrg, bytes32 _endorsorProvince, bytes32 _endorsorEmail, bytes32 _endorsorPassword ){\n  //   if(checkEndorsorByEmail(_endorsorEmail)){\n  //     return 1;\n  //   }\n  //   uint256 _endorsorId = endorsorCount();\n  //   User memory user = User({userId:_userId,userName:userName,userPassword:_userPassword});\n  //   userList.push(user);\n  //   userMap[_userPhone] = user;\n  //   return 0;\n  // }\n\n\n  // function endorsorCount() view returns(uint256){\n  //   return endorsorList.length;\n  // }\n\n\n  // function checkEndorsorByEmail(uint256 _endorsorEmail) view returns(bool){\n  //   return endorsorMap[_endorsorEmail].endorsorId != 0;\n  // }\n\n  // function getEndorsorIdByEmail(bytes32 _endorsorEmail) view returns(){\n  //   return endorsorMap[_endorsorEmail].endorsorId;\n\n  // }\n\n  // function getEndorsorByEndorsorId(uint256 _endorsorId) view returns(uint256,bytes32,bytes32,bytes32){\n  //   Endorsor _endorsor =  endorsorList[_endorsorId];\n  //   return (_endorsor.endorsorId,_endorsor.endorsorOrg,_endorsor.endorsorProvince,_endorsor.endorsorEmail);\n  // }\n\n  // function dealEndorse(uint256 _projectId,uint256 _endorsorId, uint256 _operate){\n  //   createEndorseItem(_projectId,_endorsorId,_operate);\n  // }\n\n  // function getEndorseListByEndorsorId(uint256 _endorsorId) view returns (uint256[],uint256[],uint256[]){\n  //   EndorseItem[] _endorseItemList = endorseItemMap[_endorsorId];\n  //   uint256[] _projectIdList;\n  //   uint256[] _endorseIdList;\n  //   uint256[] _operateList;\n  //   for(uint256 i=0;i<_endorseItemList.list;i++){\n  //     _projectIdList.push(_endorseItemList[i].projectId);\n  //     _endorseIdList.push(_endorseItemList[i].endorseId);\n  //     _operateList.push(_endorseItemList[i].operate);\n  //   }\n  //   return (_projectIdList,_endorseIdList,_operateList);\n  // }\n  // function createEndorseItem(uint256 _projectId, uint256 _endorsorId,uint256 _operate){\n  //   Endorsor _endorsor =  endorsorList[_endorsorId];\n  //   uint256 _endorseItemCount = _endorsor.endorseRecord.length;\n  //   EndorseItem endorseItem = EndorseItem({endorseItemId:_endorseItemCount,projectId:_projectId,endorsorId:_endorsorId,operate:_operate});\n  //   endorseItemMap[_endorsorId].push(endorseItem);\n  // }\n  // ///////////////////////////////////////////////////////////////////////////////////////////////////////\n    \n    function createSchool(bytes32 _schoolEmail, bytes32 _schoolName, bytes32 _schoolPassword, bytes32 _schoolProvince, bytes32 _schoolAddress, bytes32 _schoolGovernor, bytes32 _schoolAgent) {\n        uint256 _schoolId = schoolCount();\n        School memory school = School({schoolId:_schoolId, schoolName:_schoolName, schoolEmail:_schoolEmail, schoolPassword:_schoolPassword, schoolProvince:_schoolProvince, schoolAddress:_schoolAddress, schoolGovernor:_schoolGovernor, schoolAgent:_schoolAgent, schoolState:true});\n        schoolList.push(school);\n        schoolMap[_schoolEmail] = _schoolId;\n    }\n\n    function schoolCount() view returns(uint256) {\n        return schoolList.length;\n    }\n\n    function checkSchoolByEmail(bytes32 _schoolEmail) view returns(bool){\n      return schoolMap[_schoolEmail] != 0;\n    }\n\n    function getSchoolIdByEmail(bytes32 _schoolEmail) view returns(uint256) {\n      return schoolMap[_schoolEmail];\n    }\n\n    function getSchoolBySchoolId(uint256 _schoolId) view returns(bytes32, bytes32, bytes32, bytes32, bytes32, bytes32, bool) {\n        School school = schoolList[_schoolId];\n        return (school.schoolName, school.schoolEmail, school.schoolProvince, school.schoolAddress, school.schoolGovernor, school.schoolAgent, school.schoolState);\n    }\n\n    function createProject(uint256 _schoolId, bytes32 _projectName, bytes32 _projectTarget, uint256 _projectTargetMoney, uint256 _projectFinishTime) returns(uint256) {\n        require(_schoolId < schoolList.length);\n        uint256 _projectId = projectCount();\n        Project memory project = Project({projectId:_projectId, schoolId:_schoolId, projectName:_projectName, projectCreateTime:now, projectTarget:_projectTarget, projectTargetMoney:_projectTargetMoney, projectCurrentMoney:0, projectEndorseState:2, projectFinishState:false, projectFinishTime:_projectFinishTime, projectPlanUpNoteTime:0, projectActualUpNoteTime:0, totalEndorsor:0, passEndorsor:0, rejectEndorsor:0});\n        projectList.push(project);\n        schoolProjectMap[_schoolId].push(_projectId);\n        return 0;\n    }\n\n    function projectCount() view returns(uint256) {\n        return projectList.length;\n    }\n\n    function getProjectByProjectId(uint256 _projectId) view returns(uint256, uint256, bytes32, uint256, bytes32, uint256, uint256, uint256, bool, uint256, uint256, uint256) {\n        Project project = projectList[_projectId];\n        return (project.projectId, project.schoolId, project.projectName, project.projectCreateTime, project.projectTarget, project.projectTargetMoney, project.projectCurrentMoney, project.projectEndorseState, project.projectFinishState, project.projectFinishTime, project.projectPlanUpNoteTime, project.projectActualUpNoteTime);\n    }\n\n    function getSchoolProjectCounts(uint256 _schoolId) view returns(uint256) {\n        return schoolProjectMap[_schoolId].length;\n    }\n\n    function getProjectIdBySchoolId(uint256 _schoolId, uint256 _schoolProjectId) view returns(uint256) {\n        require(_schoolId < schoolList.length && _schoolProjectId < schoolProjectMap[_schoolProjectId].length);\n        return schoolProjectMap[_schoolId][_schoolProjectId];\n    }\n  \n\n\n\n  // ///////////////////////////////////////////////////////////////////////////////////////////////////////\n\n  // ///////////////////////////////////////////////\n  // function denoteCount() returns(uint256){\n  //   return denoteList.length;\n  // }\n}\n",
  "sourcePath": "/home/hk-journalist/work/code/thunder/truffle/contracts/Main.sol",
  "compiler": {
    "name": "solc",
    "version": "0.4.19+commit.c4cbbb05.Emscripten.clang"
  },
  "schemaVersion": "2.0.0",
  "updatedAt": "2018-06-04T02:26:35.035Z"
}