{
  "contractName": "Main",
  "abi": [
    {
      "inputs": [],
      "payable": false,
      "stateMutability": "nonpayable",
      "type": "constructor"
    },
    {
      "constant": true,
      "inputs": [
        {
          "name": "userId",
          "type": "uint256"
        }
      ],
      "name": "getUserDenoteCount",
      "outputs": [
        {
          "name": "",
          "type": "uint256"
        }
      ],
      "payable": false,
      "stateMutability": "view",
      "type": "function"
    },
    {
      "constant": true,
      "inputs": [
        {
          "name": "projectId",
          "type": "uint256"
        }
      ],
      "name": "getProjectDenoteCount",
      "outputs": [
        {
          "name": "",
          "type": "uint256"
        }
      ],
      "payable": false,
      "stateMutability": "view",
      "type": "function"
    },
    {
      "constant": true,
      "inputs": [
        {
          "name": "endorseId",
          "type": "uint256"
        }
      ],
      "name": "getEndorseItemRecord",
      "outputs": [
        {
          "name": "",
          "type": "uint256"
        }
      ],
      "payable": false,
      "stateMutability": "view",
      "type": "function"
    },
    {
      "constant": true,
      "inputs": [
        {
          "name": "schoolId",
          "type": "uint256"
        }
      ],
      "name": "getSchoolProjectCount",
      "outputs": [
        {
          "name": "",
          "type": "uint256"
        }
      ],
      "payable": false,
      "stateMutability": "view",
      "type": "function"
    },
    {
      "constant": false,
      "inputs": [
        {
          "name": "_userName",
          "type": "string"
        },
        {
          "name": "_userPhone",
          "type": "string"
        },
        {
          "name": "_userPassword",
          "type": "string"
        }
      ],
      "name": "createUser",
      "outputs": [],
      "payable": false,
      "stateMutability": "nonpayable",
      "type": "function"
    },
    {
      "constant": true,
      "inputs": [],
      "name": "getBytes32",
      "outputs": [
        {
          "name": "",
          "type": "string"
        }
      ],
      "payable": false,
      "stateMutability": "view",
      "type": "function"
    },
    {
      "constant": true,
      "inputs": [],
      "name": "userCount",
      "outputs": [
        {
          "name": "",
          "type": "uint256"
        }
      ],
      "payable": false,
      "stateMutability": "view",
      "type": "function"
    },
    {
      "constant": true,
      "inputs": [
        {
          "name": "_userPhone",
          "type": "string"
        }
      ],
      "name": "checkUserByPhone",
      "outputs": [
        {
          "name": "",
          "type": "bool"
        }
      ],
      "payable": false,
      "stateMutability": "view",
      "type": "function"
    },
    {
      "constant": true,
      "inputs": [
        {
          "name": "_userPhone",
          "type": "string"
        }
      ],
      "name": "getUserIdByPhone",
      "outputs": [
        {
          "name": "",
          "type": "uint256"
        }
      ],
      "payable": false,
      "stateMutability": "view",
      "type": "function"
    },
    {
      "constant": true,
      "inputs": [
        {
          "name": "_userId",
          "type": "uint256"
        }
      ],
      "name": "getUserByUserId",
      "outputs": [
        {
          "name": "",
          "type": "uint256"
        },
        {
          "name": "",
          "type": "string"
        },
        {
          "name": "",
          "type": "string"
        }
      ],
      "payable": false,
      "stateMutability": "view",
      "type": "function"
    },
    {
      "constant": true,
      "inputs": [
        {
          "name": "_userAccount",
          "type": "string"
        },
        {
          "name": "_userPassword",
          "type": "string"
        }
      ],
      "name": "login",
      "outputs": [
        {
          "name": "",
          "type": "uint256"
        },
        {
          "name": "",
          "type": "uint256"
        }
      ],
      "payable": false,
      "stateMutability": "view",
      "type": "function"
    },
    {
      "constant": false,
      "inputs": [
        {
          "name": "_userId",
          "type": "uint256"
        },
        {
          "name": "_projectId",
          "type": "uint256"
        },
        {
          "name": "_denoteMoney",
          "type": "uint256"
        }
      ],
      "name": "userDenote",
      "outputs": [
        {
          "name": "",
          "type": "uint256"
        }
      ],
      "payable": false,
      "stateMutability": "nonpayable",
      "type": "function"
    },
    {
      "constant": true,
      "inputs": [],
      "name": "denoteCount",
      "outputs": [
        {
          "name": "",
          "type": "uint256"
        }
      ],
      "payable": false,
      "stateMutability": "view",
      "type": "function"
    },
    {
      "constant": true,
      "inputs": [
        {
          "name": "_userId",
          "type": "uint256"
        },
        {
          "name": "_userDenoteId",
          "type": "uint256"
        }
      ],
      "name": "getDenoteByUserId",
      "outputs": [
        {
          "name": "",
          "type": "uint256"
        },
        {
          "name": "",
          "type": "uint256"
        },
        {
          "name": "",
          "type": "uint256"
        },
        {
          "name": "",
          "type": "uint256"
        }
      ],
      "payable": false,
      "stateMutability": "view",
      "type": "function"
    },
    {
      "constant": false,
      "inputs": [
        {
          "name": "_endorsorOrg",
          "type": "string"
        },
        {
          "name": "_endorsorProvince",
          "type": "string"
        },
        {
          "name": "_endorsorEmail",
          "type": "string"
        },
        {
          "name": "_endorsorPassword",
          "type": "string"
        }
      ],
      "name": "createEndorsor",
      "outputs": [],
      "payable": false,
      "stateMutability": "nonpayable",
      "type": "function"
    },
    {
      "constant": true,
      "inputs": [],
      "name": "endorsorCount",
      "outputs": [
        {
          "name": "",
          "type": "uint256"
        }
      ],
      "payable": false,
      "stateMutability": "view",
      "type": "function"
    },
    {
      "constant": true,
      "inputs": [
        {
          "name": "_endorsorEmail",
          "type": "string"
        }
      ],
      "name": "checkEndorsorByEmail",
      "outputs": [
        {
          "name": "",
          "type": "bool"
        }
      ],
      "payable": false,
      "stateMutability": "view",
      "type": "function"
    },
    {
      "constant": true,
      "inputs": [
        {
          "name": "_endorsorEmail",
          "type": "string"
        }
      ],
      "name": "getEndorsorIdByEmail",
      "outputs": [
        {
          "name": "",
          "type": "uint256"
        }
      ],
      "payable": false,
      "stateMutability": "view",
      "type": "function"
    },
    {
      "constant": true,
      "inputs": [
        {
          "name": "_endorsorId",
          "type": "uint256"
        }
      ],
      "name": "getEndorsorByEndorsorId",
      "outputs": [
        {
          "name": "",
          "type": "uint256"
        },
        {
          "name": "",
          "type": "string"
        },
        {
          "name": "",
          "type": "string"
        },
        {
          "name": "",
          "type": "string"
        }
      ],
      "payable": false,
      "stateMutability": "view",
      "type": "function"
    },
    {
      "constant": true,
      "inputs": [
        {
          "name": "_endorsorId",
          "type": "uint256"
        },
        {
          "name": "_endorseItemIndex",
          "type": "uint256"
        }
      ],
      "name": "getEndorseByEndorsorId",
      "outputs": [
        {
          "name": "",
          "type": "uint256"
        },
        {
          "name": "",
          "type": "uint256"
        },
        {
          "name": "",
          "type": "int256"
        }
      ],
      "payable": false,
      "stateMutability": "view",
      "type": "function"
    },
    {
      "constant": false,
      "inputs": [
        {
          "name": "_projectId",
          "type": "uint256"
        },
        {
          "name": "_endorsorId",
          "type": "uint256"
        },
        {
          "name": "_score",
          "type": "int256"
        }
      ],
      "name": "createEndorseItem",
      "outputs": [],
      "payable": false,
      "stateMutability": "nonpayable",
      "type": "function"
    },
    {
      "constant": true,
      "inputs": [
        {
          "name": "_endorsorId",
          "type": "uint256"
        }
      ],
      "name": "getEndorseItemCountOfEndorsor",
      "outputs": [
        {
          "name": "",
          "type": "uint256"
        }
      ],
      "payable": false,
      "stateMutability": "view",
      "type": "function"
    },
    {
      "constant": false,
      "inputs": [
        {
          "name": "_schoolEmail",
          "type": "string"
        },
        {
          "name": "_schoolName",
          "type": "string"
        },
        {
          "name": "_schoolPassword",
          "type": "string"
        },
        {
          "name": "_schoolProvince",
          "type": "string"
        },
        {
          "name": "_schoolAddress",
          "type": "string"
        },
        {
          "name": "_schoolGovernor",
          "type": "string"
        },
        {
          "name": "_schoolAgent",
          "type": "string"
        }
      ],
      "name": "createSchool",
      "outputs": [],
      "payable": false,
      "stateMutability": "nonpayable",
      "type": "function"
    },
    {
      "constant": true,
      "inputs": [],
      "name": "schoolCount",
      "outputs": [
        {
          "name": "",
          "type": "uint256"
        }
      ],
      "payable": false,
      "stateMutability": "view",
      "type": "function"
    },
    {
      "constant": true,
      "inputs": [
        {
          "name": "_schoolEmail",
          "type": "string"
        }
      ],
      "name": "checkSchoolByEmail",
      "outputs": [
        {
          "name": "",
          "type": "bool"
        }
      ],
      "payable": false,
      "stateMutability": "view",
      "type": "function"
    },
    {
      "constant": true,
      "inputs": [
        {
          "name": "_schoolEmail",
          "type": "string"
        }
      ],
      "name": "getSchoolIdByEmail",
      "outputs": [
        {
          "name": "",
          "type": "uint256"
        }
      ],
      "payable": false,
      "stateMutability": "view",
      "type": "function"
    },
    {
      "constant": true,
      "inputs": [
        {
          "name": "_schoolId",
          "type": "uint256"
        }
      ],
      "name": "getSchoolBySchoolId",
      "outputs": [
        {
          "name": "",
          "type": "string"
        },
        {
          "name": "",
          "type": "string"
        },
        {
          "name": "",
          "type": "string"
        },
        {
          "name": "",
          "type": "string"
        },
        {
          "name": "",
          "type": "string"
        },
        {
          "name": "",
          "type": "string"
        },
        {
          "name": "",
          "type": "bool"
        }
      ],
      "payable": false,
      "stateMutability": "view",
      "type": "function"
    },
    {
      "constant": false,
      "inputs": [
        {
          "name": "_schoolId",
          "type": "uint256"
        },
        {
          "name": "_projectName",
          "type": "string"
        },
        {
          "name": "_projectTarget",
          "type": "string"
        },
        {
          "name": "_projectTargetMoney",
          "type": "uint256"
        },
        {
          "name": "_projectFinishTime",
          "type": "uint256"
        }
      ],
      "name": "createProject",
      "outputs": [],
      "payable": false,
      "stateMutability": "nonpayable",
      "type": "function"
    },
    {
      "constant": false,
      "inputs": [
        {
          "name": "_projectId",
          "type": "uint256"
        }
      ],
      "name": "emitEndorse",
      "outputs": [],
      "payable": false,
      "stateMutability": "nonpayable",
      "type": "function"
    },
    {
      "constant": true,
      "inputs": [],
      "name": "projectCount",
      "outputs": [
        {
          "name": "",
          "type": "uint256"
        }
      ],
      "payable": false,
      "stateMutability": "view",
      "type": "function"
    },
    {
      "constant": true,
      "inputs": [
        {
          "name": "_projectId",
          "type": "uint256"
        }
      ],
      "name": "getProjectByProjectId",
      "outputs": [
        {
          "name": "",
          "type": "uint256"
        },
        {
          "name": "",
          "type": "uint256"
        },
        {
          "name": "",
          "type": "string"
        },
        {
          "name": "",
          "type": "uint256"
        },
        {
          "name": "",
          "type": "string"
        },
        {
          "name": "",
          "type": "uint256"
        },
        {
          "name": "",
          "type": "uint256"
        },
        {
          "name": "",
          "type": "uint256"
        },
        {
          "name": "",
          "type": "bool"
        },
        {
          "name": "",
          "type": "uint256"
        },
        {
          "name": "",
          "type": "uint256"
        },
        {
          "name": "",
          "type": "uint256"
        }
      ],
      "payable": false,
      "stateMutability": "view",
      "type": "function"
    },
    {
      "constant": true,
      "inputs": [
        {
          "name": "_schoolId",
          "type": "uint256"
        }
      ],
      "name": "getSchoolProjectCounts",
      "outputs": [
        {
          "name": "",
          "type": "uint256"
        }
      ],
      "payable": false,
      "stateMutability": "view",
      "type": "function"
    },
    {
      "constant": true,
      "inputs": [
        {
          "name": "_schoolId",
          "type": "uint256"
        },
        {
          "name": "_num",
          "type": "uint256"
        }
      ],
      "name": "getSchoolProjectidByNum",
      "outputs": [
        {
          "name": "",
          "type": "uint256"
        }
      ],
      "payable": false,
      "stateMutability": "view",
      "type": "function"
    },
    {
      "constant": true,
      "inputs": [
        {
          "name": "_schoolId",
          "type": "uint256"
        },
        {
          "name": "_schoolProjectId",
          "type": "uint256"
        }
      ],
      "name": "getProjectIdBySchoolId",
      "outputs": [
        {
          "name": "",
          "type": "uint256"
        }
      ],
      "payable": false,
      "stateMutability": "view",
      "type": "function"
    },
    {
      "constant": true,
      "inputs": [
        {
          "name": "n",
          "type": "uint256"
        }
      ],
      "name": "random",
      "outputs": [
        {
          "name": "",
          "type": "uint256"
        }
      ],
      "payable": false,
      "stateMutability": "view",
      "type": "function"
    },
    {
      "constant": false,
      "inputs": [
        {
          "name": "strA",
          "type": "string"
        },
        {
          "name": "strB",
          "type": "string"
        }
      ],
      "name": "strEqual",
      "outputs": [
        {
          "name": "",
          "type": "bool"
        }
      ],
      "payable": false,
      "stateMutability": "nonpayable",
      "type": "function"
    }
  ],
  "bytecode": "0x60806040523480156200001157600080fd5b50620000cd6040805190810160405280600181526020017f30000000000000000000000000000000000000000000000000000000000000008152506040805190810160405280600181526020017f30000000000000000000000000000000000000000000000000000000000000008152506040805190810160405280600181526020017f3000000000000000000000000000000000000000000000000000000000000000815250620003e1640100000000026401000000009004565b620002606040805190810160405280600181526020017f30000000000000000000000000000000000000000000000000000000000000008152506040805190810160405280600181526020017f30000000000000000000000000000000000000000000000000000000000000008152506040805190810160405280600181526020017f30000000000000000000000000000000000000000000000000000000000000008152506040805190810160405280600181526020017f30000000000000000000000000000000000000000000000000000000000000008152506040805190810160405280600181526020017f30000000000000000000000000000000000000000000000000000000000000008152506040805190810160405280600181526020017f30000000000000000000000000000000000000000000000000000000000000008152506040805190810160405280600181526020017f300000000000000000000000000000000000000000000000000000000000000081525062000564640100000000026401000000009004565b620002ea60006040805190810160405280600181526020017f30000000000000000000000000000000000000000000000000000000000000008152506040805190810160405280600181526020017f3000000000000000000000000000000000000000000000000000000000000000815250600080620007aa640100000000026401000000009004565b620003db6040805190810160405280600181526020017f30000000000000000000000000000000000000000000000000000000000000008152506040805190810160405280600181526020017f30000000000000000000000000000000000000000000000000000000000000008152506040805190810160405280600181526020017f30000000000000000000000000000000000000000000000000000000000000008152506040805190810160405280600181526020017f3000000000000000000000000000000000000000000000000000000000000000815250620009d0640100000000026401000000009004565b62001344565b6000620003ed6200111d565b620004078462000c10640100000000026401000000009004565b1515156200041457600080fd5b6200042d62000c8a640100000000026401000000009004565b915060806040519081016040528083815260200186815260200185815260200184815250905060008190806001815401808255809150509060018203906000526020600020906004020160009091929091909150600082015181600001556020820151816001019080519060200190620004a992919062001146565b506040820151816002019080519060200190620004c892919062001146565b506060820151816003019080519060200190620004e792919062001146565b50505050816001856040518082805190602001908083835b602083101515620005265780518252602082019150602081019050602083039250620004ff565b6001836020036101000a0380198251168184511680821785525050505050509050019150509081526020016040518091039020819055505050505050565b600062000570620011cd565b6200058a8962000c96640100000000026401000000009004565b1515156200059757600080fd5b620005b062000d10640100000000026401000000009004565b9150610120604051908101604052808381526020018981526020018a8152602001888152602001878152602001868152602001858152602001848152602001600115158152509050600481908060018154018082558091505090600182039060005260206000209060090201600090919290919091506000820151816000015560208201518160010190805190602001906200064e92919062001146565b5060408201518160020190805190602001906200066d92919062001146565b5060608201518160030190805190602001906200068c92919062001146565b506080820151816004019080519060200190620006ab92919062001146565b5060a0820151816005019080519060200190620006ca92919062001146565b5060c0820151816006019080519060200190620006e992919062001146565b5060e08201518160070190805190602001906200070892919062001146565b506101008201518160080160006101000a81548160ff0219169083151502179055505050508160058a6040518082805190602001908083835b60208310151562000768578051825260208201915060208101905060208303925062000741565b6001836020036101000a038019825116818451168082178552505050505050905001915050908152602001604051809103902081905550505050505050505050565b6000620007b66200121c565b60048054905087101515620007ca57600080fd5b620007e362000d1d640100000000026401000000009004565b91506101e060405190810160405280838152602001888152602001878152602001428152602001868152602001858152602001600081526020016002815260200160001515815260200184815260200160008152602001600081526020016000815260200160008152602001600081525090506006819080600181540180825580915050906001820390600052602060002090600f02016000909192909190915060008201518160000155602082015181600101556040820151816002019080519060200190620008b692919062001146565b50606082015181600301556080820151816004019080519060200190620008df92919062001146565b5060a0820151816005015560c0820151816006015560e082015181600701556101008201518160080160006101000a81548160ff021916908315150217905550610120820151816009015561014082015181600a015561016082015181600b015561018082015181600c01556101a082015181600d01556101c082015181600e0155505050600c6000888152602001908152602001600020829080600181540180825580915050906001820390600052602060002001600090919290919091505550600087141515620009c757620009c68262000d2a640100000000026401000000009004565b5b50505050505050565b6000620009dc62001295565b620009f68462000fe3640100000000026401000000009004565b15151562000a0357600080fd5b62000a1c6200105d640100000000026401000000009004565b915060a0604051908101604052808381526020018781526020018681526020018581526020018481525090506002819080600181540180825580915050906001820390600052602060002090600502016000909192909190915060008201518160000155602082015181600101908051906020019062000a9e92919062001146565b50604082015181600201908051906020019062000abd92919062001146565b50606082015181600301908051906020019062000adc92919062001146565b50608082015181600401908051906020019062000afb92919062001146565b50505050816003856040518082805190602001908083835b60208310151562000b3a578051825260208201915060208101905060208303925062000b13565b6001836020036101000a038019825116818451168082178552505050505050905001915050908152602001604051809103902081905550600e856040518082805190602001908083835b60208310151562000bab578051825260208201915060208101905060208303925062000b84565b6001836020036101000a0380198251168184511680821785525050505050509050019150509081526020016040518091039020829080600181540180825580915050906001820390600052602060002001600090919290919091505550505050505050565b6000806001836040518082805190602001908083835b60208310151562000c4d578051825260208201915060208101905060208303925062000c26565b6001836020036101000a03801982511681845116808217855250505050505090500191505090815260200160405180910390205414159050919050565b60008080549050905090565b6000806005836040518082805190602001908083835b60208310151562000cd3578051825260208201915060208101905060208303925062000cac565b6001836020036101000a03801982511681845116808217855250505050505090500191505090815260200160405180910390205414159050919050565b6000600480549050905090565b6000600680549050905090565b6000806000806000806000806000806006805490508b10801562000d4e575060008b115b151562000d5a57600080fd5b60068b81548110151562000d6a57fe5b90600052602060002090600f0201995060048a6001015481548110151562000d8e57fe5b90600052602060002090600902019850600e89600401604051808280546001816001161561010002031660029004801562000e035780601f1062000de057610100808354040283529182019162000e03565b820191906000526020600020905b81548152906001019060200180831162000dee575b50509150509081526020016040518091039020975060038880549050101562000e9057600095505b878054905086101562000e8a5786888781548110151562000e4857fe5b90600052602060002001549080600181540180825580915050906001820390600052602060002001600090919290919091505550858060010196505062000e2b565b62000f90565b6003600289805490500281151562000ea457fe5b04945087805490509350600092505b8483101562000f8f5762000ed6846200106a640100000000026401000000009004565b915086888381548110151562000ee857fe5b906000526020600020015490806001815401808255809150509060018203906000526020600020016000909192909190915055508190505b600188805490500381101562000f7857876001820181548110151562000f4257fe5b9060005260206000200154888281548110151562000f5c57fe5b9060005260206000200181905550808060010191505062000f20565b838060019003945050828060010193505062000eb3565b5b86600f60008d815260200190815260200160002090805462000fb4929190620012c5565b5086805490508a600d018190555060008a600c018190555060008a600e01819055505050505050505050505050565b6000806003836040518082805190602001908083835b60208310151562001020578051825260208201915060208101905060208303925062000ff9565b6001836020036101000a03801982511681845116808217855250505050505090500191505090815260200160405180910390205414159050919050565b6000600280549050905090565b60008160024233604051808381526020018273ffffffffffffffffffffffffffffffffffffffff1673ffffffffffffffffffffffffffffffffffffffff166c01000000000000000000000000028152601401925050506020604051808303816000865af1158015620010e0573d6000803e3d6000fd5b5050506040513d6020811015620010f657600080fd5b8101908080519060200190929190505050600190048115156200111557fe5b069050919050565b608060405190810160405280600081526020016060815260200160608152602001606081525090565b828054600181600116156101000203166002900490600052602060002090601f016020900481019282601f106200118957805160ff1916838001178555620011ba565b82800160010185558215620011ba579182015b82811115620011b95782518255916020019190600101906200119c565b5b509050620011c991906200131c565b5090565b6101206040519081016040528060008152602001606081526020016060815260200160608152602001606081526020016060815260200160608152602001606081526020016000151581525090565b6101e06040519081016040528060008152602001600081526020016060815260200160008152602001606081526020016000815260200160008152602001600081526020016000151581526020016000815260200160008152602001600081526020016000815260200160008152602001600081525090565b60a06040519081016040528060008152602001606081526020016060815260200160608152602001606081525090565b828054828255906000526020600020908101928215620013095760005260206000209182015b8281111562001308578254825591600101919060010190620012eb565b5b5090506200131891906200131c565b5090565b6200134191905b808211156200133d57600081600090555060010162001323565b5090565b90565b61449d80620013546000396000f3006080604052600436106101c2576000357c0100000000000000000000000000000000000000000000000000000000900463ffffffff1680630485c31d146101c757806304d7fbdd1461024457806306027d6a1461045157806307973ccf146104ce5780631af550dc146104f95780631e052ca3146105595780631f90303714610626578063255552d1146106b657806328d88890146106f75780633339000d14610722578063356953c01461074d57806336fbad26146107a257806350a9601d146107cd578063579aa9671461084e57806358467dbc14610b1b57806359ae069b14610be5578063607506ba14610cda5780636a20665814610d075780636cb1c5bb14610e4257806379c0c2a114610fc75780637e67c8e5146110085780637f4ab6ab1461104957806387c4e2981461107457806387f3d223146110f15780639504dd381461124d578063add828711461128e578063b2aa23a214611355578063b863bd3714611396578063bce66cdf146113d7578063c50fd39d14611458578063c89e9666146114b1578063cc6dbca4146115ca578063d45e2dbd14611615578063d8b467e014611656578063f0aa979614611697578063f9faf602146116e2575b600080fd5b3480156101d357600080fd5b5061022e600480360381019080803590602001908201803590602001908080601f0160208091040260200160405190810160405280939291908181526020018383808284378201915050505050509192919290505050611763565b6040518082815260200191505060405180910390f35b34801561025057600080fd5b5061044f600480360381019080803590602001908201803590602001908080601f0160208091040260200160405190810160405280939291908181526020018383808284378201915050505050509192919290803590602001908201803590602001908080601f0160208091040260200160405190810160405280939291908181526020018383808284378201915050505050509192919290803590602001908201803590602001908080601f0160208091040260200160405190810160405280939291908181526020018383808284378201915050505050509192919290803590602001908201803590602001908080601f0160208091040260200160405190810160405280939291908181526020018383808284378201915050505050509192919290803590602001908201803590602001908080601f0160208091040260200160405190810160405280939291908181526020018383808284378201915050505050509192919290803590602001908201803590602001908080601f0160208091040260200160405190810160405280939291908181526020018383808284378201915050505050509192919290803590602001908201803590602001908080601f01602080910402602001604051908101604052809392919081815260200183838082843782019150505050505091929192905050506117d8565b005b34801561045d57600080fd5b506104b8600480360381019080803590602001908201803590602001908080601f01602080910402602001604051908101604052809392919081815260200183838082843782019150505050505091929192905050506119e9565b6040518082815260200191505060405180910390f35b3480156104da57600080fd5b506104e3611a5e565b6040518082815260200191505060405180910390f35b34801561050557600080fd5b5061052e6004803603810190808035906020019092919080359060200190929190505050611a6a565b6040518085815260200184815260200183815260200182815260200194505050505060405180910390f35b34801561056557600080fd5b5061062460048036038101908080359060200190929190803590602001908201803590602001908080601f0160208091040260200160405190810160405280939291908181526020018383808284378201915050505050509192919290803590602001908201803590602001908080601f01602080910402602001604051908101604052809392919081815260200183838082843782019150505050505091929192908035906020019092919080359060200190929190505050611afb565b005b34801561063257600080fd5b5061063b611cf7565b6040518080602001828103825283818151815260200191508051906020019080838360005b8381101561067b578082015181840152602081019050610660565b50505050905090810190601f1680156106a85780820380516001836020036101000a031916815260200191505b509250505060405180910390f35b3480156106c257600080fd5b506106e160048036038101908080359060200190929190505050611d39565b6040518082815260200191505060405180910390f35b34801561070357600080fd5b5061070c611d6c565b6040518082815260200191505060405180910390f35b34801561072e57600080fd5b50610737611d79565b6040518082815260200191505060405180910390f35b34801561075957600080fd5b5061078c600480360381019080803590602001909291908035906020019092919080359060200190929190505050611d86565b6040518082815260200191505060405180910390f35b3480156107ae57600080fd5b506107b7611f74565b6040518082815260200191505060405180910390f35b3480156107d957600080fd5b50610834600480360381019080803590602001908201803590602001908080601f0160208091040260200160405190810160405280939291908181526020018383808284378201915050505050509192919290505050611f81565b604051808215151515815260200191505060405180910390f35b34801561085a57600080fd5b5061087960048036038101908080359060200190929190505050611ff9565b604051808060200180602001806020018060200180602001806020018815151515815260200187810387528e818151815260200191508051906020019080838360005b838110156108d75780820151818401526020810190506108bc565b50505050905090810190601f1680156109045780820380516001836020036101000a031916815260200191505b5087810386528d818151815260200191508051906020019080838360005b8381101561093d578082015181840152602081019050610922565b50505050905090810190601f16801561096a5780820380516001836020036101000a031916815260200191505b5087810385528c818151815260200191508051906020019080838360005b838110156109a3578082015181840152602081019050610988565b50505050905090810190601f1680156109d05780820380516001836020036101000a031916815260200191505b5087810384528b818151815260200191508051906020019080838360005b83811015610a095780820151818401526020810190506109ee565b50505050905090810190601f168015610a365780820380516001836020036101000a031916815260200191505b5087810383528a818151815260200191508051906020019080838360005b83811015610a6f578082015181840152602081019050610a54565b50505050905090810190601f168015610a9c5780820380516001836020036101000a031916815260200191505b50878103825289818151815260200191508051906020019080838360005b83811015610ad5578082015181840152602081019050610aba565b50505050905090810190601f168015610b025780820380516001836020036101000a031916815260200191505b509d505050505050505050505050505060405180910390f35b348015610b2757600080fd5b50610bc8600480360381019080803590602001908201803590602001908080601f0160208091040260200160405190810160405280939291908181526020018383808284378201915050505050509192919290803590602001908201803590602001908080601f0160208091040260200160405190810160405280939291908181526020018383808284378201915050505050509192919290505050612423565b604051808381526020018281526020019250505060405180910390f35b348015610bf157600080fd5b50610cd8600480360381019080803590602001908201803590602001908080601f0160208091040260200160405190810160405280939291908181526020018383808284378201915050505050509192919290803590602001908201803590602001908080601f0160208091040260200160405190810160405280939291908181526020018383808284378201915050505050509192919290803590602001908201803590602001908080601f0160208091040260200160405190810160405280939291908181526020018383808284378201915050505050509192919290505050612f31565b005b348015610ce657600080fd5b50610d0560048036038101908080359060200190929190505050613087565b005b348015610d1357600080fd5b50610e40600480360381019080803590602001908201803590602001908080601f0160208091040260200160405190810160405280939291908181526020018383808284378201915050505050509192919290803590602001908201803590602001908080601f0160208091040260200160405190810160405280939291908181526020018383808284378201915050505050509192919290803590602001908201803590602001908080601f0160208091040260200160405190810160405280939291908181526020018383808284378201915050505050509192919290803590602001908201803590602001908080601f0160208091040260200160405190810160405280939291908181526020018383808284378201915050505050509192919290505050613318565b005b348015610e4e57600080fd5b50610e6d60048036038101908080359060200190929190505050613527565b60405180858152602001806020018060200180602001848103845287818151815260200191508051906020019080838360005b83811015610ebb578082015181840152602081019050610ea0565b50505050905090810190601f168015610ee85780820380516001836020036101000a031916815260200191505b50848103835286818151815260200191508051906020019080838360005b83811015610f21578082015181840152602081019050610f06565b50505050905090810190601f168015610f4e5780820380516001836020036101000a031916815260200191505b50848103825285818151815260200191508051906020019080838360005b83811015610f87578082015181840152602081019050610f6c565b50505050905090810190601f168015610fb45780820380516001836020036101000a031916815260200191505b5097505050505050505060405180910390f35b348015610fd357600080fd5b50610ff260048036038101908080359060200190929190505050613757565b6040518082815260200191505060405180910390f35b34801561101457600080fd5b506110336004803603810190808035906020019092919050505061378a565b6040518082815260200191505060405180910390f35b34801561105557600080fd5b5061105e6137aa565b6040518082815260200191505060405180910390f35b34801561108057600080fd5b506110db600480360381019080803590602001908201803590602001908080601f01602080910402602001604051908101604052809392919081815260200183838082843782019150505050505091929192905050506137b7565b6040518082815260200191505060405180910390f35b3480156110fd57600080fd5b5061111c6004803603810190808035906020019092919050505061382c565b604051808d81526020018c8152602001806020018b8152602001806020018a81526020018981526020018881526020018715151515815260200186815260200185815260200184815260200183810383528d818151815260200191508051906020019080838360005b838110156111a0578082015181840152602081019050611185565b50505050905090810190601f1680156111cd5780820380516001836020036101000a031916815260200191505b5083810382528b818151815260200191508051906020019080838360005b838110156112065780820151818401526020810190506111eb565b50505050905090810190601f1680156112335780820380516001836020036101000a031916815260200191505b509e50505050505050505050505050505060405180910390f35b34801561125957600080fd5b5061128c600480360381019080803590602001909291908035906020019092919080359060200190929190505050613a26565b005b34801561129a57600080fd5b5061133b600480360381019080803590602001908201803590602001908080601f0160208091040260200160405190810160405280939291908181526020018383808284378201915050505050509192919290803590602001908201803590602001908080601f0160208091040260200160405190810160405280939291908181526020018383808284378201915050505050509192919290505050613ba0565b604051808215151515815260200191505060405180910390f35b34801561136157600080fd5b5061138060048036038101908080359060200190929190505050613cf0565b6040518082815260200191505060405180910390f35b3480156113a257600080fd5b506113c160048036038101908080359060200190929190505050613d23565b6040518082815260200191505060405180910390f35b3480156113e357600080fd5b5061143e600480360381019080803590602001908201803590602001908080601f0160208091040260200160405190810160405280939291908181526020018383808284378201915050505050509192919290505050613dd3565b604051808215151515815260200191505060405180910390f35b34801561146457600080fd5b5061148d6004803603810190808035906020019092919080359060200190929190505050613e4b565b60405180848152602001838152602001828152602001935050505060405180910390f35b3480156114bd57600080fd5b506114dc60048036038101908080359060200190929190505050613ef1565b604051808481526020018060200180602001838103835285818151815260200191508051906020019080838360005b8381101561152657808201518184015260208101905061150b565b50505050905090810190601f1680156115535780820380516001836020036101000a031916815260200191505b50838103825284818151815260200191508051906020019080838360005b8381101561158c578082015181840152602081019050611571565b50505050905090810190601f1680156115b95780820380516001836020036101000a031916815260200191505b509550505050505060405180910390f35b3480156115d657600080fd5b506115ff600480360381019080803590602001909291908035906020019092919050505061407c565b6040518082815260200191505060405180910390f35b34801561162157600080fd5b50611640600480360381019080803590602001909291905050506140b1565b6040518082815260200191505060405180910390f35b34801561166257600080fd5b50611681600480360381019080803590602001909291905050506140d1565b6040518082815260200191505060405180910390f35b3480156116a357600080fd5b506116cc6004803603810190808035906020019092919080359060200190929190505050614103565b6040518082815260200191505060405180910390f35b3480156116ee57600080fd5b50611749600480360381019080803590602001908201803590602001908080601f016020809104026020016040519081016040528093929190818152602001838380828437820191505050505050919291929050505061416c565b604051808215151515815260200191505060405180910390f35b60006005826040518082805190602001908083835b60208310151561179d5780518252602082019150602081019050602083039250611778565b6001836020036101000a0380198251168184511680821785525050505050509050019150509081526020016040518091039020549050919050565b60006117e2614200565b6117eb89613dd3565b1515156117f757600080fd5b6117ff611d6c565b9150610120604051908101604052808381526020018981526020018a81526020018881526020018781526020018681526020018581526020018481526020016001151581525090506004819080600181540180825580915050906001820390600052602060002090600902016000909192909190915060008201518160000155602082015181600101908051906020019061189b92919061424f565b5060408201518160020190805190602001906118b892919061424f565b5060608201518160030190805190602001906118d592919061424f565b5060808201518160040190805190602001906118f292919061424f565b5060a082015181600501908051906020019061190f92919061424f565b5060c082015181600601908051906020019061192c92919061424f565b5060e082015181600701908051906020019061194992919061424f565b506101008201518160080160006101000a81548160ff0219169083151502179055505050508160058a6040518082805190602001908083835b6020831015156119a75780518252602082019150602081019050602083039250611982565b6001836020036101000a038019825116818451168082178552505050505050905001915050908152602001604051809103902081905550505050505050505050565b60006001826040518082805190602001908083835b602083101515611a2357805182526020820191506020810190506020830392506119fe565b6001836020036101000a0380198251168184511680821785525050505050509050019150509081526020016040518091039020549050919050565b60008080549050905090565b6000806000806000808054905087108015611a9a5750600960008881526020019081526020016000208054905086105b1515611aa557600080fd5b6009600088815260200190815260200160002086815481101515611ac557fe5b90600052602060002090600502019050806000015481600201548260030154836004015494509450945094505092959194509250565b6000611b056142cf565b60048054905087101515611b1857600080fd5b611b20611f74565b91506101e060405190810160405280838152602001888152602001878152602001428152602001868152602001858152602001600081526020016002815260200160001515815260200184815260200160008152602001600081526020016000815260200160008152602001600081525090506006819080600181540180825580915050906001820390600052602060002090600f02016000909192909190915060008201518160000155602082015181600101556040820151816002019080519060200190611bf192919061424f565b50606082015181600301556080820151816004019080519060200190611c1892919061424f565b5060a0820151816005015560c0820151816006015560e082015181600701556101008201518160080160006101000a81548160ff021916908315150217905550610120820151816009015561014082015181600a015561016082015181600b015561018082015181600c01556101a082015181600d01556101c082015181600e0155505050600c6000888152602001908152602001600020829080600181540180825580915050906001820390600052602060002001600090919290919091505550600087141515611cee57611ced82613087565b5b50505050505050565b6060806040805190810160405280600381526020017f616263000000000000000000000000000000000000000000000000000000000081525090508091505090565b600060068054905082101515611d4e57600080fd5b600a6000838152602001908152602001600020805490509050919050565b6000600480549050905090565b6000600780549050905090565b6000806000611d93614348565b60008054905087108015611dab575060068054905086105b1515611db657600080fd5b600686815481101515611dc557fe5b90600052602060002090600f02019250611ddd611d79565b915060a0604051908101604052808381526020018881526020018781526020018681526020014281525090506007819080600181540180825580915050906001820390600052602060002090600502016000909192909190915060008201518160000155602082015181600101556040820151816002015560608201518160030155608082015181600401555050506009600088815260200190815260200160002081908060018154018082558091505090600182039060005260206000209060050201600090919290919091506000820151816000015560208201518160010155604082015181600201556060820151816003015560808201518160040155505050600a600087815260200190815260200160002081908060018154018082558091505090600182039060005260206000209060050201600090919290919091506000820151816000015560208201518160010155604082015181600201556060820151816003015560808201518160040155505050611f628360060154866141e4565b83600601819055505050509392505050565b6000600680549050905090565b6000806001836040518082805190602001908083835b602083101515611fbc5780518252602082019150602081019050602083039250611f97565b6001836020036101000a03801982511681845116808217855250505050505090500191505090815260200160405180910390205414159050919050565b6060806060806060806000806004805490508910151561201857600080fd5b60048981548110151561202757fe5b906000526020600020906009020190508060010181600201826004018360050184600601856007018660080160009054906101000a900460ff16868054600181600116156101000203166002900480601f0160208091040260200160405190810160405280929190818152602001828054600181600116156101000203166002900480156120f65780601f106120cb576101008083540402835291602001916120f6565b820191906000526020600020905b8154815290600101906020018083116120d957829003601f168201915b50505050509650858054600181600116156101000203166002900480601f0160208091040260200160405190810160405280929190818152602001828054600181600116156101000203166002900480156121925780601f1061216757610100808354040283529160200191612192565b820191906000526020600020905b81548152906001019060200180831161217557829003601f168201915b50505050509550848054600181600116156101000203166002900480601f01602080910402602001604051908101604052809291908181526020018280546001816001161561010002031660029004801561222e5780601f106122035761010080835404028352916020019161222e565b820191906000526020600020905b81548152906001019060200180831161221157829003601f168201915b50505050509450838054600181600116156101000203166002900480601f0160208091040260200160405190810160405280929190818152602001828054600181600116156101000203166002900480156122ca5780601f1061229f576101008083540402835291602001916122ca565b820191906000526020600020905b8154815290600101906020018083116122ad57829003601f168201915b50505050509350828054600181600116156101000203166002900480601f0160208091040260200160405190810160405280929190818152602001828054600181600116156101000203166002900480156123665780601f1061233b57610100808354040283529160200191612366565b820191906000526020600020905b81548152906001019060200180831161234957829003601f168201915b50505050509250818054600181600116156101000203166002900480601f0160208091040260200160405190810160405280929190818152602001828054600181600116156101000203166002900480156124025780601f106123d757610100808354040283529160200191612402565b820191906000526020600020905b8154815290600101906020018083116123e557829003601f168201915b50505050509150975097509750975097509750975050919395979092949650565b6000806000806000612433614378565b600061243d614200565b60006124476143a1565b60009750600096506124588c6119e9565b955060008681548110151561246957fe5b90600052602060002090600402016080604051908101604052908160008201548152602001600182018054600181600116156101000203166002900480601f0160208091040260200160405190810160405280929190818152602001828054600181600116156101000203166002900480156125265780601f106124fb57610100808354040283529160200191612526565b820191906000526020600020905b81548152906001019060200180831161250957829003601f168201915b50505050508152602001600282018054600181600116156101000203166002900480601f0160208091040260200160405190810160405280929190818152602001828054600181600116156101000203166002900480156125c85780601f1061259d576101008083540402835291602001916125c8565b820191906000526020600020905b8154815290600101906020018083116125ab57829003601f168201915b50505050508152602001600382018054600181600116156101000203166002900480601f01602080910402602001604051908101604052809291908181526020018280546001816001161561010002031660029004801561266a5780601f1061263f5761010080835404028352916020019161266a565b820191906000526020600020905b81548152906001019060200180831161264d57829003601f168201915b505050505081525050945061267e8c611763565b935060048481548110151561268f57fe5b9060005260206000209060090201610120604051908101604052908160008201548152602001600182018054600181600116156101000203166002900480601f01602080910402602001604051908101604052809291908181526020018280546001816001161561010002031660029004801561274d5780601f106127225761010080835404028352916020019161274d565b820191906000526020600020905b81548152906001019060200180831161273057829003601f168201915b50505050508152602001600282018054600181600116156101000203166002900480601f0160208091040260200160405190810160405280929190818152602001828054600181600116156101000203166002900480156127ef5780601f106127c4576101008083540402835291602001916127ef565b820191906000526020600020905b8154815290600101906020018083116127d257829003601f168201915b50505050508152602001600382018054600181600116156101000203166002900480601f0160208091040260200160405190810160405280929190818152602001828054600181600116156101000203166002900480156128915780601f1061286657610100808354040283529160200191612891565b820191906000526020600020905b81548152906001019060200180831161287457829003601f168201915b50505050508152602001600482018054600181600116156101000203166002900480601f0160208091040260200160405190810160405280929190818152602001828054600181600116156101000203166002900480156129335780601f1061290857610100808354040283529160200191612933565b820191906000526020600020905b81548152906001019060200180831161291657829003601f168201915b50505050508152602001600582018054600181600116156101000203166002900480601f0160208091040260200160405190810160405280929190818152602001828054600181600116156101000203166002900480156129d55780601f106129aa576101008083540402835291602001916129d5565b820191906000526020600020905b8154815290600101906020018083116129b857829003601f168201915b50505050508152602001600682018054600181600116156101000203166002900480601f016020809104026020016040519081016040528092919081815260200182805460018160011615610100020316600290048015612a775780601f10612a4c57610100808354040283529160200191612a77565b820191906000526020600020905b815481529060010190602001808311612a5a57829003601f168201915b50505050508152602001600782018054600181600116156101000203166002900480601f016020809104026020016040519081016040528092919081815260200182805460018160011615610100020316600290048015612b195780601f10612aee57610100808354040283529160200191612b19565b820191906000526020600020905b815481529060010190602001808311612afc57829003601f168201915b505050505081526020016008820160009054906101000a900460ff1615151515815250509250612b488c6137b7565b9150600282815481101515612b5957fe5b906000526020600020906005020160a0604051908101604052908160008201548152602001600182018054600181600116156101000203166002900480601f016020809104026020016040519081016040528092919081815260200182805460018160011615610100020316600290048015612c165780601f10612beb57610100808354040283529160200191612c16565b820191906000526020600020905b815481529060010190602001808311612bf957829003601f168201915b50505050508152602001600282018054600181600116156101000203166002900480601f016020809104026020016040519081016040528092919081815260200182805460018160011615610100020316600290048015612cb85780601f10612c8d57610100808354040283529160200191612cb8565b820191906000526020600020905b815481529060010190602001808311612c9b57829003601f168201915b50505050508152602001600382018054600181600116156101000203166002900480601f016020809104026020016040519081016040528092919081815260200182805460018160011615610100020316600290048015612d5a5780601f10612d2f57610100808354040283529160200191612d5a565b820191906000526020600020905b815481529060010190602001808311612d3d57829003601f168201915b50505050508152602001600482018054600181600116156101000203166002900480601f016020809104026020016040519081016040528092919081815260200182805460018160011615610100020316600290048015612dfc5780601f10612dd157610100808354040283529160200191612dfc565b820191906000526020600020905b815481529060010190602001808311612ddf57829003601f168201915b50505050508152505090508184871818965060008614158015612e295750612e2885606001518c613ba0565b5b15612e375760019750612f1c565b60008414158015612e525750612e5183606001518c613ba0565b5b15612e605760029750612f1b565b60008214158015612e7b5750612e7a81608001518c613ba0565b5b15612e895760039750612f1a565b612ec88c6040805190810160405280600581526020017f61646d696e000000000000000000000000000000000000000000000000000000815250613ba0565b8015612f0f5750612f0e8b6040805190810160405280600581526020017f61646d696e000000000000000000000000000000000000000000000000000000815250613ba0565b5b15612f1957600497505b5b5b5b87879950995050505050505050509250929050565b6000612f3b614378565b612f4484611f81565b151515612f5057600080fd5b612f58611a5e565b915060806040519081016040528083815260200186815260200185815260200184815250905060008190806001815401808255809150509060018203906000526020600020906004020160009091929091909150600082015181600001556020820151816001019080519060200190612fd292919061424f565b506040820151816002019080519060200190612fef92919061424f565b50606082015181600301908051906020019061300c92919061424f565b50505050816001856040518082805190602001908083835b6020831015156130495780518252602082019150602081019050602083039250613024565b6001836020036101000a0380198251168184511680821785525050505050509050019150509081526020016040518091039020819055505050505050565b6000806000806000806000806000806006805490508b1080156130aa575060008b115b15156130b557600080fd5b60068b8154811015156130c457fe5b90600052602060002090600f0201995060048a600101548154811015156130e757fe5b90600052602060002090600902019850600e8960040160405180828054600181600116156101000203166002900480156131585780601f10613136576101008083540402835291820191613158565b820191906000526020600020905b815481529060010190602001808311613144575b5050915050908152602001604051809103902097506003888054905010156131e057600095505b87805490508610156131db5786888781548110151561319a57fe5b90600052602060002001549080600181540180825580915050906001820390600052602060002001600090919290919091505550858060010196505061317f565b6132c7565b600360028980549050028115156131f357fe5b04945087805490509350600092505b848310156132c65761321384613d23565b915086888381548110151561322457fe5b906000526020600020015490806001815401808255809150509060018203906000526020600020016000909192909190915055508190505b60018880549050038110156132b057876001820181548110151561327c57fe5b9060005260206000200154888281548110151561329557fe5b9060005260206000200181905550808060010191505061325c565b8380600190039450508280600101935050613202565b5b86600f60008d81526020019081526020016000209080546132e99291906143d1565b5086805490508a600d018190555060008a600c018190555060008a600e01819055505050505050505050505050565b60006133226143a1565b61332b8461416c565b15151561333757600080fd5b61333f6137aa565b915060a060405190810160405280838152602001878152602001868152602001858152602001848152509050600281908060018154018082558091505090600182039060005260206000209060050201600090919290919091506000820151816000015560208201518160010190805190602001906133bf92919061424f565b5060408201518160020190805190602001906133dc92919061424f565b5060608201518160030190805190602001906133f992919061424f565b50608082015181600401908051906020019061341692919061424f565b50505050816003856040518082805190602001908083835b602083101515613453578051825260208201915060208101905060208303925061342e565b6001836020036101000a038019825116818451168082178552505050505050905001915050908152602001604051809103902081905550600e856040518082805190602001908083835b6020831015156134c2578051825260208201915060208101905060208303925061349d565b6001836020036101000a0380198251168184511680821785525050505050509050019150509081526020016040518091039020829080600181540180825580915050906001820390600052602060002001600090919290919091505550505050505050565b6000606080606060006002805490508610151561354357600080fd5b60028681548110151561355257fe5b906000526020600020906005020190508060000154816001018260020183600301828054600181600116156101000203166002900480601f0160208091040260200160405190810160405280929190818152602001828054600181600116156101000203166002900480156136085780601f106135dd57610100808354040283529160200191613608565b820191906000526020600020905b8154815290600101906020018083116135eb57829003601f168201915b50505050509250818054600181600116156101000203166002900480601f0160208091040260200160405190810160405280929190818152602001828054600181600116156101000203166002900480156136a45780601f10613679576101008083540402835291602001916136a4565b820191906000526020600020905b81548152906001019060200180831161368757829003601f168201915b50505050509150808054600181600116156101000203166002900480601f0160208091040260200160405190810160405280929190818152602001828054600181600116156101000203166002900480156137405780601f1061371557610100808354040283529160200191613740565b820191906000526020600020905b81548152906001019060200180831161372357829003601f168201915b505050505090509450945094509450509193509193565b60006002805490508210151561376c57600080fd5b600b6000838152602001908152602001600020805490509050919050565b6000600c6000838152602001908152602001600020805490509050919050565b6000600280549050905090565b60006003826040518082805190602001908083835b6020831015156137f157805182526020820191506020810190506020830392506137cc565b6001836020036101000a0380198251168184511680821785525050505050509050019150509081526020016040518091039020549050919050565b60008060606000606060008060008060008060008060008e11801561385557506006805490508e105b151561386057600080fd5b60068e81548110151561386f57fe5b90600052602060002090600f0201905080600001548160010154826002018360030154846004018560050154866006015487600701548860080160009054906101000a900460ff1689600901548a600a01548b600b0154898054600181600116156101000203166002900480601f01602080910402602001604051908101604052809291908181526020018280546001816001161561010002031660029004801561395b5780601f106139305761010080835404028352916020019161395b565b820191906000526020600020905b81548152906001019060200180831161393e57829003601f168201915b50505050509950878054600181600116156101000203166002900480601f0160208091040260200160405190810160405280929190818152602001828054600181600116156101000203166002900480156139f75780601f106139cc576101008083540402835291602001916139f7565b820191906000526020600020905b8154815290600101906020018083116139da57829003601f168201915b505050505097509c509c509c509c509c509c509c509c509c509c509c509c505091939597999b5091939597999b565b6000613a30614423565b600060068054905086101515613a4557600080fd5b600b6000868152602001908152602001600020805490509250608060405190810160405280848152602001878152602001868152602001858152509150600b60008681526020019081526020016000208390806001815401808255809150509060018203906000526020600020016000909192909190915055506008829080600181540180825580915050906001820390600052602060002090600402016000909192909190915060008201518160000155602082015181600101556040820151816002015560608201518160030155505050600686815481101515613b2757fe5b90600052602060002090600f020190508381600c0160008282540192505081905550613b5881600e015460016141e4565b81600e018190555080600d015481600e01541415613b9857600081600c01541315613b8c5760008160070181905550613b97565b600181600701819055505b5b505050505050565b6000606080600085925084915081518351141515613bc15760009350613ce7565b600090505b8251811015613ce2578181815181101515613bdd57fe5b9060200101517f010000000000000000000000000000000000000000000000000000000000000090047f0100000000000000000000000000000000000000000000000000000000000000027effffffffffffffffffffffffffffffffffffffffffffffffffffffffffffff19168382815181101515613c5857fe5b9060200101517f010000000000000000000000000000000000000000000000000000000000000090047f0100000000000000000000000000000000000000000000000000000000000000027effffffffffffffffffffffffffffffffffffffffffffffffffffffffffffff1916141515613cd55760009350613ce7565b8080600101915050613bc6565b600193505b50505092915050565b600060048054905082101515613d0557600080fd5b600c6000838152602001908152602001600020805490509050919050565b60008160024233604051808381526020018273ffffffffffffffffffffffffffffffffffffffff1673ffffffffffffffffffffffffffffffffffffffff166c01000000000000000000000000028152601401925050506020604051808303816000865af1158015613d98573d6000803e3d6000fd5b5050506040513d6020811015613dad57600080fd5b810190808051906020019092919050505060019004811515613dcb57fe5b069050919050565b6000806005836040518082805190602001908083835b602083101515613e0e5780518252602082019150602081019050602083039250613de9565b6001836020036101000a03801982511681845116808217855250505050505090500191505090815260200160405180910390205414159050919050565b600080600080600060028054905087108015613e7c5750600b60008881526020019081526020016000208054905086105b1515613e8757600080fd5b600b600088815260200190815260200160002086815481101515613ea757fe5b90600052602060002001549150600882815481101515613ec357fe5b9060005260206000209060040201905080600201548160010154826003015494509450945050509250925092565b60006060806000808054905085101515613f0a57600080fd5b600085815481101515613f1957fe5b9060005260206000209060040201905080600001548160010182600201818054600181600116156101000203166002900480601f016020809104026020016040519081016040528092919081815260200182805460018160011615610100020316600290048015613fcb5780601f10613fa057610100808354040283529160200191613fcb565b820191906000526020600020905b815481529060010190602001808311613fae57829003601f168201915b50505050509150808054600181600116156101000203166002900480601f0160208091040260200160405190810160405280929190818152602001828054600181600116156101000203166002900480156140675780601f1061403c57610100808354040283529160200191614067565b820191906000526020600020905b81548152906001019060200180831161404a57829003601f168201915b50505050509050935093509350509193909250565b6000600c60008481526020019081526020016000208281548110151561409e57fe5b9060005260206000200154905092915050565b6000600b6000838152602001908152602001600020805490509050919050565b60008080549050821015156140e557600080fd5b60096000838152602001908152602001600020805490509050919050565b60006004805490508310801561412e5750600c60008381526020019081526020016000208054905082105b151561413957600080fd5b600c60008481526020019081526020016000208281548110151561415957fe5b9060005260206000200154905092915050565b6000806003836040518082805190602001908083835b6020831015156141a75780518252602082019150602081019050602083039250614182565b6001836020036101000a03801982511681845116808217855250505050505090500191505090815260200160405180910390205414159050919050565b600081830190508281101515156141f757fe5b80905092915050565b6101206040519081016040528060008152602001606081526020016060815260200160608152602001606081526020016060815260200160608152602001606081526020016000151581525090565b828054600181600116156101000203166002900490600052602060002090601f016020900481019282601f1061429057805160ff19168380011785556142be565b828001600101855582156142be579182015b828111156142bd5782518255916020019190600101906142a2565b5b5090506142cb919061444c565b5090565b6101e06040519081016040528060008152602001600081526020016060815260200160008152602001606081526020016000815260200160008152602001600081526020016000151581526020016000815260200160008152602001600081526020016000815260200160008152602001600081525090565b60a06040519081016040528060008152602001600081526020016000815260200160008152602001600081525090565b608060405190810160405280600081526020016060815260200160608152602001606081525090565b60a06040519081016040528060008152602001606081526020016060815260200160608152602001606081525090565b8280548282559060005260206000209081019282156144125760005260206000209182015b828111156144115782548255916001019190600101906143f6565b5b50905061441f919061444c565b5090565b608060405190810160405280600081526020016000815260200160008152602001600081525090565b61446e91905b8082111561446a576000816000905550600101614452565b5090565b905600a165627a7a72305820a46f29fdffb22df553b89cf542e3d9d8209406e66ce570dbdfe913f66b2ffa030029",
  "source": "pragma solidity ^0.4.16;\n\ncontract Main {\n\n    struct Admin {\n        uint256 adminId;\n        string adminAccount;\n        string admingPassword;\n    }\n\n    struct User {\n        uint256 userId;\n        string userName;\n        string userPhone;\n        string userPassword;\n    }\n\n    struct Endorsor {\n        uint256 endorsorId;\n        string endorsorOrg;//\n        string endorsorProvince;\n        string endorsorEmail;\n        string endorsorPassword;\n\n    }\n\n    struct School {\n        uint256 schoolId;\n        string schoolName;\n        string schoolEmail;\n        string schoolPassword;\n        string schoolProvince;\n        \n        string schoolAddress;\n        string schoolGovernor;//\n        string schoolAgent;//\n        bool schoolState;//\n    }\n\n    struct Project {\n        uint256 projectId;\n        uint256 schoolId;\n        string projectName;\n        uint256 projectCreateTime;\n        string projectTarget;//\n        uint256 projectTargetMoney;\n        uint256 projectCurrentMoney;\n        uint256 projectEndorseState;//0  1  2 pending\n        bool projectFinishState;\n        uint256 projectFinishTime;\n        uint256 projectPlanUpNoteTime;//\n        uint256 projectActualUpNoteTime;//\n        int256 totalScore;// \n        uint256 totalEndorsor;//\n        uint256 finishEndorsor;//\n    }\n\n    struct Denote {\n        uint256 denoteId;//id\n        uint256 userId;//id\n        uint256 projectId;//id\n        uint256 denoteMoney;//\n        uint256 denoteTime;//\n    }\n\n    struct EndorseItem {\n        uint256 endorseItemId;\n        uint256 projectId;\n        uint256 endorsorId;\n        int256 score;//{0: 1 2}\n    }\n\n\n    User[] userList;\n    mapping(string=>uint256) userMap;//key\n\n    Endorsor[] endorsorList;\n    mapping(string=>uint256) endorsorMap;//key valueprojectId\n\n    School[] schoolList;\n    mapping(string=>uint256) schoolMap;//key\n\n    Project[] projectList;\n    Denote[] denoteList;\n    EndorseItem[] endorseItemList;\n    mapping(uint256=>Denote[]) userDenoteMap;//\n    mapping(uint256=>Denote[]) projectDenoteMap;//\n    mapping(uint256=>uint256[]) endorseItemMap;//\n    mapping(uint256=>uint256[]) schoolProjectMap;\n    mapping(uint256=>string[]) projectNoteUrlMap;\n    mapping(string=>uint256[]) provinceToEndorsorMap;\n    mapping(uint256=>uint256[]) projectEnodrsorListMap;//\n\n    function getUserDenoteCount(uint256 userId) view returns(uint256) {\n        require(userId < userList.length);\n        return userDenoteMap[userId].length;\n    } \n \n    function getProjectDenoteCount(uint256 projectId) view returns(uint256) {\n        require(projectId < projectList.length);\n        return projectDenoteMap[projectId].length;\n    }\n\n    function getEndorseItemRecord(uint256 endorseId) view returns(uint256) {\n        require(endorseId < endorsorList.length);\n        return endorseItemMap[endorseId].length;\n    }\n\n    function getSchoolProjectCount(uint256 schoolId) view returns(uint256) {\n        require(schoolId < schoolList.length);\n        return schoolProjectMap[schoolId].length;\n    }\n \n\n    function Main() {\n        createUser(\"0\", \"0\", \"0\");\n        createSchool(\"0\", \"0\", \"0\", \"0\", \"0\", \"0\", \"0\"); \n        createProject(0, \"0\", \"0\", 0, 0);\n        createEndorsor(\"0\", \"0\", \"0\", \"0\");\n    }\n\n    function createUser(string _userName, string _userPhone, string _userPassword) {\n        require(!checkUserByPhone(_userPhone));\n        uint256 _userId = userCount();\n        User memory user = User({userId:_userId, userName:_userName, userPhone:_userPhone, userPassword:_userPassword});\n        userList.push(user);\n        userMap[_userPhone] = _userId;\n    }\n\n    function getBytes32() view returns(string) {\n        string memory str = \"abc\";\n        return str;\n    }\n    function userCount() view returns(uint256) {\n        return userList.length;\n    }\n\n    function checkUserByPhone(string _userPhone) view returns(bool) {\n        return userMap[_userPhone] != 0;\n    }\n\n    function getUserIdByPhone(string _userPhone) view returns(uint256) {\n        return userMap[_userPhone];\n    }\n\n    function getUserByUserId(uint256 _userId) view returns(uint256, string, string) {\n        require(_userId < userList.length);\n        User user = userList[_userId];\n        return(user.userId, user.userName, user.userPhone);\n    }\n\n    function login(string _userAccount, string _userPassword) view returns(uint256, uint256) {\n        uint256 _userType = 0;\n        uint256 _userId = 0;\n        uint256 _userIdA = getUserIdByPhone(_userAccount);\n        User memory user = userList[_userIdA];\n        uint256 _userIdB = getSchoolIdByEmail(_userAccount);\n        School memory school = schoolList[_userIdB];\n        uint256 _userIdC = getEndorsorIdByEmail(_userAccount);\n        Endorsor memory endorsor = endorsorList[_userIdC];\n        _userId = _userIdA ^ _userIdB ^ _userIdC;\n\n        if (_userIdA != 0 && strEqual(user.userPassword, _userPassword)) {\n            _userType = 1;\n        }else if (_userIdB != 0 && strEqual(school.schoolPassword, _userPassword)) {\n            _userType = 2;\n        }else if (_userIdC != 0 && strEqual(endorsor.endorsorPassword, _userPassword)) {\n            _userType = 3;\n        }else if (strEqual(_userAccount, \"admin\") && strEqual(_userPassword, \"admin\") ) {\n            _userType = 4;\n        }\n        return (_userType, _userId);\n    }\n\n    function userDenote(uint256 _userId, uint256 _projectId, uint256 _denoteMoney) returns(uint256) {\n        require(_userId < userList.length && _projectId < projectList.length);\n        Project project = projectList[_projectId];\n        uint256 _denoteId = denoteCount();\n        Denote memory denote = Denote({denoteId:_denoteId, userId:_userId, projectId:_projectId, denoteMoney:_denoteMoney, denoteTime:now});\n        denoteList.push(denote);\n        userDenoteMap[_userId].push(denote);\n        projectDenoteMap[_projectId].push(denote);\n        project.projectCurrentMoney = add(project.projectCurrentMoney, _denoteMoney);\n    }\n\n    function denoteCount() view returns(uint256) {\n        return denoteList.length;\n    }\n\n    function getDenoteByUserId(uint256 _userId, uint _userDenoteId) view returns(uint256, uint256, uint256, uint256) {\n        require(_userId < userList.length && _userDenoteId < userDenoteMap[_userId].length);\n        Denote denote = userDenoteMap[_userId][_userDenoteId];\n        return (denote.denoteId, denote.projectId, denote.denoteMoney, denote.denoteTime);\n    }\n  // ///////////////////////////////////////////////////////////////////////////////////////////////////\n\n    function createEndorsor(string _endorsorOrg, string _endorsorProvince, string _endorsorEmail, string _endorsorPassword) {\n        require(!checkEndorsorByEmail(_endorsorEmail));\n        uint256 _endorsorId = endorsorCount();\n        Endorsor memory endorsor = Endorsor({endorsorId:_endorsorId, endorsorOrg:_endorsorOrg, endorsorProvince:_endorsorProvince, endorsorEmail:_endorsorEmail, endorsorPassword:_endorsorPassword});\n        endorsorList.push(endorsor);\n        endorsorMap[_endorsorEmail] = _endorsorId;\n        provinceToEndorsorMap[_endorsorProvince].push(_endorsorId);\n    }\n\n    function endorsorCount() view returns(uint256) {\n        return endorsorList.length;\n    }\n\n    function checkEndorsorByEmail(string _endorsorEmail) view returns(bool) {\n        return endorsorMap[_endorsorEmail] != 0;\n    }\n\n    function getEndorsorIdByEmail(string _endorsorEmail) view returns(uint256) {\n        return endorsorMap[_endorsorEmail];\n    }\n\n    function getEndorsorByEndorsorId(uint256 _endorsorId) view returns(uint256, string, string, string) {\n        require(_endorsorId < endorsorList.length);\n        Endorsor _endorsor =  endorsorList[_endorsorId];\n        return (_endorsor.endorsorId, _endorsor.endorsorOrg, _endorsor.endorsorProvince, _endorsor.endorsorEmail);\n    }\n\n    function getEndorseByEndorsorId(uint256 _endorsorId, uint256 _endorseItemIndex) view returns (uint256, uint256, int256) {\n        require(_endorsorId < endorsorList.length && _endorseItemIndex < endorseItemMap[_endorsorId].length);\n        uint256 endorseItemId = endorseItemMap[_endorsorId][_endorseItemIndex];\n        EndorseItem _endorseItem = endorseItemList[endorseItemId];\n        return (_endorseItem.endorsorId, _endorseItem.projectId, _endorseItem.score);\n    }\n\n    function createEndorseItem(uint256 _projectId, uint256 _endorsorId, int256 _score) {\n        require(_projectId < projectList.length);\n        uint256 _endorseItemId = endorseItemMap[_endorsorId].length;\n        EndorseItem memory endorseItem = EndorseItem({endorseItemId:_endorseItemId, projectId:_projectId, endorsorId:_endorsorId, score:_score});\n        endorseItemMap[_endorsorId].push(_endorseItemId);\n        endorseItemList.push(endorseItem);\n        Project project = projectList[_projectId];\n        project.totalScore += _score;\n        project.finishEndorsor=add(project.finishEndorsor,1);\n        if(project.finishEndorsor == project.totalEndorsor){\n            if(project.totalScore>0){\n                project.projectEndorseState = 0;\n            }else{\n                project.projectEndorseState = 1;\n            }\n        }\n    }\n\n    function getEndorseItemCountOfEndorsor(uint256 _endorsorId) view returns(uint256) {\n        return endorseItemMap[_endorsorId].length;\n    }\n\n  // ///////////////////////////////////////////////////////////////////////////////////////////////////////\n    \n    function createSchool(string _schoolEmail, string _schoolName, string _schoolPassword, string _schoolProvince, string _schoolAddress, string _schoolGovernor, string _schoolAgent) {\n        require(!checkSchoolByEmail(_schoolEmail));\n        uint256 _schoolId = schoolCount();\n        School memory school = School({schoolId:_schoolId, schoolName:_schoolName, schoolEmail:_schoolEmail, schoolPassword:_schoolPassword, schoolProvince:_schoolProvince, schoolAddress:_schoolAddress, schoolGovernor:_schoolGovernor, schoolAgent:_schoolAgent, schoolState:true});\n        schoolList.push(school);\n        schoolMap[_schoolEmail] = _schoolId;\n    }\n\n    function schoolCount() view returns(uint256) {\n        return schoolList.length;\n    }\n\n    function checkSchoolByEmail(string _schoolEmail) view returns(bool) {\n      return schoolMap[_schoolEmail] != 0;\n    }\n\n    function getSchoolIdByEmail(string _schoolEmail) view returns(uint256) {\n      return schoolMap[_schoolEmail];\n    }\n\n    function getSchoolBySchoolId(uint256 _schoolId) view returns(string, string, string, string, string, string, bool) {\n        require(_schoolId < schoolList.length);\n        School school = schoolList[_schoolId];\n        return (school.schoolName, school.schoolEmail, school.schoolProvince, school.schoolAddress, school.schoolGovernor, school.schoolAgent, school.schoolState);\n    }\n\n    function createProject(uint256 _schoolId, string _projectName, string _projectTarget, uint256 _projectTargetMoney, uint256 _projectFinishTime) {\n        require(_schoolId < schoolList.length);\n        uint256 _projectId = projectCount();\n        Project memory project = Project({projectId:_projectId, schoolId:_schoolId, projectName:_projectName, projectCreateTime:now, projectTarget:_projectTarget, projectTargetMoney:_projectTargetMoney, projectCurrentMoney:0, projectEndorseState:2, projectFinishState:false, projectFinishTime:_projectFinishTime, projectPlanUpNoteTime:0, projectActualUpNoteTime:0, totalScore:0, totalEndorsor:0, finishEndorsor:0});\n        projectList.push(project);\n        schoolProjectMap[_schoolId].push(_projectId);\n        if (_schoolId != 0) {\n            emitEndorse(_projectId);\n        }\n    }\n\n    function emitEndorse(uint256 _projectId) {\n        require(_projectId < projectList.length && _projectId > 0);\n        Project project = projectList[_projectId];\n        School school = schoolList[project.schoolId];\n        uint256[] endorsorList = provinceToEndorsorMap[school.schoolProvince];\n        uint256[] emitEndorsorList;\n        if (endorsorList.length < 3) {\n            for (uint256 i=0; i < endorsorList.length; i++) {\n                emitEndorsorList.push(endorsorList[i]);\n            }\n        }else {\n            uint256 targetEndorsorCount = endorsorList.length*2/3;\n            uint256 len = endorsorList.length;\n            for (uint256 j=0; j < targetEndorsorCount; j++) {\n                uint256 t = random(len);\n                emitEndorsorList.push(endorsorList[t]);\n                for (uint256 k=t; k < endorsorList.length-1; k++) {\n                    endorsorList[k] = endorsorList[k+1];\n                }\n                len--;\n            }\n        }\n        projectEnodrsorListMap[_projectId] = emitEndorsorList;\n        project.totalEndorsor = emitEndorsorList.length;\n        project.totalScore = 0;\n        project.finishEndorsor = 0;\n    }\n\n    function projectCount() view returns(uint256) {\n        return projectList.length;\n    }\n\n    function getProjectByProjectId(uint256 _projectId) view returns(uint256, uint256, string, uint256, string, uint256, uint256, uint256, bool, uint256, uint256, uint256) {\n        require(_projectId > 0 && _projectId < projectList.length);\n        Project project = projectList[_projectId];\n        return (project.projectId, project.schoolId, project.projectName, project.projectCreateTime, project.projectTarget, project.projectTargetMoney, project.projectCurrentMoney, project.projectEndorseState, project.projectFinishState, project.projectFinishTime, project.projectPlanUpNoteTime, project.projectActualUpNoteTime);\n    }\n\n    function getSchoolProjectCounts(uint256 _schoolId) view returns(uint256) {\n        return schoolProjectMap[_schoolId].length;\n    }\n\n    function getSchoolProjectidByNum(uint256 _schoolId ,uint256 _num) view returns(uint256) {\n        return schoolProjectMap[_schoolId][_num];\n    }\n\n    function getProjectIdBySchoolId(uint256 _schoolId, uint256 _schoolProjectId) view returns(uint256) {\n        require(_schoolId < schoolList.length && _schoolProjectId < schoolProjectMap[_schoolProjectId].length);\n        return schoolProjectMap[_schoolId][_schoolProjectId];\n    }\n  \n    // return random[0,n)\n    function random(uint256 n) view returns(uint256) {\n        return uint(sha256(now, msg.sender))%n;\n    }\n\n    function strEqual(string strA, string strB) returns(bool) {\n        bytes memory byteA = bytes(strA);\n        bytes memory byteB = bytes(strB);\n        if (byteA.length != byteB.length) {\n            return false;\n        }else {\n            for (uint256 i=0; i < byteA.length; i++){\n                if (byteA[i] != byteB[i]) {\n                    return false;\n                }\n            }\n        }\n        return true;\n    }\n\n  // from safemath.sol\n  /**\n  * @dev Multiplies two numbers, throws on overflow.\n  */\n  function mul(uint256 a, uint256 b) internal pure returns (uint256 c) {\n    if (a == 0) {\n      return 0;\n    }\n\n    c = a * b;\n    assert(c / a == b);\n    return c;\n  }\n\n  /**\n  * @dev Integer division of two numbers, truncating the quotient.\n  */\n  function div(uint256 a, uint256 b) internal pure returns (uint256) {\n    // assert(b > 0); // Solidity automatically throws when dividing by 0\n    // uint256 c = a / b;\n    // assert(a == b * c + a % b); // There is no case in which this doesn't hold\n    return a / b;\n  }\n\n  /**\n  * @dev Subtracts two numbers, throws on overflow (i.e. if subtrahend is greater than minuend).\n  */\n  function sub(uint256 a, uint256 b) internal pure returns (uint256) {\n    assert(b <= a);\n    return a - b;\n  }\n\n  /**\n  * @dev Adds two numbers, throws on overflow.\n  */\n  function add(uint256 a, uint256 b) internal pure returns (uint256 c) {\n    c = a + b;\n    assert(c >= a);\n    return c;\n  }\n}\n",
  "sourcePath": "/Users/zhangjun/Desktop/xiaolaoshi/thunder/truffle/contracts/Main.sol",
  "compiler": {
    "name": "solc",
    "version": "0.4.24+commit.e67f0147.Emscripten.clang"
  },
  "schemaVersion": "2.0.0",
  "updatedAt": "2018-06-14T17:27:40.173Z"
}