{
  "contractName": "Data",
  "abi": [
    {
      "inputs": [],
      "payable": false,
      "stateMutability": "nonpayable",
      "type": "constructor"
    },
    {
      "constant": true,
      "inputs": [],
      "name": "getDataItemCount",
      "outputs": [
        {
          "name": "",
          "type": "uint256"
        }
      ],
      "payable": false,
      "stateMutability": "view",
      "type": "function"
    },
    {
      "constant": true,
      "inputs": [
        {
          "name": "_dataItemId",
          "type": "uint256"
        }
      ],
      "name": "getDataDetailById",
      "outputs": [
        {
          "name": "",
          "type": "uint256"
        },
        {
          "name": "",
          "type": "address"
        },
        {
          "name": "",
          "type": "bytes32"
        },
        {
          "name": "",
          "type": "uint256"
        },
        {
          "name": "",
          "type": "uint256"
        },
        {
          "name": "",
          "type": "uint256"
        },
        {
          "name": "",
          "type": "bool"
        },
        {
          "name": "",
          "type": "bytes32"
        },
        {
          "name": "",
          "type": "bytes32"
        }
      ],
      "payable": false,
      "stateMutability": "view",
      "type": "function"
    },
    {
      "constant": true,
      "inputs": [],
      "name": "getDataRecordCount",
      "outputs": [
        {
          "name": "",
          "type": "uint256"
        }
      ],
      "payable": false,
      "stateMutability": "view",
      "type": "function"
    },
    {
      "constant": true,
      "inputs": [
        {
          "name": "_dataRecordId",
          "type": "uint256"
        }
      ],
      "name": "getDataRecordById",
      "outputs": [
        {
          "name": "",
          "type": "uint256"
        },
        {
          "name": "",
          "type": "uint256"
        },
        {
          "name": "",
          "type": "address"
        },
        {
          "name": "",
          "type": "uint256"
        }
      ],
      "payable": false,
      "stateMutability": "view",
      "type": "function"
    },
    {
      "constant": false,
      "inputs": [
        {
          "name": "_userAddress",
          "type": "address"
        },
        {
          "name": "_userName",
          "type": "bytes32"
        },
        {
          "name": "_iconUrl",
          "type": "bytes32"
        }
      ],
      "name": "addUser",
      "outputs": [],
      "payable": false,
      "stateMutability": "nonpayable",
      "type": "function"
    },
    {
      "constant": true,
      "inputs": [],
      "name": "getUserCount",
      "outputs": [
        {
          "name": "",
          "type": "uint256"
        }
      ],
      "payable": false,
      "stateMutability": "view",
      "type": "function"
    },
    {
      "constant": true,
      "inputs": [
        {
          "name": "_userId",
          "type": "uint256"
        }
      ],
      "name": "getUserById",
      "outputs": [
        {
          "name": "",
          "type": "uint256"
        },
        {
          "name": "",
          "type": "address"
        },
        {
          "name": "",
          "type": "uint256"
        },
        {
          "name": "",
          "type": "uint256"
        },
        {
          "name": "",
          "type": "uint256"
        },
        {
          "name": "",
          "type": "bytes32"
        },
        {
          "name": "",
          "type": "bytes32"
        }
      ],
      "payable": false,
      "stateMutability": "view",
      "type": "function"
    },
    {
      "constant": true,
      "inputs": [
        {
          "name": "_userAddress",
          "type": "address"
        }
      ],
      "name": "getUserByAddress",
      "outputs": [
        {
          "name": "",
          "type": "uint256"
        },
        {
          "name": "",
          "type": "address"
        },
        {
          "name": "",
          "type": "uint256"
        },
        {
          "name": "",
          "type": "uint256"
        },
        {
          "name": "",
          "type": "uint256"
        },
        {
          "name": "",
          "type": "bytes32"
        },
        {
          "name": "",
          "type": "bytes32"
        }
      ],
      "payable": false,
      "stateMutability": "view",
      "type": "function"
    },
    {
      "constant": true,
      "inputs": [
        {
          "name": "_userId",
          "type": "uint256"
        }
      ],
      "name": "getUserDownloadCount",
      "outputs": [
        {
          "name": "",
          "type": "uint256"
        }
      ],
      "payable": false,
      "stateMutability": "view",
      "type": "function"
    },
    {
      "constant": true,
      "inputs": [
        {
          "name": "_userId",
          "type": "uint256"
        },
        {
          "name": "_recordIndex",
          "type": "uint256"
        }
      ],
      "name": "getUserDownloadRecord",
      "outputs": [
        {
          "name": "",
          "type": "uint256"
        },
        {
          "name": "",
          "type": "uint256"
        },
        {
          "name": "",
          "type": "address"
        },
        {
          "name": "",
          "type": "uint256"
        }
      ],
      "payable": false,
      "stateMutability": "view",
      "type": "function"
    },
    {
      "constant": true,
      "inputs": [
        {
          "name": "_userId",
          "type": "uint256"
        }
      ],
      "name": "getUserUploadCount",
      "outputs": [
        {
          "name": "",
          "type": "uint256"
        }
      ],
      "payable": false,
      "stateMutability": "view",
      "type": "function"
    },
    {
      "constant": true,
      "inputs": [
        {
          "name": "_userId",
          "type": "uint256"
        },
        {
          "name": "_recordIndex",
          "type": "uint256"
        }
      ],
      "name": "getUserUploadRecord",
      "outputs": [
        {
          "name": "",
          "type": "uint256"
        },
        {
          "name": "",
          "type": "address"
        },
        {
          "name": "",
          "type": "bytes32"
        },
        {
          "name": "",
          "type": "uint256"
        },
        {
          "name": "",
          "type": "uint256"
        },
        {
          "name": "",
          "type": "uint256"
        },
        {
          "name": "",
          "type": "bool"
        }
      ],
      "payable": false,
      "stateMutability": "view",
      "type": "function"
    },
    {
      "constant": false,
      "inputs": [
        {
          "name": "_dataItemId",
          "type": "uint256"
        }
      ],
      "name": "soldOutData",
      "outputs": [],
      "payable": false,
      "stateMutability": "nonpayable",
      "type": "function"
    },
    {
      "constant": false,
      "inputs": [
        {
          "name": "_providerAddress",
          "type": "address"
        },
        {
          "name": "_price",
          "type": "uint256"
        },
        {
          "name": "_name",
          "type": "bytes32"
        },
        {
          "name": "_format",
          "type": "bytes32"
        },
        {
          "name": "_description",
          "type": "bytes32"
        }
      ],
      "name": "uploadData",
      "outputs": [],
      "payable": false,
      "stateMutability": "nonpayable",
      "type": "function"
    },
    {
      "constant": false,
      "inputs": [
        {
          "name": "_dataItemId",
          "type": "uint256"
        },
        {
          "name": "_userAddress",
          "type": "address"
        }
      ],
      "name": "downloadData",
      "outputs": [],
      "payable": false,
      "stateMutability": "nonpayable",
      "type": "function"
    },
    {
      "constant": true,
      "inputs": [
        {
          "name": "_dataItemId",
          "type": "uint256"
        },
        {
          "name": "_userAddress",
          "type": "address"
        }
      ],
      "name": "hasAuthorization",
      "outputs": [
        {
          "name": "",
          "type": "uint256"
        }
      ],
      "payable": false,
      "stateMutability": "view",
      "type": "function"
    }
  ],
  "bytecode": "0x606060405234156200001057600080fd5b600080546001810162000024838262000870565b91600052602060002090600902016000610120604051908101604090815260008054600101835260008051602062001ac783398151915260208401527fe6b798e5ae9de4baa4e69893e8aeb0e5bd9500000000000000000000000000009183019190915260608201819052426080830152606460a083015260c08201527f4a534f4e0000000000000000000000000000000000000000000000000000000060e08201527f6461746100000000000000000000000000000000000000000000000000000000610100820152919050815181556020820151600182018054600160a060020a031916600160a060020a039290921691909117905560408201516002820155606082015181600301556080820151816004015560a0820151816005015560c082015160068201805460ff191691151591909117905560e082015160078201556101008201516008909101555050600080546001810162000188838262000870565b91600052602060002090600902016000610120604051908101604090815260008054600101835260008051602062001ac783398151915260208401527fe5beaee4bfa1e4b8aae4babae8b584e6969900000000000000000000000000009183019190915260608201819052426080830152603260a083015260c08201527f4a534f4e0000000000000000000000000000000000000000000000000000000060e08201527f6461746100000000000000000000000000000000000000000000000000000000610100820152919050815181556020820151600182018054600160a060020a031916600160a060020a039290921691909117905560408201516002820155606082015181600301556080820151816004015560a0820151816005015560c082015160068201805460ff191691151591909117905560e0820151600782015561010082015160089091015550506000805460018101620002ec838262000870565b91600052602060002090600902016000610120604051908101604090815260008054600101835260008051602062001ac783398151915260208401527fe5beaee4bfa1e8818ae5a4a9e585b3e994aee8af8d000000000000000000000091830191909152606082018190524260808301526101f460a083015260c08201527f53514c697465000000000000000000000000000000000000000000000000000060e08201527f6461746100000000000000000000000000000000000000000000000000000000610100820152919050815181556020820151600182018054600160a060020a031916600160a060020a039290921691909117905560408201516002820155606082015181600301556080820151816004015560a0820151816005015560c082015160068201805460ff191691151591909117905560e082015160078201556101008201516008909101555050600080546001810162000451838262000870565b91600052602060002090600902016000610120604051908101604090815260008054600101835260008051602062001ac783398151915260208401527fe5beaee58d9ae585b3e6b3a8e58897e8a1a800000000000000000000000000009183019190915260608201819052426080830152607860a083015260c08201527f747874000000000000000000000000000000000000000000000000000000000060e08201527f6461746100000000000000000000000000000000000000000000000000000000610100820152919050815181556020820151600182018054600160a060020a031916600160a060020a039290921691909117905560408201516002820155606082015181600301556080820151816004015560a0820151816005015560c082015160068201805460ff191691151591909117905560e0820151600782015561010082015160089091015550506000805460018101620005b5838262000870565b91600052602060002090600902016000610120604051908101604090815260008054600101835260008051602062001ac783398151915260208401527f4c696e6b6564496ee8818ce4b89a0000000000000000000000000000000000009183019190915260608201819052426080830152605860a083015260c08201527f4a534f4e0000000000000000000000000000000000000000000000000000000060e08201527f6461746100000000000000000000000000000000000000000000000000000000610100820152919050815181556020820151600182018054600160a060020a031916600160a060020a039290921691909117905560408201516002820155606082015181600301556080820151816004015560a0820151816005015560c082015160068201805460ff191691151591909117905560e082015160078201556101008201516008909101555050600080546001810162000719838262000870565b91600052602060002090600902016000610120604051908101604090815260008054600101835260008051602062001ac783398151915260208401527fe5a4b4e69da1e6b58fe8a788e8aeb0e5bd9500000000000000000000000000009183019190915260608201819052426080830152600560a083015260c08201527f53514c697465000000000000000000000000000000000000000000000000000060e08201527f6461746100000000000000000000000000000000000000000000000000000000610100820152919050815181556020820151600182018054600160a060020a031916600160a060020a039290921691909117905560408201516002820155606082015181600301556080820151816004015560a0820151816005015560c082015160068201805460ff191691151591909117905560e08201516007820155610100820151600890910155506200090f9050565b8154818355818115116200089f576009028160090283600052602060002091820191016200089f9190620008a4565b505050565b6200090c91905b8082111562000908576000808255600182018054600160a060020a03191690556002820181905560038201819055600482018190556005820181905560068201805460ff19169055600782018190556008820155600901620008ab565b5090565b90565b6111a8806200091f6000396000f3006060604052600436106100e55763ffffffff7c0100000000000000000000000000000000000000000000000000000000600035041663148c014081146100ea5780633bcf9486146101175780635d412c0e146101845780635fa21619146101e35780636324e0131461020b57806369c212f61461021e5780636ba6a735146102835780636ed6da9e146102a5578063910112bb146102bb5780639bdf6392146102e0578063a53c575514610336578063b5cb15f71461034c578063b812cd631461035f578063d87794b114610372578063de781ff014610388578063e39fb4ca146103aa575b600080fd5b34156100f557600080fd5b610115600160a060020a03600435166024356044356064356084356103c0565b005b341561012257600080fd5b61012d600435610553565b604051988952600160a060020a0390971660208901526040808901969096526060880194909452608087019290925260a0860152151560c085015260e0840152610100830191909152610120909101905180910390f35b341561018f57600080fd5b61019d600435602435610611565b604051968752600160a060020a0390951660208701526040808701949094526060860192909252608085015260a084015290151560c083015260e0909101905180910390f35b34156101ee57600080fd5b6101f9600435610714565b60405190815260200160405180910390f35b341561021657600080fd5b6101f961075c565b341561022957600080fd5b61023d600160a060020a0360043516610763565b604051968752600160a060020a0390951660208701526040808701949094526060860192909252608085015260a084015260c083019190915260e0909101905180910390f35b341561028e57600080fd5b6101f9600435600160a060020a03602435166107cc565b34156102b057600080fd5b61023d60043561090b565b34156102c657600080fd5b610115600160a060020a036004351660243560443561099b565b34156102eb57600080fd5b6102f9600435602435610b90565b6040518085815260200184815260200183600160a060020a0316600160a060020a0316815260200182815260200194505050505060405180910390f35b341561034157600080fd5b6101f9600435610c71565b341561035757600080fd5b6101f9610cb9565b341561036a57600080fd5b6101f9610cbf565b341561037d57600080fd5b6102f9600435610cc5565b341561039357600080fd5b610115600435600160a060020a0360243516610d1a565b34156103b557600080fd5b610115600435610ec3565b600080546001810191908190836103d78382610f43565b916000526020600020906009020160006101206040519081016040908152868252600160a060020a038c166020830152810189905260006060820181905242608083015260a082018b905260c082015260e081018890526101008101879052919050815181556020820151600182018054600160a060020a031916600160a060020a039290921691909117905560408201516002820155606082015181600301556080820151816004015560a0820151816005015560c082015160068201805460ff191691151591909117905560e08201516007820155610100820151600890910155505050600160a060020a038616600090815260036020526040902054600280546001919060001984019081106104ec57fe5b600091825260209091206002600990920201810180549092019091558054600019830190811061051857fe5b9060005260206000209060090201600601805480600101828161053b9190610f74565b50600091825260209091200191909155505050505050565b6000806000806000806000806000806000805490508b11158015610577575060008b115b151561058257600080fd5b600080546000198d0190811061059457fe5b9060005260206000209060090201905080600001548160010160009054906101000a9004600160a060020a031682600201548360030154846004015485600501548660060160009054906101000a900460ff1687600701548860080154995099509950995099509950995099509950509193959799909294969850565b60008060008060008060008060006002805490508b11158015610634575060008b115b80156106625750600280548c90811061064957fe5b9060005260206000209060090201600601805490508a11155b151561066d57600080fd5b600280548c90811061067b57fe5b906000526020600020906009020160060160018b0381548110151561069c57fe5b60009182526020822001548154909350839081106106b657fe5b600091825260209091206009909102018054600182015460028301546003840154600485015460058601546006870154959f50600160a060020a039094169d50919b5099509750955060ff1693509050505092959891949750929550565b60025460009082118015906107295750600082115b151561073457600080fd5b600280548390811061074257fe5b600091825260209091206006600990920201015492915050565b6001545b90565b600160a060020a038116600090815260036020526040812054819081908190819081908190151561079357600080fd5b600160a060020a0388166000908152600360205260409020546107b59061090b565b959e949d50929b5090995097509550909350915050565b600160a060020a038116600090815260036020526040812054815482919082908611156107fc57600092506108ae565b5060005b6001548110156108a95784600160a060020a031660018281548110151561082357fe5b6000918252602090912060026004909202010154600160a060020a031614801561086c57508560018281548110151561085857fe5b906000526020600020906004020160010154145b801561089757504260018281548110151561088357fe5b906000526020600020906004020160030154115b156108a157600292505b600101610800565b600392505b6000805460001988019081106108c057fe5b9060005260206000209060090201600501546002600184038154811015156108e457fe5b906000526020600020906009020160040154101561090157600192505b5090949350505050565b600080600080600080600080600280549050891115801561092c5750600089115b151561093757600080fd5b600280546000198b0190811061094957fe5b60009182526020909120600990910201805460018201546002830154600384015460048501546007860154600890960154949f600160a060020a039094169e50919c509a509850919650945092505050565b600160a060020a038316600090815260036020526040812054819081901515610b88575060028054600181019190826109d48382610f98565b91600052602060002090600902016000610120604051908101604052808581526020018a600160a060020a031681526020016000815260200160008152602001620186a0815260200187805480602002602001604051908101604052809291908181526020018280548015610a6857602002820191906000526020600020905b815481526020019060010190808311610a54575b5050505050815260200186805480602002602001604051908101604052809291908181526020018280548015610abd57602002820191906000526020600020905b815481526020019060010190808311610aa9575b5050509183525050602081018a9052604001889052919050815181556020820151600182018054600160a060020a031916600160a060020a039290921691909117905560408201518160020155606082015181600301556080820151816004015560a082015181600501908051610b38929160200190610fc4565b5060c082015181600601908051610b53929160200190610fc4565b5060e082015160078201556101008201516008909101555050600160a060020a03861660009081526003602052604090208190555b505050505050565b6000806000806000806002805490508811158015610bae5750600088115b8015610bdc57506002805489908110610bc357fe5b9060005260206000209060090201600501805490508711155b1515610be757600080fd5b6002805489908110610bf557fe5b906000526020600020906009020160050160018803815481101515610c1657fe5b9060005260206000209001549150600182815481101515610c3357fe5b60009182526020909120600490910201805460018201546002830154600390930154919b909a50600160a060020a0390921698509650945050505050565b6002546000908211801590610c865750600082115b1515610c9157600080fd5b6002805483908110610c9f57fe5b600091825260209091206005600990920201015492915050565b60025490565b60005490565b60008060008060006001808703815481101515610cde57fe5b600091825260209091206004909102018054600182015460028301546003909301549199909850600160a060020a039092169650945092505050565b600160a060020a03811660009081526003602052604090205460028054600191906000198401908110610d4957fe5b600091825260208220600360099092020101805490920190915580546000198501908110610d7357fe5b906000526020600020906009020160050154600260018303815481101515610d9757fe5b600091825260209091206004600990920201018054919091039055600280546000198301908110610dc457fe5b90600052602060002090600902016005018054806001018281610de79190610f74565b50600091825260208220018490558054600191906000198601908110610e0957fe5b600091825260209091206003600990920201018054909101905560018054808201610e34838261100f565b91600052602060002090600402016000608060405190810160409081526001805401825260208201889052600160a060020a038716908201526301e133804201606082015291905081518155602082015181600101556040820151600282018054600160a060020a031916600160a060020a039290921691909117905560608201518160030155505050505050565b600080543391600160a060020a038316916000198501908110610ee257fe5b6000918252602090912060016009909202010154600160a060020a031614610f0957600080fd5b6001600060018403815481101515610f1d57fe5b60009182526020909120600990910201600601805460ff19169115159190911790555050565b815481835581811511610f6f57600902816009028360005260206000209182019101610f6f919061103b565b505050565b815481835581811511610f6f57600083815260209020610f6f91810190830161109c565b815481835581811511610f6f57600902816009028360005260206000209182019101610f6f91906110b6565b828054828255906000526020600020908101928215610fff579160200282015b82811115610fff578251825591602001919060010190610fe4565b5061100b92915061109c565b5090565b815481835581811511610f6f57600402816004028360005260206000209182019101610f6f9190611122565b61076091905b8082111561100b576000808255600182018054600160a060020a03191690556002820181905560038201819055600482018190556005820181905560068201805460ff19169055600782018190556008820155600901611041565b61076091905b8082111561100b57600081556001016110a2565b61076091905b8082111561100b576000808255600182018054600160a060020a03191690556002820181905560038201819055600482018190556110fd600583018261115b565b61110b60068301600061115b565b5060006007820181905560088201556009016110bc565b61076091905b8082111561100b57600080825560018201819055600282018054600160a060020a03191690556003820155600401611128565b5080546000825590600052602060002090810190611179919061109c565b505600a165627a7a72305820c30754e72f0c2a3f7fd7f13866cf1cf8098afa1ed169b8c86896710ccf6a07950029000000000000000000000000dd194f8ff51ac9cc39fba4fc0e0a0c336fdd2426",
  "source": "pragma solidity ^0.4.16;\n\n\ncontract Data {\n    DataItem[] dataItemList;\n    Deal[] dealList;\n    User[] userList;\n    mapping(address => uint) userMap;// address => userId\n    //所有Id从1开始编码。也就是id=数组索引+1\n\n    struct DataItem {\n        uint dataItemId;//编号\n        address providerAddress;//提供者地址\n        bytes32 name;//\n        uint downLoadCount;//下载数据的数量\n        uint upLoadTime;//发布时间\n        uint price;//价格\n        bool soldOut;//是否下架\n        bytes32 format;\n        bytes32 description;\n    }\n\n    struct Deal {\n        uint dealId;//交易Id\n        uint dataItemId;//data 编号\n        address buyerAddress;//购买者\n        uint expiredTime;//有效期，ddl的时间戳\n    }\n\n    struct User {\n        uint userId;\n        address userAddress;//地址\n        uint upLoadCount;//上传数据的数量\n        uint downLoadCount;//下载数据的数量\n        uint balance;//账户余额\n        uint[] userDownloadRecord;//下载记录\n        uint[] userUploadRecord;//上传记录\n        bytes32 userName;\n        bytes32 iconUrl;\n    }\n\n    function Data() {\n        dataItemList.push(DataItem(dataItemList.length+1, address(0xDD194F8ff51ac9CC39fBA4fc0E0a0c336fDD2426), \"淘宝交易记录\", 0, now, 100, false, \"JSON\", \"data\"));\n        dataItemList.push(DataItem(dataItemList.length+1, address(0xDD194F8ff51ac9CC39fBA4fc0E0a0c336fDD2426), \"微信个人资料\", 0, now, 50, false, \"JSON\", \"data\"));\n        dataItemList.push(DataItem(dataItemList.length+1, address(0xDD194F8ff51ac9CC39fBA4fc0E0a0c336fDD2426), \"微信聊天关键词\", 0, now, 500, false, \"SQLite\", \"data\"));\n        dataItemList.push(DataItem(dataItemList.length+1, address(0xDD194F8ff51ac9CC39fBA4fc0E0a0c336fDD2426), \"微博关注列表\", 0, now, 120, false, \"txt\", \"data\"));\n        dataItemList.push(DataItem(dataItemList.length+1, address(0xDD194F8ff51ac9CC39fBA4fc0E0a0c336fDD2426), \"LinkedIn职业\", 0, now, 88, false, \"JSON\", \"data\"));\n        dataItemList.push(DataItem(dataItemList.length+1, address(0xDD194F8ff51ac9CC39fBA4fc0E0a0c336fDD2426), \"头条浏览记录\", 0, now, 5, false, \"SQLite\", \"data\")); \n    }\n    // 获取数据条数\n    function getDataItemCount() view returns(uint) {\n        return dataItemList.length;\n    }\n\n    //根据数据Id获取数据，每次获取一条\n    function getDataDetailById(uint _dataItemId) view returns(uint, address, bytes32, uint, uint, uint, bool, bytes32, bytes32) {\n        require(_dataItemId <= dataItemList.length&&_dataItemId > 0);\n        DataItem dataItem = dataItemList[_dataItemId-1];\n        return (dataItem.dataItemId, dataItem.providerAddress, \n        dataItem.name, dataItem.downLoadCount, dataItem.upLoadTime, dataItem.price, dataItem.soldOut, dataItem.format, dataItem.description);\n    }\n\n    //获取交易记录条数\n    function getDataRecordCount() view returns(uint) {\n        return dealList.length;\n    }\n\n    //根据交易Id获取交易记录，每次获取一条\n    function getDataRecordById(uint _dataRecordId) view returns(uint, uint, address, uint) {\n        Deal deal = dealList[_dataRecordId-1];\n        return (deal.dealId, deal.dataItemId, deal.buyerAddress, deal.expiredTime);\n    }\n\n    //添加用户\n    function addUser(address _userAddress, bytes32 _userName, bytes32 _iconUrl) {\n      \n        if (userMap[_userAddress] == 0) {\n\n            uint[] myDownloadRecord;\n            uint[] myUploadRecord;\n            uint userId = userList.length+1;\n            userList.push(User(userId, _userAddress, 0, 0, 100000, myDownloadRecord, myUploadRecord, _userName, _iconUrl));\n            userMap[_userAddress] = userId;\n        }\n    }\n\n    //获取用户数量\n    function getUserCount() view returns(uint) {\n        return userList.length;\n    }\n\n    //根据用户Id获取用户数据，每次获取一条\n    function getUserById(uint _userId) view returns(uint, address, uint, uint, uint, bytes32, bytes32) {\n        require(_userId <= userList.length&&_userId > 0);\n        User user = userList[_userId-1];\n        return (user.userId, user.userAddress, user.upLoadCount, user.downLoadCount, user.balance, user.userName, user.iconUrl);\n    }\n\n    //根据用户address获取用户数据，每次获取一条\n    function getUserByAddress(address _userAddress) view returns(uint, address, uint, uint, uint, bytes32, bytes32) {\n        require(userMap[_userAddress] != 0);\n        return getUserById(userMap[_userAddress]);\n    }\n\n    //获取用户下载数量\n    function getUserDownloadCount(uint _userId) view returns(uint) {\n        require(_userId <= userList.length&&_userId > 0);\n        return userList[_userId].userDownloadRecord.length;  \n    }\n\n    //根据用户Id获取下载记录\n    function getUserDownloadRecord(uint _userId, uint _recordIndex) view returns(uint, uint, address, uint) {\n        require((_userId <= userList.length&&_userId > 0)&&\n        (_recordIndex <= userList[_userId].userDownloadRecord.length));\n        uint recordId = userList[_userId].userDownloadRecord[_recordIndex-1];\n        Deal record = dealList[recordId];\n        return (record.dealId, record.dataItemId, record.buyerAddress, record.expiredTime);\n    }\n\n    //获取用户上传数量\n    function getUserUploadCount(uint _userId) view returns(uint) {\n        require(_userId <= userList.length&&_userId > 0);\n        return userList[_userId].userUploadRecord.length;  \n         \n    }\n\n    //根据用户Id获取上传记录\n    function getUserUploadRecord(uint _userId, uint _recordIndex) view returns(uint, address, bytes32, uint, uint, uint, bool) {\n        require((_userId <= userList.length&&_userId > 0)&&\n        (_recordIndex <= userList[_userId].userUploadRecord.length));\n        uint dataItemId = userList[_userId].userUploadRecord[_recordIndex-1];\n        DataItem dataItem = dataItemList[dataItemId];\n        return (dataItem.dataItemId, dataItem.providerAddress, dataItem.name, \n        dataItem.downLoadCount\n        , dataItem.upLoadTime, dataItem.price, dataItem.soldOut);\n    }\n\n    //令数据下架\n    function soldOutData(uint _dataItemId) {\n        address _providerAddress = msg.sender;\n        require(dataItemList[_dataItemId-1].providerAddress == _providerAddress);\n        dataItemList[_dataItemId-1].soldOut = true;\n    }\n\n    //上传数据\n    function uploadData(address _providerAddress, uint _price, bytes32 _name, bytes32 _format, bytes32 _description) {\n        uint dataItemId = dataItemList.length+1;\n        dataItemList.push(DataItem(dataItemId, _providerAddress, _name, 0, now, _price, false, _format, _description));\n        uint userId = userMap[_providerAddress];\n        userList[userId-1].upLoadCount += 1;\n        userList[userId-1].userUploadRecord.push(dataItemId);\n    }\n\n    //下载数据\n    function downloadData( uint _dataItemId, address _userAddress) {\n        uint userId = userMap[_userAddress];\n        userList[userId-1].downLoadCount += 1;\n        userList[userId-1].balance -= dataItemList[_dataItemId-1].price;\n        userList[userId-1].userDownloadRecord.push(_dataItemId);\n        dataItemList[_dataItemId-1].downLoadCount += 1;\n        dealList.push(Deal(dealList.length+1, _dataItemId, _userAddress, now+31536000));\n    }\n\n    //检查是否授权\n    function hasAuthorization( uint _dataItemId, address _userAddress) view returns(uint) {\n        uint res;\n        uint userId = userMap[_userAddress];\n        if (_dataItemId > dataItemList.length) {\n            res = 0;//数据不存在\n        }else {\n            for (uint i =0; i < dealList.length; i++) {\n                if (dealList[i].buyerAddress == _userAddress &&\n                    dealList[i].dataItemId == _dataItemId && dealList[i].expiredTime > now) {\n                    res = 2;//已经买了,已授权\n                }\n            }\n            res = 3;//未授权\n        }\n        if (userList[userId-1].balance < dataItemList[_dataItemId-1].price) {\n            res = 1;// \"余额不足\";\n        }\n        return res;\n    }\n\n    // //初始化数据\n    // function createData() {\n    //     string[6] memory nameArr = [\"淘宝交易记录\", \"微信个人资料\", \"微信聊天关键词\", \"微博关注列表\", \"LinkedIn职业\", \"头条浏览记录\"];\n    //     uint256[6] memory priceArr = [uint256(15), uint256(20), uint256(43), uint256(67), uint256(87), uint256(34)];\n    //     string[6] memory formatArr = [\"rar\", \"rar\", \"rar\", \"rar\", \"rar\", \"rar\"];\n    //     string[6] memory descriptionArr = [\"data\", \"data\", \"data\", \"data\", \"data\", \"data\"];\n    //     for (uint i = 0; i < 6; i++) {\n    //         uploadData(address(0xDD194F8ff51ac9CC39fBA4fc0E0a0c336fDD2426), priceArr[i], str2Bytes32(nameArr[i]), str2Bytes32(formatArr[i]), str2Bytes32(descriptionArr[i]));\n    //     }\n    // }\n\n    // function str2Bytes32(string memory source) returns (bytes32 result) {\n    //     assembly {\n    //         result := mload(add(result, 32))\n    //     }\n    // }\n    \n\n} ",
  "sourcePath": "/home/hk-journalist/work/code/MiCang/truffle/contracts/Data.sol",
  "compiler": {
    "name": "solc",
    "version": "0.4.19+commit.c4cbbb05.Emscripten.clang"
  },
  "schemaVersion": "2.0.0",
  "updatedAt": "2018-04-16T10:46:40.066Z"
}