{
  "contractName": "ItemFactory",
  "abi": [
    {
      "constant": true,
      "inputs": [
        {
          "name": "",
          "type": "uint256"
        }
      ],
      "name": "users",
      "outputs": [
        {
          "name": "name",
          "type": "address"
        },
        {
          "name": "level",
          "type": "uint32"
        },
        {
          "name": "flag",
          "type": "uint256"
        },
        {
          "name": "id",
          "type": "uint256"
        }
      ],
      "payable": false,
      "stateMutability": "view",
      "type": "function"
    },
    {
      "constant": false,
      "inputs": [
        {
          "name": "_itemid",
          "type": "uint256"
        },
        {
          "name": "_commentTxt",
          "type": "string"
        }
      ],
      "name": "_writeComment",
      "outputs": [],
      "payable": false,
      "stateMutability": "nonpayable",
      "type": "function"
    },
    {
      "constant": true,
      "inputs": [
        {
          "name": "_itemid",
          "type": "uint32"
        }
      ],
      "name": "_readComment",
      "outputs": [
        {
          "name": "",
          "type": "uint256"
        }
      ],
      "payable": false,
      "stateMutability": "view",
      "type": "function"
    }
  ],
  "bytecode": "0x6060604052341561000f57600080fd5b6109638061001e6000396000f3006060604052600436106100565763ffffffff7c0100000000000000000000000000000000000000000000000000000000600035041663288e54c2811461005b578063365b98b2146100b357806399d9504414610104575b600080fd5b341561006657600080fd5b6100b1600480359060446024803590810190830135806020601f8201819004810201604051908101604052818152929190602084018383808284375094965061013295505050505050565b005b34156100be57600080fd5b6100c9600435610366565b604051600160a060020a03909416845263ffffffff909216602084015260408084019190915260608301919091526080909101905180910390f35b341561010f57600080fd5b61012063ffffffff600435166103c1565b60405190815260200160405180910390f35b600160a060020a03331660009081526003602052604081206001908101541461015e5761015e33610416565b60008381526004602052604090206001908101541415610266576000838152600460205260409020805460018101610196838261061c565b916000526020600020906003020160006080604051908101604090815286825260016020830181905290820152600160a060020a03331660608201529190508151819080516101e9929160200190610648565b5060208201518160010155604082015160028201805460ff191660ff92909216919091179055606082015160029091018054600160a060020a03929092166101000274ffffffffffffffffffffffffffffffffffffffff001990921691909117905550506000838152600460205260409020600190810155610361565b8054819060018101610278838261061c565b916000526020600020906003020160006080604051908101604090815286825260016020830181905290820152600160a060020a03331660608201529190508151819080516102cb929160200190610648565b5060208201518160010155604082015160028201805460ff191660ff92909216919091179055606082015160029091018054600160a060020a03929092166101000274ffffffffffffffffffffffffffffffffffffffff001990921691909117905550506000838152600460205260409020815461034b919083906106c6565b5060008381526004602052604090206001908101555b505050565b600080548290811061037457fe5b6000918252602090912060039091020180546001820154600290920154600160a060020a03821693507401000000000000000000000000000000000000000090910463ffffffff16919084565b60006103cb610793565b63ffffffff8316600090815260046020526040902060019081015414156104095763ffffffff83166000908152600460205260409020549150610410565b620186a091505b50919050565b600060016000805480600101828161042e91906107a5565b9160005260206000209060030201600060806040519081016040908152600160a060020a038816825260016020830181905290820152600060608201529190508151815473ffffffffffffffffffffffffffffffffffffffff1916600160a060020a03919091161781556020820151815463ffffffff91909116740100000000000000000000000000000000000000000277ffffffff000000000000000000000000000000000000000019909116178155604082015181600101556060820151816002015550500390508060008281548110151561050857fe5b60009182526020808320600392909202909101600201929092558281526001909152604090819020805473ffffffffffffffffffffffffffffffffffffffff191633600160a060020a0316179055608090519081016040908152600160a060020a038416808352600160208085018290528385019190915260608401859052600091825260039052208151815473ffffffffffffffffffffffffffffffffffffffff1916600160a060020a03919091161781556020820151815463ffffffff91909116740100000000000000000000000000000000000000000277ffffffff000000000000000000000000000000000000000019909116178155604082015181600101556060820151600290910155505050565b8154818355818115116103615760030281600302836000526020600020918201910161036191906107d1565b828054600181600116156101000203166002900490600052602060002090601f016020900481019282601f1061068957805160ff19168380011785556106b6565b828001600101855582156106b6579182015b828111156106b657825182559160200191906001019061069b565b506106c292915061081e565b5090565b8280548282559060005260206000209060030281019282156107875760005260206000209160030282015b828111156107875782548390839061071f908290849060026000196101006001841615020190911604610838565b50600182810154908201556002918201805492909101805460ff191660ff909316929092178083559054600160a060020a0361010091829004160274ffffffffffffffffffffffffffffffffffffffff001990911617905560039283019291909101906106f1565b506106c29291506107d1565b60206040519081016040526000815290565b8154818355818115116103615760030281600302836000526020600020918201910161036191906108ad565b61081b91905b808211156106c25760006107eb82826108f0565b506000600182015560028101805474ffffffffffffffffffffffffffffffffffffffffff191690556003016107d7565b90565b61081b91905b808211156106c25760008155600101610824565b828054600181600116156101000203166002900490600052602060002090601f016020900481019282601f1061087157805485556106b6565b828001600101855582156106b657600052602060002091601f016020900482015b828111156106b6578254825591600101919060010190610892565b61081b91905b808211156106c257805477ffffffffffffffffffffffffffffffffffffffffffffffff1916815560006001820181905560028201556003016108b3565b50805460018160011615610100020316600290046000825580601f106109165750610934565b601f016020900490600052602060002090810190610934919061081e565b505600a165627a7a723058203a9d9abcd88a1f9b3f710d7bb93684ddadc0a98106cf22c30214d5cec566daa90029",
  "source": "pragma solidity ^0.4.16;\n\ncontract ItemFactory  {\n    // uint dnaDigits = 16;\n    // uint dnaModulus = 10 ** dnaDigits;\n    // uint lookUpFee = 0.001 ether;\n\n    struct User {\n        //string name;\n        address name;\n        uint32 level;\n        uint flag;\n        uint id;\n    }\n\n    User[] public users;\n    mapping (uint => address) userid2address;\n    mapping (uint => uint[]) userid2Itemids;\n    mapping (address => User) username2user;\n\n    struct OneComment {\n        string text;\n        uint rating;\n        uint8 flag;\n        address useraddress;\n    }\n\n\n    struct Comments{\n        OneComment[]  comments;\n        uint flag;\n    }\n\n    mapping (uint => Comments) item2Comments;\n\n    function _createUser(address _username) internal {\n        uint id = users.push(User(_username, 1,1, 0)) - 1;\n        users[id].id = id;\n        userid2address[id] = msg.sender;\n        username2user[_username] = User(_username, 1, 1, id);\n\n    }\n\n\n    function _writeComment(uint _itemid, string _commentTxt) public {\n\n     if(username2user[msg.sender].flag != 1) {\n\n            _createUser(msg.sender);\n    }\n\n        // uint uid = username2user[msg.sender].id;\n        // require(msg.sender == userid2address[uid]);\n\n         if(item2Comments[_itemid].flag == 1) {\n            item2Comments[_itemid].comments.push(OneComment(_commentTxt, 1, 1, msg.sender));\n            item2Comments[_itemid].flag = 1;\n         }\n         else {\n            OneComment[] temp;\n            temp.push(OneComment(_commentTxt, 1, 1, msg.sender));\n            item2Comments[_itemid].comments = temp;\n            item2Comments[_itemid].flag = 1;\n        }\n        \n    }\n\n\n    function _readComment(uint32 _itemid) external view returns (uint) {\n        string memory allResult;\n        if(item2Comments[_itemid].flag == 1) {\n            return item2Comments[_itemid].comments.length;\n        }\n        else\n            return 100000;\n    }\n\n}\n",
  "sourcePath": "/home/hk-journalist/work/code/MiCang/truffle/contracts/ItemFactory.sol",
  "compiler": {
    "name": "solc",
    "version": "0.4.19+commit.c4cbbb05.Emscripten.clang"
  },
  "schemaVersion": "2.0.0",
  "updatedAt": "2018-04-15T16:19:37.236Z"
}